:020000040800F2
:10000000D896002039020008EF1D00080F1D0008D7
:10001000ED1D0008410900084D39000800000000EE
:10002000000000000000000000000000FF1D0008AC
:100030009509000800000000FD1D0008011E0008D1
:10004000530200085302000853020008530200083C
:10005000530200085302000853020008530200082C
:10006000530200085302000853020008530200081C
:10007000530200085302000853020008530200080C
:1000800053020008530200085302000853020008FC
:1000900053020008530200085302000853020008EC
:1000A00053020008530200085302000853020008DC
:1000B00053020008530200085302000853020008CC
:1000C00053020008530200085302000853020008BC
:1000D00053020008530200085302000853020008AC
:1000E000530200085302000853020008530200089C
:1000F000530200085302000853020008530200088C
:10010000530200085302000853020008530200087B
:10011000530200085302000853020008530200086B
:10012000530200085302000853020008530200085B
:10013000530200085302000853020008530200084B
:10014000530200085302000853020008F11D000882
:10015000530200085302000853020008530200082B
:10016000530200085302000853020008530200081B
:100170005302000853020008530200080000000068
:10018000530200085302000800F002F800F045F89E
:100190000AA090E8000C82448344AAF10107DA45E2
:1001A00001D100F03AF8AFF2090EBAE80F0013F0EF
:1001B000010F18BFFB1A43F001031847F038000085
:1001C00010390000103A24BF78C878C1FAD8520715
:1001D00024BF30C830C144BF04680C6070470000C1
:1001E0000023002400250026103A28BF78C1FBD840
:1001F000520728BF30C148BF0B607047732900F019
:10020000BE82002070471FB503F02EFC9DE803005E
:1002100000F050FA1FBD10B510BD00F0DBFA11461A
:10022000FFF7F1FF03F0A4FB00F0F9FA03B4FFF7C6
:10023000F2FF03BC00F02AFB094880470948004749
:10024000FEE7FEE7FEE7FEE7FEE7FEE7FEE7FEE786
:10025000FEE7FEE704480549054A064B70470000E3
:10026000991E000889010008D88E0020D896002029
:10027000D8920020D892002070B5064600F0FEF912
:10028000056806F10B0020F00704B4429CBF002073
:1002900070BD2B466A68BAB11068A04210D304F151
:1002A000080188423CBF5068586007D35168101954
:1002B00041601168091B016058601460101D70BD19
:1002C00013465268002AE7D12146284600F0DEF99D
:1002D0000028DED170BD70B50446051F00F0CEF9D0
:1002E0000068002C14BF446870BD002C18BFAC42DD
:1002F0003CBF20466468F8D301680A18AA4218BFB8
:10030000456003D12A6805461144016028684119F7
:10031000A1421CBF6C6070BD6168696021680844BF
:10032000286070BD53EA020C00F069802DE9F04BA3
:100330004FF00006002B1FBFB3FA83F503FA05F454
:1003400024FA05F65E4012BF1643B2FA82F502FAAD
:1003500005F4C5F120051EBF22FA05FC44EA0C0491
:10036000203556EA044C4FEA144418BF641C4FF081
:1003700000084FF00009904271EB030C39D30029BB
:1003800019BFB1FA81F701FA07F6B0FA80F700FA5F
:1003900007F6C7F120071EBF20FA07FC46EA0C0645
:1003A0002037B6FBF4FCA7EB0507103F07F01F0B47
:1003B000CBF120060CFA0BFB2CFA06F644BFB34631
:1003C0000026202FA4BF5E464FF0000B5BEA060C10
:1003D00008BF4FF0010B19EB0B09ABFB027C48EB9C
:1003E0000608C01B06FB02CC0BFB03CC71EB0C0117
:1003F000C1E70B46024641464846BDE8F08B13B5BF
:100400004FF000004FF00001AFF30080BDE81C404A
:10041000704700000FB41CB5074B06AA7B44694621
:100420000090059800F081F90020694600F090F9ED
:100430001CBC5DF814FB0000310300002DE9F04105
:100440000E460446002020622046E168884730B30B
:10045000252805D0D4E901219047206A401CF2E705
:10046000E168204600278847050018D0A5F1410023
:10047000192802D820354FF4006732462946204615
:100480002760FFF7BBFE40B1012804D0F61D26F01F
:1004900007060836D8E7361DD6E72846DAE7206A89
:1004A000BDE8F08170B50C460546012A05D02878D4
:1004B000800600D5EA69002302E0012305E05B1C09
:1004C000934202D2E05C0028F9D1A869E618C01A6C
:1004D000A861286A184428622846AFF3008004E027
:1004E000D5E9012114F8010B9047B442F8D328460E
:1004F000AFF3008070BD032A40F2308010F0030C8F
:1005000000F0158011F8013BBCF1020F624498BF66
:1005100011F801CB00F8013B38BF11F8013BA2F103
:10052000040298BF00F801CB38BF00F8013B11F07E
:10053000030300F02580083AC0F0088051F8043B1E
:10054000083A51F804CBA0E80810F5E7121D5CBF8B
:1005500051F8043B40F8043BAFF30080D20724BFBE
:1005600011F8013B11F801CB48BF11F8012B24BF52
:1005700000F8013B00F801CB48BF00F8012B7047A1
:1005800010B5203AC0F00B80B1E81850203AA0E82E
:100590001850B1E81850A0E81850BFF4F5AF5FEA62
:1005A000027C24BFB1E81850A0E8185044BF18C915
:1005B00018C0BDE810405FEA827C24BF51F8043BBC
:1005C00040F8043B08BF7047D20728BF31F8023B10
:1005D00048BF11F8012B28BF20F8023B48BF00F8A4
:1005E000012B70474FF000020429C0F0128010F078
:1005F000030C00F01B80CCF1040CBCF1020F18BFFF
:1006000000F8012BA8BF20F8022BA1EB0C0100F091
:100610000DB85FEAC17C24BF00F8012B00F8012B64
:1006200048BF00F8012B70474FF0000200B5134699
:1006300094469646203922BFA0E80C50A0E80C5002
:10064000B1F12001BFF4F7AF090728BFA0E80C50B3
:1006500048BF0CC05DF804EB890028BF40F8042BAC
:1006600008BF704748BF20F8022B11F0804F18BF19
:1006700000F8012B7047704770477047004870477B
:10068000808E0020704770477047704738B5044629
:100690000A4600206946AFF30080002808BF38BD35
:1006A00002460099204600F073F8012038BD012071
:1006B00000F088B8F8B5AFF30080054600200C467E
:1006C000102000BF0646A819A0420DD9324669463F
:1006D0000020AFF30080070008BF00F073F8009817
:1006E000A04218BF0546C419FFF7C8FF05600746BA
:1006F000F01D20F007004619284600F00AF8B44221
:1007000008BFF8BDA21B31463868BDE8F84000F0CC
:100710003FB800210160C0E9011070471020704708
:1007200001694A1C02610878704700B58FB0CDE9B5
:1007300001310021059105497944CDE903101146A5
:100740006846FFF77BFE0FB000BD0000E5FFFFFF2E
:100750000A6802F8010B0A60704710B5436913B1CB
:10076000AFF3008001E0FFF79DFE012010BD12787D
:1007700000F124010A7000224A700122EDE711689D
:100780004FF0FF32E9E7000000487047788E002004
:10079000034640688C46002818BF88423CBF034689
:1007A0004068F8D318681844884207D00CF1030059
:1007B00020F00700001D411A521A0146081D0A6068
:1007C000FFF789BD10B500F039F8BDE8104000F022
:1007D0002FB870477546FFF7D7FFAE46050069464C
:1007E000534620F00700854618B020B5FFF732FDCC
:1007F000BDE820404FF000064FF000074FF0000822
:100800004FF0000B21F00701AC46ACE8C009ACE8A2
:10081000C009ACE8C009ACE8C0098D46704710B506
:100820000446AFF300802046BDE81040FFF7FEBC51
:10083000002801D000F02AB87047000010B5012848
:1008400005D0002103A000F027F8012010BD09A168
:10085000F8E7000053494752544D454D3A204F7533
:1008600074206F662068656170206D656D6F7279A8
:10087000000000003A2048656170206D656D6F7260
:100880007920636F72727570746564000149182075
:10089000ABBEFEE72600020070B505460C460A20F6
:1008A00000E06D1C00F011F835B128780028F8D16F
:1008B00002E0641C00F009F814B120780028F8D197
:1008C000BDE870400A20AFF3008008B569468DF896
:1008D00000000320ABBE08BD0349044A31F81010E4
:1008E00052F8200000F09EB9763A00080800002077
:1008F00010B5104A86B0002308B1022807D1146849
:1009000044F010041460126802F0100205920029ED
:100910000ED1094931F81010CDE9001301210291DF
:1009200002210391054951F82000694600F082F840
:1009300006B010BD30380240763A000808000020AA
:10094000FEE7000010B500224FEA020100EB82032F
:10095000521CC3F88413102AF8D300224FF40073FA
:100960008418521C84F81C119A42F9D3017041700A
:1009700001228270C0F8C41302764023837141764D
:1009800080F81C1380F81D2380F81F1380F81E13B5
:10099000002010BD704772B6FEE70022AFF3008062
:1009A00030B50E4B054601205C7A002C14D1587AE4
:1009B0001C54587A03EB800045605D7A03F108000F
:1009C0002A54587A421C5A72303008703A204870C3
:1009D0002F208870CC70002030BD00006C8E00206D
:1009E00000F012B870B5044600F026F90546601C08
:1009F00002D004480078044400F01EF9401BA042D5
:100A0000FAD370BD38000020074900200A68002A88
:100A100009DA054A054B0C3A1360054B1360096867
:100A2000002900DA01207047103C0240230167458D
:100A3000AB89EFCD2DE9F84FDFF8BCA100220125ED
:100A400003264FF00F090AF1040BAAF1040E00BFB0
:100A50000B6805FA02F42340A34270D10F7907F026
:100A60000307012F01D0022F16D187684FEA4208F1
:100A700006FA08FC27EA0C07D1F80CC00CFA08FCAF
:100A80004CEA070CC0F808C04768A7430C79C4F3C8
:100A9000001494403C4344600C79E443A4070AD01A
:100AA000C4684FEA420C06FA0CF7BC438F6807FA99
:100AB0000CF72743C7600C7904F00304022C12D111
:100AC000D40800EB840CDCF820405707FF0E09FA2D
:100AD00007F824EA0804D1F8108008FA07F848EA71
:100AE0000408CCF8208004684FEA420C06FA0CF7A0
:100AF000BC430F7907F0030707FA0CF72743076099
:100B00004C6814F4403F70D03C4C276847F4804751
:100B10002760246822F0030704F480440094384CD2
:100B200007EB040CDCF8084897074FEA177809FA36
:100B300008F7BC43334FB84202D1002724E054E009
:100B4000314FB84201D101271EE0304FB84201D1E8
:100B5000022719E02E4FB84201D1032714E02D4F90
:100B6000B84201D104270FE02B4FB84201D105272D
:100B70000AE02A4FB84201D1062705E0284FB842C3
:100B800001D1072700E0082707FA08F72743CCF828
:100B90000878DAF800405746D1F804C09C435FEA71
:100BA000CC2C00D51C433C60DBF800405F46D1F8FC
:100BB00004C09C435FEA8C2C00D51C433C60DEF8EB
:100BC00000407746D1F804C09C435FEA8C3C00D5D6
:100BD0001C433C60084F083F3C68D1F804C09C436C
:100BE0005FEACC3C00D51C433C60521C102AFFF449
:100BF0002FAFBDE8F88F0000083C014044380240A8
:100C000000300140000002400004024000080240A1
:100C1000000C024000100240001402400018024084
:100C2000001C02400069084000D0012070470AB152
:100C3000816170470904FBE7014880687047000044
:100C400038000020D0F8000301F083BBD0F8000387
:100C500001F089BB006802F0AFBB01EB410202EB7F
:100C6000C10100EB810090F86000704701EB410288
:100C700002EBC10100EB8100006D704710B5044626
:100C800090F8F802012809D0012084F8F8022068C1
:100C900002F0A1FB002084F8F80210BD022010BD74
:100CA0002DE9FE430546DDE90B7095F8F842DDF8C5
:100CB00028C0012C1ED001EB410404EBC1044FF00D
:100CC000010905EB840485F8F892002684F83D605C
:100CD00084F83830A4F8400084F8391084F83F7064
:100CE00002F07F0884F83A805FEA026805D584F84C
:100CF0003B9004E00220BDE8FE8384F83B6084F86A
:100D00003CC0CDF800C0CDE90170286802F0C6FBF8
:100D100085F8F862EFE770472DE9F00301EB410435
:100D2000DDE906C9DDE9087504EBC10400EB8404C4
:100D3000022684F83B2084F83F30BCF1000F0AD033
:100D400084F8426000256BB1012B2FD0022B12D00A
:100D5000032B16D10FE04FF0030884F8428084F88B
:100D60003D50EFE7BCF1010F0BD152B9DFB90122C1
:100D700084F8552003E0B2B194F85420B2B184F85D
:100D80004260C4F84490E76484F86050256584F8B4
:100D9000391084F86150027C04F138010068BDE824
:100DA000F00302F004BC94F85520E7E784F84250C1
:100DB000E7E72DE9F04106680446304602F007FBFC
:100DC000012875D1206802F016FD002870D0206837
:100DD00002F011FD800203D521684FF40010486134
:100DE000206802F008FDC00203D521684FF480108E
:100DF0004861206802F0FFFC400103D521684FF0F4
:100E000080604861206802F0F6FC800702D5216806
:100E100002204861206802F0EEFC800015D52168B0
:100E20004FF000504861D6F84004C0070DD11021A2
:100E3000304602F0A1FA304602F080FA0121206823
:100E400002F0BEFC2046FFF701FF206802F0D3FC51
:100E5000C00102D5204600F0CAFE206802F0CBFC9B
:100E6000000705D5204600F0C5F821680820486134
:100E7000206802F0C0FCC043C0060CD42068816921
:100E800021F010018161204600F0FBFE206881699D
:100E900041F010018161206802F0ADFC800123D592
:100EA000206802F080FB074600254FF0010814E09F
:100EB0001AE005F00F0108FA01F038420CD006EBF9
:100EC0004510D0F80005E9B20004204602D500F034
:100ED0008BFC01E000F07DFD6D1CA068A842E8D805
:100EE00021684FF000704861BDE8F08170B58AB0AC
:100EF000040005D094F8F9022568002618B107E02F
:100F000001200AB070BD84F8F862204600F028F88D
:100F1000032084F8F902E86BC00500D4266120683C
:100F200002F0D8F904F1100128220D466846FFF7B7
:100F300027FB94E80F0002F073F90121206802F00A
:100F40007DFC282229466846FFF71AFB94E80F002B
:100F500002F0CEFB012084F8F9020020D1E7000066
:100F600010B586B0044614216846FFF75DFB206883
:100F7000B0F1A04F2FD119480021026842F00102C0
:100F80000260006800F0010005904FF4C05000902E
:100F90000220CDE90101032003900A200490694654
:100FA0000F48FFF747FD0D48001D016841F0800123
:100FB00001600A481430016841F480410160006812
:100FC000002200F4804005901146432000F0A6F86E
:100FD000432000F095F806B010BD00003038024004
:100FE00000000240D0F8000301F038BAD0F8000346
:100FF00001F038BAD0F8000301F0EBB910B504469F
:1010000090F8F80201280DD0012084F8F80201219F
:10101000206802F077F9206802F08AF9002084F84D
:10102000F80210BD022010BD10B5044690F8F80279
:10103000012809D0012084F8F802206802F02CFC75
:10104000002084F8F80210BD022010BD024881681B
:101050000278114481607047380000200B4810B5B9
:10106000016841F400710160016841F48061016030
:10107000016841F480710160032000F06FF80F20D7
:1010800000F006F800F024F8002010BD003C0240FB
:1010900070B50D4D04464FF47A712878B1FBF0F02D
:1010A0000A490968B1FBF0F000F00AFB48B9102CBE
:1010B00007D200222146501E00F030F800206C605C
:1010C00070BD012070BD00003800002044000020E9
:1010D0000A4808B5016841F480410160006800F4E5
:1010E000804000900548001F016841F08051016078
:1010F000006800F08050009008BD000044380240B5
:10110000002809DB00F01F02012191404009800006
:1011100000F1E020C0F8001170470000F0B40E4B61
:101120001B680C46C3F30223C3F10705042D00D945
:101130000425191D072901D2002300E0DB1E01262A
:1011400006FA05F1491E214099409E40761E164040
:101150003143F0BC02F0FBBB0CED00E0064900F0AF
:10116000070208684FF6FF03184040EA0220034ACE
:1011700010430860704700000CED00E00000FA0525
:101180002DE9F0470E46050065D0DFF81481D8F848
:101190000000F7B200F00700B04207D288F80070F4
:1011A000D8F8000000F00700B04254D128683D4C48
:1011B000810712D5400703D5206840F4E050206035
:1011C0002878000703D5206840F46040206020683C
:1011D000A96820F0F000084320602878C0072DD0CF
:1011E000304968680839012812D0022813D0032832
:1011F00011D00968890700292DDA216821F003013F
:1012000001432160FFF718FD814641F2883A0EE064
:1012100009688903EFE709688901ECE7FFF70CFD2E
:10122000A0EB0901514502D90320BDE8F0872068F1
:10123000696800F00C00B0EB810FEFD1D8F8001016
:10124000404601F00701B14207D90770006800F07D
:101250000700B04201D00120E7E72878400705D514
:101260002068E96820F4E0500843206028780007EF
:1012700006D52068296920F4604040EAC10020605A
:1012800000F038F82168084AC1F30311515CC840E6
:101290000649086006480068FFF7FAFE0020C4E728
:1012A000003C024008380240903A00084400002008
:1012B0003C0000200448054900680968044AC1F35D
:1012C0008221515CC8407047440000200838024029
:1012D000A03A00080448054900680968044AC1F3B7
:1012E0004231515CC8407047440000200838024039
:1012F000A03A0008154810B5006810F00C02144818
:1013000013D04110042A0FD0082A0ED10F4C241FED
:101310002268236802F03F025B0207D52068C0F311
:101320008810A0FB010106E0084610BD2168C1F34A
:101330008811A1FB00010023FEF7F4FF2168C1F32F
:101340000141491C4900B0FBF1F010BD08380240D2
:101350000024F4002DE9F84F04006ED02078DFF867
:101360004C93C007A9F104054AD009F104000168B3
:10137000C1F38101012908D00068C0F3810002286F
:101380000AD1D9F80000400206D52868800337D575
:1013900060680028E1D033E06068B0F5803F10D08D
:1013A000B0F5A02F286810D020F48030286028687D
:1013B00020F4802028606068A8B1FFF73DFC064655
:1013C0000DE0286840F48030F4E740F48020286085
:1013D000F7E700BFFFF730FC801B642873D828684C
:1013E0008003F7D50CE0FFF727FC064605E000BFB9
:1013F000FFF722FC801B6428F0D828688003F7D40C
:101400002078DFF8AC8280074FF0000A3ED5A7486D
:10141000001D016811F00C0F08D00068C0F38100B6
:1014200002280BD1D9F80000400207D428688007B1
:1014300016D5E068012800D112E033E1E068B8B1C8
:101440000120C8F80000FFF7F7FB064605E000BFE3
:10145000FFF7F2FB801B0228C0D828688007F7D569
:101460002868216920F0F80040EAC10028600DE0FA
:10147000C8F800A0FFF7E0FB064604E0FFF7DCFB3E
:10148000801B02281FD828688007F7D4207800071F
:1014900022D5864F87486169703771B1012101609B
:1014A000FFF7CAFB064604E0FFF7C6FB801B0228D5
:1014B00009D838688007F7D50EE0C0F800A0FFF71C
:1014C000BBFB064605E082E0FFF7B6FB801B022867
:1014D0007DD838688007F7D42078400768D5DFF8D2
:1014E000CCB100270BF13C0BDBF80000C0000BD4A3
:1014F000DBF8001041F08051CBF80010DBF8000061
:10150000012700F0805000906B4E3068C00510D469
:10151000306840F480703060FFF78EFB009005E08B
:10152000FFF78AFB0099401A022850D83068C0059E
:10153000F6D55E4EA0686C3601280FD005283068BD
:1015400010D020F001003060306820F004003060DE
:10155000A068B8B1FFF770FB00900FE0306840F072
:101560000100F4E740F004003060F7E7FFF764FBA8
:101570000099411A41F28830814266D8306880076C
:10158000F4D50EE0FFF758FB009007E0FFF754FB9F
:101590000099411A41F28830814256D8306880075C
:1015A000F4D42FB1DBF8001021F08051CBF80010FB
:1015B000A069C8B33D49091D0968C1F38101022929
:1015C0004AD00228504607D0C8F8600000E03CE04E
:1015D000FFF732FB04463BE04746C8F86000FFF7E0
:1015E0002BFB064605E000BFFFF726FB801B022809
:1015F0002BD828688001F7D4D4E907010843A16AF1
:101600002E4A490802EB0141626A41EA821108430D
:1016100094F82C1040EA0161C9F8001001203866E6
:10162000FFF70AFB044606E03EE000BFFFF704FBBD
:10163000001B022809D828688001F7D534E000BFD4
:10164000FFF7FAFA001B022802D90320BDE8F88F41
:1016500028688001F4D427E00128F7D0D9F80000E9
:10166000E26900F4800191421CD1226A00F03F013E
:10167000914217D147F6C071626A0140B1EB821FF7
:1016800010D1A26A4FF0FF3300F4403103EB520255
:10169000B1EB024F06D194F82C1000F07060B0EB63
:1016A000016F01D00120D1E70020CFE704380240CC
:1016B00000004742800E4742007000400000FFFFDC
:1016C00010B5401EB0F1807F01D3012010BD4FF056
:1016D000E02460610F21601702F039F90020A06159
:1016E00007202061002010BD70B5040004D094F8DC
:1016F0003D00002510B106E0012070BD84F83C508B
:10170000204600F023F8242084F83D002068C168BA
:1017100021F40051C160204600F0C6FB2068016939
:1017200021F4904101612068416921F02A01416161
:101730002068C16841F40051C1602564202084F80C
:101740003D0084F83E00002070BD0000F0B587B079
:10175000044614216846FEF767FF1F4F23680022E6
:101760001E490224032507261D48BB4213D11B4BEB
:1017700014331F6847F010071F601B6803F0100345
:1017800005930B6843F001030B60096801F0010148
:101790000591690215E0134FBB421AD10F4B10336C
:1017A0001F6847F400371F601B6803F4003305937C
:1017B0000B6843F001030B60096801F0010105911A
:1017C0000C21CDE9001402AB694683E86400FFF701
:1017D00031F907B0F0BD0000001001403038024080
:1017E00000000240004400402DE9F0470746006831
:1017F0000D4600EB4116D6F8080501EB4103420700
:1018000003EBC5014FF006004FF004084FF0050A46
:1018100007EB810401D541463CE0D6F80815C9051F
:1018200007D54FF48070C6F80805072084F86100DA
:101830001CE0D6F80815890603D52020C6F808054F
:1018400018E0D6F808150A074FF0080104D5C6F8C5
:10185000081584F861A009E0D6F80825520514D5CA
:101860004FF48060C6F8080584F86110294638688E
:1018700001F0B1FDD6F8080580050ED52946386877
:1018800001F0A9FD4FF40070A0E0D6F80815090694
:10189000F0D58021C6F80815C8E7D6F808054FF03E
:1018A0000001C0074FF010094FF001023BD038692A
:1018B00030B1A06CD6F81035C3F31203C01A2065FE
:1018C00084F86120E165C6F8082594F83F0030B13E
:1018D000022804D0032809D0012807D012E02946A5
:1018E000386801F078FDC6F808950BE0D6F80005D9
:1018F00040F00050C6F8000584F8602029463846BC
:10190000FFF709FA3869012806D1B4F84010A06C35
:10191000B0FBF1F0C00704D014F8540F80F00100C0
:101920002070BDE8F087D6F80805800735D594F813
:101930006100022301280AD005280BD006280CD00C
:1019400008280AD003280FD0072818D01CE084F8F4
:10195000602019E084F860A016E0E06D401CE065AE
:10196000022801D9E1650DE084F86030D6F8000561
:1019700020F0804040F00040C6F8000504E0E06D33
:10198000401CE06584F86080C6F8083594F8602053
:1019900029463846FFF7BFF9C3E7D6F80805C00661
:1019A000BFD594F83F00032803D020B1022802D00D
:1019B0000BE0E16505E0E165386930B9032084F8A2
:1019C00061002946386801F006FD4846C6F808055A
:1019D000A7E72DE9F047026802EB4114D4F8082587
:1019E00001EB4103550703EBC1034FF004024FF035
:1019F000060A00EB830304D5C4F8082583F861A028
:101A000051E0D4F808554FF00007AD064FF0020C36
:101A10000BD52022C4F8082593F83D20012A33D1A4
:101A200083F83D7083F860C03DE0D4F80855AD05FB
:101A300004D54FF40072C4F8082534E0D4F80855F2
:101A40004FF001065FEAC5784FF040050DD0DF6525
:101A5000D4F80825520603D583F83D60C4F808552C
:101A6000C4F8086583F861601DE0D4F808855FEA72
:101A700048680BD583F8612083F83D60DF65006816
:101A800001F0A9FCC4F80855BDE8F087D4F8085562
:101A90004FF008095FEA05784FF0050508D5C4F84E
:101AA000089583F861500068BDE8F04701F093BCE9
:101AB000D4F808855FEAC86810D50322DF6583F88B
:101AC000612093F83D2022B993F83C200AB983F8AD
:101AD0003D60006801F07FFC10201AE0D4F8088512
:101AE0005FEA086818D5056955B1DD6D6D1CDD65C7
:101AF000022D0BD9DF6583F86020FFF70CF907E0B2
:101B000083F861A0006801F066FC01E083F860C022
:101B10008020C4F80805B7E7D4F808855FEA48587C
:101B200007D583F86190006801F055FC4FF48060A0
:101B3000EFE7D4F808855FEA8878A5D593F8618047
:101B4000B8F1010F0FD0B8F1030F30D0B8F1040F86
:101B50002DD0B8F1050F2DD0B8F1060F2DD0B8F16A
:101B6000080F2AD03CE083F8606093F83F20022AF7
:101B700001D0032A34D102692AB993F8552082F0A2
:101B8000010283F855200269012A29D1DA6C3AB39F
:101B9000B3F840502A44521EB2FBF5F2D2071FD0D0
:101BA00093F8552082F0010283F8552018E083F85D
:101BB00060C015E083F8605012E0DD6D6D1CDD65DE
:101BC000022D03D9DF6583F8602009E083F860C047
:101BD000D4F8002522F0804242F00042C4F80025EB
:101BE000C4F808C593F86020FFF795F84CE77CB57A
:101BF00004680546D4F840040190D4F8400420F06D
:101C00002E0000900198800709D50198C00702D0E6
:101C10002846FFF717F8009840F00200009001985E
:101C2000000724D5009840F0080000900198400774
:101C30001AD5A869022803D0E86801280CD00FE063
:101C40000198C0F341400228286803D0012101F027
:101C5000B7FD05E00221FAE74EF66020C4F804045F
:101C60002846FFF7C3F902E02846FFF7BBF90198C1
:101C70008006009802D540F020000090C4F840048F
:101C80007CBD2DE9F041024600680646016AC1F3B9
:101C9000434301F00F07C1F30A15022B31D1002D88
:101CA0002FD007EB470101EBC70102EB8104616C08
:101CB000002926D0226DE36C2A449A4223D82A4672
:101CC00001F09DFD606C28446064206D284420650F
:101CD00006EB4710D0F81015B4F84020C1F3C94105
:101CE000AA420ED100290CD0D0F8001521F0804175
:101CF00041F00041C0F8001514F8540F80F00100C5
:101D00002070BDE8F081042084F86000F9E7FEE768
:101D100010B504490448FEF740FE0249491E087008
:101D200010BD0000310000207C3A000830B587B0BB
:101D300014216846FEF778FC19480024016841F038
:101D400010010160016801F010010591016841F086
:101D500080010160016801F080010591016841F096
:101D60000101016000680F4D00F0010005900122A3
:101D7000C0212846FEF75BFF1820CDE90004694624
:101D800009480294FEF756FEC02000900120CDE9DC
:101D90000104694628460394FEF74CFE07B030BDA7
:101DA00030380240000002400010024010B501220D
:101DB0000B490C4800F0A5FA08B1FEF7ECFD0A4902
:101DC000084801F071F908B1FEF7E5FD054801F09A
:101DD00084F9002803D0BDE81040FEF7DCBD10BD3B
:101DE000F13000089087002048000020FEE7FEE761
:101DF0000148FEF7DEBF0000688B00207047704787
:101E0000FFF724B930B593B030216846FEF70CFCDB
:101E100014210CA8FEF708FC1D480025016841F0BC
:101E200080510160006800F08050119019480168ED
:101E300041F4804101600068022400F48040119068
:101E400001200090000401908001CDE906400420AB
:101E50000890A820CDE9090407200B906846FFF7F9
:101E600079FA08B172B6FEE70CA90F2081E83100BB
:101E70004FF4A0500F904FF48050109005210CA803
:101E8000FFF77EF9002801D072B6FEE713B030BD2F
:101E900040380240007000400248016841F470017F
:101EA0000160704788ED00E070B504460068016984
:101EB000E26821F44051114301612169A068E2699F
:101EC00008436169114308432168CA6849F20C63F9
:101ED0009A430243CA6020684169A26921F44071B3
:101EE0001143416131492068884202D0304988421B
:101EF00002D1FFF7EFF901E0FFF7DCF9E269002317
:101F0000192164253226B2F5004F626828D0A0FB63
:101F10000101930F9200FEF705FA0146B0FBF5F0C0
:101F20006FF01802504301EB800006EB0010B0FB8D
:101F3000F5F000F0F002B1FBF5F002EB0012B1FB9E
:101F4000F5F06FF01803584301EB800006EB00102A
:101F5000B0FBF5F000F00F0021681044886070BD00
:101F6000A0FB010192185B41FEF7DCF90146B0FBD2
:101F7000F5F00201B1FBF5F06FF01803584301EBE7
:101F8000800006EBC000B0FBF5F000F0F80002EBBB
:101F90004002B1FBF5F0584301EB800006EBC000B6
:101FA000B0FBF5F000F00700D6E70000001001409C
:101FB0000014014010B500224FF6FF7300EB8204BD
:101FC000B4F8844324040BD49A4207D002F00F03E0
:101FD00000EB830041F40041C0F88413D0B210BD7F
:101FE000521CD2B2102AE9D31A46F7E77FB51C4635
:101FF000012501AE0023009586E80E0002232A4643
:10200000214600F05AFA04B0002070BD7FB51D468D
:1020100090F81D33089C03B100240123CDE9003161
:10202000CDE9022402230022294600F046FA04B03A
:10203000002070BD10B500F083F9002010BD82783B
:10204000012A07D102220274012242740022428234
:102050008182C2820022114600F00FB87FB51C4673
:10206000012501AE0023009586E80E002A46214690
:1020700000F023FA04B0002070BD70B504460120C2
:10208000A3780546012B0BD0022B08D1204600F087
:102090006FF858B1032809D0022800D1A57070BD8F
:1020A000A160A28125760221A17070BDA5700021DA
:1020B000217670BD7FB51D4690F81D33089C03B195
:1020C00000240123CDE90031CDE9022400231A4682
:1020D000294600F0F2F904B0002070BD1FB50023BE
:1020E0001446CDE900310822CDE902231A462146E3
:1020F00000F0E3F904B0002010BD000070B5054603
:10210000002005F54E7500BF00EB800404EBC00411
:1021100005EB4404E67B0A348E4201D0FF2909D145
:10212000A679964201D0FF2A04D1E4799C4206D0D8
:10213000FF2B04D0401CC0B20228E5D3FF2070BDA5
:10214000102907D200EB8100B0F88413C1F30E010F
:10215000C0F884130020704701004FF0000004D045
:10216000012901D0022901D00220704701207047C7
:102170002DE9F84F0125017E04460B260927284644
:102180004FF007084FF0050A4FF00D090C2919D23E
:10219000DFE801F0B4060E26313C48606B7C899A7A
:1021A000627904F110012046FFF798FF022012E047
:1021B0006179204600F009F9012804D0042871D083
:1021C00002287FD09AE0207CE18A00F0800021B1D3
:1021D00080283AD10320207690E0802814D02EE089
:1021E000D4F8C403E0812379A2892046A168FFF7CF
:1021F00035FF0420EFE72179204600F0E6F80128BA
:1022000002D0052840D056E0277677E00090637929
:10221000A2892046A168FFF74DFFD4F8C403E081EE
:102220000620D8E76179204600F0CFF8012806D0D3
:10223000052807D0022808D0042809D05EE084F8D9
:1022400018805BE00C2020761EE084F818A055E092
:10225000267652E00022237911462046FFF7FEFE43
:10226000D4F8C403E0810820B5E72179204600F0C6
:10227000ACF8012804D0042824D0052804D03DE07F
:1022800084F81890002539E0032537E000900022FB
:10229000637911462046FFF70DFFD4F8C403E081AF
:1022A0000A2098E70EE06179204600F08EF80128B8
:1022B00004D00228A8D0042804D01FE0002584F808
:1022C00018901BE0267619E0617E491CC9B2617640
:1022D000022902D82076A07010E0D4F8D423062179
:1022E000204690470025657661792046FFF728FF54
:1022F00021792046FFF724FF257002252846BDE8F6
:10230000F88F70B50E46040018D084F8CC23002551
:10231000C4F87C53C4F8805304F54874FEF712FBEC
:10232000E57025706570A570A4F548740EB1C4F809
:10233000D463204600F05CF8002070BD022070BD20
:1023400010B5D0F8D003FEF799FCBDE81040FFF7B8
:1023500003BF012180F82013002180F8211380F8A9
:1023600022130846704710B50446012084F8210363
:10237000002084F8200384F82303204600F094F81A
:1023800021792046FFF7DCFE61792046FFF7D8FE71
:10239000002010BD10B5C820FEF724FB002010BDA2
:1023A000D0F8D003FEF762BCD0F8D00301EB4102B5
:1023B00002EBC10100EB810090F83B1011B190F8E5
:1023C0005400704790F855007047D0F8D003FEF7DE
:1023D00044BCD0F8C413491CC0F8C41301780B29BD
:1023E00005D1D0F87C13002901D0896908477047CE
:1023F00010B5044690F8CC0301281CD10F484FF0CB
:10240000A0410022C0F80043C4F8D00301600821B5
:1024100081600121C0E903120221C0E90612FEF722
:1024200065FD08B1FEF7B7FA0448FEF713FC014654
:10243000204600F01BF8002010BD0000688B002033
:10244000FEB508AF97E870008DE87000D0F8D003B3
:10245000FEF726FCBDE8FE40FFF77EBE002180F8B7
:1024600023137047012180F823137047C0F8C41369
:102470007047D0F8D00301EB410303EBC10100EB3F
:10248000810090F83B1011B180F8542001E080F8F1
:1024900055200020704710B5D0F8D003FEF7AEFDF0
:1024A000BDE81040FFF758BE10B5D0F8D003FEF7D6
:1024B000BBFDBDE81040FFF74FBE2DE9FF410DF118
:1024C000280898E8F0008DE8F000D0F8D003FEF777
:1024D00023FC04B0BDE8F041FFF73EBE03460220F6
:1024E000D3F87C13C9692AB1012A05D18979184624
:1024F000FFF7A5BDC979FAE770470000D0F87C0363
:102500000549C069416505498165012100F8501FF1
:1025100081700020704700005553424350403020E6
:102520002DE9F84F0746D0F87C0301263546C469EB
:102530004FF00B0A4FF00A0B94F850004FF00909C6
:102540004FF007080C2845D2DFE800F0D20611252D
:102550002E4852757EA7AFCB84F86110022084F814
:102560005000009563791F2204F1540159E061790C
:102570003846FFF72AFF012802D002287ED03FE02C
:10258000E06D002829D094F86000000601D50320F2
:102590004BE0052049E0237962893846D4F88C1055
:1025A000FFF724FD042040E021793846FFF70DFFB6
:1025B00001284FD16289E06D90420CD9D4F88C107B
:1025C000801A1144C4F88C10E0656BD0237938462A
:1025D000FFF70CFD8CE00020E06563E00095637977
:1025E00022893846D4F88C10FFF710FD06201CE035
:1025F00061793846FFF7E9FE012804D00228C8D0E7
:10260000052815D074E02289E06D9042E3D9D4F812
:102610008C10801A1144C4F88C10E06542D00095EB
:1026200063793846FFF7F2FC62E084F850005FE01F
:1026300084F850B05CE023790D2204F1780138462B
:10264000FFF7D4FC0820F0E721793846FFF7BDFEFC
:10265000012802D005281DD04AE004F8505F384612
:10266000A570D7F87C13CC692179FFF799FE0D2866
:102670000CD12149A06F884208D100E036E0A16D5D
:10268000E06F884202D194F8840008B102262FE05E
:1026900000262DE084F850902AE000223846FFF70B
:1026A0001DFF38B984F8508022E001223846FFF738
:1026B00015FF10B1042811D01AE061793846FFF7F0
:1026C00073FEC0F10100C2B261793846FFF7D1FE56
:1026D000217900223846FFF7CCFEDBE784F850A0D2
:1026E00006E0384600F015F8060001D184F8505095
:1026F0003046BDE8F88F000055534253A1220274C2
:10270000FE2242740022428282820122C282FFF7AC
:10271000B4BC21210174FF214174002141828182D6
:10272000C1820A46FFF7A9BC70B5D0F87C13012519
:10273000CC69A17B21B1022902D003292ED127E047
:102740002146FFF7DBFF00210546032801D01DB11C
:1027500024E02170002504E02078022801D902201D
:1027600001E02078401C2070002002230CE000BF14
:1027700000EB800202EBC00204EB8202401C82F8F4
:10278000923082F8C110C0B222788242F0D805E0BF
:102790000021FFF754FC08B9E07BA073284670BD08
:1027A00010B51446D0F87C230078D3690B2801D0EB
:1027B000022010BD01EB810000EBC10003EB8001A2
:1027C000342220469031FDF7DBFE002010BD70B5AD
:1027D0000546D0F87C030026C469617939B12846E2
:1027E000FFF728FC61792846FFF7AAFC667121797A
:1027F00039B12846FFF71EFC21792846FFF7A0FCD7
:102800002671D5F87C03C06920B1FDF764FDD5F8C9
:102810007C03C661002070BDFEB50546D0F87C0380
:102820005023062201792846FFF768FC0646FF2858
:1028300023D0022E21D20146284600F043FCE0B905
:102840004FF480773846FDF717FDD5F87C13044622
:10285000C861200011D03946FDF7E6FE06EB860080
:1028600000EBC60005EB400090F84E130A0606D5B3
:10287000E171B0F85013618105E00220FEBDA17145
:10288000B0F85013218190F856130A0604D5E1716F
:10289000B0F85803608103E0A171B0F858032081BB
:1028A000002020736073A073A1792846FFF782FB94
:1028B0006071E1792846FFF77DFB20712846FFF71C
:1028C0001DFEA27942B3208930B395F81D1302266C
:1028D0000091CDE9016095F81C336179284600F03C
:1028E000D9FBE279C2B16089B0B195F81D130091AE
:1028F000CDE9016095F81C332179284600F0CAFB28
:10290000217900222846FFF7B4FD6179002228468C
:10291000FFF7AFFD0020FEBD0320FEBD2DE9F0470F
:102920000746D0F87C034FF0010AC469207B10B140
:1029300001282DD12CE1B4F8F800217801254FF0C1
:10294000000888426FD200EB800101EBC00004EB6D
:102950008000022680F89150B4F8F8004FF0050985
:1029600000EB800101EBC00104EB810292F89010B2
:1029700009290DD2DFE801F0050C1F880DB10C0C00
:10298000FF00042082F89000D7F8C403C4F8FC00CC
:1029900000E1C1B238469F3200F08CF940B9B4F87A
:1029A000F80000EB800101EBC00004EB8000B6E012
:1029B00002287DD099E0C1B2384600F0ABFA10B1E0
:1029C000022831D091E0B4F8F80000EB800101EB6F
:1029D000C00004EB800090F8921011B180F8C15053
:1029E00001E080F8C180B4F8F820032002EB8201F6
:1029F00001EBC20104EB810181F89000B4F8F810FA
:102A000001EB810202EBC10104EB810181F89180AD
:102A1000B4F8F81001EB810202EBC10104EB810173
:102A200081F89280B6E0AAE0B4F8F80000EB8001EB
:102A300001EBC00004EB800090F89210022902D054
:102A400080F8C15001E080F8C180B4F8F81001EBC3
:102A5000810202EBC10104EB810181F89090B4F88E
:102A6000F80000EB800101EBC00004EB800080F86F
:102A70009150B4F8F80000EB800101EBC00004EBCA
:102A8000800080F8926085E0C1B23846943200F050
:102A9000BBF900288CD1B4F8F80000EB800101EB01
:102AA000C00004EB800080F89050B4F8F81000E00B
:102AB00008E001EB810202EBC10104EB810181F826
:102AC000918031E0B4F8F81001EB810202EBC10112
:102AD00004EB810181F890905CE0C1B238469C32F1
:102AE00000F0CFF920B1022823D004282DD051E0E6
:102AF000B4F8F80000EB800101EBC00004EB8000AB
:102B000090F89C10062901D002290BD1D7F8C413E4
:102B1000D4F8FC20891A42F21072914202D280F855
:102B2000906037E080F8905034F8F80F401C208017
:102B300030E0B4F8F810082001EB810202EBC1018B
:102B400004EB810181F8900024E0B4F8F80000EB78
:102B5000800101EBC00004EB800080F89050B4F8D5
:102B6000F80000EB800101EBC00004EB800080F86E
:102B700091600FE0FFE7401CA4F8F8000AE0A4F819
:102B8000F8802573D7F8D42302213846904701E016
:102B90004FF0000A5046BDE8F08700002DE9F843E9
:102BA000D0F87C2301EB810303EBC103D26901253B
:102BB00002EB8304082794F890302E46052B22D090
:102BC00000224FF00508062B02D0072B2AD10CE07B
:102BD000002300921A4600F0D7F80BE002280FD02D
:102BE00018E000BF84F890701BE0002300921A46A2
:102BF00000F0B6F90028F1D184F89060002511E0CA
:102C000084F890800EE004F19C0200F03AF920B1C3
:102C1000022807D00428E5D004E004F8906F0220D1
:102C2000607002252846BDE8F8832DE9F843044684
:102C3000D0F87C03089E0F46C56994F8200360B164
:102C400020780B2809D107EB870000EBC70005EBC4
:102C5000800090F89010012902D00220BDE8F8838E
:102C60000621297380F89010A5F8FA70394620469D
:102C7000009600F089F8D4F8C48340F271204FF038
:102C80000109464309E0D4F8C413A1EB0800B0EBF6
:102C9000061F0CD894F8200348B139462046FFF7A8
:102CA0007DFF0128EFD085F80C900020D6E785F84D
:102CB0000C90D2E72DE9F0411546D0F87C2302278D
:102CC0000026D4694FF0010894F85220012A02D05E
:102CD000022A56D126E024208022E06584F8602074
:102CE0000A2284F86220C4F86360C4F86760A4F81C
:102CF0006B60122284F86320490184F8641084F820
:102D0000656084F8666084F8670084F86860022073
:102D100084F8508084F8520004F110000127C4F8B0
:102D20008C002EE0FFF7FCFB07002AD12221284669
:102D3000FDF758FCD4F88C00007800F01F00687094
:102D4000D4F88C00007840092870D4F88C004078C2
:102D5000000602D585F8028000E0AE7054F88C0FB2
:102D600010228168C5F80310C068C5F80700216803
:102D700005F10C001031FDF7BEFB2068006AC5F8B4
:102D80001D003846BDE8F0812DE9F04115460246A8
:102D90001F46D2F87C330220069EDC6994F852303C
:102DA000012B06D0022B2DD1BDE8F0411046FFF7D4
:102DB000B7BBB4F8980010217043E065802084F818
:102DC00060000A2084F8620004F16300FDF70AFC49
:102DD000282084F86300280E84F86500280C84F805
:102DE0006600280A84F8670084F86850300A84F87E
:102DF0006A0084F86B60012004F8500F0220A07074
:102E00000120E763BDE8F08170B51646D0F87C2359
:102E10000125D46994F85220012A02D0022A2ED129
:102E20001AE00820E065802084F860000A2084F819
:102E30006200102104F16300FDF7D4FB252084F823
:102E40006300012084F85000022084F8520004F14D
:102E50001000C4F88C0012E0FFF762FB05000ED1F1
:102E600054F88C0F4188427849BA007862F31F41C8
:102E700041EA006030602068C08840BAB0802846CF
:102E800070BD70B5154602460E46D2F87C1302207E
:102E9000CC6994F85210012914D0022911D131467D
:102EA0001046FFF73DFB00280BD154F88C1F8978A2
:102EB00001F00F0129702168097B69702168497B45
:102EC000A97070BD0E258020E56584F860000A2099
:102ED00084F86200102104F16300FDF783FB0320F6
:102EE00084F86300700184F86400002084F86500B1
:102EF00084F8660084F8675084F86800012084F83C
:102F00005000022084F8520004F11000C4F88C0034
:102F1000012070BD70B502460220D2F87C33DC6916
:102F200094F85230012B06D0022B18D1BDE8704026
:102F30001046FFF7F5BA0025E56584F860500A20D1
:102F400084F86200102104F16300FDF74BFB84F864
:102F50006350012004F8500F0220A070012070BDC2
:102F60002DE9F041154602461F46D2F87C33022077
:102F7000069EDC6994F85230012B06D0022B2DD12D
:102F8000BDE8F0411046FFF7CBBAB4F89800102125
:102F90007043E065002084F860000A2084F8620035
:102FA00004F16300FDF71EFB2A2084F86300280E5D
:102FB00084F86500280C84F86600280A84F8670005
:102FC00084F86850300A84F86A0084F86B60012045
:102FD00004F8500F0220A0700120E763BDE8F081E3
:102FE00000207047D0F87C230078D2690B2808D1E4
:102FF00001EB810000EBC10002EB800090F8910032
:1030000008B100207047012070472DE9F8430446BD
:10301000D0F87C03089E0F46C56994F8200360B180
:1030200020780B2809D107EB870000EBC70005EBE0
:10303000800090F89010012902D00220BDE8F883AA
:103040000721297380F89010A5F8FA7039462046B8
:103050000096FFF785FFD4F8C48340F271204FF04B
:103060000109464309E0D4F8C413A1EB0800B0EB12
:10307000061F0CD894F8200348B139462046FFF7C4
:103080008DFD0128EFD085F80C900020D6E785F85B
:103090000C90D2E7FEB508AF97E870008DE870009D
:1030A000FFF7CEF90020FEBD002211B1D0F8803329
:1030B00013B10222104670470123C0F88033C0F8D4
:1030C0007813F7E70246002092F83C338B4202D98E
:1030D00082F8241370470220704710B50446FFF7AA
:1030E000DAF901212046FFF755F9002010BD000054
:1030F00001290AD00548022906D0042903D0052950
:1031000003D1032100E00121017070473500002048
:103110000020704730B58DB01546012449B1012912
:1031200009D0022910D0032918D004240DB020465C
:1031300030BD0024FAE701466A460E48FFF730FB2F
:103140000028F3D1019813E001466A460948FFF7C9
:1031500027FB0028EAD1BDF8080009E001466A46CD
:103160000448FFF71DFB0028E0D1BDF80800400A25
:103170002860DEE79087002030B58FB005460093C9
:103180000B46014601240C48FFF74FFD68B101AA28
:1031900029460948FFF704FB9DF81100042806D0D2
:1031A000282804D03A2803D101E0002400E00324B9
:1031B0000FB0204630BD00009087002010B50146BA
:1031C00001240348FFF70EFF00B10024204610BD84
:1031D0009087002030B58FB0054600930B4601461E
:1031E00001240E48FFF711FF78B101AA29460B48C8
:1031F000FFF7D6FA9DF8110004280AD0272806D038
:10320000282806D03A2805D103E0002402E0022451
:1032100000E003240FB0204630BD0000908700205E
:1032200070B5044606990A9E049D0D98012916D092
:10323000E06840F04000E060204600F02BF8A16B11
:103240001EB321F48031A163012D07D1A16841F0A3
:103250000601A160A16841F02001A16070BDA16BD1
:1032600021F48031A163E168094A1140E160E1681D
:1032700021F44011E160012803D1E06840F480109E
:10328000E060204600F006F8DEE741F48031DAE73E
:10329000BFFFBDFF08B500220D490092009B5B1CDB
:1032A00000938B420CD80369002BF7DA0092026975
:1032B00042F001020261009A521C00928A4201D936
:1032C000032008BD0269D207F5D1002008BD000027
:1032D000400D0300816821F00101816000207047EA
:1032E00000EB4110064AC0F81025D0F8001521F077
:1032F000804141F00041C0F80015002070470000F7
:103300000000088008B5D0F8402422F02E02009278
:10331000D20405D4012909D1009941F4805103E078
:1033200021B9009921F48051C0F84014002008BD53
:10333000816841F0010181600020704708B50022DA
:103340000C490092009B5B1C00938B420AD80369D6
:10335000002BF7DA009210220261009A521C0092B0
:103360008A4201D9032008BD0269D206F5D40020A3
:1033700008BD0000400D030018B500230D4A00935E
:10338000009C641C009494420CD80469002CF7DA69
:103390000093202343EA811101610099491C0091A7
:1033A000914201D9032018BD01698906F5D4002096
:1033B00018BD0000400D0300D0F8080480B270472B
:1033C00008B5D0F840040090C0F3414008BD406902
:1033D00000F00100704718B5002200EB4111009287
:1033E000D1F80025D1F80035C2F381428468DB0FA3
:1033F000A40600D51BB34FF47A736AB1022A0BD02E
:10340000D1F8002542F08042C1F80025D0F8100420
:1034100010F47F0F2BD00CE0D1F8002542F0804251
:10342000C1F800258268920609D4C06A10F47F0FA3
:1034300007D0D1F8000540F00040C1F80005002099
:1034400018BDD1F8000520F00040C1F80005D1F802
:10345000000540F00040C1F800050098401C0090B5
:103460009842ECD8D1F800050028F6DBE7E7D1F860
:10347000000520F00040C1F80005D1F8000540F03B
:103480000040C1F800050098401C00909842D6D832
:10349000D1F800050028F6DBD1E700002DE9F04364
:1034A0001E46DDE90785002700EB41147B1EDDF891
:1034B0002490C4F8083505B3012D39D0022D1CD055
:1034C000032D2ED05FF00107D4F80C3543F0020332
:1034D000C4F80C35D0F8183401F00F0C012101FAB2
:1034E0000CF10B43C0F81834816941F0007181611F
:1034F00011062AD54FF4004128E040F29D43C4F85C
:103500000C35130605D500BFD4F80C3543F4807391
:1035100018E0C36BDB05D7D5D4F80C3543F0600356
:1035200010E040F29D63C4F80C351306ECD4CBE7F1
:1035300040F22523C4F80C351306C5D5D4F80C3554
:1035400043F4C073C4F80C35BEE70021FFF738FF21
:10355000B8F1020F04D1022802D04FF4003000E08D
:1035600000204FF0FE5303EA86534FF4F04606EA7C
:10357000C22213434FF4402202EA85421343C9F3A7
:103580000A0213430B430343C4F80035032D01D053
:10359000012D05D1D4F8000540F00050C4F8000515
:1035A0003846BDE8F083D0F8140480B27047F8B50F
:1035B0004C78C56B4FF48073ED0515D50D799DB929
:1035C000012A01D06AB10FE0CD790DB1022D0BD1E6
:1035D00000EB4415D5F80C6526F07006C5F80C65AF
:1035E00002E04D79012D0DD04E697EB10D8977191C
:1035F0007F1EB7FBF5F7BFB29F4208D91F462B02CB
:103600000B6104E02146FFF76BFE6EE00127CB78EB
:103610001BB10B897B430B6101E033460E61C3F3A1
:1036200012056FF0604303EAC7431D438B7A4FF0E6
:10363000C04606EA43731D4300EB4413C3F810551C
:1036400012B1CC68C3F81445D0F80844D3F800553B
:1036500044F3000425F00055C3F80055D3F8005595
:10366000641C45EA4474C3F80045D3F8004524F0CF
:1036700080440094CC78002C009C02D044F4004498
:1036800001E024F4004444F000440094C3F80045F1
:103690005ABBCA784ABB4A693AB3CB7933B1012BDA
:1036A0000FD0022B02D0032B17D10AE0D21CC36A21
:1036B000C2F38F029BB293420FD2826942F0200282
:1036C0000AE0D21CD0F81034C2F38F029BB29342AE
:1036D00003D2826942F080628261002200928A8A6B
:1036E00093B24A78C96800F01DF90020F8BD0000C7
:1036F0002DE9F0410025DDF81880174604462E46D6
:10370000C0F8005E806B40F40010A063A06B20F452
:103710000020A063A06B20F48020A063E06BC005B4
:1037200001D5012B04D0D4F8000420F0040103E0FB
:10373000D4F8000440F004012046C4F8001410211D
:10374000FFF71AFE00B101252046FFF7F7FD00B193
:1037500001250020411E06E004EB4012C2F80815C6
:10376000C2F80C65401C8742F6D8A6616161E06B27
:10377000C00506D54FF4007060620C48A0620C488A
:1037800004E0802060620B48A0620B48C4F800018E
:10379000B8F1000F03D1A06940F01000A061A0694A
:1037A00006490843A0612846BDE8F08100020001F7
:1037B0000003E00080006000E0004000080020A35B
:1037C000D0F8002422F00302C0F80024D0F800242E
:1037D00001F003031A43C0F80024012902D0022992
:1037E00003D006E04BF6803101E041F27071C0F881
:1037F000041400207047416980690840704730B563
:1038000003460846940802F00301002203F58053A2
:1038100003E01D6840F8045B521CA242F9D3002962
:103820000BD01C680022D50024FA05F3491E521C57
:10383000090400F8013B090CF5D130BD70B5044610
:10384000C068002520F0C040E060012901D079B1B6
:1038500020E0E06840F00050E0600120FDF7C2F891
:1038600060696D1C10F0010F10D1322DF5D30DE001
:10387000E06840F08040E0600120FDF7B3F8606947
:103880006D1C10F0010F01D0322DF5D3322D01D077
:10389000002070BD012070BD38B50025044600959C
:1038A000806820F00100A06010212046FFF764FD31
:1038B00000B101252046FFF741FD00B101250020A0
:1038C00004EB4011D1F8002522F0802242F0804222
:1038D000C1F80025401C0F28F2D900204FF47A735C
:1038E00004EB4011D1F8002522F4004242F040429E
:1038F000C1F80025009A521C00929A4203D8D1F8D0
:103900000025002AF6DB401C0F28E9D94FF0FF30D4
:10391000C4F814046061A06840F00100A06028466B
:1039200038BD000010B5029C74B9DB1C9C0800EB8C
:103930000230002300F5805004E000BF51F8042B52
:1039400002605B1CA342F9D3002010BDFEE709070B
:10395000090E002804DB00F1E02080F80014704715
:1039600000F00F0000F1E02080F8141D7047000007
:10397000FDF736F800210846FCF7BAFF00210120C8
:10398000FCF7B6FF0020FCF7A7FF78B30120FCF797
:10399000A3FF60B3254908682022B2EB106F04D062
:1039A00008681022B2EB106F07D14868204A906176
:1039B000D061096881F308888047FDF74FFBFEF767
:1039C00021FAFEF7B3F91C481A494FF4E1350024F7
:1039D0000160C0E901540C26C460C0E9044684615A
:1039E000C461FDF781FE60B172B6FEE700E001E060
:1039F00012A200E015A2104818A18830FCF70AFDB9
:103A0000DBE70D48174944300160C0E90154C46048
:103A1000C0E904468461C461FDF766FE08B172B670
:103A2000FEE7FEF775F9FEF7C1F9FEE700C00008F2
:103A30001000002000100140F8860020696D6167C9
:103A4000655F75312E62696E00000000696D616707
:103A5000655F75322E62696E00000000303A257392
:103A600000000000004400404FF04070E1EE100AFA
:103A7000704740008000100008000000113100086D
:103A8000BD31000879310008D53100081531000832
:103A900000000000000000000102030406070809FE
:103AA00000000000010203044D534300CC3A00081B
:103AB0000000002068000000C4010008343B00083A
:103AC0006800002070960000E0010008000002403D
:103AD0000000024000100240001002400000000000
:103AE00000000000000000000000000000C000080E
:103AF00000000000000000000000000000000000C6
:103B000000000000010000001000000000000000A4
:103B10000024F400A83A0008080000001928000852
:103B2000CF270008292700081D290008E12F0008D9
:043B30000000000091
:040000050800018965
:00000001FF
