:100000000C9432030C9463030C9463030C94630309
:100010000C9463030C9463030C9463030C946303C8
:100020000C9463030C9463030C9463030C946303B8
:100030000C9463030C9463030C9463030C946303A8
:100040000C9463030C9463030C9463030C94630398
:100050000C9463030C9463030C9463030C94D10716
:100060000C9463030C94090A0C94DF090C94630349
:100070000C9463030C9463030C9463030C94630368
:100080000C9463030C9463030C9463030C94630358
:100090000C9463030C9463030C9463030C94630348
:1000A0000C9463030C9463030C9463030C94630338
:1000B0000C9463030C9463030C9463030C94630328
:1000C0000C9463030C9463030C9463030C94630318
:1000D0000C9463030C9463030C9463030C94630308
:1000E0000C946303850F880F770F7B0F7F0FBF0F73
:1000F0008C0F900F960F9A0F9E0FA40FA80FAC0FA6
:10010000BF0FB20FB60FBA0F0C94BA0F0C94900F2A
:100110000C947F0F0C94850F0C949E0F0C943E1240
:100120000C94A40F0C94B60F0C9482090C94A80F95
:100130000C94960F0C9435090C94CC080C94AC0FCD
:100140000C94880F0C948C0F0C949A0F0C94770FCE
:100150000C94FD080C94BF0F0C94BE030C94B20FCA
:100160000C9465030C94EF080C947B0F0C94DB0843
:100170000C94D8030C94A2080D0A4E756D6265723A
:10018000206F6620636F6E662E3A09000D0A536574
:100190007269616C206E756D62657220696E64654E
:1001A000783A09000D0A50726F642E737472696E8A
:1001B0006720696E6465783A09000D0A4D66672EFE
:1001C000737472696E6720696E6465783A09000D10
:1001D0000A5265766973696F6E2049443A090900CD
:1001E0000D0A50726F647563742049443A0909001E
:1001F0000D0A56656E646F72202049443A09090061
:100200000D0A4D61782E7061636B65742073697A95
:10021000653A09000D0A4465766963652050726F7E
:10022000746F636F6C3A09000D0A44657669636503
:1002300020537562636C6173733A09000D0A44655B
:100240007669636520636C6173733A0909000D0A6E
:100250005553422076657273696F6E3A0909000D35
:100260000A44657363726970746F72207479706583
:100270003A09000D0A44657363726970746F7220E5
:100280004C656E6774683A09000D0A4465766963C7
:10029000652064657363726970746F723A20000D33
:1002A0000A52657175657374206572726F722E20C3
:1002B0004572726F7220636F64653A09000D0A4DD2
:1002C00061782E7077723A0909000D0A41747472D0
:1002D0002E3A090909000D0A436F6E662E73747277
:1002E000696E673A0909000D0A436F6E662E7661E2
:1002F0006C75653A0909000D0A4E756D2E696E74AC
:10030000663A0909000D0A546F74616C206C656EC1
:100310006774683A0909000D0A436F6E666967756C
:10032000726174696F6E2064657363726970746F53
:10033000723A000D0A496E74662E737472696E67A4
:100340003A0909000D0A496E74662E2050726F74C6
:100350006F636F6C3A0909000D0A496E74662E20AE
:10036000537562636C6173733A0909000D0A496E33
:1003700074662E20436C6173733A0909000D0A45B7
:100380006E64706F696E74733A0909000D0A416CEE
:10039000742E3A090909000D0A496E74662E6E75AD
:1003A0006D6265723A0909000D0A0D0A496E74659D
:1003B00072666163652064657363726970746F72DD
:1003C0003A000D0A506F6C6C696E6720696E746537
:1003D0007276616C3A09000D0A4D61782E706B746B
:1003E0002073697A653A0909000D0A417474722E06
:1003F0003A090909000D0A456E64706F696E742030
:10040000616464726573733A09000D0A0D0A456EE2
:1004100064706F696E742064657363726970746F61
:10042000723A0062487562436F6E747243757272FD
:10043000656E743A0900625077724F6E325077726F
:10044000476F6F643A090900526573657276656497
:100450003A090900506F7274496E64696361746F80
:100460007273537570706F727465643A00545454AB
:1004700068696E6B54696D653A0909004F7665725B
:1004800043757272656E7450726F746563744D6FEC
:1004900064653A0900436F6D706F756E64446576EC
:1004A0006963653A0909004C6F6750777253776941
:1004B0007463684D6F64653A0900624E6272506FF2
:1004C0007274733A090900624465736372697074E7
:1004D0006F72547970653A090062446573634C65C4
:1004E0006E6774683A0909000D0A0D0A48756220A2
:1004F00044657363726970746F723A0D0A000D0A75
:10050000436F6E74656E74733A09000D0A54797006
:10051000653A0909000D0A4C656E6774683A090965
:10052000000D0A556E6B6E6F776E20646573637293
:100530006970746F723A00546F74616C206C656EF0
:10054000677468207472756E636174656420746F7B
:10055000203235362062797465730000000A0B0280
:10056000090C0D0E08070304010000000000000044
:10057000000000000000000000000000000000007B
:100580000000000000000012111000000000000038
:10059000000000000000000000000000000000005B
:1005A0000000002200250028002B002E003100341E
:1005B0000002010000050108010B010000210024D8
:1005C0000027002A002D0030003300010100000444
:1005D0000107010A010505050507050808080802C5
:1005E0000202020A0A0808040404040101010101CC
:1005F0000101010303030303030303040707070CBB
:100600000C0C0C0C0C0C0C02020202060606060670
:100610000606060B0B0B0B0B0B0B0B01021020201D
:100620000808102040102040800201020108040246
:1006300001010204081020408080402010080402BC
:100640000180040201804020100804020108040215
:10065000010102040810204080010204081020401B
:1006600080003E1211241FBECFEFD1E2DEBFCDBF0E
:1006700000E00CBF23E0AAE4B2E001C01D92AE3658
:10068000B207E1F712E0A0E0B2E0E4EDF5E200E04D
:100690000BBF02C007900D92AA34B107D9F713E03F
:1006A000C2E3D3E000E006C021970109802FFE01DC
:1006B0000E94D412C133D10780E00807A9F70E9435
:1006C0008D0E0C94E8120C940000CF93DF93FC0184
:1006D000862F8078A9F4283008F04DC0442321F0FB
:1006E0009581973009F447C0EF01A1E0B0E09D8506
:1006F000992341F011962596A031B105C1F73BC071
:1007000080E039C061111CC085E08A9FE0018B9FA9
:10071000D00D1124CE0FDF1F442331F081E48887F0
:1007200085818F5F858302C081E0888725E02A9FCD
:10073000C0012B9F900D1124E80FF91F80851BC06D
:100740006770660F660F660F442341F06064858111
:100750008F5F85838770687F682B03C02770687BF5
:10076000622B25E02A9FC0012B9F900D1124E80FDA
:10077000F91F6087862FDF91CF910895611102C024
:1007800006960895FC0121E03585631739F02F5F47
:1007900035962031C9F780E090E00895069635E05F
:1007A000239F800D911D1124089580E090E008950D
:1007B000FC01613499F49C01255B3F4F61E0AC0181
:1007C0004E5F5F4F15866687178654874387359639
:1007D000E217F307B9F7FC011582089521E035858A
:1007E000631729F02F5F35962031C9F70895622FDE
:1007F0000C94070BCF93DF93009761F0FC01649199
:10080000EF012196662331F089E592E00E943509D7
:10081000FE01F5CFDF91CF910895EF92FF920F93F4
:100820001F93CF93DF9321E030E0E12CF12C62178E
:1008300073073CF0EE0CFF1C6894E0F82F5F3F4F0D
:10084000F6CFE822F922EB0177FD2396D595C795DF
:10085000D595C79563707727672B09F021968E0190
:1008600001501109000F111F000F111F2197B7012F
:10087000002E02C0759567950A94E2F76F7077278E
:10088000072E000C880B990B40E10E94990A045036
:100890001109209759F7DF91CF911F910F91FF9088
:1008A000EF9008957F928F929F92AF92BF92CF92D6
:1008B000DF92EF92FF920F931F93CF93DF93CDB709
:1008C000DEB7C250D1400FB6F894DEBF0FBECDBF29
:1008D000182F762ECE0101965C0194E0C92ED12C02
:1008E00024E0E22EF12C02E0262F46E060E8812F82
:1008F0000E94D20B8B81CF5FDE4F8883C150D140E5
:100900008C81CE5FDE4F8883C250D140CF5FDE4FF7
:1009100088819981C150D1408130914060F087E356
:1009200095E00E94FA0380E091E0CF5FDE4F99836B
:100930008883C150D140CF5FDE4F88809980C150FD
:10094000D140CE0101965C016401740102E0272DC3
:1009500046E060E8812F0E94D20BB82E8E010F5F17
:100960001F4F7801E80CF91C0E151F0508F08EC109
:10097000F801D0808181843009F4CCC008F041C0F6
:10098000823009F051C187E193E00E94FA0385E0CB
:1009900093E00E94FA0360E170E0F80182819381A4
:1009A0000E940D0487EF92E00E94FA03F80184810F
:1009B00068E070E090E00E940D0487EE92E00E94F3
:1009C000FA03F801858168E070E090E00E940D0470
:1009D00086ED92E00E94FA03F801868168E070E0FB
:1009E00090E00E940D048AEC92E00E94FA03F80164
:1009F000878168E070E090E00E940D048DEB92E04A
:100A0000D1C0853009F4D8C0893209F00DC188EE13
:100A100094E00E94FA0389ED94E00E94FA03F80141
:100A200080810E94DA0A87EC94E00E94FA03F801C0
:100A300081810E94DA0A8AEB94E00E94FA03F801AD
:100A400082810E94DA0A87EA94E00E94FA03F801A0
:100A50008381837062E070E090E00E94ED0A85E996
:100A600094E00E94FA03F801838162E070E082FB67
:100A7000882780F990E00E94ED0A8CE794E00E94BC
:100A8000FA03F8018381869586958695837062E0E6
:100A900070E090E00E94ED0A8DE694E00E94FA0377
:100AA000F801838182958695837062E070E090E022
:100AB0000E94ED0A84E594E00E94FA03F801838124
:100AC00087FB882780F962E070E090E00E94ED0AE1
:100AD00088E494E00E94FA03F801848160E170E008
:100AE00090E00E94ED0A86E394E00E94FA03F80188
:100AF00085810E94DA0A83E294E00E94FA03F801F9
:100B000086810E94DA0A4801F7E08F0E911C87E087
:100B1000C82E7EC088EA93E00E94FA0387E993E03A
:100B20000E94FA03F801828168E070E090E00E9480
:100B30000D048CE893E00E94FA03F801838168E0D9
:100B400070E090E00E940D048DE793E00E94FA03AC
:100B5000F801848168E070E090E00E940D048CE66A
:100B600093E00E94FA03F801858168E070E090E06C
:100B70000E940D0488E593E00E94FA03F801868143
:100B800068E070E090E00E940D0484E493E00E942D
:100B9000FA03F801878168E070E090E00E940D049C
:100BA00083E393E00E94FA03F801808568E070E037
:100BB00090E00E940D0467C08AE094E00E94FA036E
:100BC00085EF93E00E94FA03F801828168E070E00B
:100BD00090E00E940D0489EE93E00E94FA03F80170
:100BE000838168E070E090E00E940D0487ED93E05F
:100BF0000E94FA0360E170E0F801848195810E940F
:100C00000D0482EC93E00E94FA03F8018681CECFB6
:100C1000CD14C8F5F40181914F0168E070E090E0D7
:100C20000E940D04C394F4CF81E295E00E94FA0380
:100C300085E195E00E94FA03F801808168E070E0A8
:100C400090E00E940D048BE095E00E94FA03F80109
:100C5000818168E070E090E00E940D048EEF94E0E6
:100C60000E94FA034801F2E08F0E911CC12CDC14A3
:100C700051F0F40181914F0168E070E090E00E9432
:100C80000D04C394F4CF0D0D111D6ECE8B2DCE5FD0
:100C9000DE4F0FB6F894DEBF0FBECDBFDF91CF9110
:100CA0001F910F91FF90EF90DF90CF90BF90AF908A
:100CB0009F908F907F9008959F92AF92BF92CF9216
:100CC000DF92EF92FF920F931F93CF93DF93CDB7F5
:100CD000DEB762970FB6F894DEBF0FBECDBF8C01B2
:100CE0008CE192E00E948B0AF801828168E070E05A
:100CF00090E00E940D048FE192E00E948B0AF801BF
:100D00009280CE0101965C0182E1C82ED12C92E145
:100D1000E92EF12C01E020E046E060E8892D0E94F8
:100D2000D20B182F811192C089E892E00E94FA0339
:100D300083E792E00E94FA03898168E070E090E026
:100D40000E940D048FE592E00E94FA038A8168E018
:100D500070E090E00E940D048EE492E00E94FA039D
:100D600060E170E08B819C810E940D048CE392E035
:100D70000E94FA038D8168E070E090E00E940D040B
:100D800088E292E00E94FA038E8168E070E090E0D1
:100D90000E940D0484E192E00E94FA038F8168E0D2
:100DA00070E090E00E940D0480E092E00E94FA035F
:100DB000888568E070E090E00E940D0480EF91E08B
:100DC0000E94FA0360E170E089859A850E940D0413
:100DD00080EE91E00E94FA0360E170E08B859C85D3
:100DE0000E940D048FEC91E00E94FA0360E170E034
:100DF0008D859E850E940D048AEB91E00E94FA0386
:100E00008F8568E070E090E00E940D0484EA91E034
:100E10000E94FA03888968E070E090E00E940D0467
:100E20008CE891E00E94FA03898968E070E090E024
:100E30000E940D0488E791E00E94FA038A8968E025
:100E400070E090E00E940D04EA880BC0E12C8FE96D
:100E500092E00E94FA0368E070E0812F90E00E9427
:100E60000D048CE192E00E94790A00E010E0F12C80
:100E70000E151F05C4F4602F892D0E945204D82E30
:100E8000882351F08FE992E00E94FA0368E070E055
:100E90008D2D90E00E940D048CE192E00E948B0A5F
:100EA0000F5F1F4FE5CF62960FB6F894DEBF0FBEFF
:100EB000CDBFDF91CF911F910F91FF90EF90DF9009
:100EC000CF90BF90AF909F900895CF93FC01C281C7
:100ED00084E292E00E94790A6C2F70E080E090E05A
:100EE00040E10E94990A8CE292E00E94790AC6FBD6
:100EF000662760F970E080E090E040E10E94990A86
:100F000087E492E00E94790A6C2F66956695669553
:100F1000677070E080E090E040E10E94990A87E409
:100F200092E00E94790A6C2F677070E080E090E098
:100F300040E10E94990A8EE292E0CF910C948B0AD4
:100F40003FB7F89480914F0290915002A0915102C6
:100F5000B091520226B5A89B05C02F3F19F001960B
:100F6000A11DB11D3FBFBA2FA92F982F8827820F2F
:100F7000911DA11DB11DBC01CD0142E0660F771F7F
:100F8000881F991F4A95D1F708952FB7F89460915B
:100F90004B0270914C0280914D0290914E022FBFF6
:100FA00008951F920F920FB60F9211242F933F9323
:100FB0008F939F93AF93BF9380914B0290914C027C
:100FC000A0914D02B0914E0230914A0223E0230FCE
:100FD0002D3720F40196A11DB11D05C026E8230F71
:100FE0000296A11DB11D20934A0280934B0290935B
:100FF0004C02A0934D02B0934E0280914F0290910B
:101000005002A0915102B09152020196A11DB11D52
:1010100080934F0290935002A0935102B0935202DA
:10102000BF91AF919F918F913F912F910F900FBEE4
:101030000F901F901895FC0120812EBD9B0121501F
:10104000310941F051810DB407FEFDCF4EB55EBDB3
:101050004193F5CF61507109FC01E60FF71F0DB404
:1010600007FEFDCF8EB58083089508952C980895CE
:101070002C9A089508958EBD00000DB407FEFDCF93
:101080008EB508958CBD9DBD08950F931F93CF938A
:10109000DF93182F062FEA0180E591E00E944208B5
:1010A0000E94360812601EBDFE01802F882339F091
:1010B0000DB407FEFDCF91919EBD8150F7CFC00FBB
:1010C000D11D0DB407FEFDCF0E943808CE01DF917F
:1010D000CF911F910F9108950F931F93CF93DF939B
:1010E0001F921F92CDB7DEB7182F062F80E591E033
:1010F0000E9442080E943608126019830A8362E047
:1011000070E0CE0101960E941B080E9438080F90E3
:101110000F90DF91CF911F910F910895CF93C82F1A
:1011200080E591E00E9442080E9436088C2F0E94C0
:101130003B0880E00E943B08C82F0E9438088C2F93
:10114000CF910895CF92DF92EF92FF920F931F936A
:10115000CF93DF936C017A018B01C0E0D0E0CE1514
:10116000DF0581F0D8016D918D01D601ED91FC91E3
:101170000190F081E02DC6011995892B11F021967F
:10118000EECF7E01C701DF91CF911F910F91FF90AC
:10119000EF90DF90CF900895FC01538D448D252F63
:1011A00030E0842F90E0821B930B541710F0CF9601
:1011B000089501970895FC01918D828D981761F033
:1011C000828DDF01A80FB11D5D968C91928D9F5F7E
:1011D0009F73928F90E008958FEF9FEF0895FC0129
:1011E000918D828D981731F0828DE80FF11D858DDC
:1011F00090E008958FEF9FEF0895FC01918D228D6F
:10120000892F90E0805C9F4F821B91098F739927F3
:10121000089589E592E00E94FD0821E0892B09F4F8
:1012200020E0822F0895FC01848DDF01A80FB11DFD
:10123000A35ABF4F2C91848D90E001968F7399270C
:10124000848FA689B7892C93A089B1898C918370EA
:1012500080648C93938D848D981306C00288F389E3
:10126000E02D80818F7D80830895EF92FF920F9310
:101270001F93CF93DF93EC0181E0888F9B8D8C8D42
:10128000981305C0E889F989808185FD26C0F62E6E
:101290000B8D10E00F5F1F4F0F731127E02E8C8D09
:1012A000E8120CC00FB607FCFACFE889F9898081F3
:1012B00085FFF5CFCE010E941309F1CF8B8DFE0182
:1012C000E80FF11DE35AFF4FF0829FB7F8940B8FA0
:1012D000EA89FB89808180620AC09FB7F894EE8911
:1012E000FF896083E889F9898081837080648083C5
:1012F0009FBF81E090E0DF91CF911F910F91FF9010
:10130000EF900895CF93DF93EC01888D8823C9F087
:10131000EA89FB89808185FD05C0A889B9898C91FE
:1013200086FD0FC00FB607FCF5CF808185FFF2CF99
:10133000A889B9898C9185FFEDCFCE010E94130950
:10134000E7CFDF91CF91089580E090E0892B21F0E5
:101350000E940909811125C080E090E0892B41F0AD
:1013600080E090E0892B21F00E94000081111CC0D8
:1013700080E090E0892B41F080E090E0892B21F023
:101380000E940000811113C080E090E0892BA1F041
:1013900080E090E0892B81F00E94000081110AC05A
:1013A00008950E940000D8CF0E940000E1CF0E9463
:1013B0000000EACF0C94000008950E94DC121F92F6
:1013C0000F920FB60F9211240BB60F922F933F93EB
:1013D0004F935F936F937F938F939F93AF93BF933D
:1013E000EF93FF9389E592E00E941309FF91EF913B
:1013F000BF91AF919F918F917F916F915F914F912D
:101400003F912F910F900BBE0F900FBE0F901F902A
:1014100018951F920F920FB60F9211240BB60F92D0
:101420002F938F939F93EF93FF93E0916902F09135
:101430006A028081E0916F02F091700282FD12C019
:101440009081809172028F5F8F7320917302821757
:1014500051F0E0917202F0E0E75AFD4F958F8093D2
:10146000720201C08081FF91EF919F918F912F9126
:101470000F900BBE0F900FBE0F901F9018958F927C
:101480009F92AF92BF92CF92DF92EF92FF926B0149
:101490007C010E94A0074B015C01C114D104E1044E
:1014A000F104F1F00E94A007DC01CB018819990931
:1014B000AA09BB09883E9340A105B10570F321E05C
:1014C000C21AD108E108F10888EE880E83E0981E60
:1014D000A11CB11CC114D104E104F10419F7DDCF42
:1014E000FF90EF90DF90CF90BF90AF909F908F9044
:1014F0000895009769F0FC0101900020E9F7319709
:10150000AF01481B590BBC0189E592E00C94A2087D
:1015100080E090E00895CF93DF930E94790AEC0178
:101520008CE192E00E94790A8C0F9D1FDF91CF9190
:1015300008958F929F92AF92BF920F931F93CF9374
:10154000DF93CDB7DEB7A1970FB6F894DEBF0FBE1D
:10155000CDBF19A2423008F44AE08E010F5D1F4F43
:10156000842E912CA12CB12CA50194010E94B212C1
:10157000E62FB901CA0101501109EA3014F4E05D07
:1015800001C0E95CD801EC93232B242B252B61F7B8
:10159000C8010E94790AA1960FB6F894DEBF0FBE6B
:1015A000CDBFDF91CF911F910F91BF90AF909F90D2
:1015B0008F900895CF93DF93682F70E080E090E0E4
:1015C00040E10E94990AEC018CE192E00E94790AC4
:1015D0008C0F9D1FDF91CF910895CF93DF93AB01C7
:1015E000672B31F4682F89E592E00E94350905C028
:1015F000BC0180E090E00E94990AEC018CE192E04D
:101600000E94790A8C0F9D1FDF91CF910895DF9280
:10161000EF92FF920F931F93CF93DF93EC01E62E8F
:10162000F12C85E0689FB0011124FE01E60FF71F41
:101630008085182F177086FF17C001E085E0D82E2F
:10164000FE01D09EE00DF11D1124808586958695C2
:10165000869587701817F9F00F5F003189F78D8133
:10166000811302C011501D8385E08E9DF0018F9D76
:10167000F00D1124EC0FFD1F108681E0818712868A
:101680002296D783C683DF91CF911F910F91FF9050
:10169000EF90DF900895602FCE010E94070BD0CF0E
:1016A00090E0FC01E55EF94F2491FC01EB52FA4F0A
:1016B0008491882399F090E0880F991FFC01E554EC
:1016C000FA4FA591B491FC01EF55FA4F8591949191
:1016D0008FB7F894EC91E22BEC938FBF08958F9223
:1016E0009F92AF92BF92CF92DF92EF92FF920F93B1
:1016F0001F93CF93DF93882E962E5A010E94C50721
:101700006B017C0128E8C20E23E1D21EE11CF11C12
:1017100000E010E0D0E0C0E098280E94C507DC019E
:10172000CB018C199D09AE09BF09B7FF2DC0692DEA
:1017300080EF0E946C080E94C507DC01CB018C1968
:101740009D09AE09BF09B7FF09C088EC0E948E0849
:1017500087FFF1CF60E888EC0E946C0888EF0E9458
:101760008E08C82FCF70C43019F0CE3051F00CC0A5
:101770000F5F1F4FA114B10481F20A151B0569F612
:1017800003C0DF5FD33049F68C2FDF91CF911F91DB
:101790000F91FF90EF90DF90CF90BF90AF909F9010
:1017A0008F9008952F923F924F925F926F927F9207
:1017B0008F929F92AF92BF92CF92DF92EF92FF9261
:1017C0000F931F93CF93DF93CDB7DEB760970FB61C
:1017D000F894DEBF0FBECDBF782E662E242E29874B
:1017E000302E2701682F87EF92E00E94BE037C0114
:1017F000009709F487C1DC010D911C911197011527
:10180000110509F481C113969C9180E0981709F4A1
:101810007DC1F8012081222321F00D5F1F4F8F5FD2
:10182000F5CF0115110509F471C182818695869560
:10183000282F30E02031310514F02FE030E041E076
:1018400050E060E070E004C0440F551F661F771F32
:101850002A95D2F74A01B1E08B1A9108672D80EEE4
:101860000E946C0888ED0E948E08F70194819923EC
:1018700029F060916D036260682B02C0682F697F58
:1018800088ED0E946C0869822A82F985FB833C827C
:101890001E821D8258864F82AE014F5F5F4F68E007
:1018A00080E20E944508A40160E080E10E946F0B85
:1018B000382E811125C1862D8078A114B10409F438
:1018C000A2C0882309F4A4C0D80112968C91129763
:1018D000826012968C93C88A4114510409F496C010
:1018E000F801F181FF87D80112968C9181FD02C029
:1018F00060E101C060E288EE0E946C081501612C75
:10190000712CA401F801608180E00E946F0B863089
:10191000C1F488EF0E948E0882958170F1E08F27D4
:10192000D80112969C91129780FB91F912969C9384
:1019300091FD02C060E101C060E288EE0E946C0887
:10194000E0CF81113DC188EC0E948E0882FF37C133
:1019500080E30E948E08898790E0C816D90610F4AB
:10196000B889B9877601E618F708F7FE02C0E12CBE
:10197000F12CF985EF2FF0E0FE87ED87EE15FF05DE
:101980000CF47F0180E591E00E9442080E94360835
:1019900088E00E943B08A70160E070E0C1010E945E
:1019A000E112E114F10421F0B701C1010E941B080A
:1019B0002E0C3F1C0E9438080E943A0864E088EC14
:1019C0000E946C082D853E85620E731E3F854985F9
:1019D0004317A0F488EF0E948E0882958170D80189
:1019E00012969C91129780FB91F912969C9346183F
:1019F00057086C147D0408F06FCF08C06C147D0488
:101A000008F47FCFE7CF882309F472C080EA71C061
:101A1000F80182818160828341808FEF840D803460
:101A200008F06CC00E94C5079B01AC0128573C4ED2
:101A30004F4F5F4F29873A874B875C87D8011296B3
:101A40008C9180FD02C060E401C060E888EE0E94D5
:101A50006C08512CC114D104C1F17201C414D50415
:101A600008F47601ED86A5016E2D80E10E944508FF
:101A70006E2D88E30E946C08F8016081606280EF3F
:101A80000E946C0888EC0E948E0887FFFBCF60E8FC
:101A900088EC0E946C0888EF0E948E088F70382EA8
:101AA000612C712C212C332009F484C00E94C507BD
:101AB000DC01CB0129853A854B855C85821B930B24
:101AC000A40BB50BB7FF76C023C0332021F060E034
:101AD00088E30E946C0888EF0E948E0885FB8827A7
:101AE00080F9F801928180FB90F99283311008C04F
:101AF00080E8A40160E00E946F0B62C08AED60C0C4
:101B0000832D5EC086ED5CC087ED5AC08BED58C05A
:101B1000F6E03F123AC088EF0E948E0885FB8827C6
:101B200080F951E08527D80112969C91129780FB8D
:101B300090F912969C9390FD02C060E401C060E8A9
:101B400088EE0E946C0860E088E30E946C08F50152
:101B5000608180E10E946C086D8588E30E946C08BA
:101B6000D8016C91606280EF0E946C0888EC0E9442
:101B70008E0887FFFBCF60E888EC0E946C0888EF36
:101B80000E948E088F70382E8ECF2EE0321205C044
:101B9000239443E02412D7CF9ACF34E0331297CF67
:101BA0003FEF631A730A8114910469F28614970453
:101BB00051F68DCFCE18DF08AE0CBF1C4BCF80EF97
:101BC00060960FB6F894DEBF0FBECDBFDF91CF9108
:101BD0001F910F91FF90EF90DF90CF90BF90AF904B
:101BE0009F908F907F906F905F904F903F902F903D
:101BF0000895CF92DF92FF920F931F93CF93DF93BD
:101C0000F62ED0E0082F10E0000F111F035B1C4FD1
:101C10006801D8018D919C91DC01ED91FC910280CD
:101C2000F381E02D2F2D40E060E01995803E59F4BE
:101C300061E088EE0E946C0866E670E080E090E06B
:101C40000E943F0A07C08D3019F4D33058F514C0F4
:101C500081112BC0F60180819181DC01ED91FC9115
:101C60000190F081E02D2F2D40E060E01995C82F04
:101C70008D3051F4D33050F464E670E080E090E0B1
:101C80000E943F0ADF5FC5CF882371F061E088EED4
:101C90000E946C0866E670E080E090E00E943F0AD7
:101CA0008C2F03C08DE001C080E0DF91CF911F91A8
:101CB0000F91FF90DF90CF90089588EF0E948E08DB
:101CC000807C8034A1F018F4882301F108958038D5
:101CD00019F0803CB9F0089588ED0E948E0881FDCE
:101CE0000BC069EC88ED0E946C0882E00CC088EDA6
:101CF0000E948E0881FDF5CF6BEC88ED0E946C0888
:101D000083E001C081E080935802089561ED88ED81
:101D10000E946C08109258020895CF93DF93CDB7BC
:101D2000DEB765970FB6F894DEBF0FBECDBF7894CF
:101D300084B5826084BD84B5816084BD85B58260D0
:101D400085BD85B5816085BD80916E008160809381
:101D50006E001092810080918100826080938100EA
:101D600080918100816080938100809180008160FA
:101D7000809380008091B10084608093B100809155
:101D8000B00081608093B000809191008260809368
:101D900091008091910081608093910080919000EA
:101DA0008160809390008091A10082608093A10067
:101DB0008091A10081608093A1008091A00081604A
:101DC0008093A00080912101826080932101809105
:101DD00021018160809321018091200181608093A5
:101DE000200180917A00846080937A0080917A004B
:101DF000826080937A0080917A00816080937A007B
:101E000080917A00806880937A001092C100E091FE
:101E10006902F0916A0282E08083E0916502F091AC
:101E200066021082E0916702F091680280E180838F
:101E300010927102E0916D02F0916E0286E0808353
:101E4000E0916B02F0916C02808180618083E0916F
:101E50006B02F0916C02808188608083E0916B025C
:101E6000F0916C02808180688083E0916B02F09138
:101E70006C0280818F7D808380E392E00E948B0AD8
:101E8000249A0E9438081FB7F89480915302811158
:101E900093C06AE076E0FB01849120E536E0F90129
:101EA0009491E82FF0E0EE0FFF1FE554FA4FA59153
:101EB000B4918C91892309F070C0E0E9F5E0449178
:101EC000F9012491FB019491992309F466C04423FC
:101ED00009F455C050E0FA013197E231F10508F0FC
:101EE0004EC08827EE58FF4F8F4F0C94D41280912C
:101EF00080008F7707C0809180008F7D03C0809124
:101F00008000877F809380003AC084B58F7702C0BD
:101F100084B58F7D84BD33C08091B0008F7703C0BE
:101F20008091B0008F7D8093B00029C08091900097
:101F30008F7707C0809190008F7D03C080919000C3
:101F4000877F809390001BC08091A0008F7707C08F
:101F50008091A0008F7D03C08091A000877F809337
:101F6000A0000DC0809120018F7707C080912001D3
:101F70008F7D03C080912001877F80932001E92F0E
:101F8000F0E0EE0FFF1FEF55FA4FA591B4919FB708
:101F9000F8948C91282B2C939FBF85E30E94500BC3
:101FA0008CB580618CBD8CB580648CBD84E30E944F
:101FB000500B83E30E94500B809153028F5F8093FC
:101FC00053021FBF209A289A809101018F7B809332
:101FD000010168E188E80E946C0860E288E70E94DD
:101FE0006C0860E088E70E946C0800E010E088E67A
:101FF0000E948E080F5F1F4F80FDE9C10F3FFFEF6A
:102000001F07A9F786E392E00E948B0A68EC70E054
:1020100080E090E00E943F0A5DEF252E52E0352ED1
:102020002E0183E1480E511C8091000186FD0DC0F8
:1020300088EC0E948E0885FF04C00E945D0E60E25D
:1020400001C060E088EC0E946C08809158028130E9
:1020500039F050F0823089F0833049F511E00EC03C
:1020600093E19093F60223C08091F602807F803145
:10207000F1F0A1E1A093F6021AC010E08091F602FF
:10208000807F8031A9F40E94C507DC01CB01885311
:102090009F4FAF4FBF4F8093540290935502A09330
:1020A0005602B093570280E28093F60201C010E01E
:1020B0004DE4842E43E0942E7401F70181919191B7
:1020C0007F01009739F0DC01ED91FC910680F781EA
:1020D000E02D1995BDE6EB16B3E0FB0671F7809194
:1020E000F602803409F446C060F4803241F1803356
:1020F000D9F1813109F046C110926D030DE413E06E
:102100000AC0813509F45DC0803809F46FC080359C
:1021100009F038C13EC0F801819191918F0100977B
:1021200039F0DC01ED91FC910480F581E02D1995E9
:10213000EDE6F3E0E017F10771F782E121C10E94BB
:10214000C50700915402109155022091560230911A
:102150005702DC01CB01801B910BA20BB30BB7FD27
:1021600011C180E38093F60261E088EE0E946C0862
:1021700080E406C188EE0E948E0880FD03C188EDD0
:102180000E948E08682F686088ED0E946C08F0E558
:10219000F3C088EC0E948E0886FFF4C081E580932E
:1021A000F6020E94C507DC01CB014496A11DB11DBA
:1021B0008093540290935502A0935602B093570215
:1021C000E1C00E94C507C0905402D0905502E09033
:1021D0005602F0905702DC01CB018C199D09AE0923
:1021E000BF09B7FDCFC080E88093F6021B8A88E064
:1021F0008C8B8CE38D8B2114310409F4BCC060906E
:10220000FD027090FE025092FE024092FD02109379
:102210000103DE0111965D0122E1C22ED12C32E1D3
:10222000E32EF12C01E020E046E060E880E00E942F
:10223000D20B7092FE026092FD02811198C0A984B7
:10224000BA84EB84FC840D81DE809DE4692E93E0EA
:10225000792EC12CF301808191810097C1F1DC01BD
:10226000ED91FC910084F185E02D199581112FC02D
:10227000F30180819181DC01ED91FC910088F1896D
:10228000E02D6D2D1995882311F1F3018081918145
:10229000DC01ED91FC910484F585E02DA701B501E9
:1022A000199581110DC0F30180819181DC01ED91BF
:1022B000FC910684F785E02D602F1995882339F06D
:1022C000612F8C2D0E94F90D813D09F050C0C394FF
:1022D000F2E06F0E711C80E1C812BCCF8DE4682E55
:1022E00083E0782EC12CF30180819181009709F061
:1022F0008AC0C39492E0690E711CA0E1CA12F3CFA8
:102300008091FD029091FE02892BA9F110930103A7
:1023100020E040E060E087EF92E00E946503782EC5
:10232000882349F1682F87EF92E00E94BE0300974F
:1023300011F1FC011483A12CB12CC12CD12CE12C66
:10234000F12C00E0272D45E060E080E00E94D20BF8
:10235000182F6CE271E080E090E00E943F0A1123A8
:1023600071F0672D87EF92E00E94D803812F8823B8
:1023700031F0823D39F0F0EAF093F60203C080E9D3
:102380008093F6028091F6028039F1F402E013E0C6
:10239000D80112968C91882319F0C8010E945C061E
:1023A0000B5F1F4F8016910699F702E013E0F801CA
:1023B0008281882319F0C8010E9465070B5F1F4FB7
:1023C00080169106A1F7FFCF0E94A4092DCE61ECE3
:1023D00088ED0E946C0860E680ED0E946C0864E065
:1023E00088EE0E946C0888EE0E948E0882FFFBCF68
:1023F0000E945D0E60E288EC0E946C0861E080E85B
:102400000E946C0803CEDC01ED91FC910084F18503
:10241000E02D199581116DCFF30180819181DC014F
:10242000ED91FC910088F189E02D6D2D199588239F
:10243000D9F0F30180819181DC01ED91FC9104845C
:10244000F585E02DA701B5011995811152CFF30152
:1024500080819181DC01ED91FC910684F785E02D6E
:10246000602F1995811145CF612F8C2D0E94F90D98
:10247000982F977F913D09F07ACF3BCF10925C0265
:1024800010925B0288EE93E0A0E0B0E080935D02E2
:1024900090935E02A0935F02B093600284E092E0AA
:1024A00090935A028093590285EC90E090936602D3
:1024B0008093650284EC90E09093680280936702B9
:1024C00080EC90E090936A028093690281EC90E046
:1024D00090936C0280936B0282EC90E090936E027A
:1024E00080936D0286EC90E09093700280936F026F
:1024F000109272021092730210927402109275027E
:1025000086E192E09093F8028093F7021092FC0229
:102510001092FF0281E0809300031092010389EF83
:1025200092E09093FE028093FD021092F90288E0FF
:102530008093FA028CE38093FB02E7EFF2E021E064
:1025400089EF92E0158626871786948783873596CC
:1025500033E0E234F307B1F710926D0381E1809329
:10256000F6020895A1E21A2EAA1BBB1BFD010DC0A5
:10257000AA1FBB1FEE1FFF1FA217B307E407F50733
:1025800020F0A21BB30BE40BF50B661F771F881F0F
:10259000991F1A9469F760957095809590959B01A5
:1025A000AC01BD01CF010895EE0FFF1F881F8BBF47
:1025B0000790F691E02D199481E090E0F8940C9446
:1025C000E812DC0101C06D9341505040E0F70895DE
:0425D000F894FFCFAD
:1025D400000000003509A208CC088209FD08DB08C8
:1025E400EF0800000000BE036503D8030D0A000DC8
:1025F4000A2D2D000D0A416464723A002800290056
:102604005374617274004F534320646964206E6F85
:0A261400742073746172742E0000CC
:00000001FF
