:020000040800F2
:10000000E81300209D010008CF200008ED1F000824
:10001000CD20000831050008894B000800000000D1
:100020000000000000000000000000009D25000806
:100030008505000800000000DD2000089F2500085D
:10004000B7010008B7010008B7010008B7010008B0
:10005000B7010008B7010008B7010008B7010008A0
:10006000B7010008B7010008B7010008B701000890
:10007000B7010008B7010008B7010008B701000880
:10008000B7010008B7010008B7010008B701000870
:10009000B7010008B7010008B7010008B701000860
:1000A000B7010008B7010008B7010008B701000850
:1000B000B7010008B7010008B7010008B701000840
:1000C000B7010008B7010008B7010008B701000830
:1000D000B7010008B7010008B7010008B701000820
:1000E000B7010008B7010008B7010008B701000810
:1000F000B7010008B7010008B7010008B701000800
:10010000B7010008B7010008B7010008B7010008EF
:10011000B7010008B7010008B7010008B7010008DF
:10012000B7010008B7010008B7010008B7010008CF
:10013000B7010008B7010008B7010008B7010008BF
:10014000B7010008B7010008B7010008D120000876
:10015000B7010008B7010008B7010008B70100089F
:10016000B7010008B7010008B7010008B70100088F
:10017000B7010008B7010008B7010008000000003F
:10018000B7010008B7010008DFF80CD000F096F9BD
:1001900000480047414F0008E81300200648804708
:1001A00006480047FEE7FEE7FEE7FEE7FEE7FEE75C
:1001B000FEE7FEE7FEE7FEE73526000889010008B6
:1001C0002DE9F05F0546002092469B46884606468C
:1001D000814640241BE0284641464746224600F01F
:1001E00000F953465A46C01A914110D31146184699
:1001F000224600F0E7F82D1A67EB01084F46224629
:100200000120002100F0DEF817EB00094E41201E0E
:10021000A4F10104DFDC484631462A464346BDE8E6
:10022000F09F40EA01039B0703D009E008C9121FB1
:1002300008C0042AFAD203E011F8013B00F8013BA0
:10024000521EF9D27047D2B201E000F8012B491ECC
:10025000FBD270470022F6E710B513460A46044663
:100260001946FFF7F0FF204610BD2DE9F04D81EA59
:10027000030404F0004B21F0004514464FF0000A3F
:1002800023F0004150EA050220D054EA01021DD0BB
:10029000C5F30A570246C5F31303C1F31300C1F3B4
:1002A0000A5640F4801543F48013A7EB0608101B90
:1002B000D64608F2FD3873EB050002D308F10108B9
:1002C00001E092185B41B8F1000F03DA002001460B
:1002D000BDE8F08D00204FF48011064684460EE004
:1002E000171B73EB050705D3121B63EB05030643CE
:1002F0004CEA010C49084FEA300092185B4150EA81
:100300000107EDD152EA030012D082EA040083EA29
:100310000501084305D0101BAB4106D20122002382
:1003200006E000224FF0004302E06FF0010253109C
:100330001AEB06004CEB085110EB0A0041EB0B01E5
:10034000BDE8F04D00F05DB80EB540F233410291CA
:100350000021CDE900110A460B4600F061F803B018
:1003600000BDC1F30A5210B5C1F3130140F2FF33CF
:1003700041F480119A4201DA002010BD40F233436B
:100380009A42A2F2334203DC524200F02AF810BD36
:10039000904010BD30B5041E71F1000404DB4FF035
:1003A0000044404264EB0101141E73F1000405DBBC
:1003B0001C464FF00043524263EB04038B4208BFDC
:1003C000824230BD202A04DB203A00FA02F10020EC
:1003D00070479140C2F1200320FA03F31943904083
:1003E0007047202A04DB203A21FA02F000217047EE
:1003F00021FA02F3D040C2F120029140084319468D
:10040000704710B5141E73F1000408DA401C41F166
:10041000000192185B411A4301D120F0010010BD88
:100420002DE9F04D92469B4611B1B1FA81F202E0FE
:10043000B0FA80F220329046FFF7C4FF04460F4620
:1004400040EA0A0041EA0B0153465A46084313D0DA
:10045000114653EA010019D0C8F140025046FFF797
:10046000C0FF05460E46504659464246FFF7AAFFD2
:10047000084305D0012004E020463946BDE8F08D50
:100480000020054346EAE0762C4337430A9863058B
:10049000E40AA0EB08000022FD0A44EA47540A30AF
:1004A00002D500200146E9E7010510196941DDE99F
:1004B000084500196941BDE8F04DA2E7064C074D1B
:1004C00006E0E06840F0010394E807009847103424
:1004D000AC42F6D3FFF75CFE4C5300086C530008A7
:1004E0000449054A31F8101052F82000012200F0AA
:1004F000C5BC000070500008000000200449054AF7
:1005000031F8101052F82000002200F0B7BC0000B3
:1005100070500008000000200349044A31F8101010
:1005200052F8200000F0A2BC70500008000000202B
:10053000FEE7000010B500224FEA020100EB820343
:10054000521CC3F88413102AF8D300224FF400730E
:100550008418521C84F81C119A42F9D3017041701E
:1005600001228270C0F8C413027640238371417661
:1005700080F81C1380F81D2380F81F1380F81E13C9
:10058000002010BD7047000010B5D0F87C03C4698E
:10059000782004F031FDE16E094A08610021017004
:1005A00041708170C1700171017580F8201080F870
:1005B000211080F82210C26380F82310084610BD75
:1005C0000074B70170B5D0F87C130125C969C96EF4
:1005D0000C69217829B10020012970D002296FD13E
:1005E00098E0617821296BD2DFE801F01115181D20
:1005F000202326292C2F3235383B3E4144484E5289
:10060000555A5D6063666B7073777B7F8300002152
:1006100000F024FA70E00722002101E00022052109
:1006200000F049FA68E000220621F9E796227A21D3
:10063000F6E701227E21F3E7FE227F21F0E7002288
:100640008221EDE750228621EAE720228721E7E791
:1006500001228821E4E77F229F21E1E70722A021F0
:10066000DEE710221D21DBE704221E21D8E71A2233
:100670001F21D5E700230F221A2102E000230122C7
:10068000202100F0EFF937E0002100F019F933E004
:100690000622012101E00022022100F09DF92BE059
:1006A00000220321F9E700220421F6E709220521AF
:1006B000F3E709220621F0E7184A002103E01EE0D3
:1006C0002AE0174A022100F04FF915E0154A0121EE
:1006D000F9E7012100F078F90EE0002303222D2133
:1006E000CFE7002303227021CBE7002303227121EF
:1006F000C7E70D4900F00AFA70B9012004E06178FB
:10070000202903D0491C6170207005E0022121706E
:10071000607001E020700025284670BDE0FD1C00DF
:1007200040420F0070CE2000204DF10510B5034669
:100730000220D3F87C13C969CA6E146994F8232087
:100740006AB1012A14D0022A08D10A6D0121184683
:1007500000F00AF9002801D184F8230010BD0A6DC9
:10076000002107E014F8231F0120491C217010BD4F
:100770000A6D0221184600F0F7F80028F2D010BDEB
:100780002DE9F04107460E46D7F87C1302200124DC
:10079000C969C96E0D6995F8201021B1012913D0DE
:1007A000022926D11CE036B1012E04D0022E02D03F
:1007B000032E1DD101E0032200E0002278213846FB
:1007C00000F079F938B113E00023062207213846FA
:1007D00000F048F9F6E715F8200F401C287008E0F3
:1007E0007006030E06220721384600F03BF918B1C7
:1007F00004462046BDE8F081002005F8200F04469D
:100800002E76F6E72DE9F05F4FF0000B054680F8F5
:1008100010B028480C4608442749022688429046D2
:10082000584644D2254900BF51F83070474507D992
:1008300001EBC00001792974C1F3C00B467902E0D5
:10084000401C0A28F0D3A8FB0601824689462246AE
:100850000023FFF7B5FCA4FB002C0746002303FB95
:1008600007C004FB0103BAEB020069EB03010904B2
:1008700041EA1041000422460023FFF7A1FC814613
:1008800080B2A4FB0001000C40EA0140FBB2090C5D
:10089000E4FB030132460023FFF792FC2C60C5E91C
:1008A0000180EE7385F811B0A5F80C90AF73BDE828
:1008B000F09F000000DC0BFF819FD5005451000821
:1008C0002DE9F04107460220D7F87C2300260125B8
:1008D000D269D26E1469D7F87C23D269D26E1269BC
:1008E000D27871B122B1012A06D10023202110E073
:1008F000002315E00120E570BDE8F0810020E670DE
:10090000FAE762B1012A13D0022AF5D100230722A7
:100910002421384600F0A6F80028EFD0ECE70923A0
:100920000F221A21384600F09DF80028E2D0E3E7B4
:1009300001231A462021384600F094F80028DBD124
:1009400001200221E170D7E730B48B78054CE45CDC
:100950004B7809789C409A40E4B2D3B2224630BC2E
:1009600000F080B89B50000870B503460D46D3F8E0
:100970007C130220C969C96E0C69217D51B101291E
:1009800007D1227E1846E169FFF7DEFF002800D17B
:10099000207570BD032D01D3002007E00849094BE5
:1009A00051F8251053F8250004F080FA0449A0619D
:1009B00005EB45000C310844E0610120207570BD55
:1009C000BC500008A000002009B1002300E0202353
:1009D0002022122100F046B82DE9F0410546022000
:1009E000D5F87C330026DB69DB6E1C69237983B183
:1009F000012B0CD12069217A42789140CBB2017849
:100A0000227B284600F02EF8002800D12671BDE890
:100A1000F08107290CD20F4B002553F821000E4B13
:100A20005B5C03E04757974203D06D1CAB42F9DC97
:100A3000354601EB41000849A560103108442061AA
:100A4000054A8178D21D4078515C81402173012094
:100A50002071DCE784000020945000080A46C82179
:100A600001F09EBB2DE9F04106461546D6F87C23E1
:100A70000220D269D46E2469A778A7B1012F10D1C2
:100A800092F84B2002EA0500984207D0AA432B4077
:100A90001A43304600F00FF8002802D1002001462A
:100AA000A170BDE8F0813046FFF7D8FF0028F8D1EB
:100AB00001200146F4E713460A46C82101F0A2BB13
:100AC00010B50446D0F87C03C069C06E006990F888
:100AD0003810426C29B1012903D002290AD0032918
:100AE0000BD00020C3B220460F22BDE810401021D9
:100AF000FFF7B8BF1021044802E00348102140303E
:100B000004F0D4F9EEE70000D450000870B5D0F836
:100B10007C230125D269D26E146994F8212022B178
:100B2000012A0BD0022A17D111E0E06B0A460146D8
:100B300004F12400FFF766FE012005E004F1240122
:100B400000F012F838B9022084F8210004E00721EF
:100B5000FFF784FF10B10546284670BD002084F8D9
:100B600021000546F8E7000070B50346D0F87C0385
:100B700001240E46C069C06E056995F8220006285A
:100B800049D2DFE800F003060C0F223E327C0D2133
:100B900001E0B27B09211846FFF78DFF29E0327B87
:100BA0000A21F8E7B0890B21020A1846FFF783FFF4
:100BB00000BB95F821001422401C85F82100314625
:100BC00005F13C00FFF72DFB25E01449686C8842D5
:100BD00001D200210AE01249884201D2012105E038
:100BE0001049884201D2022100E003211846FFF794
:100BF000C7FD08B104460EE015F8210F401C28700F
:100C000009E01846FFF75CFF10F0FF0403D1002055
:100C100085F821000446204670BD0000003B5808BE
:100C20008093DC14C0B9A6430120FFF775FC642053
:100C300000F012F80120FFF76FFC642000F00CF8C0
:100C40000120FFF769FC642000F006F80120FFF79F
:100C500063FC72B6FEE7000070B5044600F014F9BC
:100C60000546601C02D004480078044400F00CF9EA
:100C7000401BA042FAD370BD180000202DE9F84FA8
:100C8000DFF8BCA10022012503264FF00F090AF16D
:100C9000040BAAF1040E00BF0B6805FA02F423400E
:100CA000A34270D10F7907F00307012F01D0022F63
:100CB00016D187684FEA420806FA08FC27EA0C07B3
:100CC000D1F80CC00CFA08FC4CEA070CC0F808C0BC
:100CD0004768A7430C79C4F3001494403C43446034
:100CE0000C79E443A4070AD0C4684FEA420C06FA20
:100CF0000CF7BC438F6807FA0CF72743C7600C79E1
:100D000004F00304022C12D1D40800EB840CDCF8AC
:100D100020405707FF0E09FA07F824EA0804D1F823
:100D2000108008FA07F848EA0408CCF82080046824
:100D30004FEA420C06FA0CF7BC430F7907F00307A1
:100D400007FA0CF7274307604C6814F4403F70D053
:100D50003C4C276847F480472760246822F003074B
:100D600004F480440094384C07EB040CDCF8084889
:100D700097074FEA177809FA08F7BC43334FB84290
:100D800002D1002724E054E0314FB84201D10127BD
:100D90001EE0304FB84201D1022719E02E4FB84271
:100DA00001D1032714E02D4FB84201D104270FE0F1
:100DB0002B4FB84201D105270AE02A4FB84201D192
:100DC000062705E0284FB84201D1072700E0082791
:100DD00007FA08F72743CCF80878DAF800405746B6
:100DE000D1F804C09C435FEACC2C00D51C433C6086
:100DF000DBF800405F46D1F804C09C435FEA8C2CCE
:100E000000D51C433C60DEF800407746D1F804C0B2
:100E10009C435FEA8C3C00D51C433C60084F083F74
:100E20003C68D1F804C09C435FEACC3C00D51C432D
:100E30003C60521C102AFFF42FAFBDE8F88F000071
:100E4000083C0140443802400030014000000240AC
:100E50000004024000080240000C02400010024062
:100E60000014024000180240001C0240426921EABE
:100E700002030A4043EA0241816170470AB181617D
:100E800070470904FBE700000148806870470000D4
:100E900018000020D0F8000302F013BCD0F80003C3
:100EA00002F019BC006803F08DBB006803F08EBB34
:100EB00001EB410202EBC10100EB810090F8600000
:100EC000704701EB410202EBC10100EB8100006DB4
:100ED000704710B5044690F8F802012809D00120A7
:100EE00084F8F802206803F07CFB002084F8F80204
:100EF00010BD022010BD2DE9FE430546DDE90B7053
:100F000095F8F842DDF828C0012C1ED001EB410411
:100F100004EBC1044FF0010905EB840485F8F89255
:100F2000002684F83D6084F83830A4F8400084F846
:100F3000391084F83F7002F07F0884F83A805FEA45
:100F4000026805D584F83B9004E00220BDE8FE83EA
:100F500084F83B6084F83CC0CDF800C0CDE9017056
:100F6000286803F0A1FB85F8F862EFE770472DE9E8
:100F7000F00301EB4104DDE906C9DDE9087504EB86
:100F8000C10400EB8404022684F83B2084F83F303F
:100F9000BCF1000F0AD084F8426000256BB1012B30
:100FA0002FD0022B12D0032B16D10FE04FF00308E5
:100FB00084F8428084F83D50EFE7BCF1010F0BD17B
:100FC00052B9DFB9012284F8552003E0B2B194F898
:100FD0005420B2B184F84260C4F84490E76484F8C5
:100FE0006050256584F8391084F86150027C04F162
:100FF00038010068BDE8F00303F0DFBB94F855202A
:10100000E7E784F84250E7E72DE9F0410668044637
:10101000304603F0E2FA012875D1206803F0F1FCB4
:10102000002870D0206803F0ECFC800203D5216812
:101030004FF400104861206803F0E3FCC00203D5C0
:1010400021684FF480104861206803F0DAFC400109
:1010500003D521684FF080604861206803F0D1FC1F
:10106000800702D5216802204861206803F0C9FC8E
:10107000800015D521684FF000504861D6F8400433
:10108000C0070DD11021304603F07CFA304603F042
:101090005BFA0121206803F099FC2046FFF7FEFE71
:1010A000206803F0AEFCC00102D5204600F00EFF20
:1010B000206803F0A6FC000705D5204600F0C7F81D
:1010C000216808204861206803F09BFCC043C006EB
:1010D0000CD42068816921F010018161204600F064
:1010E0003FFF2068816941F010018161206803F0B1
:1010F00088FC800123D5206803F05BFB07460025B0
:101100004FF0010814E01AE005F00F0108FA01F0B1
:1011100038420CD006EB4510D0F80005E9B20004C7
:10112000204602D500F0CFFC01E000F0C1FD6D1CAF
:10113000A068A842E8D821684FF000704861BDE877
:10114000F08170B58AB0040005D094F8F9022568E2
:10115000002618B107E001200AB070BD84F8F862DB
:10116000204600F027F8032084F8F902E86BC00558
:1011700000D42661206803F0B3F904F1100128229D
:101180000D466846FFF74DF894E80F0003F04EF95E
:101190000121206803F071FC282229466846FFF7E8
:1011A00040F894E80F0003F0A9FB012084F8F9024D
:1011B0000020D1E710B586B0044614216846FFF739
:1011C00049F82068B0F1A04F2FD1194800210268DA
:1011D00042F001020260006800F0010005904FF447
:1011E000C05000900220CDE90101032003900A20A5
:1011F000049069460F48FFF741FD0D48001D016846
:1012000041F0800101600A481430016841F48041D6
:1012100001600068002200F48040059011464320E0
:1012200000F0AAF8432000F099F806B010BD0000C5
:101230003038024000000240D0F8000302F0C6BA85
:10124000D0F8000302F0C6BA006803F0FDBBD0F886
:10125000000302F076BA10B5044690F8F8020128AF
:101260000DD0012084F8F8020121206803F050F924
:10127000206803F063F9002084F8F80210BD022012
:1012800010BD10B5044690F8F802012809D00120DD
:1012900084F8F802206803F01EFC002084F8F802AD
:1012A00010BD022010BD0000024881680278114480
:1012B00081607047180000200B4810B5016841F4A8
:1012C00000710160016841F480610160016841F4CE
:1012D00080710160032000F06FF80F2000F006F825
:1012E00000F024F8002010BD003C024070B50D4D08
:1012F00004464FF47A712878B1FBF0F00A49096886
:10130000B1FBF0F000F00AFB48B9102C07D2002224
:101310002146501E00F030F800206C6070BD0120A6
:1013200070BD000018000020240000200A4808B505
:10133000016841F480410160006800F48040009041
:101340000548001F016841F080510160006800F00D
:101350008050009008BD000044380240002809DB9E
:1013600000F01F02012191404009800000F1E020BF
:10137000C0F8001170470000F0B40E4B1B680C461B
:10138000C3F30223C3F10705042D00D90425191D59
:10139000072901D2002300E0DB1E012606FA05F131
:1013A000491E214099409E40761E16403143F0BCB4
:1013B00003F0FCBB0CED00E0064900F007020868F2
:1013C0004FF6FF03184040EA0220034A104308602A
:1013D000704700000CED00E00000FA052DE9F04731
:1013E0000E46050065D0DFF81481D8F80000F7B28A
:1013F00000F00700B04207D288F80070D8F800006B
:1014000000F00700B04254D128683D4C810712D546
:10141000400703D5206840F4E0502060287800079A
:1014200003D5206840F4604020602068A96820F05F
:10143000F000084320602878C0072DD03049686844
:101440000839012812D0022813D0032811D00968C6
:10145000890700292DDA216821F003010143216069
:10146000FFF712FD814641F2883A0EE009688903D0
:10147000EFE709688901ECE7FFF706FDA0EB09013A
:10148000514502D90320BDE8F0872068696800F063
:101490000C00B0EB810FEFD1D8F80010404601F0FE
:1014A0000701B14207D90770006800F00700B04299
:1014B00001D00120E7E72878400705D52068E968D2
:1014C00020F4E050084320602878000706D5206803
:1014D000296920F4604040EAC100206000F038F83B
:1014E0002168084AC1F30311515CC84006490860ED
:1014F00006480068FFF7FAFE0020C4E7003C0240FF
:10150000083802407A500008240000201C00002007
:101510000448054900680968044AC1F38221515C06
:10152000C840704724000020083802408A50000854
:101530000448054900680968044AC1F34231515C16
:10154000C840704724000020083802408A50000834
:10155000154810B5006810F00C02144813D0411063
:10156000042A0FD0082A0ED10F4C241F22682368AA
:1015700002F03F025B0207D52068C0F38810A0FB91
:10158000010106E0084610BD2168C1F38811A1FBE6
:1015900000010023FEF714FE2168C1F30141491C3C
:1015A0004900B0FBF1F010BD083802400024F400FF
:1015B0002DE9F84F04006ED02078DFF84C93C00777
:1015C000A9F104054AD009F104000168C1F38101C1
:1015D000012908D00068C0F3810002280AD1D9F897
:1015E0000000400206D52868800337D560680028CF
:1015F000E1D033E06068B0F5803F10D0B0F5A02FA7
:10160000286810D020F480302860286820F48020DA
:1016100028606068A8B1FFF737FC06460DE028682F
:1016200040F48030F4E740F480202860F7E700BF02
:10163000FFF72AFC801B642873D828688003F7D53D
:101640000CE0FFF721FC064605E000BFFFF71CFC9D
:10165000801B6428F0D828688003F7D42078DFF84E
:10166000AC8280074FF0000A3ED5A748001D0168F4
:1016700011F00C0F08D00068C0F3810002280BD1D4
:10168000D9F80000400207D42868800716D5E06822
:10169000012800D112E033E1E068B8B10120C8F8B8
:1016A0000000FFF7F1FB064605E000BFFFF7ECFB8B
:1016B000801B0228C0D828688007F7D528682169D0
:1016C00020F0F80040EAC10028600DE0C8F800A052
:1016D000FFF7DAFB064604E0FFF7D6FB801B022883
:1016E0001FD828688007F7D42078000722D5864FB6
:1016F00087486169703771B101210160FFF7C4FB50
:10170000064604E0FFF7C0FB801B022809D83868B2
:101710008007F7D50EE0C0F800A0FFF7B5FB06463E
:1017200005E082E0FFF7B0FB801B02287DD8386817
:101730008007F7D42078400768D5DFF8CCB10027C0
:101740000BF13C0BDBF80000C0000BD4DBF8001001
:1017500041F08051CBF80010DBF80000012700F0C9
:10176000805000906B4E3068C00510D4306840F453
:1017700080703060FFF788FB009005E0FFF784FB86
:101780000099401A022850D83068C005F6D55E4E40
:10179000A0686C3601280FD00528306810D020F0E2
:1017A00001003060306820F004003060A068B8B1FB
:1017B000FFF76AFB00900FE0306840F00100F4E7AB
:1017C00040F004003060F7E7FFF75EFB0099411A34
:1017D00041F28830814266D830688007F4D50EE047
:1017E000FFF752FB009007E0FFF74EFB0099411A0C
:1017F00041F28830814256D830688007F4D42FB146
:10180000DBF8001021F08051CBF80010A069C8B3BC
:101810003D49091D0968C1F3810102294AD0022806
:10182000504607D0C8F8600000E03CE0FFF72CFB12
:1018300004463BE04746C8F86000FFF725FB064634
:1018400005E000BFFFF720FB801B02282BD828688B
:101850008001F7D4D4E907010843A16A2E4A490858
:1018600002EB0141626A41EA8211084394F82C10AC
:1018700040EA0161C9F8001001203866FFF704FB57
:10188000044606E03EE000BFFFF7FEFA001B022818
:1018900009D828688001F7D534E000BFFFF7F4FAD3
:1018A000001B022802D90320BDE8F88F28688001B8
:1018B000F4D427E00128F7D0D9F80000E26900F459
:1018C000800191421CD1226A00F03F01914217D160
:1018D00047F6C071626A0140B1EB821F10D1A26A63
:1018E0004FF0FF3300F4403103EB5202B1EB024FF3
:1018F00006D194F82C1000F07060B0EB016F01D0AD
:101900000120D1E70020CFE7043802400000474221
:10191000800E4742007000400000FFFF10B5401EDF
:10192000B0F1807F01D3012010BD4FF0E024606151
:101930000F21601703F03AF90020A0610720206111
:10194000002010BD70B5040004D094F83D000025BF
:1019500010B106E0012070BD84F83C50204600F034
:1019600023F8242084F83D002068C16821F4005148
:10197000C160204600F066FE2068016921F49041B4
:1019800001612068416921F02A0141612068C16834
:1019900041F40051C1602564202084F83D0084F8A2
:1019A0003E00002070BD000010B586B00446142132
:1019B0006846FEF74FFC14492068884221D113483D
:1019C0000021026842F010020260006800F010007E
:1019D00005900E481438026842F001020260006867
:1019E00000F0010005904FF4C06000900220CDE9A6
:1019F0000101032003900720049069460448FFF783
:101A00003DF906B010BD000000100140443802400E
:101A1000000002402DE9F843044690F83D001F46BF
:101A200016460D4620284CD1C5B1BEB194F83C00F5
:101A3000012846D0012084F83C004FF00008C4F88B
:101A40004080212084F83D00FFF71EFAA6848146DD
:101A5000E684A068B0F5805F03D004E00120BDE813
:101A6000F883206928B12E465FF0000584F83C8099
:101A70000EE00026FAE78021204600F069FEA0B9BA
:101A8000AEB116F8010B21684860E08C401EE0847E
:101A9000E08C4B464FF0000200970028EBD14FF04E
:101AA0004001204600F054FE30B10320D7E735F85E
:101AB000020BC0F30800E6E7202084F83D00002078
:101AC000CDE70220CBE72DE9F047074600680D4639
:101AD00000EB4116D6F8080501EB4103420703EB82
:101AE000C5014FF006004FF004084FF0050A07EB60
:101AF000810401D541463CE0D6F80815C90507D553
:101B00004FF48070C6F80805072084F861001CE0D7
:101B1000D6F80815890603D52020C6F8080518E070
:101B2000D6F808150A074FF0080104D5C6F80815BD
:101B300084F861A009E0D6F80825520514D54FF4C1
:101B40008060C6F8080584F861102946386802F0FC
:101B500048FDD6F8080580050ED52946386802F0FC
:101B600040FD4FF40070A0E0D6F808150906F0D546
:101B70008021C6F80815C8E7D6F808054FF000011F
:101B8000C0074FF010094FF001023BD0386930B167
:101B9000A06CD6F81035C3F31203C01A206584F880
:101BA0006120E165C6F8082594F83F0030B10228AD
:101BB00004D0032809D0012807D012E0294638684C
:101BC00002F00FFDC6F808950BE0D6F8000540F0CE
:101BD0000050C6F8000584F8602029463846FFF713
:101BE000C5F93869012806D1B4F84010A06CB0FBE3
:101BF000F1F0C00704D014F8540F80F001002070F9
:101C0000BDE8F087D6F80805800735D594F861005F
:101C1000022301280AD005280BD006280CD008285A
:101C20000AD003280FD0072818D01CE084F86020C1
:101C300019E084F860A016E0E06D401CE065022821
:101C400001D9E1650DE084F86030D6F8000520F098
:101C5000804040F00040C6F8000504E0E06D401C04
:101C6000E06584F86080C6F8083594F8602029465D
:101C70003846FFF77BF9C3E7D6F80805C006BFD59D
:101C800094F83F00032803D020B1022802D00BE0D3
:101C9000E16505E0E165386930B9032084F8610049
:101CA0002946386802F09DFC4846C6F80805A7E7B3
:101CB0002DE9F047026802EB4114D4F8082501EB46
:101CC0004103550703EBC1034FF004024FF0060A2E
:101CD00000EB830304D5C4F8082583F861A051E024
:101CE000D4F808554FF00007AD064FF0020C0BD5A5
:101CF0002022C4F8082593F83D20012A33D183F827
:101D00003D7083F860C03DE0D4F80855AD0504D5BA
:101D10004FF40072C4F8082534E0D4F808554FF0A9
:101D200001065FEAC5784FF040050DD0DF65D4F8B5
:101D30000825520603D583F83D60C4F80855C4F859
:101D4000086583F861601DE0D4F808855FEA48689B
:101D50000BD583F8612083F83D60DF65006802F0F1
:101D600040FCC4F80855BDE8F087D4F808554FF09A
:101D700008095FEA05784FF0050508D5C4F808950D
:101D800083F861500068BDE8F04702F02ABCD4F83F
:101D900008855FEAC86810D50322DF6583F86120F3
:101DA00093F83D2022B993F83C200AB983F83D60AE
:101DB000006802F016FC10201AE0D4F808855FEAEB
:101DC000086818D5056955B1DD6D6D1CDD65022DFE
:101DD0000BD9DF6583F86020FFF7C8F807E083F8C8
:101DE00061A0006802F0FDFB01E083F860C0802084
:101DF000C4F80805B7E7D4F808855FEA485807D55E
:101E000083F86190006802F0ECFB4FF48060EFE72C
:101E1000D4F808855FEA8878A5D593F86180B8F191
:101E2000010F0FD0B8F1030F30D0B8F1040F2DD04F
:101E3000B8F1050F2DD0B8F1060F2DD0B8F1080F6D
:101E40002AD03CE083F8606093F83F20022A01D05A
:101E5000032A34D102692AB993F8552082F001028D
:101E600083F855200269012A29D1DA6C3AB3B3F814
:101E700040502A44521EB2FBF5F2D2071FD093F80D
:101E8000552082F0010283F8552018E083F860C0E5
:101E900015E083F8605012E0DD6D6D1CDD65022DEC
:101EA00003D9DF6583F8602009E083F860C0D4F8C7
:101EB000002522F0804242F00042C4F80025C4F818
:101EC00008C593F86020FFF751F84CE77CB504682B
:101ED0000546D4F840040190D4F8400420F02E00C8
:101EE00000900198800709D50198C00702D02846C4
:101EF000FEF7D0FF009840F0020000900198000724
:101F000024D5009840F008000090019840071AD5A9
:101F1000A869022803D0E86801280CD00FE00198D6
:101F2000C0F341400228286803D0012102F04EFD91
:101F300005E00221FAE74EF66020C4F804042846C2
:101F4000FFF77EF902E02846FFF776F90198800650
:101F5000009802D540F020000090C4F840047CBDF9
:101F60002DE9F041024600680646016AC1F3434389
:101F700001F00F07C1F30A15022B31D1002D2FD02C
:101F800007EB470101EBC70102EB8104616C0029FB
:101F900026D0226DE36C2A449A4223D82A4602F0C6
:101FA00034FD606C28446064206D2844206506EB95
:101FB0004710D0F81015B4F84020C1F3C941AA4227
:101FC0000ED100290CD0D0F8001521F0804141F04D
:101FD0000041C0F8001514F8540F80F00100207083
:101FE000BDE8F081042084F86000F9E7FEE7000016
:101FF00070B586B014216846FEF72CF91D48002400
:10200000016841F010010160016801F010010591C3
:10201000016841F080010160016801F080010591D3
:10202000016841F0010101600068134E00F00100F9
:1020300005900022C0213046FEF720FF1820CDE990
:10204000000469460D480294FEF718FE0125CDE90B
:102050000054694630460294FEF710FEC0200090FE
:10206000CDE90154694630460394FEF707FE06B0F9
:1020700070BD0000303802400000024000100240F5
:1020800010B501220B490C4801F0CAFA08B1FEF75D
:10209000CBFD0A49084802F0CDF808B1FEF7C4FDAF
:1020A000054802F0A9F9002803D0BDE81040FEF76A
:1020B000BBBD10BD0D440008FC040020280000201A
:1020C000014801F0B5BC0000FC040020FEE7FEE77B
:1020D0000148FEF799BF0000D4080020704770B592
:1020E000D0F87C438578E469012D0DD161822021EF
:1020F00041EA0221A182C021017400214174A18A18
:102100004182618A8182C3821A4604F1160100F07D
:10211000AAFBE18B218270BD2DE9F041D0F87C4310
:102120001746069AE4690125002694F80EC0BCF112
:10213000000F03D0BCF1010F2CD124E090F802C0B5
:10214000BCF1010F14D141F010016183202141EA5B
:102150000721A183D9B2012A10D01B0AA377E17706
:10216000402101744674A18B4182618B8182C282BD
:1021700004F11E0100F077FB10B10AE0A177EEE751
:102180000120A07306E001231A460A21FFF7A7FFEA
:1021900018B105462846BDE8F081A6730025F9E789
:1021A000F8B51346D0F87C2301240027D5690A46E8
:1021B0002646A5F8481085F84A3085F84B7095F802
:1021C0006B1011B1012914D109E005F14A03062170
:1021D000009600F0A3F948B985F86B6009E005F1B5
:1021E0004C030621009600F06BF820B1032800D0C4
:1021F00004462046F8BD15F84C0F3C4605F8010C86
:10220000EF77F6E738B5D0F87C43E469A4F84210DC
:1022100084F8442084F84530022200920A4604F1F2
:102220004403062100F07AF938BD000070B503467A
:102230000220D3F87C130425CC6994F86A10052990
:1022400016D2DFE801F00316202C37000222C82145
:102250001846FFF7A5FF08B1032809D194F84B00F1
:10226000402801D0012017E01448E0661FE001205B
:1022700070BD0022C6211846FFF792FF08B103285F
:10228000F6D1022008E0002234211846FFF788FF2B
:1022900008B10328ECD1032084F86A00E7E70022A4
:1022A00074211846FFF77CFF08B10328E0D184F8B9
:1022B0006A50DCE7002084F86A0070BD70000020DE
:1022C000F0B40D46D0F87C138678049CC969012EC1
:1022D00009D12D02CD87C0250574002545744282A1
:1022E000C98F8182C4822246F0BC194600F0BBBA75
:1022F000F8B5D0F87C1301250023CC692E4694F85C
:10230000221031B101292ED002293BD003294BD113
:1023100047E02648002100BF10F821206718491C1B
:1023200087F824200829F7DB5FF0000100EB810229
:1023300001EB4107B2F820C007EBD77704EB670742
:10234000928C4FEA1C1E87F82CE0C2F3032E4EEA53
:102350000C1C87F82DC0891C87F82E200829E5DB86
:1023600004F8226F1BE0009694F8232004F1240166
:10237000535C01211C32FFF7CFFEA8B9022084F87C
:10238000220011E094F82300132805D0401C84F8A3
:10239000230084F8226007E0032004F8220F637012
:1023A00002E084F8223000252846F8BDB852000823
:1023B00008B50122009209B1182300E01023012280
:1023C0001146FFF7A9FE08BDF0B506462DED028BBC
:1023D0000224D0F87C0381B02246C569012095F81B
:1023E00054300A2B7FD2DFE803F005394C51575C9B
:1023F000626266750846FDF7A7FF0E4646EC100BB5
:102400009FED3D8B044653EC102B51EC180BFDF760
:102410002CFFFDF7A6FF3A49084000F00061A865CF
:1024200040EA4100E8655435FDF78EFF41EC100BA2
:1024300051EC180B53EC102BFDF717FF41EC100B70
:1024400046EC114B85ED030B53EC102B51EC110BAB
:10245000FDF7A0FF4FF00104287838E00121304655
:10246000FFF7A6FF78BB15F8540F0124401C05F8B0
:10247000040995ED040B51EC100BFDF772FF286079
:1024800031E0E86EC1683046884703E001213046FC
:10249000FFF78EFFC0B125E00092A86D030C9F22CC
:1024A0000CE00092B5F85800A12283B206E00023A8
:1024B0003F22009002E014230122009001213046C7
:1024C000FFF72AFEE6E70DE015F8540F0124401C43
:1024D000287008E001220090102311463046FFF7D3
:1024E0001BFE28B1044601B02046BDEC028BF0BDB6
:1024F000002485F85440F6E7000000004077DB42F6
:10250000FCFFFF0F08B50122009209B1032300E090
:10251000052319220021FFF7FFFD08BDF0B40C468A
:10252000D0F87C138678049DC969012E0CD1102641
:1025300046EA042421F8404F4024047400244474E3
:10254000428209888182C5822A46F0BC194600F081
:102550008AB9F0B40C46D0F87C1315468678049AF4
:10256000C969012E13D1102646EA04240C87DCB277
:10257000012A10D01B0A81F83A3081F83B404023F1
:1025800003740023437445820B8F8382C282F0BCA4
:102590003A3100F068B981F83A40EEE77047FEF74B
:1025A00083BE000030B593B030216846FDF752FE7F
:1025B00014210CA8FDF74EFE1C480025016841F0CF
:1025C00080510160006800F0805011901848016847
:1025D00041F4804101600068022400F480401190C1
:1025E00001200090000401908001CDE90640042004
:1025F0000890A820CDE9090407200B906846FEF753
:10260000D7FF70B90CA90F2081E831004FF4A0501A
:102610000F90E002109005210CA8FEF7DFFE0028C5
:1026200001D0FEF701FB13B030BD0000403802407E
:10263000007000400248016841F470010160704779
:1026400088ED00E070B5044600680169E26821F495
:102650004051114301612169A068E2690843616941
:10266000114308432168CA6849F20C639A43024344
:10267000CA6020684169A26921F440711143416137
:1026800031492068884202D03049884202D1FEF7A1
:102690004FFF01E0FEF73CFFE269002319216425AA
:1026A0003226B2F5004F626828D0A0FB0101930FDB
:1026B0009200FDF785FD0146B0FBF5F06FF01802C2
:1026C000504301EB800006EB0010B0FBF5F000F08A
:1026D000F002B1FBF5F002EB0012B1FBF5F06FF088
:1026E0001803584301EB800006EB0010B0FBF5F037
:1026F00000F00F0021681044886070BDA0FB01014C
:1027000092185B41FDF75CFD0146B0FBF5F002015C
:10271000B1FBF5F06FF01803584301EB800006EBB6
:10272000C000B0FBF5F000F0F80002EB4002B1FB96
:10273000F5F0584301EB800006EBC000B0FBF5F06C
:1027400000F00700D6E7000000100140001401402F
:102750002DE9F041984617460E460446069D27E0AF
:10276000681C25D02DB1FEF78FFBA0EB0800A84216
:102770001ED920680C3050E8001F21F4D07140E8C9
:102780000012002AF5D12068143050E8001F21F013
:10279000010140E80012002AF5D1202084F83D0014
:1027A00084F83E00002084F83C000320BDE8F0815E
:1027B0002068006836EA000004D00020B842CFD07C
:1027C0000020F3E70120F9E710B500224FF6FF7370
:1027D00000EB8204B4F8844324040BD49A4207D05B
:1027E00002F00F0300EB830041F40041C0F88413B2
:1027F000D0B210BD521CD2B2102AE9D31A46F7E764
:102800007FB51C46012501AE0023009586E80E0029
:1028100002232A46214601F011F804B0002070BDC1
:1028200010B500F045FF002010BD8278012A07D1C5
:102830000222027401224274002242828182C282F8
:102840000022114600F00FB87FB51C46012501AEED
:102850000023009586E80E002A46214600F0EEFF90
:1028600004B0002070BD70B504460120A378054671
:10287000012B0BD0022B08D1204600F0FDFB58B1F4
:10288000032809D0022800D1A57070BDA160A281E3
:1028900025760221A17070BDA5700021217670BD42
:1028A0007FB51D4690F81D33089C03B10024012319
:1028B000CDE90031CDE9022400231A46294600F073
:1028C000BDFF04B0002070BD1FB500231446CDE944
:1028D00000310822CDE902231A46214600F0AEFF5E
:1028E00004B0002010BDFEF7B7B9000070B5054672
:1028F000002005F54E7500BF00EB800404EBC0041A
:1029000005EB4404E67B0A348E4201D0FF2909D14D
:10291000A679964201D0FF2A04D1E4799C4206D0E0
:10292000FF2B04D0401CC0B20228E5D3FF2070BDAD
:10293000102907D200EB8100B0F88413C1F30E0117
:10294000C0F884130020704730B48578029C012DB4
:102950000FD141F0800101740621417403214282AC
:10296000B1EB122F02D140F2094100E00021818237
:10297000C482224630BC1946FFF775BF0A88037827
:102980001A440A80017808447047F8B50E4600F1F1
:102990001C040091054623464FF400720021FFF706
:1029A000D3FF002806D1324621462846BDE8F8402C
:1029B00000F05FBFF8BD38B50D460091044600F544
:1029C0008E734FF480720021FFF7BEFF010044D1E7
:1029D00094F81C0184F8260394F81D0184F8270359
:1029E000B4F81E01A4F8280394F8200184F82A03FF
:1029F00094F8210184F82B0394F8220184F82C0325
:102A000094F8230184F82D03082806D0102804D058
:102A1000202802D0402800D0402084F82D03082D23
:102A20001BD9B4F82401A4F82E03B4F82601A4F8A5
:102A30003003B4F82801A4F8320394F82A0184F88A
:102A4000340394F82B0184F8350394F82C0184F8AE
:102A5000360394F82D0184F83703084638BDF8B5DD
:102A60001C461646009341F4407200F58E731D46D5
:102A70000021FFF769FF002814D16978032911D1DB
:102A800029788A1EA24200D814460021A2B2AD1CA9
:102A900004E06B5C891C06F8013B89B29142F8D3D3
:102AA00000213170F8BD01004FF0000004D0012971
:102AB00001D0022901D00220704701207047000098
:102AC000F8B50546D0F87C030126C469607906286C
:102AD00064D2DFE800F003632D033D4805F11C00DC
:102AE000ED8B092D0DD90921ADF8001005E06946DF
:102AF000FFF744FF4178212905D0BDF80010A94215
:102B0000F5D302201DE0017884F82610417884F87E
:102B1000271041882185017984F82A10417984F8A9
:102B20002B10817984F82C10B0F80700E085E8E7D5
:102B3000E18D284600F0A6F810B1032803D02DE05F
:102B4000042060712AE016A002F020F816A01FE011
:102B500000221146284600F072FA052108B1032828
:102B60001CD161711AE00021284600F075FA10B1FD
:102B7000032809D012E001206071D5F8D423022186
:102B800028469047002609E005A001F0FFFF16A0A7
:102B900001F0FCFF22A001F0F9FF02263046F8BD4B
:102BA0004552524F523A2000436F6E74726F6C2040
:102BB0006572726F723A204849443A2044657669DA
:102BC000636520476574205265706F727420446598
:102BD0007363726970746F72207265717565737456
:102BE000206661696C656400436F6E74726F6C205F
:102BF0006572726F723A204849443A20446576699A
:102C00006365205365742070726F746F636F6C20FE
:102C100072657175657374206661696C6564000026
:102C20000A000000704700238380C3808372028102
:102C300001607047F0B5837A0024EBB901238372F9
:102C4000002317E08588C7886E1CBE4217D0B0F8F5
:102C500008C0664500D197B1076811F8016B7E5531
:102C600085886D1CADB285800689B54200D184800F
:102C70005B1C9BB29342E5D384721046F0BD847214
:102C80001846F0BD08B500F58E7300914FF4085258
:102C90000121FFF759FE08BD30B4A125029C05743F
:102CA000012542EA01214574418200218182C482CA
:102CB000224630BC1946FFF7D6BD70B50546D0F8A0
:102CC0007C030026C469617839B12846FFF7A8FD66
:102CD00061782846FFF72CFE6670217839B12846C6
:102CE000FFF79EFD21782846FFF722FE2670D5F8D3
:102CF0007C03C06920B102F0FBF8D5F87C03C66103
:102D0000002070BD2DE9FE430546D0F87C03002766
:102D1000FF23017901222846FFF7E8FD0646FF2838
:102D200026D0022E24D20146284601F0C1FAF8B975
:102D3000342002F061F9D5F87C130446C861200004
:102D400016D03421FDF786FA0720A07006EB860026
:102D500000EBC60005EB400696F8490301280AD0AF
:102D6000022810D035A001F011FF3AA001F00EFFAB
:102D70000220BDE8FE8338A001F008FF35A001F075
:102D800005FF3B4806E03BA001F000FF31A001F049
:102D9000FDFE3D4820630020A070607196F84E0350
:102DA000A076B6F85003208396F85203A0830A2831
:102DB00001D20A20A08396F84603022801D8804653
:102DC00037E04FF0020800BF06EBC7004FF00309E1
:102DD00090F84E13080613D521712846FFF7F4FC2E
:102DE00060700146208B95F81D33CDE900390290C3
:102DF00095F81C332279284600F031FD617812E005
:102E0000E1702846FFF7E0FC20700146208B95F822
:102E10001D33CDE90039029095F81C33E27828463D
:102E200000F01DFD21780022284600F0E3FC7F1C05
:102E3000FFB24745C8D300209BE7000050726F7473
:102E40006F636F6C206E6F7420737570706F727427
:102E500065642E000A0000004B6579426F61726460
:102E60002064657669636520666F756E6421000075
:102E70008D2E00084D6F75736520646576696365F6
:102E800020666F756E642100E92E000870B501465A
:102E9000D0F87C03124A134DC36900205070907023
:102EA000D070107150719071D07110720246A5F1FE
:102EB000080400BF45F8220044F82200521C022AF0
:102EC000F8D3188B082801D908201883502203F161
:102ED000080001F58E715C61FFF7A5FE002070BD52
:102EE000D80B00205000002070B50146D0F87C03BC
:102EF000114A114DC3690020107050709070D0704D
:102F000010710835024605F1080400BF45F822009B
:102F100044F82200521C022AF8D3188B082801D941
:102F200008201883502203F1080001F58E715C61BE
:102F3000FFF779FE002070BD580000202DE9F8430E
:102F40000646D0F87C0300250127C4694FF0040829
:102F5000A07807285FD2DFE800F004095E5E29242C
:102F60003800216B30468847A77054E0207E0090DF
:102F70000022012130466369FFF78EFE05004FF005
:102F8000050107D0012D07D0032807D00720A07026
:102F9000022540E0A1703EE0A77000E0A17000258E
:102FA00039E0D6F8C403C00733D134E06378227E19
:102FB0003046616900F06CFB0620A070D6F8C403AF
:102FC0002062002084F8240025E06178304600F07B
:102FD000B4FB01286178304604D000F0AEFB052830
:102FE00012D018E000F094FB94F8241099B990B135
:102FF000228B04F108006169FFF71CFE84F824703D
:103000003046FFF70FFE06E0A17E3046FFF70DFCCD
:1030100008B984F802802846BDE8F883D0F87C130C
:10302000C9698A78062A08D1D0F8C4030A6A801AC6
:103030008A8B904201D3042088700020704721239E
:1030400003740A23437442EA0121418200218182F0
:10305000C1820A46FFF707BC212202740B22427488
:10306000002209B1428201E0012141828282C282B2
:1030700000221146FFF7F7BB2DE9F84F0125017E2D
:1030800004460B26092728464FF007084FF0050A8B
:103090004FF00D090C2919D2DFE801F0BD060E260C
:1030A000313C48606B7C899A627904F110012046BA
:1030B000FFF70AFC022012E06179204600F03DFB98
:1030C000012804D0042871D002287FD0A3E0207CFE
:1030D000E18A00F0800021B180283AD103202076D7
:1030E00099E0802814D02EE0D4F8C403E08123793D
:1030F000A2892046A168FFF7A7FB0420EFE721790A
:10310000204600F01AFB012802D0052840D056E0E6
:10311000277680E000906379A2892046A168FFF7B6
:10312000BFFBD4F8C403E0810620D8E761792046CC
:1031300000F003FB012806D0052807D0022808D09C
:10314000042809D067E084F8188064E00C20207619
:103150001EE084F818A05EE026765BE0002223796A
:1031600011462046FFF770FBD4F8C403E081082025
:10317000B5E72179204600F0E0FA012804D00428C0
:1031800024D0052804D046E084F81890002542E0B9
:10319000032540E000900022637911462046FFF7A6
:1031A0007FFBD4F8C403E0810A2098E70EE0617940
:1031B000204600F0C2FA012804D00228A8D0042832
:1031C00004D028E0002584F8189024E0267622E038
:1031D000617E491CC9B26176022902D82076A070AE
:1031E00019E0D4F8D42306212046904700256576BF
:1031F0000AA001F0CBFC0BA001F0C8FC13A001F069
:10320000C5FC61792046FFF793FB21792046FFF743
:103210008FFB257002252846BDE8F88F4552524F96
:10322000523A2000436F6E74726F6C206572726F39
:10323000723A20446576696365206E6F742072650A
:1032400073706F6E64696E67000000000A00000012
:103250002DE9FE430126417800250D270446B0469E
:1032600000F58E7908290CD2DFE801F0042C4B8D93
:10327000ADC7D9F508212046FFF79DFB10B1032803
:1032800006D0FCE094F82D03A07184F801804FE093
:103290007EA001F07BFC7FA001F078FC8AA001F009
:1032A00075FC94F81E03401CC0B284F81E0303286A
:1032B00070D861792046FFF73BFB21792046FFF764
:1032C00037FB98E012212046FFF775FB10B1032869
:1032D00012D0D4E0B4F830137CA001F057FC7AA0EF
:1032E00001F054FCB4F82E137BA001F04FFC76A043
:1032F00001F04CFC02206EE064A001F047FC79A0D4
:103300004CE00121204601F04DF810B1032829D0EE
:10331000B5E00220FFF7E7FA414684F81C8380A05D
:1033200001F034FC68A001F031FC03206070A0794A
:1033300094F81D130091CDE9015094F81C332179C4
:103340008022204600F08BFAA07994F81D1300919A
:10335000CDE9015094F81C3361790022204600F039
:103360007EFA8CE049A001F011FC73A001F00EFC84
:1033700055A001F00BFC7DA001F008FC52A001F06B
:1033800005FC27705FE009212046FFF7FEFA10B91F
:10339000042020E00FE003281FD070E001F0F6FBCE
:1033A00049A001F0F3FB94F81E03401CC0B284F85E
:1033B0001E03032816D96DA001F0E8FB42A001F01E
:1033C000E5FB27705BE0B4F83A132046FFF7DDFA1F
:1033D0000028E0D10520607051E02CA001F0D6FB60
:1033E0007248DBE761792046FFF7A2FA217920468F
:1033F000FFF79EFA6570257041E094F834130625B6
:1034000059B1FF234A462046FFF729FB10B1032894
:1034100003D034E0494666A010E06AA016E094F8B4
:1034200035130725A9B1FF234A462046FFF717FBAE
:1034300010B103280DD022E0494667A001F0A6FB99
:1034400021A001F0A3FB657019E004E001F09EFBF0
:10345000F6E765A0FAE794F8361399B1FF234A46D8
:103460002046FFF7FCFA10B103280BD007E04946CD
:1034700061A001F08BFB14A001F088FB0026304610
:10348000BDE8FE8361A001F081FBF4E74552524F95
:10349000523A2000436F6E74726F6C206572726FC7
:1034A000723A2047657420446576696365204465F7
:1034B0007363726970746F7220726571756573746D
:1034C000206661696C6564000A0000005049443A56
:1034D00020257868000000005649443A2025786885
:1034E00000000000436F6E74726F6C206572726F23
:1034F000723A204765742046756C6C204465766985
:1035000063652044657363726970746F72207265BD
:103510007175657374206661696C656400000000F4
:1035200041646472657373202823256429206173C4
:103530007369676E65642E00436F6E74726F6C20E2
:103540006572726F723A20446576696365205365CF
:10355000742041646472657373207265717565735C
:1035600074206661696C656400000000436F6E74CE
:10357000726F6C206572726F722C2044657669637D
:1035800065206E6F7420526573706F6E64696E672C
:1035900020506C6561736520756E706C7567207462
:1035A0006865204465766963652E0000F85200085E
:1035B0004D616E756661637475726572203A20257F
:1035C000730000004D616E7566616374757265729B
:1035D000203A204E2F41000050726F6475637420B2
:1035E0003A2025730000000050726F6475637420E8
:1035F0003A204E2F4100000053657269616C204EE5
:10360000756D626572203A202573000053657269FA
:10361000616C204E756D626572203A204E2F41001C
:1036200070B50E46040018D084F8CC230025C4F8E9
:103630007C53C4F8805304F54874FCF77BFFE570B5
:1036400025706570A570A4F548740EB1C4F8D463F4
:10365000204600F085F8002070BD05A001F096FA24
:1036600005A001F093FA09A001F090FA022070BDC4
:103670004552524F523A2000496E76616C6964207F
:10368000486F73742068616E646C65000A00000006
:103690007FB51C46012501AE0023009586E80E008B
:1036A00003232A46214600F0C9F804B0002070BD6B
:1036B00010B5D0F8D003FDF70CFCBDE81040FFF7C3
:1036C000F2B9012180F82013002180F8211380F83D
:1036D00022130846704710B50446012084F82103E0
:1036E000002084F8200384F82303204600F09DF88E
:1036F00021792046FFF71CF961792046FFF718F978
:10370000002010BD10B5C820FDF7A6FA002010BD9E
:10371000D0F8D003FDF7D5BB10B50124D0F8D00305
:10372000FDF7C3FB20B1012805D0022803D101E039
:10373000002400E00224204610BDD0F8D003FDF79D
:10374000B7BBD0F8C413491CC0F8C41301780B29C7
:1037500005D1D0F87C13002901D08969084770474A
:1037600010B5044690F8CC0301281CD10F484FF047
:10377000A0410022C0F80043C4F8D0030160082132
:1037800081600121C0E903120221C0E90612FDF7A0
:10379000D8FC08B1FDF748FA0448FDF783FB014661
:1037A000204600F024F8002010BD0000D4080020BE
:1037B000FEB508AF97E870008DE87000D0F8D00330
:1037C000FDF799FBBDE8FE40FFF76DB9002180F8D9
:1037D00023137047012180F82313704710B5D0F8E8
:1037E000D003FDF731FDBDE81040FFF75CB9C0F82C
:1037F000C4137047D0F8D00301EB410303EBC101C0
:1038000000EB810090F83B1011B180F8542001E0EA
:1038100080F855200020704710B5D0F8D003FDF790
:103820001AFDBDE81040FFF73EB910B5D0F8D0033F
:10383000FDF727FDBDE81040FFF735B92DE9FF4141
:103840000DF1280898E8F0008DE8F000D0F8D003DA
:10385000FDF78DFB04B0BDE8F041FFF724B9FEB5DC
:1038600008AF97E870008DE87000FFF7A1FF002017
:10387000FEBD2DE9F74F82B00878029D4FF0000B96
:103880000C4685F83803487885F839034888D846C7
:1038900005F54E75FF2801D94FF4807068800879CE
:1038A0002871487968718879A871C879E871207A97
:1038B000287229780920092900D02870092A7CD982
:1038C0008146ADF800005FE069462046FFF756F8F4
:1038D00004464078042854D12078092801D084F87F
:1038E000009008EB880101EBC80005EB400A207846
:1038F0008AF80A0060788AF80B00A0788AF80C0031
:10390000E0788AF80D0020798AF80E0060798AF84C
:103910000F00A0798AF81000E0790AF10A068AF807
:103920001100207A307200271CE069462046FFF71C
:1039300025F804464078052814D17079012802D171
:10394000B079022830D02078072801D007202070D5
:103950000AEBC70122461431029800F031F87F1CAF
:103960008346FFB23079B84204D96888BDF80010A8
:103970008842DAD83079B84211D808F1010000F055
:10398000FF08B8F1020F04D26888BDF80010884221
:103990009AD82879022800D3022040450DD9032067
:1039A00005B0BDE8F08F08E0F0790028D0D120788C
:1039B0000928CDD084F80090CAE75846F0E7000007
:1039C000F0B513780B7053784B7093788B70D47874
:1039D000CC7095888D800646937900208B71D5B187
:1039E0006FF30A058D8092884FF40077C2F30A02C4
:1039F000BA4200D33A461543A1F8045096F81D1375
:103A0000002904F0030108D001290BD0E143890704
:103A100000D153B1F0BD0320F0E7012902D0E1430A
:103A20008907F7D10BB1102BF4D90320F0BD0000AA
:103A30002DE9FE434FF0020804468DF8008094F80B
:103A400021130020012901D10321217021780D26A5
:103A5000082700250C291DD2DFE801F0061D47FDCF
:103A60001C7CFC9AA4AFCDFB94F82003002811D055
:103A7000ABA001F08BF8B0A001F088F80120207015
:103A8000C820FEF730FF2046FFF7A8FE84F81C533D
:103A9000C4F8C8533AE194F82303012814D0D4F8A9
:103AA000C803B0F57A7F19D994F81F03401CC0B23F
:103AB00084F81F03032874D9A0A001F067F89EA022
:103AC00001F064F8267021E1A7A001F05FF89AA048
:103AD00001F05CF884F81F534046E2E00A30C4F875
:103AE000C8030A20FEF7FFFE10E1D4F8D42312B178
:103AF0000421204690476420FEF7F5FE2046FFF79C
:103B00000BFE84F81D030520207000212046FEF7DF
:103B10005BFE607180212046FEF756FE2071014653
:103B2000A07994F81D230092CDE9015094F81C333C
:103B300080222046FFF793FEA07994F81D13009190
:103B4000CDE9015094F81C33617900222046FFF73B
:103B500086FEDBE02046FFF77BFB8DF800009DF83A
:103B60000000002896D187A001F010F872A001F0A3
:103B70000DF884F8245394F83703012801D0072066
:103B80008FE085A001F002F86BA000F0FFFF06E0D7
:103B9000D4F8D423002A96D00121204690472770DC
:103BA000B4E026E094F83D13204600F009FC00281C
:103BB00089D10920207082A033E094F83F034FF0B0
:103BC0000A05800615D50121204600F007FC8DF876
:103BD00000009DF8000020B19DF80000032802D0ED
:103BE00094E07EA000E085A000F0D0FF52A000F09D
:103BF000CDFF25708AE0D4F8801389B1C4F87C53D6
:103C000094F8471304EB8002D2F8782312798A42A1
:103C10000AD104EB8000D0F87803C4F87C0308E0F4
:103C200081A000F0B3FF10E0401C10F0FF00E9D0CD
:103C3000284610B381682046884768B12670D4F8BA
:103C40007C03016880A000F0A1FF3BA000F09EFF74
:103C50005CE034E014E039E006202070D4F87C0306
:103C6000016881A000F092FF33A000F08FFFD4F82C
:103C7000D42303212046904748E026707FA0D0E758
:103C8000D4F87C03A8B10169204688478DF800006C
:103C90009DF8000020B19DF80000022803D035E017
:103CA0000B20207032E026707EA000F06FFF7FA016
:103CB000B7E726707BA000F069FF86A0B1E7D4F8D3
:103CC0007C0318B34169204688471FE084F82153DC
:103CD0002046FCF72FFCD4F87C0320B1C1682046B5
:103CE0008847C4F87C53D4F8D42312B10521204668
:103CF00090477EA000F04AFF0FA000F047FF94F825
:103D00002203012805D02046FFF786FD0020BDE8EC
:103D1000FE8384F82253204600F06EFBF6E7000095
:103D20005553422044657669636520436F6E6E6526
:103D300063746564000000000A00000055534220CF
:103D40005265736574204661696C65642C20506C03
:103D50006561736520756E706C7567207468652089
:103D60004465766963652E00555342204465766943
:103D7000636520526573657420436F6D706C657464
:103D800065640000456E756D65726174696F6E20C3
:103D9000646F6E652E000000546869732064657658
:103DA00069636520686173206F6E6C7920312063D0
:103DB0006F6E66696775726174696F6E2E000000C0
:103DC00044656661756C7420636F6E6669677572B1
:103DD0006174696F6E207365742E000044657669A6
:103DE00063652072656D6F74652077616B657570B2
:103DF00020656E61626C65640000000052656D6F45
:103E000074652077616B657570206E6F74207375B3
:103E100070706F72746564206279207468652064C4
:103E200065766963650000004E6F20436C617373B3
:103E300020686173206265656E20726567697374BE
:103E4000657265642E000000446576696365206EC6
:103E50006F7420737570706F7274696E672025734C
:103E600020636C6173732E00257320636C61737320
:103E700020737461727465642E0000004E6F2072AE
:103E800065676973746572656420636C6173732020
:103E9000666F722074686973206465766963652E45
:103EA000000000004552524F523A200044657669A6
:103EB0006365206E6F7420726573706F6E64696ED7
:103EC0006720506C6561736520556E706C75672E48
:103ED00000000000496E76616C696420436C617378
:103EE00073204472697665722E000000555342209B
:103EF00044657669636520646973636F6E6E65639C
:103F000074656400F8B5D0F87C1302260022CD69F0
:103F10006A492B7B4C68A34206D1694F0C68BC42AE
:103F200002D0641C0C6000E00A604B60022123B1E7
:103F3000012B6FD0022B6ED1B7E095F80DC0012494
:103F40004FF4005741F2020342F24812BCF1220F33
:103F500061D2DFE80CF01111151E20252B2E363A08
:103F60003C4044484C5054575B6165696D71757AAB
:103F70007F8386898D911E9909233A46009485E0B6
:103F8000022342F25812009180E000BFFEF7E1FAEE
:103F900075E000917AE0222343F20B02009403E0E3
:103FA000E8234FF4405200940221EFE714230094D9
:103FB00001E010230094012245E000BFFEF7ACF8B9
:103FC0005DE00023152200943DE0009100E00094A4
:103FD0000023162237E000231722009433E0002349
:103FE000182200942FE00023192200942BE00023D4
:103FF0001A22009427E000231B22009423E0FEF7FE
:1040000077F93CE005231922009421E0F023932264
:10401000009418E03EE036E00F239422009412E072
:104020000023112200940EE00023042200940AE0F1
:104030006023612200940BE080230622009407E0B5
:104040001B23B12200940121B8E783230D220094A1
:104050000021B3E70121FEF7ABF910E0FEF7E6F827
:104060000DE0E96E496801E0E96E8968884706E07D
:104070001449FEF7A9F902E00121FEF743FA38B12D
:10408000012818D0064616E00023009101217DE7A3
:104090002C7305E0687B212804D0401C68732A73C8
:1040A000012608E029736A73FAE72A730026D0F81C
:1040B000D423022190473046F8BD0000CC000020F8
:1040C000A086010080A9030070B50546D0F87C03E6
:1040D0000026C469217839B12846FEF7A1FB217872
:1040E0002846FEF725FC2670D5F87C03C06920B170
:1040F00000F0FEFED5F87C03C661002070BD000014
:10410000FEB5FF23054600271A461946FEF7EEFBCB
:104110000646FF2853D00146284600F0C9F878200B
:1041200000F06AFFD5F87C130446C8610021817352
:104130000173417380F8221080F8231080F86A1010
:1041400080F86B10C16680F8741080F8541006EB8C
:10415000860000EBC60005EB400191F84E03020615
:1041600003D56070B1F85003608061782846FEF78F
:104170002BFB2070014695F81D03638802228DE811
:104180000D0095F81C3362782846FFF768FB4FF462
:1041900000706060217800222846FFF72BFB094859
:1041A000016841F0080101600068084900F008005A
:1041B000009005480068B0FBF1F0401E20673846CB
:1041C000FEBD00004038024024000020400D0300E6
:1041D00070B5D0F87C1302250026CC6994F87410D1
:1041E00021B101290FD002291FD11BE0A18823781A
:1041F0008AB2A168FEF704FB0546012084F874002A
:10420000A4F8686011E0B4F86810491CA4F86810BC
:104210002178FFF792FA012807D10025022084F8BF
:10422000740002E084F874600025284670BD002008
:104230007047000010B50022A1B1D0F8803353B10F
:104240000BA000F0A3FC0CA000F0A0FC11A000F05B
:104250009DFC022204E00123C0F88033C0F87813EB
:10426000104610BD02A000F091FC0BA0ECE700008E
:104270004552524F523A20004D617820436C617391
:1042800073204E756D626572207265616368656446
:10429000000000000A000000496E76616C6964202D
:1042A000436C6173732068616E646C65000000008C
:1042B00070B5054690F83C030C460026A04227D96D
:1042C00085F82443214618A000F060FC1EA000F0F1
:1042D0005DFC04EB840000EBC40005EB40041BA074
:1042E00094F8471304F2473400F050FC16A000F095
:1042F0004DFC617819A000F049FC13A000F046FCC9
:10430000A1781AA000F042FC0FA000F03FFC09E0E9
:104310001AA000F03BFC1BA000F038FC0AA000F043
:1043200035FC0226304670BD537769746368696E48
:104330006720746F20496E7465726661636520281A
:1043400023256429000000000A000000436C61730B
:1043500073202020203A202578680000537562439E
:104360006C617373203A20257868000050726F7476
:104370006F636F6C203A2025786800004552524FD9
:10438000523A200043616E6E6F742053656C656312
:1043900074205468697320496E7465726661636540
:1043A0002E0000008278012A06D100220274052323
:1043B000437441828282C28200221146FEF753BAC0
:1043C0008278012A06D100220274092343744182B3
:1043D0008282C28200221146FEF745BA8278012A03
:1043E00006D1002202740323437441828282C28276
:1043F00000221146FEF737BA10B50446FFF70CFA53
:1044000001212046FFF77EF9002010BD01290AD0C6
:104410000548022906D0042903D0052903D1032128
:1044200000E00121017070471400002070B50446BF
:1044300006990A9E049D0D98012916D0E06840F067
:104440004000E060204600F02BF8A16B1EB321F481
:104450008031A163012D07D1A16841F00601A1605F
:10446000A16841F02001A16070BDA16B21F48031F1
:10447000A163E168094A1140E160E16821F440115B
:10448000E160012803D1E06840F48010E06020463C
:1044900000F006F8DEE741F48031DAE7BFFFBDFF48
:1044A00008B500220D490092009B5B1C00938B42D3
:1044B0000CD80369002BF7DA0092026942F001027E
:1044C0000261009A521C00928A4201D9032008BD61
:1044D0000269D207F5D1002008BD0000400D03009D
:1044E000816821F0010181600020704700EB4110DC
:1044F000064AC0F81025D0F8001521F0804141F09F
:104500000041C0F80015002070470000000008803E
:1045100008B5D0F8402422F02E020092D20405D42F
:10452000012909D1009941F4805103E021B9009992
:1045300021F48051C0F84014002008BD816841F08A
:10454000010181600020704708B500220C490092EB
:10455000009B5B1C00938B420AD80369002BF7DA9F
:10456000009210220261009A521C00928A4201D9E4
:10457000032008BD0269D206F5D4002008BD000062
:10458000400D030018B500230D4A0093009C641CE5
:10459000009494420CD80469002CF7DA009320238D
:1045A00043EA811101610099491C0091914201D9AE
:1045B000032018BD01698906F5D4002018BD00004C
:1045C000400D0300D0F8080480B2704708B5D0F859
:1045D00040040090C0F3414008BD406900F0010074
:1045E000704718B5002200EB41110092D1F8002568
:1045F000D1F80035C2F381428468DB0FA40600D5F0
:104600001BB34FF47A736AB1022A0BD0D1F800259C
:1046100042F08042C1F80025D0F8100410F47F0F5A
:104620002BD00CE0D1F8002542F08042C1F80025E3
:104630008268920609D4C06A10F47F0F07D0D1F8BF
:10464000000540F00040C1F80005002018BDD1F879
:10465000000520F00040C1F80005D1F8000540F049
:104660000040C1F800050098401C00909842ECD82A
:10467000D1F800050028F6DBE7E7D1F8000520F0C7
:104680000040C1F80005D1F8000540F00040C1F835
:1046900000050098401C00909842D6D8D1F800053B
:1046A0000028F6DBD1E700002DE9F0431E46DDE9E6
:1046B0000785002700EB41147B1EDDF82490C4F829
:1046C000083505B3012D39D0022D1CD0032D2ED075
:1046D0005FF00107D4F80C3543F00203C4F80C3541
:1046E000D0F8183401F00F0C012101FA0CF10B4342
:1046F000C0F81834816941F00071816111062AD532
:104700004FF4004128E040F29D43C4F80C351306F5
:1047100005D500BFD4F80C3543F4807318E0C36BA3
:10472000DB05D7D5D4F80C3543F0600310E040F238
:104730009D63C4F80C351306ECD4CBE740F2252377
:10474000C4F80C351306C5D5D4F80C3543F4C07342
:10475000C4F80C35BEE70021FFF738FFB8F1020FAF
:1047600004D1022802D04FF4003000E000204FF0C6
:10477000FE5303EA86534FF4F04606EAC22213437F
:104780004FF4402202EA85421343C9F30A0213435D
:104790000B430343C4F80035032D01D0012D05D18F
:1047A000D4F8000540F00050C4F800053846BDE8D4
:1047B000F083D0F8140480B27047F8B54C78C56B1C
:1047C0004FF48073ED0515D50D799DB9012A01D0FF
:1047D0006AB10FE0CD790DB1022D0BD100EB44157C
:1047E000D5F80C6526F07006C5F80C6502E04D7929
:1047F000012D0DD04E697EB10D8977197F1EB7FB53
:10480000F5F7BFB29F4208D91F462B020B6104E0A7
:104810002146FFF76BFE6EE00127CB781BB10B89B9
:104820007B430B6101E033460E61C3F312056FF069
:10483000604303EAC7431D438B7A4FF0C04606EA44
:1048400043731D4300EB4413C3F8105512B1CC68F9
:10485000C3F81445D0F80844D3F8005544F30004D5
:1048600025F00055C3F80055D3F80055641C45EAFF
:104870004474C3F80045D3F8004524F08044009404
:10488000CC78002C009C02D044F4004401E024F4D5
:10489000004444F000440094C3F800455ABBCA7871
:1048A0004ABB4A693AB3CB7933B1012B0FD0022B03
:1048B00002D0032B17D10AE0D21CC36AC2F38F02C5
:1048C0009BB293420FD2826942F020020AE0D21CCE
:1048D000D0F81034C2F38F029BB2934203D28269A4
:1048E00042F080628261002200928A8A93B24A7802
:1048F000C96800F035F90020F8BD00002DE9F0414D
:104900000025DDF81880174604462E46C0F8005EE4
:10491000806B40F40010A063A06B20F40020A06323
:10492000A06B20F48020A063E06BC00501D5012BB3
:1049300004D0D4F8000420F0040103E0D4F800040B
:1049400040F004012046C4F800141021FFF71AFEBD
:1049500000B101252046FFF7F7FD00B10125002039
:10496000411E06E004EB4012C2F80815C2F80C65BF
:10497000401C8742F6D8A6616161E06BC00506D590
:104980004FF4007060620C48A0620C4804E0802084
:1049900060620B48A0620B48C4F80001B8F1000F38
:1049A00003D1A06940F01000A061A0690649084346
:1049B000A0612846BDE8F081000200010003E0008C
:1049C00080006000E0004000080020A3D0F8002430
:1049D00022F00302C0F80024D0F8002401F0030301
:1049E0001A43C0F80024012902D0022903D006E0AE
:1049F0004BF6803101E041F27071C0F804140020E0
:104A00007047416980690840704730B503460846E1
:104A1000940802F00301002203F5805303E01D68AF
:104A200040F8045B521CA242F9D300290BD01C6849
:104A30000022D50024FA05F3491E521C090400F88F
:104A4000013B090CF5D130BD38B50446D0F840041F
:104A500020F02E00009040F48070C4F840046420E0
:104A600004F58864FCF7F8F8009820F48070206062
:104A70000A20FCF7F1F8002038BD70B50446C06884
:104A8000002520F0C040E060012901D079B120E08C
:104A9000E06840F00050E0600120FCF7DDF860695C
:104AA0006D1C10F0010F10D1322DF5D30DE0E06830
:104AB00040F08040E0600120FCF7CEF860696D1C9A
:104AC00010F0010F01D0322DF5D3322D01D000208E
:104AD00070BD012070BD38B5002504460095806882
:104AE00020F00100A06010212046FFF74BFD00B12F
:104AF00001252046FFF728FD00B10125002004EB29
:104B00004011D1F8002522F0802242F08042C1F805
:104B10000025401C0F28F2D900204FF47A7304EBD3
:104B20004011D1F8002522F4004242F04042C1F881
:104B30000025009A521C00929A4203D8D1F8002511
:104B4000002AF6DB401C0F28E9D94FF0FF30C4F8EB
:104B500014046061A06840F00100A060284638BDE0
:104B600010B5029C74B9DB1C9C0800EB02300023DA
:104B700000F5805004E000BF51F8042B02605B1C7C
:104B8000A342F9D3002010BDFEE700000FB4054B8F
:104B900010B503A9044A029800F028F810BC5DF88B
:104BA00014FB0000D94E0008D40000200907090EAC
:104BB000002804DB00F1E02080F80014704700F0CA
:104BC0000F0000F1E02080F8141D704702E008C8D3
:104BD000121F08C1002AFAD170477047002001E077
:104BE00001C1121F002AFBD1704700002DE9FF4FC1
:104BF0008DB09B460F460446002606E025280BD0C4
:104C00005A460F999047641C761C20780028F5D1ED
:104C100011B03046BDE8F08F0025A8460122984922
:104C200000E0054314F8013F203B02FA03F008427C
:104C3000F7D120782E2817D114F8010F45F004057C
:104C40002A280ED06FF02F022078A0F13001092918
:104C50000AD808EB880102EB410100EB0108641C53
:104C6000F2E757F8048B641C20786C280DD004DC24
:104C70004C2812D06A2811D104E074280DD07A286B
:104C80000CD10AE045F4001507E0617845F4801581
:104C9000814202D1641C05F58015641C2278692AC2
:104CA00045D008DC002AB3D0582A69D0632A10D036
:104CB000642A08D13BE0702A67D0732A13D0752A82
:104CC0005CD0782A5CD010465A460F999047761CE3
:104CD000D3E017F8040B8DF8000000208DF80100D8
:104CE000E946012003E057F8049B4FF0FF306907C5
:104CF0004FF0000501D40AE06D1C45450DDA8542F0
:104D0000FADB19F805100029F6D106E06D1C854282
:104D1000FCDB19F805100029F8D12E4404E019F83D
:104D2000010B5A460F9990476D1EF8D2A5E00A2054
:104D30000021CDE90801C5F3025002280DD001CFB2
:104D4000C117031E71F100030DDA4FF0000CD0EB18
:104D50000C006CEB01012D2308E0FF1D27F0070775
:104D6000F7E80201EDE72B0504D52B238DF8283059
:104D700001233BE0EB0739D02023F7E70A2000E0CE
:104D800010200021CDE9080107E01020002145F0A6
:104D90000405CDE908014FF00808C5F302500228C8
:104DA0000FD001CF00214FF0000A2B071FD5702A2A
:104DB0000DD0DDE908C38CF0100C5CEA030C0CD0BC
:104DC00015E0FF1D27F00707F7E80201EBE7402297
:104DD0008DF828204FF0010A0BE050EA010306D0BD
:104DE00030238DF828308DF8292002239A46582A3E
:104DF00004D024A20DF120090B9209E026A2F9E7C4
:104E0000DDE90823FBF7DCF90B9B9B5C09F8013D0E
:104E100050EA0102F4D1ADEB090020300890680798
:104E200001D44FF001080899884502DDA8EB010084
:104E300000E000208046002506E00AA85A46405DB2
:104E40000F9990476D1C761C5545F6DB04E0302029
:104E50005A460F999047761CB8F10001A8F1010855
:104E6000F5DC05E019F8010B5A460F999047761CBE
:104E70000899481E08900029F4DC641CC5E600006F
:104E80000928010030313233343536373839616220
:104E900063646566000000003031323334353637E4
:104EA000383941424344454600000000F0B5002532
:104EB0000E4607466C1E2B460AE000BF57F823102B
:104EC000104600F0CFF8A04201D204461D465B1CFC
:104ED000B342F3D32846F0BD13B54FF6FF7301225A
:104EE00069460248FCF796FD00981CBDB8040020F6
:104EF00010B5002821D0114B0022001F196803E0D3
:104F0000814203D80A4649680029F9D152B1136891
:104F1000841A9C4204D1006818441060104602E0D4
:104F2000506000E0186039B102680B1A934203D157
:104F30000B681A4402604968416010BDD800002027
:104F4000FCF7BAF9FDF72EFBFDF752F8234822498A
:104F5000002401604FF4E131C0E901140C21C46068
:104F6000C0E904418461C461FCF7ECFC08B1FBF7C3
:104F70005BFEFDF785F80020FBF7B2FA0120FBF796
:104F8000AFFAC820FBF768FE0020FBF7B7FA012054
:104F9000FBF7B4FAC820FBF75FFE0020FBF7A0FA8E
:104FA0000120FBF79DFA0EA0FFF7F0FD1049114814
:104FB000FFF740F90F48FFF71FFA0E48D0F87C03BF
:104FC000D0F81C50FDF77CF895F874000228F9D150
:104FD00085F87440F6E7000000100140B804002096
:104FE00053746172742073797374656D0D0A0000D7
:104FF000AC000020E0000020F0B50B30154D20F093
:1050000007010024144A0FE003688B420BD38B4244
:1050100005D95E1A43184768C3E9006700E0436892
:10502000136002C004E0021D10680028ECD1204685
:10503000002802D1286808B10020F0BD064A0748C0
:105040001060074A121A22F00702C0E9002401206A
:105050002860D7E7DC000020D8000020EC0B0020FF
:10506000E80F0020884201D9401A7047081A70479B
:105070004000800001001000080000000000000057
:1050800000000102030406070809000000000102F5
:105090000304000000020404040808000103070FD1
:1050A0001F3F7FFF000000160001160102160302D9
:1050B000160502170003170303000000100000008C
:1050C000200000001000000011040412000511006F
:1050D00004000000002A75150057A61640CF2318BB
:1050E00040FC54198074D21AC0EC4F1C40B0191EF9
:1050F00000BF2F20C0CD4522C027A8248063EF2702
:105100000054EA2A00AE4C2D0062113280520C3558
:105110008006D139006D7C4D009AAD4E00F40F51E0
:1051200080E40A5440F3205600D505578098CF58A4
:1051300080F2315B00B6FB5C8079C55E006AC061BD
:105140000097F16200C4226400F15365001E856679
:1051500080E14E6880BC50040F3000008003D7040B
:105160000E280000E08674060D200000A08DAF0917
:105170000C180000C00DE90C0B100000401B5F1361
:105180000A0C00008093DC140908000000CCBF1951
:1051900003080000C09CC12702060000008C86475F
:1051A00001040000FD0600030609000102020306D7
:1051B000090C0F0F0F0F0000C0FC9B01C0FC9B01EE
:1051C000C0FC9B01C0FC9B01C0FC9B01C0FC9B017F
:1051D000C0FC9B01C0FC9B01C03046004016400053
:1051E000C0FB390040E13300A05A3200E032290010
:1051F00060182300E0FD1C00C0894601406F40019B
:10520000008E0C01E04DE0008035BD0040BEA100E5
:1052100040548900207E750000A8610020DF500006
:105220008023430040E1330040AC270040771B005F
:10523000804F120040420F0060EC530020DF50000E
:10524000404B4C00003E4900C030460080234300E4
:10525000E09C4100A08F3E0060823B00C0FB390013
:105260002075380080EE360040E13300A05A32004D
:1052700000D43000604D2F00C0C62D0070032D00FB
:1052800020402C0080B92A0030F62900E0322900A5
:1052900040AC2700F0E82600A0252600506225003B
:1052A000009F24006018230040CA2200002E220024
:1052B000C091210070CE2000CAFFFFFFDCFFFFFF7E
:1052C000D7FFFFFFD8FFFFFFE0FFFFFFF2FFFFFF69
:1052D0000E00000035000000650000009C0000008A
:1052E000D700000011010000470100007401000018
:1052F00094010000A5010000436F6E74726F6C2072
:105300006572726F723A20476574204465766963EE
:105310006520636F6E66696775726174696F6E2070
:1053200064657363726970746F72207265717565FC
:105330007374206661696C6564000000484944002C
:1053400045344B0052544C53445200006C530008F7
:1053500000000020E0000000CC4B00084C54000886
:10536000E000002008130000DC4B000800000240B1
:105370000000024000000240001002400010024005
:10538000000000000100000010000000000000000C
:105390000024F4003C53000803000000052D000821
:1053A000BB2C0008C12A00083D2F00081D30000852
:1053B00000000000000000000000000000000000ED
:1053C00000000000000000000000000000000000DD
:1053D0000000000000000000000000004053000832
:1053E00089050008C50500082D0700080000000019
:1053F00000000000A4510008A6510008A6510008B2
:10540000AA510008AE510008AE510008B85100087A
:1054100038520008F851000844530008FF0000000B
:1054200001410008C9400008053F0008D1410008BB
:105430002F420008000000000000000000000000F3
:0C54400000000000000000000000000060
:040000050800018965
:00000001FF
