:020000040800F2
:1000000028070020D502000863380008FD330008E7
:1000100061380008C72200088B3E0008000000007D
:10002000000000000000000000000000593B000834
:10003000C922000800000000653800085B3B00088A
:10004000EF020008EF020008EF020008EF020008CC
:10005000EF020008EF020008EF020008EF020008BC
:10006000EF020008EF020008EF020008EF020008AC
:10007000EF020008EF020008EF020008EF0200089C
:10008000EF020008EF020008EF020008EF0200088C
:10009000EF020008EF020008EF020008EF0200087C
:1000A000EF020008EF020008EF020008EF0200086C
:1000B000EF020008EF020008EF020008EF0200085C
:1000C000EF020008EF020008EF020008EF0200084C
:1000D000EF020008EF020008EF020008EF0200083C
:1000E000EF020008EF020008EF020008EF0200082C
:1000F000EF020008EF020008EF020008EF0200081C
:10010000EF020008EF020008EF020008EF0200080B
:10011000EF020008EF020008EF020008EF020008FB
:10012000EF020008EF020008EF020008EF020008EB
:10013000EF0200080000000000000000EF020008CD
:10014000EF020008EF020008EF020008EF020008CB
:10015000EF020008EF020008EF020008EF020008BB
:10016000EF020008EF020008EF020008EF020008AB
:10017000EF020008EF02000800000000000000008D
:10018000EF020008EF02000800F002F800F092F819
:100190000AA090E8000C82448344AAF10107DA45E2
:1001A00001D100F087F8AFF2090EBAE80F0013F0A2
:1001B000010F18BFFB1A43F0010318478C470000DA
:1001C000AC470000103A24BF78C878C1FAD852076B
:1001D00024BF30C830C144BF04680C6070470000C1
:1001E0000023002400250026103A28BF78C1FBD840
:1001F000520728BF30C148BF0B6070476E2900F01E
:100200000783702900F05184662904F02C82652947
:1002100004F02982672904F02682612904F02582EE
:1002200003681B0A28BF41F08001692900F0B482ED
:10023000642900F0B182752900F0AE826F2900F0C8
:10024000DE83782900F01D84E92900F07983E42910
:1002500000F07683F52900F07383EF2900F0DB834B
:10026000F82900F01C840368DB0928BF41F08001F5
:10027000632901F06B81732901F07081E32901F09A
:100280007B81F32901F08081002070471FB504F0C5
:10029000E5F901F085FB04000020002104F0C8F915
:1002A000401C60600020002104F0ACF9E0601FBD3C
:1002B00010B510BD01F046FB1146FFF7E7FF04F053
:1002C0006BF901F023FC03B4FFF7F2FF03BC01F06C
:1002D0002BFC00000948804709480047FEE7FEE77D
:1002E000FEE7FEE7FEE7FEE7FEE7FEE7FEE7FEE7E6
:1002F00004480549054A064B70470000ED3B0008DD
:100300008901000828010020280700202803002078
:100310002803002053EA020C00F069802DE9F04B1D
:100320004FF00006002B1FBFB3FA83F503FA05F464
:1003300024FA05F65E4012BF1643B2FA82F502FABD
:1003400005F4C5F120051EBF22FA05FC44EA0C04A1
:10035000203556EA044C4FEA144418BF641C4FF091
:1003600000084FF00009904271EB030C39D30029CB
:1003700019BFB1FA81F701FA07F6B0FA80F700FA6F
:1003800007F6C7F120071EBF20FA07FC46EA0C0655
:100390002037B6FBF4FCA7EB0507103F07F01F0B57
:1003A000CBF120060CFA0BFB2CFA06F644BFB34641
:1003B0000026202FA4BF5E464FF0000B5BEA060C20
:1003C00008BF4FF0010B19EB0B09ABFB027C48EBAC
:1003D0000608C01B06FB02CC0BFB03CC71EB0C0127
:1003E000C1E70B46024641464846BDE8F08B13B5CF
:1003F0004FF000004FF00001AFF30080BDE81C405B
:10040000704700007CB51D4616460C00009001D0D8
:100410002044401E074B7B442A46694601903046E3
:1004200000F00FFA05461CB10020694600F01CFAE6
:1004300028467CBD590400000FB400B58DB010A94A
:10044000099000910B904FF0FF300A9000200C9023
:10045000064878440690064878446A4607900F9903
:1004600009A800F005FC0DB05DF814FB3B08000086
:10047000530800002DE9FF5F1D464FF0FF3B9146FA
:100480004FF000085F46D5E90146A96901987F1C35
:100490008847296A824688470028F6D1BAF1FF3F8B
:1004A0000CD0002E24F4C06419DD600614D5BAF116
:1004B0002B0F09D0BAF12D0F0ED103E0584604B02E
:1004C000BDE8F09F44F48064A96901987F1C8847C7
:1004D000761E8246002E02DDBAF1300F03D0B9F14C
:1004E000000F26D032E0A969761E01987F1C44F4E3
:1004F00000748847002E824605DDBAF1780F06D0D9
:10050000BAF1580F03D0B9F1000F10D01EE0B9F1C5
:10051000000F02D0B9F1100F18D1A969761E019809
:100520007F1C24F4007488478246102002E00820D3
:1005300000E00A20814609E0A96908FB0908761E47
:1005400001987F1C44F4007488478246002E05DD24
:100550004946504600F078FB0028EDDAE969019839
:100560008847A00502D46FF00100A8E7E00725D175
:10057000600613D5600502D5C8F1000000E04046D2
:1005800029680A1D2A600968220501D5087015E04E
:10059000220701D5088011E008600FE02868011DDE
:1005A00029600068210502D580F8008006E0210757
:1005B00002D5A0F8008001E0C0F8008038467EE750
:1005C00010B5431C02E010F8011B71B18107FAD18C
:1005D0004FF0013202C88C1A8C4314EAC211F9D0D0
:1005E000C01A0A0603D0C01E10BDC01A10BD0A04EE
:1005F00001D0801E10BD0902FCD0401E10BD4FF07E
:10060000000200B5134694469646203922BFA0E862
:100610000C50A0E80C50B1F12001BFF4F7AF09076E
:1006200028BFA0E80C5048BF0CC05DF804EB89005F
:1006300028BF40F8042B08BF704748BF20F8022BA2
:1006400011F0804F18BF00F8012B70474FF0013CAC
:1006500050F8042B51F8043B9A4221D1A2EB0C0331
:10066000934313EACC1317D150F8042B51F8043BF1
:100670009A4215D1A2EB0C03934313EACC130BD18E
:1006800050F8042B51F8043B9A4209D1A2EB0C0319
:10069000934313EACC13DBD04FF00000704700BF48
:1006A000D01A01BAB1FA81F101F0180122FA01F071
:1006B000CB40C1F12001DBB2C0B2C01A2CFA01F369
:1006C000D11A914311EAC311E6D1704770477047C0
:1006D000704770B5044685690068C10601D53026AB
:1006E00000E02026C00707D070BDD4E901213046C4
:1006F0009047206A401C20626D1EF6D570BD70B513
:10070000044685690078C00707D170BDD4E901218E
:1007100020209047206A401C20626D1EF6D570BDD7
:1007200009684A0501D540B27047C905FCD500B239
:10073000704709684A0501D5C0B27047C905FCD5A4
:1007400080B2704770B50C460546012A05D028785E
:10075000800600D5EA69002302E0012305E05B1C66
:10076000934202D2E05C0028F9D1A869E618C01AC9
:10077000A861286A184428622846FFF7AAFF04E007
:10078000D5E9012114F8010B9047B442F8D328466B
:10079000FFF7B5FF70BD00002DE9F04106460024CB
:1007A00010687529314616A510D0FFF7B9FF00284B
:1007B00002DA404213A507E031688A0701D512A585
:1007C00002E0490704D511A5012401E0FFF7B1FFBC
:1007D00000210A2206F1240709E0B0FBF2FCB0FB7D
:1007E000F2F302FB1C00303078541846491C0028F4
:1007F000F3D123462A463046BDE8F04100F0B6BAB0
:10080000000000002D0000002B0000002000000070
:1008100011680268006A530501D508700AE0D30523
:1008200001D5088006E0130603D5C217C1E900020E
:1008300000E008600120704701694A1C02610878E5
:10084000704700B58FB0CDE9013100210591054910
:100850007944CDE903101146684600F031F90FB034
:1008600000BD0000E5FFFFFF0A6802F8010B0A6007
:100870007047D1E900239A4202D2531C0B601070DA
:10088000704700002DE9FF5F15468A460446DFF8F1
:10089000AC80F8440027D8E900103E46CDE90010AE
:1008A00010E03AF816106A4602A801F02BF8411C35
:1008B00007D02178890603D5E269391891420DD80D
:1008C0000744761C2078800602D5E069B84205DD31
:1008D000AE42E6DB3AF816000028E2D1A069C01B60
:1008E000A0612046FFF7F5FED8E90010CDE9001021
:1008F000002017E03AF818106A4602A801F002F842
:10090000B0F1FF3F81460BD000250DF1080B05E04B
:10091000D4E901211BF8050090476D1C4D45F7D324
:1009200008F10100B0428046E4DB206A38442062CE
:100930002046FFF7E4FEBDE8FF9F00009E3E00005A
:100940002DE9F0418046D21D22F007020025D2E9B0
:100950000002F52915A614D0011E72F1000106DA75
:100960000023D0EB030063EB020211A608E0D8F8E5
:1009700000108B0701D50FA602E0490701D50EA68E
:1009800001251146002408F1240704E000F0A0F935
:1009900030323A55641C50EA0102F7D12B463246F8
:1009A00021464046BDE8F04100F0E0B900000000FB
:1009B0002D0000002B0000002000000030B40021BA
:1009C00000F1240408E002F00705D208303542EABD
:1009D0004372DB086554491C52EA0305F3D10468ED
:1009E000002310A2250707D5A40600D421B1C469AD
:1009F00001230DA2641EC46130BC00F0B7B910B56C
:100A0000044621461068FFF794FE02462046BDE8E2
:100A100010400023D2E7D21D22F00701D1E90023C4
:100A2000CCE700000000000030000000F0B40D46EC
:100A30000188090502D5214C7C4402E01F4C7C440E
:100A40000E34002100F1240608E002F00F0712091D
:100A5000E75D42EA03721B097754491C52EA030717
:100A6000F3D102780023120704D5702D06D009B106
:100A7000022311342246F0BC00F078B9012310346F
:100A8000F8E770B504460D4621461068FFF751FEA1
:100A9000024629462046BDE870400023C6E7D21D25
:100AA00022F00703D3E90023C0E70368126843F08C
:100AB000200303600823C3610023B7E7003D000063
:100AC0002DE9F05F894604464FF0000ADFF874B163
:100AD000FB44C0F820A02046E1688847002874D075
:100AE000252806D0D4E901219047206A401C2062C5
:100AF000F1E700265F462046E16888472028054642
:100B000007DB312D05D2781910F8200C08B1064307
:100B1000F1E7B00701D526F00406C4F81CA00027B1
:100B2000C4F818A02A2D09D0284603F0D7F938B305
:100B300004EB8708303DC8F8185019E059F8041B39
:100B4000204604EB87029161E1688847012F054642
:100B500018D1E069002820DA26F020061DE0D8F838
:100B6000180000EB800005EB40003038C8F8180092
:100B70002046E1688847054603F0B0F90028EED129
:100B8000012F0AD02E2D08D12046E16888477F1C0E
:100B90000546022F46F02006C4DBA069002803DAD0
:100BA000404246F00106A061F00701D026F0100691
:100BB0006C2D0BD0682D09D04C2D39D06A2D35D035
:100BC000742D35D07A2D33D016E038E0E1682F4609
:100BD00020468847B842054609D16C2F26D04FF4ED
:100BE0008060E168064320468847054604E06C2F94
:100BF0001AD04FF4807006430DB3A5F141001928B7
:100C000002D8203546F400664A462946204626602A
:100C10004E46FFF7F3FA80B101280BD0F61D26F0FF
:100C2000070000F1080956E74020E4E78020D8E7F4
:100C30000020D6E706F104094DE7284652E7206A6E
:100C4000BDE8F09F903C00003A2800D2303820F0F8
:100C50002002412A01D3A2F13700884201D34FF08C
:100C6000FF307047026811441378016018467047DE
:100C7000D1600549794451610449794411620021E8
:100C80001161114600F084BCEDFFFFFFDD000000A4
:100C9000426842B1016811F8013B23B1521EC0E91C
:100CA0000012184670470121C160881E70474268D3
:100CB0005AB1C368016843B983688B4205D0491EA5
:100CC000521CC0E90012002070474FF0FF307047FF
:100CD00030B5B0F10A024FEA900E71F100034EEA0E
:100CE000817EB0EB0E0061EB91014FEA101E4EEADF
:100CF000017E10EB0E0041EB11114FEA102E4EEA6F
:100D0000016E10EB0E0041EB11214FEA104E4EEA3E
:100D1000014E10EB0E0041EB1141401841F1000172
:100D20004FEAD00040EA41704FEAD10110EB800554
:100D30004FEA810444EA907444EB01046D1944EBDA
:100D40000404521BA3414FF0000348BF0A3200D5F0
:100D500030BD401C41F1000130BD10B5044600F02B
:100D600017FE0068005D00F0010010BD2DE9F0479E
:100D70000D4699469246044600F12408016888060B
:100D800004D5E06921F01001216000E00120A842B3
:100D900001DD471B00E00027A1697A1902EB090079
:100DA000081AA0612078C00602D42046FFF791FC03
:100DB000002608E0D4E901211AF806009047206ACD
:100DC000401C761C20624E45F4DB2078C0060AD514
:100DD0002046FFF77EFC06E0D4E901213020904751
:100DE000206A401C2062381EA7F10107F4DC07E0EE
:100DF000D4E9012118F805009047206A401C2062C0
:100E0000281EA5F10105F3DC2046FFF778FC2078C9
:100E1000000602D50220BDE8F0870120FBE77047FD
:100E20002DE9FF4F0C461E464FF0FF378BB0D2E93D
:100E30000001DDF860800A908A46C1F30A5505B9C1
:100E40003D46002108464FF00000BAF1000F00F4C3
:100E5000400005DA00EB80004FF4400101EA500049
:100E60004FEA9059B9F1010F00DDB9460A9850EAEE
:100E70004A000ED044F61050A5F2FF3545432F141A
:100E8000B8F1000F1ED07542291E1EDDC9F1000207
:100E90001CE0B8F1010F4FF0000001D0302103E059
:100EA000F24305E02154401CB042FBDB30460022F7
:100EB000002121540B99C1F80880C1E900200FB02E
:100EC000BDE8F08FBD1B6D1CDEE74A4600DA6942C3
:100ED00006A800F0A9FD06AB93E8070003AB83E882
:100EE000070050460A9900F026FE8DE80700A0F59D
:100EF00000501F3800900398002D0ADD42F21F01B8
:100F00004A460844002303A90390684601F08FF87D
:100F100009E0A0F500504A461F38002303A90390BA
:100F2000684601F099F88DE807000004000C03D032
:100F30004FF0FF30410800E01046B8F1000F03D039
:100F40000022009215461EE0751E05D4FFF7C0FE74
:100F5000303262556D1EF9D5B3460122084302D0E6
:100F600000227F1C04E02078302801D100227F1E5F
:100F7000002A099784D01DE0112D07DAFFF7A8FE9B
:100F8000303262556D1C50EA0102F5D1084302D09F
:100F90000098C8B10EE00021681E05E0235C625C89
:100FA00063542254401E491C8142F7DBAB46A81B08
:100FB000401E0990002004F80B000B98099AC0F815
:100FC0000880C0E9002B7AE711264FF0000857E7A8
:100FD0002DE9F04F88460446D21D22F0070191B05A
:100FE000D1E90001CDE90A0102F050FF02460B9859
:100FF000C00F01D02D2007E02068810701D52B20EC
:1010000002E0202101EAC000032A099001D0072A4A
:1010100005DB03464146204600F0C6FC0BE1207884
:10102000800601D5E06900E00620B8F1650F814631
:1010300006D0B8F1660F18D0B8F1670F70D131E063
:101040000020B9F1110F009001DB112301E009F13B
:1010500001030AAA01A90CA8FFF7E2FEDDE90C7062
:10106000002609F10105834647E001204B46009028
:101070004FF000470AAA01A90CA8FFF7D1FEDDE94D
:101080000DB00C995D46002610B909F101000D184C
:10109000B9EB050003D4C0F1FF3609F10105A5EB5A
:1010A00009002BE0B9F1010F01DA4FF0010900202E
:1010B000B9F1110F0090484601DD112300E003460D
:1010C0000AAA01A90CA8FFF7ABFEDDE90C704D469A
:1010D00000268346207800070AD4AB4500DA5D4637
:1010E00001A8012D04DD411911F8011C302907D098
:1010F0004F4502DA17F1040F04DA012082460FE0AF
:101100006D1EEEE7002F02DCED1B3E4403E0781C71
:10111000A84200DD7D1CB81B00F1010A4FF000471A
:101120002078000703D4AA4501DB4FF0FF3A0021E5
:10113000B7F1004F0DF143088DF8431024D0022081
:101140002B23002F01DA7F422D230A21021EA0F15A
:10115000010000DC5FB197FBF1FC97FBF1F201FBB2
:101160001C7C17460CF1300C08F801CDEEE7A8F115
:10117000010003702188090501D5452100E06521A2
:10118000A0F1010800F8011C09980FA9A1EB0807BC
:10119000FF1D00B10120411901EBEA70A16938443B
:1011A000081A401EA0612078C00602D42046FFF72E
:1011B00090FA099828B1D4E901219047206A401C8F
:1011C00020622078C00622D52046FFF782FA1EE072
:1011D000002E04DBB34502DD01A8805D00E0302075
:1011E000D4E901219047206A401C2062761CAAF1B4
:1011F00001005FEA000A0AD100F0D2FBC068016872
:10120000405CD4E901219047206A401C2062281EDE
:10121000A5F10105DCDC07E0D4E9012118F8010B98
:101220009047206A401C2062381EA7F10107F3DCBA
:101230002046FFF764FA032011B041E62DE9F04F94
:1012400004460D46D21D22F0070089B0D0E9009770
:101250004846394602F01AFE0246F80F01D02D2307
:1012600007E02068810701D52B2302E0202101EA55
:10127000C0038DF820300BB1012000E00020032ACC
:10128000824601D0072A04DB2946204600F08CFB69
:101290003FE12078800601D40D2500E0E569C7F321
:1012A0000A560D2D49DA00214FEA175B08464FF028
:1012B0000000002F00F4400007DA00EB80004FF43C
:1012C000400100EBD07001EA60008115012901DDC9
:1012D0004FF0FF3100224FEA850CBCF1180F06D306
:1012E0001346ACF118004FF08052C24003E04FF4B7
:1012F000801323FA0CF30CF10C0CBCF1200F04D377
:10130000ACF1200C09FA0CF001E007FA0CF000290E
:101310004FF0004801DD18B90FE00ED140450CD365
:1013200019EB02095F4121B9404502D19F4329EAE7
:101330000209BBEB175F00D0761C2088000502D5A0
:101340007B48784402E07A487844193808AA302368
:1013500002F80A30037C0AF10101002E0AF1020AA8
:1013600053546A4602DC4FF0300101E04FF0310186
:101370004FF001088DF8001002D0A6F2FF3603E00E
:1013800059EA470100D06B4E002D02DC2178090795
:1013900004D54FF002082E218DF80110C44600211B
:1013A0000BE0C7F303433F01C35C491C6D1E02F809
:1013B0000830052908F1010801DA002DF1DC0021CF
:1013C0000CE000EB1973491C1B786D1E082902F80C
:1013D00008304FEA091908F1010801DA002DF0DCA4
:1013E00021688B0602D516E0A8F10108E04505DD6D
:1013F00002EB080313F8013C302BF5D0B8F1000FD5
:1014000009DD02EB080313F8013C2E2B03D1090779
:1014100001D4A8F10108002D05DD3E2102F80810D5
:101420006D1E08F10108407C002E02F8080008F14A
:10143000010804DA2D20764202F8080002E02B2091
:1014400002F808000A214FF47A70864208F1010878
:101450000BDB96FBF0F3303302F8083096FBF0F329
:1014600008F1010800FB136601E0642E0CDB642028
:1014700096FBF0F3303302F8083096FBF0F308F1F6
:10148000010800FB136601E00A2E06DB96FBF1F073
:10149000303002F8080008F1010896FBF1F001FB7A
:1014A0001060303002F80800A16908F1010808EB6B
:1014B000050202EB0A00081AA0612078C00602D4D7
:1014C0002046FFF706F9216A08AE01EB0A00206208
:1014D00004E0D4E9012116F8010B9047BAF1010AA2
:1014E000F7D22078C00602D52046FFF7F2F86E4604
:1014F00009E016F8010B3E280FD0D4E901219047EE
:10150000206A401C2062B8F10108F2D22046FFF7A1
:10151000F6F809B00320BDE8F08F206A2844206265
:1015200003E0D4E90121302090476D1EEBD3F8E7AA
:101530004234000002FCFFFF10B5436913B1AFF362
:10154000008001E0FFF7FEF8012010BD127800F1E5
:1015500024010A7000224A700122EDE711684FF061
:10156000FF32E9E710B5436913B1AFF3008001E042
:10157000FFF788F9012010BD128800F12401828450
:101580000022C2840122EDE711684FF0FF32E9E743
:101590002DE9F34F4FF0000A0C4656468DB001205E
:1015A0000C9001F10C000B9062690B98012190479F
:1015B000051E2DD0252D2CD0216A8847C0B1626927
:1015C0000B9801219047216A88470028F7D162696A
:1015D000411E0B98904700E0761CA1690D98884742
:1015E000216A88470028F7D1E1690D988847DBE731
:1015F000A1690D988847A842074601D1761CD3E718
:10160000E1690D9888477F1C02D1BAF1000F6FD0B5
:101610006BE162690B9800273D46394690472A28BE
:1016200004D162690B98012190470125DFF8D0822F
:1016300062690B9801219047A0F130010A290AD272
:101640004745E5DC07EB870100EB4107303FDFD47E
:1016500045F01005ECE7E90601D46FF000476C286F
:101660000AD04C2814D0682815D06A280DD07428C8
:101670001CD07A281AD01DE062690B98012190478E
:101680006C2802D045F0040514E045F002050DE099
:1016900045F020050AE062690B980121904768280F
:1016A00002D045F0080505E045F4006562690B9835
:1016B00001219047C4E9015765283DD019DC58281D
:1016C0007AD00CDC452837D004DC252826D04128E8
:1016D0009ED131E046282FD0472899D12CE05B28B5
:1016E00077D0612828D063287CD0642823D15AE0A1
:1016F000F6E06F2848D008DC66281DD067281BD08C
:10170000692821D06E2816D127E0702845D073288B
:1017100068D0752847D078280DD14DE0A1690D9883
:101720008847252805463FF469AFE1690D98884749
:101730006D1C3FF46AAFD8E00D9923466A466FF0FE
:101740000100AFF30080C5E045F0400023464FF0B4
:1017500000026060A80736D43EE0E8077FF447AF98
:101760002068011D21600068290501D506701BE76E
:10177000290701D5068017E7A90703D5F117C0E9A6
:10178000006111E706600FE745F0400023464FF087
:1017900008026060A80716D41EE040F60E0125EA94
:1017A0000100606016E045F0400023464FF00A0259
:1017B0006060A80707D40FE045F040006060A8070C
:1017C00008D5234610220D996FF00100AFF3008079
:1017D00080E007E0102223460D996FF00100FEF72C
:1017E00049FE77E04FF0000963284F46C8464B4654
:1017F000CB4602D05B2806D038E0E80601D40120B1
:10180000A060012732E06269D4F80CB00B98012186
:1018100090475E2807D14FF0010949466269D4F824
:101820000CB00B989047216939B900210A4603ABE7
:1018300043F82120491C0829FADBD8B3216949B3B0
:1018400008F1010862690B98012190475D28F4D1E5
:10185000B9F1000F09D0002003A951F82020D2438C
:1018600041F82020401C0828F7DB03AB2069002842
:1018700020794FEA40701ED05B462246CDF80080AA
:10188000CDE901970D9900286FF0010020DAAFF340
:1018900000801FE0C11703AA00EBD1614B1121F0BA
:1018A0001F0102EB8302411A1368012088400343A1
:1018B0001360C7E719E00D99224600286FF0010078
:1018C000009702DAAFF3008004E0AFF3008001E09C
:1018D000AFF3008000280ADA401C06D10C9820B132
:1018E0004FF0FF300FB0BDE8F08F5046FAE7E90740
:1018F00001D10AF1010A064400200C9054E60000D0
:10190000CCCCCC0C70B516460C46054600F040F821
:10191000036893F80101012806D0FF2C0FD8185D49
:1019200068B101202C7070BDD3F807013246214602
:1019300003F2071303442846BDE8704018474FF0F0
:10194000FF3070BD754600F0EBF8AE460500694605
:10195000534620F00700854618B020B5FEF7C8FCB6
:10196000BDE820404FF000064FF000074FF00008A0
:101970004FF0000B21F00701AC46ACE8C009ACE821
:10198000C009ACE8C009ACE8C0098D46704700004A
:1019900010B500F005F8001D10BD00BF952C00002B
:1019A00000487047E80000202DE9F0411F4604463A
:1019B00003260168072A01F4006004DB08B116A5BC
:1019C00005E016A503E008B115A500E015A521F076
:1019D00010002060A069C01EA0610FB1401EA06170
:1019E0002046FEF776FE4FB1D4E9012138469047F4
:1019F000206A401C2062C01C206206E0206AFAE7D0
:101A0000D4E9012115F8010B9047761EF8D2204643
:101A1000FEF775FEBDE8F0814E414E006E616E002E
:101A2000494E4600696E66002DE9F047814616462C
:101A30008AB0354878440DC88DE80D0032487844A6
:101A4000801C03AC0DC884E80D0041F69B300844AF
:101A5000372190FBF1F290FBF1F5A5F1800501FB38
:101A600012041B3C02D56442012000E00020DFF894
:101A700098A080460027FA44AAF1BE0A0EE0E007CB
:101A80000AD03246684607EB470101230AEB810181
:101A900000F0E2FA8DE8070064107F1C002CEED104
:101AA000194F7F44AE3F19E0E80715D007EB04104B
:101AB0000DF1180A90E80E008AE80E00C068F042A6
:101AC00001D1981908903246012306A903A800F015
:101AD000C3FA03AB83E807006D10641C002DE3D14B
:101AE0004FF0010332466946B8F1000F03A802D057
:101AF00000F09DFA01E000F0AFFAC9E90001C9F871
:101B000008200AB0BDE8F087E02D000010B50446BB
:101B1000AFF300802046BDE81040FEF7D4BB0000C4
:101B200000487047C800002001491820ABBEFEE7FE
:101B30002600020070475FEA400C08BF91F0000FDA
:101B40004FEA8C234FEAC12243EA51514FEA1C501D
:101B500018BF00F5F0404FEA300018BF41F00041D7
:101B60005FEA6C5C00F02980BCF1FF3F08BF40F0E9
:101B700080407047130C06BF12044FF0100C4FF05A
:101B8000000C130E04BF12020CF1080C130F04BF5B
:101B900012010CF1040C930F04BF92000CF1020C23
:101BA000D30F04BF52000CF1010C11464FF000029C
:101BB000A0F11F00A0EB0C00704711F0004F08BF10
:101BC000704731F000413FF4D5AF0B0C06BF09045C
:101BD0004FF0100C4FF0000C0B0E04BF09020CF17B
:101BE000080C0B0F04BF09010CF1040C8B0F04BF90
:101BF00089000CF1020CCB0F04BF49000CF1010C61
:101C0000CCF12003A0EB0C0022FA03F302FA0CF251
:101C100041EA030100F10100704720F07F4C80EAA7
:101C2000030023F07F47ACEB070303F57C5300F080
:101C3000004003F1FF032DE980494FEA154B09B439
:101C40004FEA144325EA0B4E24EA03480FF2042618
:101C500006EB132749083E785FEA320203FB06676A
:101C6000C7F5000707FB06F64FEA54374FEAD6469A
:101C700006F1020607FB066CCCF1005C4FEA1C473C
:101C80002CEA074C07FB06F40CFB06F504EB1546A3
:101C90004FEA961634BF00204FF000404FEAD1378C
:101CA00006FB07FC4FEA1C4C0CFB0BF7D21B03FB9B
:101CB0000CF761EB07010CFB0EF7B0EB074072EB82
:101CC00017420CFB08F734BFA2EB0742B2EB074206
:101CD00061EB17414FEA0C444FEA910706FB07FC02
:101CE0004FEA1C4C0CFB0BF7B0EBC74072EB5732C2
:101CF00003FB0CF734BFA2EBC742B2EBC74261EB68
:101D000057310CFB0EF7B0EBC70072EB57720CFBB0
:101D100008F734BFA2EBC702B2EBC70261EB577101
:101D2000039F4FEA816141EA921104EBCC044FEA30
:101D3000D1374FEA826206FB07FC42EA90124FEA73
:101D400080604FEA1C4C0CFB0BF7D21B03FB0CF71B
:101D500061EB07010CFB0EF7B0EB074072EB17428B
:101D60000CFB08F734BFA2EB0742B2EB074261EB72
:101D700017414FEA8C554FEA910704EB9C2406FB70
:101D800007FC4FEA1C4C0CFB0BF7B0EBC74072EBA7
:101D9000573203FB0CF734BFA2EBC742B2EBC7428A
:101DA00061EB57310CFB0EF7B0EBC70072EB5772CB
:101DB0000CFB08F734BFA2EBC702B2EBC70261EB22
:101DC000577115EB4C254FEA816141EA92114FEAB8
:101DD00082624FEAD13742EA901206FB07FC44F1D7
:101DE00000044FEA80604FEA1C4C0CFB0BF7D21B3F
:101DF00003FB0CF761EB07010CFB0EF7B0EB0740A0
:101E000072EB17420CFB08F734BFA2EB0742B2EBB0
:101E1000074261EB174115EB1C154FEA813141EA8E
:101E200092414FEA823242EA90424FEA80304FEAD2
:101E30000C7644F1000448EA03434EEA0B484FF0A5
:101E4000000EB2EB080C71EB030724BF6246394663
:101E50004EEB0E0E4FF0000B0018524149414BEB78
:101E60000B0BB2EB080C71EB03077BF1000B24BFEB
:101E7000624639464EEB0E0E4FF0000B00185241F1
:101E800049414BEB0B0BB2EB080C71EB03077BF1F9
:101E9000000B24BF624639464EEB0E0E51EA020794
:101EA00018BF46F0010616EB0E7655F1000254F10C
:101EB000000103D5BDE88901BDE80088BDE88901BE
:101EC000BDE80048B619524141EB0101A3F10103FD
:101ED000704780807F7E7D7C7B7A79787776767597
:101EE0007473727171706F6E6E6D6C6C6B6A6A690F
:101EF0006868676666656464636362616160605FA9
:101F00005F5E5E5D5D5C5C5B5B5A5A595958585721
:101F10005756565555555454535352525251515089
:101F200050504F4F4F4E4E4D4D4D4C4C4C4B4B4BDC
:101F30004A4A4A4949494848484747474746464622
:101F4000454545444444444343434342424242415D
:101F50004141002B9C4630D477002BD01CB54FEA72
:101F6000370703B44FF010004FF01001BAF1000F23
:101F700006D0BCF1000FDCBF40F0080040F00801C3
:101F80004FF000000FBCBDE810400BF1010BBBF19E
:101F9000010F08BF5FEA170722BF12F1010211F11A
:101FA00001014FF0004143F1000300F0004043EA1B
:101FB00000007047F9D35708D0E746EA064613F108
:101FC000400F4FEA16461FDD13F1200FDFBF164307
:101FD0000A46002120335B42BED0C3F1200746EA07
:101FE000064602FA07F74FEA164646EA0706C3F125
:101FF000200722FA03F201FA07F721FA03F14FF062
:10200000000342EA0702A7E746EA020646EA064656
:102010004FEA164646EA0106BCBF46EA0646360CBB
:102020004FF000034FF000024FF0000194E72DE95C
:10203000804C9A46934670B491E8380007C831EA5C
:10204000400C48BF34EA430C03D5FFF7E6FDFFF729
:1020500080FFF0BCBDE8008C2DE9804C9A46934689
:1020600070B491E8380007C810F0804F08BF13F033
:10207000804F03D100F005F8FFF76BFFF0BCBDE81F
:10208000008C20F07F4780EA030023F07F4C07EBB1
:102090000C03A3F57C5300F00040A3F1FE0392F083
:1020A000000F00F0B38095F0000F00F077802DE96D
:1020B00001494FEA11404FEA144621EA004800FB6B
:1020C00006FC24EA064708FB06F607FB08F800FBB7
:1020D00007F718EB06484CEB164C4FEA124B18EB7F
:1020E00007484FEA15464CEB174022EA0B4E0BFB14
:1020F00006FC25EA06470EFB06F607FB0EFE0BFB69
:1021000007F71EEB064E4CEB164C4FF000061EEB8D
:10211000074E4CEB174B18EB0B0840F1000018EB87
:102120000E0B58EB000840F100008F1A4FF0000131
:102130003CBFC943661B14BFB5EB040C00213CBF78
:10214000C943F61B4FEA17444EEA8E0E27EA0445B0
:102150004FEA1C4704FB07622CEA074C05FB07F714
:102160000CFB05F604FB0CFC16EB074642EB174292
:1021700016EB0C4642EB1C421BEB060658EB020228
:10218000414146EA9E0601D5BDE80189B619524192
:1021900041EB0101A3F10103BDE801894FEA1445B8
:1021A0004FEA114724EA054621EA074C05FB07F4EC
:1021B00006FB07F70CFB06F105FB0CFC11EB0741D6
:1021C00044EB17444FEA124711EB0C4144EB1C441B
:1021D00022EA074C05FB07F206FB07F70CFB06F6A5
:1021E00005FB0CFC16EB074642EB174216EB0C46C0
:1021F00042EB1C456A1854F1000148BF7047B619FC
:10220000524141EB0101A3F10103704795F0000F2A
:1022100037D04FEA11424FEA144721EA024624EA36
:10222000074C02FB07F106FB07F70CFB06F402FB69
:102230000CFC14EB074441EB17414FEA154714EB34
:102240000C4441EB1C4125EA074C02FB07F506FB59
:1022500007F70CFB06F602FB0CFC16EB074645EBFA
:10226000174516EB0C4645EB1C42121951F10001C3
:1022700048BF7047B619524141EB0101A3F1010378
:1022800070474FEA14454FEA114724EA054621EA10
:10229000074C05FB07F106FB07F70CFB06F24FF0B6
:1022A000000605FB0CFC12EB074241EB174112EB59
:1022B0000C4251EB1C4148BF7047921841EB0101A1
:1022C000A3F101037047FEE77047000070B50446B4
:1022D00000F0FCF80546601C02D004480078044475
:1022E00000F0F4F8401BA042FAD370BD00000020BB
:1022F0002DE9F84FDFF89C910022A9F1040B032788
:102300004FF00F0C09F1040AABF1040E01250B6824
:1023100095402B40AB426ED10C7904F00304012CA4
:1023200001D0022C15D18668540007FA04F826EA79
:102330000806D1F80C8008FA04F848EA0608C0F844
:1023400008804468AC430D79C5F3001595402543DA
:1023500045600C79E443A40708D0C568540007FA27
:1023600004F6B5438E68A6402E43C6600C7904F08F
:102370000304022C11D1D40800EB8406356A5407FB
:10238000E40E0CFA04F825EA0805D1F8108008FAE2
:1023900004F848EA0508C6F820800568540007FAE2
:1023A00004F6B5430E7906F00306A6402E430660F8
:1023B0004C6814F4403F66D0374C256845F480459E
:1023C0002560246822F0030504F480440094334C13
:1023D00005EB0408D8F808589407260F0CFA06F401
:1023E000A5432F4CA04201D1002424E02D4CA04253
:1023F00002D101241FE046E02B4CA04201D102246F
:1024000019E02A4CA04201D1032414E0284CA04238
:1024100001D104240FE0274CA04201D105240AE099
:10242000254CA04201D1062405E0244CA04201D154
:10243000072400E00824B4402C43C8F80848D9F821
:1024400000404D464E689C43F60200D51C432C606C
:10245000DAF8004055464E689C43B60200D51C434E
:102460002C60DBF800405D464E689C43B60300D507
:102470001C432C60DEF8004075464E689C43F60312
:1024800000D51C432C60521C102AFFF43FAFBDE85E
:10249000F88F0000083C0140443802400030014001
:1024A000000002400004024000080240000C02400C
:1024B000001002400014024000180240001C0240BC
:1024C0000AB1816170470904FBE700000148806898
:1024D000704700000000002070B5040025D094F87B
:1024E0003D00002520B984F83C50204600F002FB56
:1024F000242084F83D002068016821F0010101607A
:102500002068016841F4004101602068016821F4FD
:102510000041016000F04AFC4D4B6168994201D8CE
:102520004C4900E04C49884201D2012070BD4B4922
:102530002268B0FBF1F1566826F03F060E43566064
:1025400062689A4206D94FF4967251434FF47A72F8
:10255000B1FBF2F12268491C166A26F03F063143AE
:1025600011626168994210D84900401EB0FBF1F237
:10257000521CC2F30B02042A01D2042022E0B0FB59
:10258000F1F0401CC0F30B001CE0A268F2B301EBB9
:10259000C10303EB0116431EB3FBF6F35B1C43F4CC
:1025A00080431B0549D092B301EBC10202EB01113C
:1025B000401EB0FBF1F0401CC0F30B0040F4804023
:1025C00040F400402168CA694CF6FF739A431043F7
:1025D000C861D4E9071001432068026822F0C002F4
:1025E00011430160D4E9030101432068826848F285
:1025F000FF339A4311438160D4E9051001432068F9
:10260000C26822F0FF021143C16001E00EE016E053
:102610002068016841F0010101602564202084F8F0
:102620003D00256384F83E50002070BD01EB41065B
:10263000431EB3FBF6F35B1CB3E70120C2E701EBDB
:102640004101401EB0FBF1F0401CC0F30B00B7E7A6
:10265000A086010080841E0000093D0040420F005A
:102660002DE9FF4F81B01F4693460446FFF72EFF2A
:10267000054694F83D00002620287DD1192301222B
:1026800050492046009500F0C9FF002874D194F805
:102690003C00012870D0012084F83C0020680168CB
:1026A000C90703D1016841F0010101602068016898
:1026B00021F400610160242084F83D004FF0000AFD
:1026C000C4F840A04048E0624FF02009206801684B
:1026D00041F4807101603B4600224FF00111204619
:1026E000009500F09BFF50B120680068C00502D53E
:1026F0004FF400702064032005B0BDE8F08F02980D
:10270000216800F0FE000861FFF7E0FE0546206842
:1027100041694069C1F34001C0F380204FF0A00837
:102720000EE0FFF7D3FE401BB84200D80FB984F883
:102730003D80206841694069C1F34001C0F38020B9
:1027400094F83D20A02A02D009B90028E9D084F8E5
:102750003D9020684169C943890717D4016841F455
:102760000071016020685646416980691923012281
:1027700014492046009500E022E000F04FFFA8B980
:1027800084F83D9084F83C600020B5E7016841F48E
:102790000071016021686FF4806048611923012293
:1027A00008492046009500F039FF08B10120A3E751
:1027B000761C5E458AD384F83D9084F83CA0F5E70A
:1027C000022099E7020010000000FFFF2DE9FF4FF3
:1027D00083B09A46DDE9119793460446DDF84080C0
:1027E000FFF774FE054694F83D00202870D11923A8
:1027F000012271492046009500F010FF0028F5D114
:1028000094F83C00012863D0012084F83C00206843
:102810000168C90703D1016841F001010160206826
:10282000016821F400610160222084F83D0040200D
:1028300084F83E0000262664C4F82480A4F82A9078
:10284000608D20855D48E062CDE9007553465A46AB
:102850002046049900F0EAFD00287CD1208DD0B1FB
:10286000012821D00228206824D041698069009085
:10287000208D032869D801282BD0514902283B46D6
:102880004FF00002009559D08846204600F0C6FE61
:10289000002860D13CE020684169816900910168AD
:1028A00041F40071016077E02068016821F48061E3
:1028B0000160F0E7016821F480610160206801682F
:1028C00041F400610160206841698069009063E023
:1028D0006FE02A463946204600F020FF98BB20686A
:1028E0000069616A08704EE02068016841F4007177
:1028F000016020680069616A0870606A401C60625B
:10290000218D491E2185618D491E6185216838E030
:102910002068016821F48061016020680069616AB3
:102920000870606A401C6062208D401E2085608DAA
:10293000401E60853B46002241460095204600F03F
:102940006DFE00B9D0E706E0FFE72A46394620468B
:1029500000F0E4FE18B1012007B0BDE8F08F206858
:102960000069616A0870606A401C6062218D491EBE
:102970002185618D491E618521684A69D2435207CC
:102980000AD409690170606A401C6062208D401E93
:102990002085608D401E6085208D00287FF468AF03
:1029A000202084F83D0084F83E6084F83C600020DC
:1029B000D2E70220D0E70000020010000000FFFF75
:1029C000040001002DE9FF4F83B09A46DDE911971D
:1029D00093460446DDF84080FFF778FD054694F8FD
:1029E0003D0020287FD1192301224049204600952F
:1029F00000F014FE002876D194F83C00012872D033
:102A0000012084F83C0020680168C90703D10168EF
:102A100041F0010101602068016821F4006101605A
:102A2000212084F83D00402084F83E0000262664E2
:102A3000C4F82480A4F82A90608D20852C48E06298
:102A4000CDE9007553465A462046049900F06CFDC6
:102A500070B930E02A463946204600F094FE58B15D
:102A6000206C042804D12068016841F400710160E1
:102A7000012007B0BDE8F08F606A21680078086126
:102A8000626A521C6262208D401E80B22085618D78
:102A9000491E618521684B69DB435B070BD468B134
:102AA00010780861606A401C6062208D401E20859D
:102AB000608D401E6085208D0028CBD12A46394686
:102AC000204600F085FD0028CAD154F83D0B01686E
:102AD00041F400710160202004F81E09E677667752
:102AE0000020C6E7FFE70220C3E700000200100055
:102AF0000000FFFF10B586B0044614216846FDF7BC
:102B00007EFD14492068884221D11348016841F0B4
:102B1000020101600068694600F0020005904FF470
:102B20004070009012200190012002900320039039
:102B3000042004900948FFF7DBFB074810300168C8
:102B400041F400110160006800F40010059006B027
:102B500010BD000000540040303802400004024024
:102B600002488168027811448160704700000020AB
:102B70000B4810B5016841F400710160016841F42F
:102B800080610160016841F480710160032000F000
:102B900061F8002000F006F800F024F8002010BDD5
:102BA000003C024070B50D4D04464FF47A71287810
:102BB000B1FBF0F00A490968B1FBF0F000F0E8FA67
:102BC00048B9102C07D200222146501E00F022F8EE
:102BD00000206C6070BD012070BD0000000000206E
:102BE0000C0000200A4808B5016841F480410160EA
:102BF000006800F4804000900548001F016841F023
:102C000080510160006800F08050009008BD000015
:102C100044380240F0B40E4B1B68C3F30223C3F1E7
:102C20000704042C00D904241D1D072D01D2002304
:102C300000E0DB1E012606FA04F56D1E0D409D40E6
:102C40009E40761E164045EA0601F0BC01F036B9FA
:102C50000CED00E0064A00F0070110684FF6FF0394
:102C6000184040EA01200349084310607047000003
:102C70000CED00E00000FA052DE9F0470D460400D8
:102C800065D0DFF81491D9F80000EFB200F007002A
:102C9000A84207D289F80070D9F8000000F00700B8
:102CA000A84254D120683D4E810712D5400703D574
:102CB000306840F4E05030602078000703D5306879
:102CC00040F4604030603068A16820F0F0000843B4
:102CD00030602078C0072DD030496068083901285D
:102CE00012D0022813D0032811D0096889070029BF
:102CF0002DDA316821F0030101433160FFF7E6FB73
:102D0000804641F2883A0EE009688903EFE70968D6
:102D10008901ECE7FFF7DAFBA0EB0801514502D986
:102D20000320BDE8F0873068616800F00C00B0EB6C
:102D3000810FEFD1D9F80010484601F00701A942F0
:102D400007D90770006800F00700A84201D00120F1
:102D5000E7E72078400705D53068E16820F4E050C7
:102D6000084330602078000706D53068216920F4D8
:102D7000604040EAC100306000F038F83168084A2D
:102D8000C1F30311515CC840064908600648006859
:102D9000FFF708FF0020C4E7003C0240083802406B
:102DA0006E4600080C00002004000020044805497D
:102DB00000680968044AC1F38221515CC840704729
:102DC0000C000020083802407E46000804480549EF
:102DD00000680968044AC1F34231515CC840704739
:102DE0000C000020083802407E460008104810B54C
:102DF000006810F00C010F4818D0042916D00829DB
:102E000014D10B4C241F216801F03F022168216876
:102E10000023C1F38811A1FB0001FDF77BFA2168B3
:102E2000C1F30141491C4900B0FBF1F010BD0000A5
:102E3000083802400024F4002DE9F84F040075D052
:102E40002078DFF838A3C007AAF1040548D00AF1BA
:102E500004000168C1F38101012908D00068C0F3B2
:102E6000810002280AD1DAF80000400206D528685D
:102E7000800335D560680028E1D031E06068B0F5A6
:102E8000803F10D0B0F5A02F286810D020F48030FB
:102E90002860286820F4802028606068A0B1FFF7CF
:102EA00015FB06460CE0286840F48030F4E740F457
:102EB00080202860F7E7FFF709FB801B642871D8A2
:102EC00028688003F7D50BE0FFF700FB064604E017
:102ED000FFF7FCFA801B6428F1D828688003F7D438
:102EE0002078DFF89C9280074FF0000B3DD5A34877
:102EF000001D016811F00C0F08D00068C0F38100BC
:102F000002280AD1DAF80000400206D428688007B7
:102F100015D5E068012809D111E0E068B8B10120B9
:102F2000C9F80000FFF7D2FA064605E022E1FFF7F4
:102F3000CDFA801B0228C2D828688007F7D52868F8
:102F4000216920F0F80040EAC10028600DE0C9F8CE
:102F500000B0FFF7BBFA064604E0FFF7B7FA801BA4
:102F600002281FD828688007F7D42078000722D5C8
:102F7000824F84486169703771B101210160FFF7A8
:102F8000A5FA064604E0FFF7A1FA801B022809D83B
:102F900038688007F7D50EE0C0F800B0FFF796FA62
:102FA000064605E082E0FFF791FA801B02287DD8F3
:102FB00038688007F7D42078400765D56F484FF010
:102FC00000083C300068C0000BD46C483C300168FD
:102FD00041F08051016000684FF0010800F080501E
:102FE0000090694F3868C0050FD4386840F480708D
:102FF0003860FFF76BFA064604E0FFF767FA801BBC
:10300000022853D83868C005F7D55C4FA0686C37E4
:1030100001280FD00528386810D020F00100386052
:10302000386820F004003860A068B0B1FFF74EFAAD
:1030300006460EE0386840F00100F4E740F0040076
:103040003860F7E7FFF742FA811B41F2883081428E
:1030500063D838688007F5D50DE0FFF737FA0646E4
:1030600006E0FFF733FA811B41F28830814254D8E1
:1030700038688007F5D4B8F1000F05D03F483C30E0
:10308000016821F080510160A069B8B33B49091D76
:103090000968C1F38101022946D00228584606D0AA
:1030A000C9F86000FFF712FA044639E035E04F46F0
:1030B000C9F86000FFF70AFA064604E0FFF706FACF
:1030C000801B022829D828688001F7D4D4E9070199
:1030D0000843A16A2D4A490802EB0141626A41EAAC
:1030E0008211084394F82C1040EA0161CAF80010DC
:1030F00001203866FFF7EAF9044605E03CE0FFF7F7
:10310000E5F9001B022808D828688001F7D533E0CC
:10311000FFF7DCF9001B022802D90320BDE8F88F75
:1031200028688001F4D427E00128F7D0DAF80000FD
:10313000E26900F4800191421CD1226A00F03F0153
:10314000914217D147F6C071626A0140B1EB821F0C
:1031500010D1A26A4FF0FF3300F4403103EB52026A
:10316000B1EB024F06D194F82C1000F07060B0EB78
:10317000016F01D00120D1E70020CFE704380240E1
:1031800000004742800E4742007000400000FFFFF1
:1031900010B5401EB0F1807F01D3012010BD4FF06B
:1031A000E02460610F21601700F088FE0020A0611C
:1031B00007202061002010BD70B5040004D094F8F1
:1031C0003D00002510B106E0012070BD84F83C50A0
:1031D000204600F023F8242084F83D002068C168D0
:1031E00021F40051C160204600F08EFD2068016985
:1031F00021F4904101612068416921F02A01416177
:103200002068C16841F40051C1602564202084F821
:103210003D0084F83E00002070BD000010B586B06F
:10322000044614216846FDF7EAF9144920688842EB
:1032300021D113480021026842F0100202600068A8
:1032400000F0100005900E481438026842F00102A8
:103250000260006800F0010005904FF4C06000902B
:103260000220CDE901010320039007200490694664
:103270000448FFF73DF806B010BD00000010014003
:1032800044380240000002402DE9F84F044690F80F
:103290003E00984615460E46202855D10EB305B37C
:1032A00094F83C0001284FD0012084F83C004FF0F6
:1032B0000009C4F84090222184F83E10C4F83090F0
:1032C000FFF704F9A5858246E585A0684FF480578D
:1032D000B84201D1206938B13546002684F83C90C7
:1032E00027E00120BDE8F88F0025F7E753460022CC
:1032F00020212046CDF8008000F08CFD08B103208D
:10330000F0E725B1A068B8421BD038B108E02068CA
:103310004068C0F3080026F8020B07E0206980B17E
:103320002068406800F07F0005F8010BE08D401E2A
:10333000E085E08D0028D9D1202084F83E000020CF
:10334000D0E720684068EFE70220CBE72DE9F8439B
:10335000044690F83D001F4615460E4620284BD1E6
:10336000C6B1BDB194F83C00012845D0012084F8D5
:103370003C004FF00008C4F84080212084F83D0054
:10338000FFF7A4F8A5848146E584A068B0F5805FC6
:1033900003D004E00120BDE8F883206920B1354660
:1033A000002684F83C800EE00025FAE780212046C4
:1033B00000F030FDA0B9ADB115F8010B21684860EF
:1033C000E08C401EE084E08C4B464FF000020097FA
:1033D0000028EBD14FF04001204600F01BFD30B13A
:1033E0000320D8E736F8020BC0F30800E6E72020F8
:1033F00084F83D000020CEE70220CCE7FEE701681C
:103400004A69D24352050FD46FF480624A610021A9
:1034100040F8301F202242738173026942F0040297
:103420000261017301207047002070472DE9F84FB9
:103430000446006889460B9E01689846174641F489
:10344000806101602068016841F48071016000962C
:103450004FF0011B0022594620460A9B00F0DEF87F
:103460004FF4007A40B120680068C00501D5C4F867
:1034700040A00320BDE8F88F216809F0FE00086134
:103480003346284920460A9A00F0FCF8F0BB206831
:10349000416980690090324620460A9900F073F92C
:1034A00040B1206C04283AD12068016841F40071D1
:1034B000016034E0FDB2B8F1010F09D02168380A8B
:1034C0000861324620460A9900F05DF90028E8D1EB
:1034D00020680561324620460A9900F054F9002818
:1034E000DFD12068016841F48071016000960022FC
:1034F000594620460A9B00F091F80028B3D1216874
:1035000009F0FF0040F00100086100E007E03346E9
:10351000044920460A9A00F0B5F80028AAD00120F4
:10352000A8E70000020001002DE9F8430446006806
:103530000D46DDE9089701689846164641F480710A
:1035400001604B4600224FF001112046009700F029
:1035500065F848B120680068C00502D54FF40070D6
:1035600020640320BDE8F883216805F0FE000861AF
:103570003B464A461549204600F084F888B9206841
:103580004169806900903A464946204600F0FBF8C0
:1035900048B1206C042804D12068016841F400710E
:1035A00001600120DEE7F5B2B8F1010F09D0216812
:1035B000300A08613A464946204600F0E4F80028FF
:1035C000E7D1206805610020CCE70000020001007F
:1035D00070B516460D4604460DE02046FFF70FFF76
:1035E00008B1012070BD681C05D0FEF76FFF801B7D
:1035F000A84207D835B120684069C0434007ECD4E1
:10360000002070BD002044F8300F20216173A073AA
:10361000216941F0200121612073E2E72DE9F047A3
:103620001D4690460E460446C1F30747DDF820903C
:1036300008E0681C06D0FEF749FFA0EB0900A8428D
:103640000FD875B12068012F18D0806926EA0000D4
:103650000004000C14D000204045EAD00020BDE852
:10366000F087002044F8300F20216173A073216996
:1036700041F02001216120730120F0E74069E5E776
:103680000120E9E72DE9F047984615460E46044625
:103690004FF000094FF0200AC1F3074723E02068EC
:1036A0004069C043400515D42068016841F40071A9
:1036B000016021686FF480604861C4F8309084F83C
:1036C0003DA084F83E90216C41F00401216484F80F
:1036D0003C901EE0681C06D0FEF7F8FEA0EB080048
:1036E000A8420AD84DB12068012F15D0806926EA7A
:1036F00000000004000C0DD0D1E744F8309F84F89E
:103700000DA084F80E90216941F02001216184F818
:103710000C900120BDE8F0874069E8E72DE9F04111
:1037200016460D46044600274FF0200817E0406972
:10373000C043C0060DD454F8301B6FF01000486130
:1037400044F80D7B04F81D89A777206A206227774B
:1037500017E0FEF7BBFE801BA84208D83DB12068E9
:103760004169C9434906E2D40020BDE8F08144F82C
:10377000307F84F80D80A773206940F0200020611D
:1037800027730120F1E770B516460D4604460DE09B
:103790002046FFF734FE08B1012070BD681C05D03B
:1037A000FEF794FE801BA84207D835B12068406917
:1037B000C0430006ECD4002070BD002044F8300F58
:1037C00020216173A073216941F0200121612073E0
:1037D000E2E7000030B587B014216846FCF70FFF20
:1037E0001D480024016841F004010160016801F0F6
:1037F00004010591016841F080010160016801F058
:1038000080010591016841F001010160016801F04A
:1038100001010591016841F008010160016801F0B2
:1038200008010591016841F00201016000680B4D3B
:1038300000F002000590002204212846FEF740FE19
:10384000042000900120CDE9010469462846039434
:10385000FEF74EFD07B030BD30380240000C02408C
:10386000FEE770477047000070B51B4D00246022D2
:1038700008210B2000F052F9042211460F2000F01D
:103880004DF903220021102000F048F9284600F0ED
:10389000A5F8102211460B2000F040F90220FEF797
:1038A00015FD102200210B2000F038F90422002120
:1038B0000F2000F033F9042000F042F810F00F015F
:1038C00003D00F2901D0002070BD641C052CCEDB75
:1038D0004FF0FF3070BD000000C63E0570B5054DCD
:1038E00005242046295D00F02BF9641CE4B2202C4D
:1038F000F7D370BD864600083EB515460C464FF01E
:10390000FF310094CDE901510246012334210A48D8
:10391000FEF75CFF002009490BE0225C01EB12136B
:1039200002F00F021B788A5C43EA02122254401C08
:1039300080B2A842F1D33EBD100000202447000809
:1039400010B588B00446202802D3002008B010BD6E
:10395000202269460020FFF7CFFF1DF80400F5E79D
:1039600010B50AA100F00F000978C0F10F0040F077
:10397000B00041F00F0401460A2000F0E1F82146B2
:10398000BDE810400B2000F0DBB80000E0806000D4
:1039900010B5044600F078F802482044BDE8104015
:1039A00000F01CB8404B4C0008B1002100E0102191
:1039B0001022052000F0B2B80F220146052000F0C9
:1039C000ADB808B1102100E000211022072000F05E
:1039D000A5B80F220146072000F0A0B82DE9F0415C
:1039E000264C274D6300274E00214A1C00FA02F2A4
:1039F0002A44B24202D9491C0529F6D34A1C9040F8
:103A000000EB1442B2FBF3F2D2B203FB12060D3A02
:103A1000D0B28508A0EB85074807010EE0221020F0
:103A200000F07CF805EB8710C1B2142000F088F894
:103A300006B306EB1441002528464FF4004624FA4D
:103A400000F2914204D326FA00F31D43891A02D0F2
:103A5000401C1028F3D3E9B2152000F071F8290AB0
:103A6000162000F06DF808220021BDE8F041122078
:103A700000F054B808221146F7E7000000BADB0056
:103A800080F17F968038F57E41F2C701A0FB0101ED
:103A900010B5174A002000EB400302EB4303DB881C
:103AA0008B4202D8401C1428F5D300EB400002EBF7
:103AB00040040822A178172000F030F8E178C322F2
:103AC0001A2000F02BF821791B2000F039F80B2286
:103AD0000821102000F022F83F220021082000F0E9
:103AE0001DF83F220021BDE81040092000F016B863
:103AF000A64600080F2201460C2000F00FB8000077
:103B00000EB54FF0FF338DE80E000246012334213D
:103B10000148FEF757FF0EBD1000002030B42028EA
:103B20000AD2064B11401C5C9443214319541918C6
:103B300030BC0122FFF7E4BF30BC7047A800002072
:103B4000202805D2034A115411180122FFF7D8BFCB
:103B500070470000A80000207047FFF701B8000080
:103B600030B593B030216846FCF749FD14210CA80C
:103B7000FCF745FD1B480025016841F080510160BC
:103B8000006800F0805011901748016841F48041AE
:103B900001600068022400F4804011900120009030
:103BA000000401908001CDE9064010200890A82073
:103BB000CDE9090404200B906846FFF73DF900B1F8
:103BC000FEE70CA90F2081E831004FF48050CDE9C9
:103BD0000F0502210CA8FFF74FF8002800D0FEE7E0
:103BE00013B030BD403802400070004010480168FA
:103BF00041F4700101600F48016841F0010101606A
:103C00000C4A00210832116002680B4B1A40026016
:103C1000031D0A4A1A60026822F4802202600548E5
:103C20000C30016002495806803908607047000076
:103C300088ED00E000380240FFFFF6FE103000245F
:103C40000FB44FF4807100B5C1B043AB6846429ADF
:103C5000FCF7D8FB6846FCF7B3FC82B24FF0FF33A9
:103C600069460348FFF772FB41B05DF814FB0000A2
:103C7000640000202DE9FC47814621A09846006899
:103C8000009020A0170000680D4601901FD000246E
:103C90002E194346012231464846FFF7F5FA00281F
:103CA00016D1285D082815D07F2813D00D281DD0E7
:103CB0000A281BD0781E8442EAD0314643460122AE
:103CC0004846FFF743FB002802D1641CE0E70120CF
:103CD000BDE8FC87002CDBDD4346032201A94846F2
:103CE000FFF734FB0028F3D1641ED1E700202855EC
:103CF0004346022269464846FFF728FBE8E70000F2
:103D00000D0A00000820080070B50446006801692B
:103D1000E26821F4405111430161A1682069E26920
:103D200001436069104301432068C26849F20C6393
:103D30009A430A43C26020684169A26921F4407134
:103D40001143416131492068884202D0304988429C
:103D500002D1FFF73BF801E0FFF728F8E269002302
:103D6000192164253226B2F5004F626828D0A0FBE5
:103D70000101930F9200FCF7CDFA0146B0FBF5F07C
:103D80006FF01802504301EB800006EB0010B0FB0F
:103D9000F5F000F0F002B1FBF5F002EB0012B1FB20
:103DA000F5F06FF01803584301EB800006EB0010AC
:103DB000B0FBF5F000F00F0021681044886070BD82
:103DC000A0FB010192185B41FCF7A4FA0146B0FB8D
:103DD000F5F00201B1FBF5F06FF01803584301EB69
:103DE000800006EBC000B0FBF5F000F0F80002EB3D
:103DF0004002B1FBF5F0584301EB800006EBC00038
:103E0000B0FBF5F000F00700D6E70000001001401D
:103E1000001401402DE9F0411E461746884604462D
:103E2000069D26E0681C24D025B1FEF74FFB801BC1
:103E3000A8421ED920680C3050E8001F21F4D07130
:103E400040E80012002AF5D12068143050E8001F25
:103E500021F0010140E80012002AF5D1202084F869
:103E60003D0084F83E00002084F83C000320BDE8BB
:103E7000F0812068016838EA010004D00020B842CF
:103E8000D0D00020F3E70120F9E7FEE703B4019862
:103E90004100009850EAC12018BF04204A0D18BF05
:103EA00040F0010040F2FF72B2EB515F08BF40F0FA
:103EB0000200012808BF052002B070470907090E5B
:103EC000002804DB00F1E02080F80014704700F0C7
:103ED0000F0000F1E02080F8141D704730380A28E8
:103EE00001D2012070470020704700000F2802D93E
:103EF00002A0FFF7A5BEC0B2FFF732BD4F75742018
:103F00006F6620626F756E643A20302D31350D0A70
:103F10000000000010B5FFF7A7FC010004D0BDE8C9
:103F2000104002A0FFF78CBE10BD000043616C6919
:103F300062726174696F6E206661696C65642C20C1
:103F4000726573203D2025640D0A000070B588B0AD
:103F5000202269460020FFF7CFFC00246E460AA00D
:103F6000315DFFF76DFEE543680702D108A0FFF75A
:103F700067FE280702D107A0FFF762FE641CE4B2C7
:103F8000202CECD308B070BD253032582000000042
:103F9000202000000D0A00000449054A0144914216
:103FA00002D304A0FFF74CBEFFF7F2BC00CA91FE9B
:103FB00081CFD4674F7574206F6620626F756E6411
:103FC0003A2032343030303030302D3137363630E0
:103FD00030303030300D0A0010B516A0FFF730FE3B
:103FE0001EA0FFF72DFE27A0FFF72AFE3048FFF79F
:103FF00027FE3048FFF724FE2FA0FFF721FE38A050
:10400000FFF71EFE4048FFF71BFE40A0FFF718FE1B
:104010004AA0FFF715FE55A0FFF712FE5FA0FFF7BD
:104020000FFE69A0FFF70CFEBDE8104073A0FFF77C
:1040300007BE000068656C70202020202020202012
:104040002020202020202D2073686F77207468693D
:1040500073206D6573736167650D0A007363616E2C
:1040600020202020202020202020202020202D2043
:10407000706572666F726D20493243207363616EA2
:104080000D0A000064756D70202020202020202063
:104090002020202020202D207265616420616C6C1E
:1040A000207265676973746572730D0A0000000001
:1040B000F048000890480008696E697420202020AC
:1040C000202020202020202020202D20696E6974AF
:1040D00069616C697A65205238323054320D0A00B9
:1040E00063616C6962726174652020202020202049
:1040F00020202D2063616C696272617465205238E2
:10410000323054320D0A00003048000862616E649B
:104110007769647468203C76616C3E2020202D20F5
:104120005365742049462062616E647769647468DF
:10413000205B302D31355D0D0A0000006C6E615F33
:104140006761696E203C76616C3E202020202D2026
:10415000536574206761696E206F66204C4E412064
:104160005B302D31355D0D0A000000007667615F20
:104170006761696E203C76616C3E202020202D20F6
:10418000536574206761696E206F66205647412031
:104190005B302D31355D0D0A000000006D697865DA
:1041A000725F6761696E203C76616C3E20202D2035
:1041B000536574206761696E204D69786572205B74
:1041C000302D31355D0D0A006C6E615F61676320D3
:1041D0003C76616C3E20202020202D20456E6162BF
:1041E0006C652F64697361626C65204C4E4120419F
:1041F0004743205B302D315D0D0A00006D69786505
:10420000725F616763203C76616C3E2020202D2028
:10421000456E61626C652F64697361626C65204DE7
:104220006978657220414743205B302D315D0D0A6E
:1042300000000000012802D90248FFF701BDC0B20A
:10424000FFF7B2BBFC3E00080F2802D90248FFF777
:10425000F7BCC0B2FFF7B0BBFC3E0008012802D992
:1042600002A0FFF7EDBCC0B2FFF7ABBB4F757420E7
:104270006F6620626F756E643A20302D310D0A0032
:104280000F2802D90248FFF7DBBCC0B2FFF7A1BB81
:10429000FC3E000810B5202802D3202104A003E032
:1042A000FFF74EFB014609A0BDE81040FFF7C8BC70
:1042B0004F7574206F6620626F756E643A20307897
:1042C00030302D3078253032580D0A0025303258E4
:1042D0000D0A000070B500244FF6FF7505EA440191
:1042E0000A2301220A48FEF7BBF958B109A0FFF7DB
:1042F000A7FC641CA4B2802CF0D3BDE8704006A0DB
:10430000FFF79EBC214605A0FFF79AFCF1E70000ED
:10431000100000202E0000000D0A0000307825302B
:10432000325820000F2802D90248FFF789BCC0B2DA
:10433000FFF7E0BBFC3E0008202803D3202102A0A9
:10434000FFF77EBCFFF7FCBB4F7574206F662062E1
:104350006F756E643A20307830302D3078253032E9
:10436000580D0A0000B5A3B054A0FFF769FC4FF048
:10437000FF33802269465448FFF77CFC51A1684610
:10438000FCF764F9002860D050A16846FCF75EF99C
:1043900000285CD04FA16846FCF758F9002859D096
:1043A0004EA16846FCF752F9002856D04DA1684648
:1043B000FCF74CF9002853D04DA16846FCF746F9AC
:1043C000002850D020AA4CA16846FCF735F80128F7
:1043D0004CD020AA4CA16846FCF72EF8012849D001
:1043E00020AA4DA16846FCF727F8012846D020AA4C
:1043F0004CA16846FCF720F8012843D020AA4CA124
:104400006846FCF719F8012840D020AA4CA168465C
:10441000FCF712F801283DD020AA4CA16846FCF711
:104420000BF801283AD020AA4CA16846FCF704F802
:10443000012837D021AB20AA4BA16846FBF7FCFF2F
:10444000022834D04CA0FFF7FBFB23B000BDFFF7E0
:10445000C3FDFAE7FFF73EFFF7E7FFF73FFAF4E7A0
:10446000FFF758FDF1E7FFF771FDEEE72098FFF742
:1044700093FDEAE72098FFF739FDE6E72098FFF77C
:10448000E3FEE2E72098FFF74DFFDEE72098FFF715
:10449000F7FEDAE72098FFF7CDFED6E72098FFF782
:1044A000DDFED2E72098C0B2FFF7F4FECDE72198F9
:1044B000C1B22098C0B2FFF73FFFC6E77238323072
:1044C00074323E20000000006400002068656C70BB
:1044D000000000007363616E00000000696E697483
:1044E0000000000063616C69627261746500000025
:1044F00064756D70000000006672657175656E63AD
:10450000792025750000000062616E64776964742B
:1045100068202575000000006C6E615F6761696E40
:10452000202575007667615F6761696E20257500DB
:104530006D697865725F6761696E2025750000009E
:104540006C6E615F61676320257500006D69786539
:10455000725F616763202575000000007265616409
:10456000202530327800000077726974652025308C
:104570003278202530327800556E6B6E6F776E2062
:10458000636F6D6D616E642C207472792060686554
:104590006C70600D0A000000FEF7EAFAFFF7E0FA1F
:1045A000FFF718F914481349002401601349C0E9C2
:1045B00001144FF48041C0E9034144618461C46146
:1045C0000462FDF789FF00B1FEE70B480C49543047
:1045D00001604FF41651C0E901140C21C460C0E918
:1045E00004418461C461FEF7E7FD00B1FEE7FFF717
:1045F000B9FEFCE70054004010000020A086010036
:104600000010014010B500290AD00878002807D012
:1046100005487844FCF71AF8002801D0002010BDA6
:104620000248784410BD0000560300004E0300000D
:1046300010B500290AD00878002807D0054878442A
:10464000FCF704F8002801D0002010BD024878448F
:1046500010BD0000460300003E0300004FF0407014
:10466000E1EE100A7047FCF7B3BCFCF7E7BD0000B1
:104670000000000000000102030406070809000012
:1046800000000102030400000000009080608040F0
:10469000A80F406375F87C8380000F00C03048CCC1
:1046A000600054AE0AC000000802DF0032000802B9
:1046B000BE00370008028B003C0008027B0041006E
:1046C000080269004600080258004B00000244003E
:1046D0005000000244005A0000023400640000024E
:1046E00034006E00000224007800000224008C00D8
:1046F00000021400B40000021300DC0000021300EA
:10470000FA00000211001801000200003601004109
:104710000000C201004100004C02004000008A027B
:10472000004000000008040C020A060E0109050DF5
:10473000030B070F0000000000000000303132338F
:1047400034353637383941424344454640305800C5
:1047500030313233343536373839616263646566F7
:104760004030780004000008000000000000000253
:1047700000010000103031323334353637383961BA
:1047800062636465667870003031323334353637B1
:104790003839414243444546585000000240000029
:1047A000000000A00000000005400000000000C85C
:1047B000000000000C4000000000409C00000000D1
:1047C000194000000020BCBE000000003440000082
:1047D000BFC91B8E00000004B5400000504BCFD075
:1047E0006607E2CF010000006C4100003E8251AA42
:1047F000DFEEA73401000000D9420000DCB5A0E2E2
:104800003A301F97FFFFFFFFB4450000FD25A0C809
:10481000E9A3C14FFFFFFFFFFF3F00000000008042
:1048200000000000FF3F00000000008000000000CA
:104830006672657175656E6379203C76616C3E20A9
:1048400020202D20736574206672657175656E6316
:104850007920746F203C76616C3E0D0A2020202068
:104860002020202020202020202020202020202048
:1048700028652E672E20606672657175656E637996
:104880002031343430303030303060290D0A0000AF
:104890007772697465203C7265673E203C76616C76
:1048A0003E202D207772697465203C76616C3E2035
:1048B000746F207265676973746572203C726567F6
:1048C0003E0D0A20202020202020202020202020F3
:1048D0002020202020202028652E672E206077723F
:1048E00069746520304120453160290D0A000000BF
:1048F00072656164203C7265673E20202020202084
:1049000020202D207265616420676976656E2072B3
:10491000656769737465722076616C75650D0A2030
:104920002020202020202020202020202020202087
:1049300020202028652E6720607265616420304148
:1049400060290D0A00000000944A000800000020C1
:1049500010000000C4010008A44A00081000002054
:1049600018070000E00100081C00000043000000E0
:10497000F8FFFFFF0C0000000E0000000F00000019
:104980002E0000001001000043000000F8FFFFFFB0
:104990000040404040404040404041414141414052
:1049A0004040404040404040404040404040404007
:1049B0004005020202020202020202020202020296
:1049C000022020202020202020202002020202029B
:1049D00002029090909090901010101010101010F3
:1049E00010101010101010101010101002020202FF
:1049F0000202888888888888080808080808080843
:104A0000080808080808080808080808020202023E
:104A10004000000000000000000000000000000056
:104A20000000000000000000000000000000000086
:104A30000000000000000000000000000000000076
:104A40000000000000000000000000000000000066
:104A50000000000000000000000000000000000056
:104A60000000000000000000000000000000000046
:104A70000000000000000000000000000000000036
:104A80000000000000000000000000000000000026
:104A90000000000001000000100000000000000005
:044AA0000024F400FA
:040000050800018965
:00000001FF
