:020000040800F2
:1000000020A800209D0100082F1E00084B1D00089D
:100010002D1E000861040008392B000800000000B4
:10002000000000000000000000000000032900089C
:10003000E905000800000000311E0008052900083D
:10004000B7010008B7010008B7010008B7010008B0
:10005000B7010008B7010008B7010008B7010008A0
:10006000B7010008B7010008B7010008B701000890
:10007000B7010008B7010008B7010008B701000880
:10008000B7010008B7010008B7010008B701000870
:10009000B7010008B7010008B7010008B701000860
:1000A000B7010008B7010008B7010008B701000850
:1000B000B7010008B7010008B7010008B701000840
:1000C000B7010008B7010008B7010008B701000830
:1000D000B7010008B7010008B7010008B701000820
:1000E000B7010008B7010008B7010008B701000810
:1000F000B7010008B7010008B7010008B701000800
:10010000B7010008B7010008B7010008B7010008EF
:10011000B7010008B7010008B7010008B7010008DF
:10012000B7010008B7010008B7010008B7010008CF
:10013000B7010008B7010008B7010008B7010008BF
:10014000B7010008B7010008B7010008B7010008AF
:10015000B7010008B7010008B7010008B70100089F
:10016000B7010008B7010008B7010008B70100088F
:10017000B7010008B7010008B7010008000000003F
:10018000B7010008B7010008DFF80CD000F07AF8DA
:10019000004800470941000820A800200648804781
:1001A00006480047FEE7FEE7FEE7FEE7FEE7FEE75C
:1001B000FEE7FEE7FEE7FEE799290008890100084F
:1001C0002DE9F05F0546002092469B46884606468C
:1001D000814640241BE0284641464746224600F01F
:1001E00041F853465A46C01A914110D31146184659
:1001F000224600F028F82D1A67EB01084F462246E8
:100200000120002100F01FF817EB00094E41201ECD
:10021000A4F10104DFDC484631462A464346BDE8E6
:10022000F09FD2B201E000F8012B491EFBD27047CB
:100230000022F6E710B513460A4604461946FFF7B2
:10024000F0FF204610BD202A04DB203A00FA02F11C
:10025000002070479140C2F1200320FA03F31943B4
:1002600090407047202A04DB203A21FA02F0002156
:10027000704721FA02F3D040C2F1200291400843B6
:1002800019467047064C074D06E0E06840F0010350
:1002900094E8070098471034AC42F6D3FFF778FF94
:1002A0003C4A00085C4A00080449054A31F810102D
:1002B00052F82000012200F03CBD00005645000825
:1002C000000000200449054A31F8101052F82000BF
:1002D000002200F02EBD000056450008000000205E
:1002E0000349044A31F8101052F8200000F019BDFB
:1002F00056450008000000200349044A31F8101058
:1003000052F8200000F008BD5C4500080C000020F9
:1003100030B50400264887B04FF0000204D0012C0D
:100320000AD0022C08D00FE0036843F001030360F9
:10033000006800F0010006E0036843F0100303606A
:10034000006800F0100005901A4B1B4D022051B1BF
:10035000012914D133F81410CDE90220009184B1A1
:100360004FF404100FE033F81410CDE9001201210E
:10037000CDE9021055F82400694600F0D5FB07B01E
:1003800030BD4FF48810019055F82400694600F004
:10039000CBFB084D0022AD1D0F2115F8140040B213
:1003A00000F03AFD15F8140040B200F027FDE6E732
:1003B000303802405C4500080C000020014601482E
:1003C00001F054B99480002010B5044801F060F9A0
:1003D000042801D0012010BD002010BD9480002011
:1003E00010B500F015F8012801D0012010BD074814
:1003F00001F064F9040006D14FF40061034800F0F5
:10040000DDFF00B10124204610BD000094800020D3
:1004100008B501208DF800009DF8000008BD00001F
:1004200038B50024009313460A460146034801F0FC
:10043000F5F900B10124204638BD00009480002069
:1004400038B50024009313460A460146034801F0DC
:10045000D1FA00B10124204638BD0000948000206C
:10046000FEE7000010B500F071F900221E491F4898
:1004700003F0E8F818B1BDE8104000F0C0B8012260
:100480001B491C4803F00AF900282BD118491AA06F
:1004900002F054FB1EA002F051FB16481D49C06833
:1004A000884201D900F07CFA1B4800F029F908B114
:1004B00000F09BF819A002F041FB00F05DF81DA0D0
:1004C00002F03CFB0120FFF7EFFE0020FFF7FAFEF1
:1004D00000F03AF9074803F0A1F81AA002F02EFB49
:1004E00000F038F810BD0000340000205C810020CE
:1004F000C4A10020949100204F70656E207468653F
:100500002062696E6172792066696C653A257300B4
:100510000D0A0000FC3F0F0000C0000850726F671A
:1005200072616D20666C617368206D656D6F7279A4
:100530000D0A0000446F776E6C6F616420446F6E2B
:10054000650D0A00436C6F73652066696C650D0A62
:1005500000000000BFF34F8F05480168054A01F411
:10056000E06111430160BFF34F8F00BFFDE7000062
:100570000CED00E00400FA05F8B5012600F0E6F8FD
:10058000164C154860601648A060F7036B463A4663
:100590001149144803F090F9BDF800002060B842FA
:1005A00000D2002600250CE060684159A06828446C
:1005B00000F02CF920B10120FFF784FE00F0F0F9E3
:1005C0002D1D20688542EFD3A06821680844A060F3
:1005D000012EDBD0F8BD00006400002018000020D0
:1005E00000C000089491002070470120FFF778FEBA
:1005F0000020FFF775FE642000F0DAF9F5E74FF40C
:1006000096740120FFF76CFE0020FFF769FE20467C
:1006100000F0CEF9F5E70022AFF3008030B50E4BC5
:10062000054601205C7A002C14D1587A1C54587A63
:1006300003EB800045605D7A03F108002A54587A84
:10064000421C5A72303008703A2048702F2088704F
:10065000CC70002030BD000014A40020002229B17D
:1006600001291AD002291BD04FF440720E490B68A1
:1006700023F440730B600B6813430B600A6822F08D
:10068000F8020A600A68022303EBC00002430A6012
:10069000086840F48030086070474FF48072E5E7E6
:1006A0004FF40072E2E70000103C0240134801687A
:1006B00089050FD5016821F400710160016841F4DA
:1006C00000610160016821F400610160016841F48A
:1006D00000710160016849050FD5016821F480614E
:1006E0000160016841F480510160016821F480518A
:1006F0000160016841F4806101607047003C024084
:1007000070B50E4DA84217D800F022F80C4C2060AE
:10071000284600F01DF822680023811A0948491C68
:1007200061600360C0E902210221016104F1080156
:1007300000F050F9002800D0012070BDFBFF0F0829
:10074000240000208080002000F090B900F0D6B98D
:100750000021A0F100634FF4804293423FD321492E
:100760000144914201D2012139E01F4901449142E3
:1007700001D2022133E01D490144914201D20321FB
:100780002DE01B490144B1F5803F01D2042126E050
:10079000184942184FF400318A4201D205211EE067
:1007A000154A02448A4201D2062118E0134A024443
:1007B0008A4201D2072112E0114A02448A4201D240
:1007C00008210CE00F4A02448A4201D2092106E0C6
:1007D0000D4A1044884201D20A2100E00B2108464C
:1007E0007047000000C0FFF70080FFF70040FFF7F0
:1007F0000000FFF70000FEF70000FCF70000FAF72A
:100800000000F8F70000F6F70000F4F7064A10B50C
:10081000904207D80A4601460023022000F030F932
:10082000002800D0012010BDFBFF0F0808490A680E
:1008300022F440720A600A6842F004020A600A6800
:100840004FF4803343EA002002430A6070470000FF
:10085000103C0240064A136823F440731360136887
:100860001360136843F001031360017070470000C8
:10087000103C0240094910B50C6824F440740C6027
:100880000C6844F440740C600C6844F001040C6083
:100890000260BFF36F8F436010BD0000103C024048
:1008A000074A136823F440731360136843F480739A
:1008B0001360136843F00103136001807047000068
:1008C000103C0240074A136823F440731360136816
:1008D00043F400731360136843F001031360016075
:1008E00070470000103C024017490868C2061748CC
:1008F00005D5C26942F01002C26110220A600A687E
:10090000920605D5C26942F00802C26120220A603F
:100910000A68520605D5C26942F00402C26140224B
:100920000A600A68120605D5C26942F00202C26175
:1009300080220A600A68920705D5C26942F0200247
:10094000C2610220086070470C3C0240D4A1002024
:1009500070B5114904460020C86100F0EFF9064661
:100960000E4D09E0601C07D024B100F0E7F9801BB0
:10097000A04201D9032070BD2868C003F2D42868C2
:10098000C00701D001202860286810F0F200F2D0E2
:10099000FFF7AAFF012070BDD4A100200C3C02404B
:1009A0000120FFF79DFC642000F002F8F8E700004A
:1009B00070B5044600F0C2F90546601C02D0044838
:1009C0000078044400F0BAF9401BA042FAD370BD8D
:1009D0004C0000202DE9F047044622480F46017ED6
:1009E00001290AD00121804601764CF2503948464F
:1009F000FFF7AEFF020003D02FE00220BDE8F08732
:100A00004FF0FF3038602068174D012801D0A668EC
:100A10001CE0207C6168FFF709FF4846FFF798FF5C
:100A20000246286820F00400286014E0217C30464B
:100A3000FFF714FE4846FFF78BFF0200286820F0FE
:100A4000FA00286001D03E6005E0761CD4E902106F
:100A50000844B042EAD8FFF729FE002188F81810B0
:100A60001046CBE7D4A10020103C024003480168A7
:100A700041F000410160002070470000103C02403E
:100A80002DE9F0471B4E05461446307E1F46894629
:100A9000012808D0012030764CF250384046FFF74C
:100AA00057FF18B114E00220BDE8F0879DB1012D79
:100AB00016D0022D19D022463B464846FFF7DAFEF3
:100AC0004046FFF745FF0C490A6822F001020A6020
:100AD00000213176E8E7E1B24846FFF7BBFEEFE7D9
:100AE000A1B24846FFF7DCFEEAE721464846FFF799
:100AF000E9FEE5E7D4A10020103C024007490020B0
:100B00000A68002A09DA054A054B0C3A1360054BBE
:100B100013600968002900DA01207047103C024088
:100B200023016745AB89EFCD2DE9F84FDFF8BCA174
:100B30000022012503264FF00F090AF1040BAAF148
:100B4000040E00BF0B6805FA02F42340A34270D1E3
:100B50000F7907F00307012F01D0022F16D1876804
:100B60004FEA420806FA08FC27EA0C07D1F80CC045
:100B70000CFA08FC4CEA070CC0F808C04768A74309
:100B80000C79C4F3001494403C4344600C79E44372
:100B9000A4070AD0C4684FEA420C06FA0CF7BC431B
:100BA0008F6807FA0CF72743C7600C7904F0030439
:100BB000022C12D1D40800EB840CDCF8204057073B
:100BC000FF0E09FA07F824EA0804D1F8108008FAA1
:100BD00007F848EA0408CCF8208004684FEA420C81
:100BE00006FA0CF7BC430F7907F0030707FA0CF776
:100BF000274307604C6814F4403F70D03C4C276892
:100C000047F480472760246822F0030704F48044F7
:100C10000094384C07EB040CDCF8084897074FEABF
:100C2000177809FA08F7BC43334FB84202D10027BE
:100C300024E054E0314FB84201D101271EE0304F8B
:100C4000B84201D1022719E02E4FB84201D1032743
:100C500014E02D4FB84201D104270FE02B4FB842CA
:100C600001D105270AE02A4FB84201D1062705E045
:100C7000284FB84201D1072700E0082707FA08F7F4
:100C80002743CCF80878DAF800405746D1F804C07A
:100C90009C435FEACC2C00D51C433C60DBF8004051
:100CA0005F46D1F804C09C435FEA8C2C00D51C43FE
:100CB0003C60DEF800407746D1F804C09C435FEA10
:100CC0008C3C00D51C433C60084F083F3C68D1F881
:100CD00004C09C435FEACC3C00D51C433C60521CE2
:100CE000102AFFF42FAFBDE8F88F0000083C014048
:100CF000443802400030014000000240000402403D
:100D000000080240000C02400010024000140240A3
:100D100000180240001C02400069084000D0012079
:100D20007047426921EA02030A4043EA02418161B5
:100D300070470AB1816170470904FBE70148806888
:100D4000704700004C00002002488168027811447E
:100D5000816070474C0000200B4810B5016841F4D9
:100D600000710160016841F480610160016841F433
:100D700080710160032000F06FF8002000F006F899
:100D800000F024F8002010BD003C024070B50D4D6D
:100D900004464FF47A712878B1FBF0F00A490968EB
:100DA000B1FBF0F000F0FCFE48B9102C07D2002295
:100DB0002146501E00F030F800206C6070BD01200C
:100DC00070BD00004C000020480000200A4808B513
:100DD000016841F480410160006800F480400090A7
:100DE0000548001F016841F080510160006800F073
:100DF0008050009008BD000044380240002809DB04
:100E000000F01F02012191404009800000F1E02024
:100E1000C0F8001170470000F0B40E4B1B680C4680
:100E2000C3F30223C3F10705042D00D90425191DBE
:100E3000072901D2002300E0DB1E012606FA05F196
:100E4000491E214099409E40761E16403143F0BC19
:100E500001F098BE0CED00E0064900F007020868BA
:100E60004FF6FF03184040EA0220034A104308608F
:100E7000704700000CED00E00000FA052DE9F04796
:100E80000E46050065D0DFF81481D8F80000F7B2EF
:100E900000F00700B04207D288F80070D8F80000D0
:100EA00000F00700B04254D128683D4C810712D5AC
:100EB000400703D5206840F4E05020602878000700
:100EC00003D5206840F4604020602068A96820F0C5
:100ED000F000084320602878C0072DD030496868AA
:100EE0000839012812D0022813D0032811D009682C
:100EF000890700292DDA216821F0030101432160CF
:100F0000FFF71CFF814641F2883A0EE00968890329
:100F1000EFE709688901ECE7FFF710FFA0EB090193
:100F2000514502D90320BDE8F0872068696800F0C8
:100F30000C00B0EB810FEFD1D8F80010404601F063
:100F40000701B14207D90770006800F00700B042FE
:100F500001D00120E7E72878400705D52068E96837
:100F600020F4E050084320602878000706D5206868
:100F7000296920F4604040EAC100206000F038F8A0
:100F80002168084AC1F30311515CC8400649086052
:100F900006480068FFF7FAFE0020C4E7003C024064
:100FA000083802407C45000848000020500000201E
:100FB0000448054900680968044AC1F38221515C6C
:100FC000C840704748000020083802408C4500089F
:100FD0000448054900680968044AC1F34231515C7C
:100FE000C840704748000020083802408C4500087F
:100FF000154810B5006810F00C02144813D04110C9
:10100000042A0FD0082A0ED10F4C241F226823680F
:1010100002F03F025B0207D52068C0F38810A0FBF6
:10102000010106E0084610BD2168C1F38811A1FB4B
:1010300000010023FFF7C4F82168C1F30141491CF6
:101040004900B0FBF1F010BD083802400024F40064
:101050002DE9F84F04006ED02078DFF84C93C007DC
:10106000A9F104054AD009F104000168C1F3810126
:10107000012908D00068C0F3810002280AD1D9F8FC
:101080000000400206D52868800337D56068002834
:10109000E1D033E06068B0F5803F10D0B0F5A02F0C
:1010A000286810D020F480302860286820F4802040
:1010B00028606068A8B1FFF741FE06460DE0286889
:1010C00040F48030F4E740F480202860F7E700BF68
:1010D000FFF734FE801B642873D828688003F7D597
:1010E0000CE0FFF72BFE064605E000BFFFF726FEEB
:1010F000801B6428F0D828688003F7D42078DFF8B4
:10110000AC8280074FF0000A3ED5A748001D016859
:1011100011F00C0F08D00068C0F3810002280BD139
:10112000D9F80000400207D42868800716D5E06887
:10113000012800D112E033E1E068B8B10120C8F81D
:101140000000FFF7FBFD064605E000BFFFF7F6FDD8
:10115000801B0228C0D828688007F7D52868216935
:1011600020F0F80040EAC10028600DE0C8F800A0B7
:10117000FFF7E4FD064604E0FFF7E0FD801B0228D0
:101180001FD828688007F7D42078000722D5864F1B
:1011900087486169703771B101210160FFF7CEFDA9
:1011A000064604E0FFF7CAFD801B022809D838680C
:1011B0008007F7D50EE0C0F800A0FFF7BFFD064698
:1011C00005E082E0FFF7BAFD801B02287DD8386871
:1011D0008007F7D42078400768D5DFF8CCB1002726
:1011E0000BF13C0BDBF80000C0000BD4DBF8001067
:1011F00041F08051CBF80010DBF80000012700F02F
:10120000805000906B4E3068C00510D4306840F4B8
:1012100080703060FFF792FD009005E0FFF78EFDD3
:101220000099401A022850D83068C005F6D55E4EA5
:10123000A0686C3601280FD00528306810D020F047
:1012400001003060306820F004003060A068B8B160
:10125000FFF774FD00900FE0306840F00100F4E704
:1012600040F004003060F7E7FFF768FD0099411A8D
:1012700041F28830814266D830688007F4D50EE0AC
:10128000FFF75CFD009007E0FFF758FD0099411A59
:1012900041F28830814256D830688007F4D42FB1AB
:1012A000DBF8001021F08051CBF80010A069C8B322
:1012B0003D49091D0968C1F3810102294AD002286C
:1012C000504607D0C8F8600000E03CE0FFF736FD6C
:1012D00004463BE04746C8F86000FFF72FFD06468E
:1012E00005E000BFFFF72AFD801B02282BD82868E5
:1012F0008001F7D4D4E907010843A16A2E4A4908BE
:1013000002EB0141626A41EA8211084394F82C1011
:1013100040EA0161C9F8001001203866FFF70EFDB0
:10132000044606E03EE000BFFFF708FD001B022870
:1013300009D828688001F7D534E000BFFFF7FEFC2C
:10134000001B022802D90320BDE8F88F286880011D
:10135000F4D427E00128F7D0D9F80000E26900F4BE
:10136000800191421CD1226A00F03F01914217D1C5
:1013700047F6C071626A0140B1EB821F10D1A26AC8
:101380004FF0FF3300F4403103EB5202B1EB024F58
:1013900006D194F82C1000F07060B0EB016F01D012
:1013A0000120D1E70020CFE7043802400000474287
:1013B000800E4742007000400000FFFF2DE9FE4311
:1013C0000446002603200D4684F83400606C032890
:1013D0005ED0B5F5805F5BD04FF4006700204FF022
:1013E0008068BD421FD18146009001900021206895
:1013F00000F035FD800113D46946204601F06CF8F9
:1014000007000DD10198400334D5B4F85000010411
:10141000206800F055FD070002D10221206823E07A
:10142000A06B384328E01DB1A06B40F0006023E0C2
:101430008146009001900021206800F010FD80019D
:10144000EED46946204601F047F80700E8D101983C
:10145000C0030FD5B4F850000104206800F030FD3F
:101460000700DDD10021206800F077FD0700D7D10B
:101470004F46D5E74746D3E7A063A06B144F4FF024
:10148000010848B12068876384F8348001260EE0A3
:10149000A06B40F08050EFE7211DD4E9050C0EC988
:1014A000CDE90050CDF808C0206800F0DBFC4FF417
:1014B0000071206800F038FD28B121688F63A16BAE
:1014C0000143A163012684F834803046BDE8FE83E1
:1014D000FF054000F0B5426E920F0A70426EC2F3F3
:1014E00083624A70426EC2F301628A70426E120CCD
:1014F000CA70B0F86420120A0A7190F864204A7128
:10150000826E120DCA80826EC2F303420A72B0F874
:101510006820C2F3C0324A72B0F86820C2F3803249
:101520008A72B0F86820C2F34032CA72B0F86820FC
:10153000C2F300320A7300264E73426C4FF40075FA
:10154000012462B1012A3AD0026847499163816B54
:1015500041F08051816380F834400120F0BDB0F843
:101560006820C36E9205120D42EA93720A61C26E40
:10157000C2F3C2620A75C26EC2F302624A75C26EDB
:10158000C2F342528A75C26EC2F38242CA75C26EFB
:10159000C2F3C2320A760A69521C42650B7E03F01E
:1015A00007039B1C9A4042650B7A03F00F0704FA6D
:1015B00007F383655B0A5A43C0E917250EE090F8EC
:1015C0006820C36E9206920A42EA13420A610A69CF
:1015D000521C92024265C0E91652056630F86C2F23
:1015E000C2F3803201F8192F0288C2F3C6124A7082
:1015F000027802F07F028A704268D20FCA70426895
:10160000C2F341720A714268C2F382624A7142684F
:10161000C2F383528A714268C2F34052CA710E7299
:101620004268C2F300424A728288C2F3C0328A72B0
:101630008288C2F38032CA728288C2F340320A734F
:101640008288C2F300324A738288C2F381228A738D
:101650008288C2F30122CA730079C0F3460008747D
:101660004C740020F0BD0000FF054000426C0A6091
:10167000826C4A60C26C8A60026DCA60426D0A6107
:10168000826D4A61C26D8A61006EC8610020704738
:1016900070B50446B0F8500000250104206800F041
:1016A00044FD18B1A16B0143A16304E0002120684F
:1016B00000F0D5FB0546C5F3432070BD70B50400AE
:1016C0000ED094F83400002518B92577204600F094
:1016D0004FF8032084F83400204600F00BF808B1DE
:1016E000012070BDA5632563012084F8340000202B
:1016F00070BD0000FEB50025044676200095CDE9BA
:10170000015029460B460A46206800F0ABFB48BB57
:10171000154E46F8A05F206800F0B6FB0125356045
:101720000220FFF745F9204600F0BAFF30B100BFB4
:1017300084F83450A16B0143A16313E0204600F00C
:1017400038FF0028F4D14FF40071206800F0ECFB62
:10175000002808D0226805499163A16B0143A16369
:1017600084F834500120FEBD00802542FF05400072
:101770002DE9F04387B0044614216846FEF758FD72
:101780002249206888423ED121484FF00009016873
:1017900041F400610160006800F4006005901C489D
:1017A0001438016841F004010160016801F004018E
:1017B0000591016841F0080101600068022400F011
:1017C000080005904FF4706001278DE89100032513
:1017D0000C26DFF84080CDE9035669464046FFF706
:1017E000A3F9E0028DE81102CDE9035669464046AF
:1017F000FFF79AF904208DE89100CDE90356694678
:101800000548FFF791F907B0BDE8F083002C0140CF
:101810004438024000080240000C02402DE9F04F1D
:1018200087B09B4616460D460446FFF787FA0090A0
:101830003DB194F83400012807D0A06B40F000506F
:101840000DE0A06B40F0006009E00020A063E26DB5
:1018500006EB0B01914204D9A06B40F00070A0632D
:1018600086E0032184F834102168C862616C012984
:1018700000D076024FF0FF3101914FEA4B210291E7
:101880004FF0010803AA902102278146CDF8188065
:1018900082E8820201A9206800F0CBFABBF1010FB7
:1018A00005D927633146206800F0B0FB05E0C4F895
:1018B00030803146206800F0C2FBDFF834A130B13F
:1018C0002268C2F838A0A16B0143A1634CE0029EDC
:1018D0001EE0406B000413D596B10027206800F08D
:1018E000D7FA05F8010B010A05F8011B010C05F8F0
:1018F000021B000E361F7F1C05F8010C082FEDD3CC
:10190000FFF71CFA0099411A109881421DD2E0B1EC
:101910002068426B40F22A310A42DAD0416BC90595
:1019200009D5BBF1010F06D9616C032903D000F082
:101930002DFC0028C4D12068416B09071AD5C0F8D6
:1019400038A0A06B40F0080050E02168C1F838A032
:10195000A06B40F00040A06384F83480C4F830905D
:10196000032007B0BDE8F08F84F83480C4F83090CD
:101970000120F6E7416B890705D5C0F838A0A06BB8
:1019800040F0020032E0416B89061BD5C0F838A058
:10199000A06B40F0200029E000F07AFA05F8010B76
:1019A000010A05F8011B010C05F8021B000E05F8E1
:1019B000010C361FFFF7C2F90099411A10988142B5
:1019C0000ED268B12068416B890201D5002EE3D1A7
:1019D000216840F23A50886384F834800020C0E7E0
:1019E0002168C1F838A0A06B40F00040A063BBE7BD
:1019F000FF0540002DE9F04F8DB09B4616460D4681
:101A00000446FFF79BF90A903DB194F83400012891
:101A100007D0A06B40F000500DE0A06B40F00060DC
:101A200009E00020A063E26D06EB0B01914204D9AE
:101A3000A06B40F00070A0637AE0032184F83410BA
:101A40002168C862616C012900D076024FF0FF3135
:101A500003914FEA4B2104919021CDE905104FF0FD
:101A60000109CDE90709824603A9206800F0E1F9E0
:101A7000BBF1010F06D9202020633146206800F019
:101A80009FFB05E0102020633146206800F0B1FB89
:101A90005FEA000806D0216840488863A06B40EAEE
:101AA000080071E0049E27E0406B40041CD5DEB1C5
:101AB0005FF0000715F8010B009015F8011B361FA9
:101AC00040EA0120009015F8021B40EA0140009016
:101AD00015F8011C40EA016000906946206800F09A
:101AE000EAF97F1C082FE5D3FFF728F90A99411A74
:101AF0001698814220D2F8B12068416B40F21A3228
:101B00001142D1D0416BC90523D5BBF1010F20D9BA
:101B1000616C03291DD000F039FBD0B122681F4948
:101B20009163A16B0143A16384F83490C4F830A0A1
:101B300001200DB0BDE8F08F216818488863A06BC4
:101B400040EA0800A06384F83490C4F830A0032071
:101B5000EFE72068416B090705D510498163A06B49
:101B600040F0080010E0416B890705D50B498163FF
:101B7000A06B40F0020007E0416BC90606D507499B
:101B80008163A06B40F01000A063CDE740F23A51B2
:101B9000816384F834900020CBE70000FF0540000B
:101BA00010B5401EB0F1807F01D3012010BD4FF071
:101BB000E02460610F21601700F0E4FF0020A061C5
:101BC00007202061002010BD70B5040004D094F8F7
:101BD0003D00002510B106E0012070BD84F83C50A6
:101BE000204600F023F8242084F83D002068C168D6
:101BF00021F40051C160204600F0DCFE206801693C
:101C000021F4904101612068416921F02A0141617C
:101C10002068C16841F40051C1602564202084F827
:101C20003D0084F83E00002070BD000010B586B075
:101C3000044614216846FEF7FBFA144920688842DE
:101C400021D113480021026842F0100202600068AE
:101C500000F0100005900E481438026842F00102AE
:101C60000260006800F0010005904FF4C060009031
:101C70000220CDE90101032003900720049069466A
:101C80000448FEF751FF06B010BD000000100140EF
:101C900044380240000002402DE9F843044690F821
:101CA0003D001F4616460D4620284CD1C5B1BEB199
:101CB00094F83C00012846D0012084F83C004FF005
:101CC0000008C4F84080212084F83D00FFF736F872
:101CD000A6848146E684A068B0F5805F03D004E066
:101CE0000120BDE8F883206928B12E465FF0000589
:101CF00084F83C800EE00026FAE78021204600F0C0
:101D0000DFFEA0B9AEB116F8010B21684860E08C87
:101D1000401EE084E08C4B464FF000020097002804
:101D2000EBD14FF04001204600F0CAFE30B1032055
:101D3000D7E735F8020BC0F30800E6E7202084F867
:101D40003D000020CDE70220CBE7FEE710B50449B7
:101D50000448FEF760FC0249491E087010BD0000EF
:101D60004200002068450008F0B587B0142168469D
:101D7000FEF75EFA29480024016841F01001016075
:101D8000016801F010010591016841F02001016036
:101D9000016801F020010591016841F080010160B6
:101DA000016801F080010591016841F001010160C5
:101DB000016801F001010591016841F00401016031
:101DC000016801F004010591016841F0080101601A
:101DD0000068134F00F008004FF4C0660590002221
:101DE00031463846FEF7A5FF182001258DE8310061
:101DF00069460C48FEF798FE0096CDE90154694605
:101E000038460394FEF790FECDE900546946064833
:101E10000294FEF789FE07B0F0BD000030380240A2
:101E2000001402400010024000000240FEE770472C
:101E300070470A6842624A688262D1E902231A4303
:101E4000D1E904310B43C16A1A4321F0F701114370
:101E5000C16200207047006800F00300704708442A
:101E60004069704770B50DF1100C11439CE870008B
:101E70002343194329434268314347F6FF639A439A
:101E80000A434260002070BD0321016000207047BA
:101E9000D0F8800070470A688260D1E901231A43B4
:101EA000D1E903310B43C1681A436FF30B011143AE
:101EB000C160002070470968C0F88010002070479A
:101EC00010B585B004463720CDE9001040200290BF
:101ED000002003904FF48060049069462046FFF78D
:101EE000DAFF41F288323721204600F09BF905B035
:101EF00010BD000010B504460A4885B001432920F2
:101F0000CDE9001040200290002003904FF4806043
:101F1000049069462046FFF7BEFF204600F03AFADB
:101F200005B010BD0000108010B585B0044610202B
:101F3000CDE9001040200290002003904FF4806013
:101F4000049069462046FFF7A6FF41F2883210212F
:101F5000204600F067F905B010BD10B585B0044605
:101F60000620CDE9001040200290002003904FF49D
:101F70008060049069462046FFF78DFF41F2883269
:101F80000621204600F04EF905B010BD30B585B0F1
:101F900000240546009401944FF480600294CDE93A
:101FA000034069462846FFF776FF0B484FF4FA5185
:101FB0000068B0FBF1F041F288314843401E03D283
:101FC0004FF0004005B030BD696B0906F6D5C5205D
:101FD000A8632046F6E700004800002010B585B051
:101FE00004464FF4D57000900820019040200290E4
:101FF000002003904FF48060049069462046FFF76C
:102000004AFF204600F02CFA05B010BD10B585B08F
:1020100004461220CDE900104020029000200390D9
:102020004FF48060049069462046FFF734FF41F288
:1020300088321221204600F0F5F805B010BD10B529
:1020400085B004461120CDE9001040200290002008
:1020500003904FF48060049069462046FFF71BFF11
:1020600041F288321121204600F0DCF805B010BDA5
:1020700010B585B004460720CDE90020402002902D
:10208000002003904FF48060049069462046FFF7DB
:1020900002FF41F288320721204600F0C3F805B064
:1020A00010BD10B585B0044600210220CDE9001016
:1020B000C020CDE902014FF48060049069462046BB
:1020C000FFF7E9FE204600F03DF905B010BD10B560
:1020D00085B004460920CDE90010C0200290002000
:1020E00003904FF48060049069462046FFF7D3FECA
:1020F000204600F027F905B010BD10B585B00446A4
:1021000000213320CDE900104020CDE9020100017B
:10211000049069462046FFF7BEFE41F28832332123
:10212000204600F07FF805B010BD10B585B004461C
:102130000D20CDE9001040200290002003904FF4C4
:102140008060049069462046FFF7A5FE41F2883280
:102150000D21204600F066F805B010BD30B585B001
:102160000C46054600210320CDE900104020CDE9B2
:1021700002010001049069462846FFF78CFE2246C2
:102180000321284600F028F905B030BD10B585B010
:10219000044600210C20CDE900104020CDE90201C9
:1021A0000001049069462046FFF775FE034A0C21A2
:1021B000204600F037F805B010BD000000E1F5053D
:1021C00010B585B004461920CDE9001040200290DA
:1021D000002003904FF48060049069462046FFF78A
:1021E0005AFE41F288321921204600F01BF805B052
:1021F00010BD10B585B004461820CDE90010402070
:102200000290002003904FF48060049069462046BD
:10221000FFF741FE41F288321821204600F002F813
:1022200005B010BD454B10B51B684FF4FA54B3FB15
:10223000F4F353435B1E02D24FF0004010BD426BDB
:1022400012F0450FF6D01205F4D4426B520703D5B5
:1022500004218163084610BD426BD20702D00121E0
:10226000816305E0C52282630269D2B28A4201D04D
:10227000012010BD0021FFF7F2FD3149084201D1D4
:10228000002010BD002802DA4FF0007010BD4100A0
:1022900001D5402010BD810001D5802010BDC100B6
:1022A00002D54FF4807010BD010102D54FF40070CB
:1022B00010BD410102D54FF4806010BDC10102D5AF
:1022C0004FF4006010BD010202D54FF4805010BDE4
:1022D000410202D54FF4005010BD810202D54FF4E7
:1022E000804010BDC10202D54FF4004010BD410333
:1022F00002D54FF4003010BD810302D54FF4802089
:1023000010BDC10302D54FF4002010BD010402D559
:102310004FF4801010BD410402D54FF4001010BDE1
:10232000810402D54FF4800010BD000702D54FF4A0
:10233000000010BD4FF4803010BD000048000020A8
:1023400008E0FFFD12494FF4FA520968B1FBF2F1BF
:1023500041F288325143491E02D24FF0004070478B
:10236000426B12F0450FF6D01205F4D4416B4907C9
:1023700003D50421816308467047416BC90703D028
:102380000121816308467047C521816300207047A1
:10239000480000200F494FF4FA520968B1FBF2F1EE
:1023A00041F288325143491E02D24FF0004070473B
:1023B000426B12F0450FF6D01205F4D4416B490779
:1023C00003D50421816308467047C521816300203D
:1023D000704700004800002030B5204B4FF4FA54FD
:1023E0001B68B3FBF4F341F2883463435B1E02D2F3
:1023F0004FF0004030BD446B14F0450FF6D024057B
:10240000F4D4436B5B0703D504218163084630BDD8
:10241000436BDB0702D00121816303E00369DBB278
:102420008B4201D0012030BDC52181630021FFF71F
:1024300016FD10F4604F04D0410406D54FF400504F
:1024400030BD000C1080002030BD000402D54FF4D8
:10245000805030BD4FF4803030BD00004800002077
:1024600014494FF4FA520968B1FBF2F141F2883293
:102470005143491E02D24FF000407047426B12F0A8
:10248000450FF6D01205F4D4416B490703D504215A
:10249000816308467047416BC90703D001218163FE
:1024A00008467047416B490601D5402181630020F1
:1024B000704700004800002010B5064C0120207035
:1024C000FDF782FF18B9207820F0010020702078F5
:1024D00010BD0000400000202DE9F04788B00D46F7
:1024E0000446FEF72BFC00268246009601963746EE
:1024F00008212068FFF718FD002829D1B4F8500002
:1025000001042068FFF7DCFC002821D1401E4FF0B9
:102510000808CDE9020830204FF00209CDE904098E
:102520000120CDE9067002A92068FFF782FC20682F
:10253000FFF7E3FD00280BD16F462068416B11F0D7
:102540002A0F08D0416B09071AD5C0F83880082037
:1025500008B0BDE8F087416B890205D5FFF798FC0C
:1025600047F82600761C02E0416B8904EAD5FEF7A5
:10257000E5FBA0EB0A00401CDFD14FF00040E7E78D
:10258000416B890703D5C0F838900220E0E7416B22
:10259000890603D5202181630846D9E740F23A51E4
:1025A0008163019800BA2860009800BA6860002032
:1025B000CEE710B590B004460120ADF83800206891
:1025C000FFF749FC002854D0606C032842D02068F3
:1025D000FFF767FD00284AD100212068FFF73FFC84
:1025E000606704212068FFF73AFCA0670821206893
:1025F000FFF735FCE0670C212068FFF730FCC4F8DA
:102600008000606C032825D00EA92068FFF7A6FD86
:1026100000282CD1606C03281CD0BDF83800206540
:1026200001042068FFF753FD002820D10021206815
:10263000FFF715FC606604212068FFF710FCA06618
:1026400008212068FFF70BFCE0660C212068FFF7EB
:1026500006FC206704212068FFF701FC000DE06400
:1026600003A92046FEF736FF30B14FF0805010B07E
:1026700010BD4FF08060FAE7B4F850000023020468
:102680002068FFF7F5FC0028F1D104F1100007C81D
:102690008DE8070094E80F00FFF7E4FB0020E6E771
:1026A0002DE9F84F0026044600963546B0460068EE
:1026B000FFF76CFC002827D12068FFF78FFC4FF054
:1026C000805B4FF001094FF6FF7748B1A6642068A0
:1026D000FFF75CFC002817D1A06C012802D020E095
:1026E000C4F8489000212068FFF7EAFB58B918E0C9
:1026F00000212068FFF7E4FB002805D1514620683F
:10270000FFF7F8FB10B15846BDE8F88F00212068AC
:10271000FFF7A5FB05464FEAD0780098401C0090D3
:1027200002E0DFF82CA00098B84202D2B8F1000F06
:10273000DED00098B84202D34FF08070E4E7680022
:1027400002D5C4F8449000E066640020DCE7000095
:10275000000010C110B500221449154800F072FFA6
:1027600010B100BFFDF74BFF01221249124800F0E3
:1027700095FF30B111A000F0E1F919A000F0DEF9E9
:10278000F0E70C491FA000F0D9F923A000F0D6F91A
:102790000020FDF797FD0120FDF794FD23A000F038
:1027A000CDF9BDE81040FDF75DBE0000340000200B
:1027B0005C810020C4A100209491002050726F67BA
:1027C00072616D20666C617368206D656D6F7279E2
:1027D000206E6F7420666F756E64200A0000000022
:1027E0005468652062696E6172792066696C652043
:1027F0006973206E6F7420617661696C61626C65CB
:10280000200D0A005468652062696E617279206645
:10281000696C653A257300002069732061766169EF
:102820006C61626C6521200D0A000000434F4D4D24
:10283000414E445F446F776E6C6F61640A0D000017
:1028400070B5064C054601202070FDF7C9FD18B98A
:102850002846FFF731FE2070207870BD4000002030
:1028600010B5124888B014460078C00702D0032083
:1028700008B010BDC1B1012905D0022908D0032933
:102880000CD00420F4E76846FDF798FD06980AE0AE
:102890006846FDF793FD0798208005E06846FDF740
:1028A0008DFD0798400A20600020E1E740000020ED
:1028B00070B51D46164608460124A31E2A46314619
:1028C000FDF7AEFD28B900BFFDF77EFD0028FBD166
:1028D0000024204670BDFFF7EFBD000070B51D4617
:1028E000164608460124A31E2A463146FDF7A8FDD8
:1028F00028B900BFFDF768FD0028FBD10024204661
:1029000070BD7047FEF720BA30B593B030216846ED
:10291000FDF78EFC14210CA8FDF78AFC1C4800254D
:10292000016841F080510160006800F08050119012
:102930001848016841F4804101600068022400F4F5
:102940008040119001200090000401908001CDE9A9
:10295000064004200890A820CDE9090407200B9028
:102960006846FEF775FB70B90CA90F2081E83100AD
:102970004FF4A0500F90E002109005210CA8FEF734
:102980007DFA002801D0FDF73AFE13B030BD0000FB
:1029900040380240007000400548016841F4700171
:1029A000016003494FF00060803908607047000003
:1029B00088ED00E070B5044600680169E26821F422
:1029C0004051114301612169A068E26908436169CE
:1029D000114308432168CA6849F20C639A430243D1
:1029E000CA6020684169A26921F4407111434161C4
:1029F00031492068884202D03049884202D1FEF72E
:102A0000E7FA01E0FEF7D4FAE26900231921642510
:102A10003226B2F5004F626828D0A0FB0101930F67
:102A20009200FDF7CDFB0146B0FBF5F06FF0180208
:102A3000504301EB800006EB0010B0FBF5F000F016
:102A4000F002B1FBF5F002EB0012B1FBF5F06FF014
:102A50001803584301EB800006EB0010B0FBF5F0C3
:102A600000F00F0021681044886070BDA0FB0101D8
:102A700092185B41FDF7A4FB0146B0FBF5F00201A3
:102A8000B1FBF5F06FF01803584301EB800006EB43
:102A9000C000B0FBF5F000F0F80002EB4002B1FB23
:102AA000F5F0584301EB800006EBC000B0FBF5F0F9
:102AB00000F00700D6E700000010014000140140BC
:102AC0002DE9F041984617460E460446069D27E03C
:102AD000681C25D02DB1FEF731F9A0EB0800A84203
:102AE0001ED920680C3050E8001F21F4D07140E856
:102AF0000012002AF5D12068143050E8001F21F0A0
:102B0000010140E80012002AF5D1202084F83D00A0
:102B100084F83E00002084F83C000320BDE8F081EA
:102B20002068006836EA000004D00020B842CFD008
:102B30000020F3E70120F9E7FEE700000FB4054BA2
:102B400010B503A9044A029800F03BF810BC5DF8E8
:102B500014FB0000813E0008600000200FB4084B09
:102B600010B504A902AA039800F02BF8044602A9A4
:102B7000002000F091F8204610BC5DF814FB000026
:102B8000992C00080907090E002804DB00F1E02059
:102B900080F80014704700F00F0000F1E02080F88A
:102BA000141D704702E008C8121F08C1002AFAD19C
:102BB00070477047002001E001C1121F002AFBD1BD
:102BC00070472DE9F84F99469246884605460027FA
:102BD00006E025280AD051464A4690476D1C7F1CC6
:102BE00028780028F5D13846BDE8F88F002315F87D
:102BF000011F18462E2915D115F8011F04232A2973
:102C00000DD06FF02F022978A1F13004092C09D8DA
:102C100000EB800002EB400008446D1CF3E758F81D
:102C2000040B6D1C2A78002ADDD0632A07D0732A92
:102C30000FD0104651464A4690477F1C2AE018F8AC
:102C4000042B8DF8002000218DF801106E46012123
:102C500003E058F8046B4FF0FF315A074FF00004BF
:102C600001D409E0641C84420BDA8C42FADB325D49
:102C7000002AF7D105E0641C8C42FCDB305D0028A3
:102C8000F9D1274404E016F8010B51464A46904713
:102C9000641EF8D26D1CA3E70A68531C0B60107009
:102CA0007047000010B504460020E070401E6063CD
:102CB000204601F0B6FA08B1042010BD04F2362017
:102CC00001F01CFAA0F52A41553901D0032010BDAE
:102CD00094F83800E92805D0EB2814D194F83A008C
:102CE000902810D104F16E0001F0FDF90749B1EB15
:102CF000002F06D004F18A0001F0F5F9044988425A
:102D000001D1002010BD022010BD0000004641543A
:102D10004641543300E0401C02780AB18A42FAD19D
:102D2000D0B27047F0B50022144D134605EB0214E3
:102D300026685EB10768BE4209D166688768BE42F0
:102D400005D1A4684669B44204D000E00123521CB6
:102D5000022AEBD3022A01D069B904E04BB9022957
:102D600007D01220F0BD05EB02108089B0F5807FFE
:102D700001D00020F0BD1020F0BD0000F4A1002023
:102D800030B50021054B0C4603EB01121568854256
:102D900000D11460491C0229F6D330BDF4A10020F3
:102DA0000268C06A938952895343B1FBF3F1001D55
:102DB00004C81AB1914203D3891AF8E7002070477A
:102DC000006808447047C269891E921E8A4201D871
:102DD00000207047026B408901FB00207047000013
:102DE0002DE9F05F82460C4601F11A0001F086F9E8
:102DF00078BB2078012700F03F00401E00EB8001E7
:102E0000DFF8589001EBC00500264FF6FF7B00BFAE
:102E100019F80600204401F071F980466FB1FF2DCA
:102E200017D200F067FE07463AF815006D1C00F057
:102E300061FE87420DD1474601E0D84509D1761C95
:102E40000D2EE5D32078400606D52FB13AF81500AF
:102E500010B10020BDE8F09F0120FBE714460008F8
:102E60002DE9F04105680F00804606D001F054F8C6
:102E7000022809D20120BDE8F0816E6916B1E86927
:102E8000B04207D8012605E0411CF4D0E96981422F
:102E9000F1D83E463446E869641CA04202D80224B8
:102EA000022E0AD32146404601F036F838B10128F7
:102EB000E1D0411CDFD0B442EDD10020DBE74FF080
:102EC000FF3632462146284601F0C4F930B957B1E1
:102ED00022463946284601F0BDF920B101280FD01D
:102EE00001242046C7E76C61D5E90601891E8842A6
:102EF00001D8401EA861287940F001002871F0E750
:102F00003446EEE72DE9F84F824600680E6800244B
:102F1000076988462546705D6D1C20281AD32F2826
:102F200013D05C2811D0FF2C39D2012100F0C6FD4E
:102F30005FEA000933D0B9F1800F12D201466DA0CB
:102F4000FFF7E8FE58BB0CE06D1C715D2F29FBD02C
:102F50005C29F9D07219C8F80020202805D2042570
:102F60000FE027F81490641CD5E7002509E000BFA6
:102F700007EB440030F8020C202801D02E2802D1A3
:102F8000641E002CF4D1002027F814003CB10B2261
:102F900020210AF1240001F03DF9002603E006207B
:102FA000BDE8F88F761C37F816002028FAD02E28B6
:102FB000F8D01EB145F0030500E0641E2CB107EB0C
:102FC000440030F8020C2E28F7D14FF000094FF0E2
:102FD000080BCDF8009000BF37F8160006F1010687
:102FE0005FEA000824D0B8F1200F04D0B8F12E0F0A
:102FF00004D1A64202D045F00305EDE700985845FC
:1030000001D2A64219D1BBF10B0F0FD0A64201D0BD
:1030100045F003050CD84FF0080000904FEA896096
:1030200026464FF00B0B4FEA1069D5E745F0030534
:103030009AF82400E52838D03AE04046B8F1800FED
:1030400010D3002100F03AFD5FEA000805D02C49BA
:1030500001EB080010F8800C804645F00205B8F13D
:10306000000F04D0014627A0FFF754FE20B14FF017
:103070005F0845F003050FE0A8F14100192802D8C8
:1030800049F0020908E0A8F16100192804D841308C
:1030900049F001091FFA80F8009A0AEB020181F851
:1030A00024800098401C009096E705218AF824109F
:1030B000BBF1080F03D14FEA89604FEA1069C9F3E9
:1030C0008100032803D06FEA0901890701D145F087
:1030D0000205A90709D409F00301012901D145F02E
:1030E0001005012801D145F008058AF82F5000206D
:1030F00056E70000222A3A3C3E3F7C7F0000000059
:10310000944500082B2C3B3D5B5D0000401E0228CF
:1031100012D20A4901EB00118889B0F5807F05D0F1
:1031200008B1401E80B2888110B103E00020FAE7A8
:10313000002008600020704702207047F4A10020A2
:103140002DE9F04704460021D0F8009000F0D4F9B2
:1031500000285BD1FF25471EA84627634846E16942
:1031600001F05FF8060050D1216A087850B1CA7AA0
:10317000E52802F03F02A2713FD0130704D50F2AC1
:103180003BD105E0042640E00F2A01D0E5B120E064
:1031900094F82F20520632D4420606D591F80D80BD
:1031A00000F0BF00626905462263A84209D14A7B4C
:1031B000424506D1D9F81000FFF712FE08B16D1E86
:1031C00000E0FF25EDB21AE0084601F02FF9404576
:1031D0001BD094F82F00C0070FD1D4F8201004F1B1
:1031E00024000B2211F8013B10F8015B5B1B521EFF
:1031F00002D0002BF6D000E03BB1FF252763002171
:10320000204600F005F80600A8D03046BDE8F0875B
:103210002DE9F047054647690468C06989462037AB
:1032200010B1B7F5001F02D30420BDE8F087A189D3
:10323000B7FBF1F201FB127100295FD1401CE8617C
:10324000A9694FF0000819B3A0896289B7FBF0F0B3
:10325000521E104252D1284600F05EFE064601285A
:103260001FD9701C36D0E069B04241D8B9F1000FC7
:1032700012D02846A969FFF7F3FD06000FD0012EF2
:103280000FD0701C26D0204601F022F910BB0AE0B6
:103290002089B0EB571F31D8C5F81C80C4E7072040
:1032A000C3E70220C1E7A289002104F1380000F041
:1032B000B1FF4FF0000831462046FFF784FD4FF084
:1032C000010960630DE000BF84F80390204601F01F
:1032D000FFF808B10120A8E7606B08F10108401C65
:1032E000606361894145EFD8616BA1EB08006063C1
:1032F00031462046AE61FFF766FDE8616F61A08947
:10330000B7FBF0F100FB1170204438302862002038
:103310008BE700002DE9F04F0446D0F8009090F8BC
:103320002F0089B010F0A00F03D0062009B0BDE82F
:10333000F08F0025D9F8100000E06D1C30F8151052
:103340000029FAD104F124010C226846039100F00F
:1033500057FF9DF80B00C00719D0402084F82F00BC
:10336000012633466946D9F81020039800F094FDF1
:103370002046FFF7E5FE10B9761C642EF1D3642ECB
:103380000FD00428D2D19DF80B0084F82F009DF8AF
:103390000B00800707D50D200C35B5FBF0F56D1C33
:1033A00002E00720C2E7012500212046276800F03F
:1033B000A3F888B900263846E16900F032FF58B911
:1033C000206A0078E5280AD048B10026012120466D
:1033D000FFF71EFF0028EED0042812D012E0761C62
:1033E0002846AE42F2D1451E059567D06169684214
:1033F00001EB4011204600F07FF85FEA000803D09F
:1034000076E00720804673E0039801F00FF84FF64E
:10341000FF7B07904846E16900F003FF5FEA000880
:1034200066D1D9F8100006900598D4F82080C0B273
:103430000490079988F80D100F2188F80B100021CF
:1034400088F80C1008F11A0000F0ECFF0498DFF87F
:10345000A4A0401E00EB800101EBC006002701E0A4
:103460005D4503D0069830F81650761C1AF8071000
:1034700001EB0800294600F0D5FF05B95D467F1C29
:103480000D2FEDD35D4505D0069830F8160008B134
:10349000049803E0049840F04000049088F800008D
:1034A000012189F8031000212046FFF7B1FE5FEAF1
:1034B00000081DD10598401E0590ABD14846E16932
:1034C00000F0AFFE5FEA000812D120220021206A3E
:1034D00000F0A0FE0B22206A039900F091FE94F800
:1034E0002F00216A00F018000873012089F80300FA
:1034F00040461BE7144600082DE9F04104680F46DA
:103500000646B1F5001F3CD2F8063AD17761B5689E
:1035100025B92078032806D3E56A25B16089A189F9
:1035200000FB01F812E02089B0EB571F29D9E06AAF
:1035300012E0304600F0F0FC0546401C1FD0022D82
:103540001FD3E069A8421CD9A7EB080747452946C5
:10355000EFD22046FFF737FCC6E9065088B1A189B3
:10356000B7FBF1F10844F061A089B7FBF0F100FB73
:1035700011702044383030620020BDE8F081012015
:10358000FBE70220F9E70000084910B50B5C0022B8
:1035900053B901220A540A1801EB8000127A4068DC
:1035A0000168104688470246104610BD14A400204A
:1035B00030B4054C231804EB80001B7A4068046982
:1035C0001846A44630BC604714A4002030B4054D12
:1035D0002C1805EB8000247A406885682046AC46AC
:1035E00030BC604714A40020044A111802EB80008C
:1035F000097A4068426808461047000014A4002079
:1036000030B4054D2C1805EB8000247A4068C5685D
:103610002046AC4630BC604714A4002038B50446B0
:1036200000F005FA00280CD16946204600F079FF29
:10363000002806D12069FFF769FD002801D100218B
:10364000216038BD2DE9F74181B090460298009085
:10365000684600F0D7FC040003D50B2004B0BDE899
:10366000F0810D4E002756F824501DB12846FFF773
:1036700087FB2F700198002800D0077046F82400BF
:1036800002D0B8F1010F01D00020E7E7002201A924
:1036900002A800F06FFAE1E75C0000202DE9F74393
:1036A00094B005000BD002F03F063246694615A8DB
:1036B00000F060FA04004FF0000804D0F3E00920A5
:1036C00017B0BDE8F0830098049004A8159900F0A5
:1036D00099FB04000ED19DF83F00000601D5062499
:1036E00008E0700801D0012100E0002104A8FFF7E4
:1036F00019FB044616F01C0F5DD04FF00109C4B150
:10370000042C10D100206B4902E0401C022804D296
:1037100001EB00121268002AF7D1022807D004A892
:10372000FFF7F8FD044646F008065CB1BBE0122442
:10373000B9E09DF8160010F0110F47D1700701D5C0
:103740000824B0E0300747D500F05AFC07460C9833
:1037500039460E3000F05EFE0C983946163000F007
:1037600059FE0C982021C1720C99009800F0A8FC19
:10377000074600220C99009800F038FE0C980021B2
:103780001C3000F047FE009981F8039017B3D1F880
:1037900034900022394604A800F0EEFD040009D15F
:1037A0004946009800F03DFD04000098A7F101078C
:1037B00047610DD077E0ECBB9DF81600C10601D53E
:1037C000042470E0B10703D5C00701D007246AE0E4
:1037D000300701D546F040060098406B68620C98AF
:1037E000A862700801D0012100E0002104A800F0C7
:1037F00027FC2861C0B30C99009800F061FCA86018
:103800000C981C3000F06FFCC5F82C80E860009923
:103810002960009905F130004FF48052C988A980D1
:103820002E7585F81580C5F8208000218146C5F8E1
:10383000188000E037E000F0EDFCB00635D5EE680A
:103840009EB3AE610098A9684789808947430FE01D
:10385000284600F061FB0146012800D80224481CDC
:1038600003D0F61B24B105E021E00124F61B01E0A2
:10387000BE42EDD8E961B4B900988289B6FBF2F393
:1038800002FB13628AB1FFF79EFA80B1009901230F
:103890008A89B6FBF2F202442A6248784946FFF769
:1038A00095FE10B10124C5F80080204608E70224E7
:1038B000F9E70000F4A100202DE9F04F884689B017
:1038C0000021196099461546044604A900F029FE16
:1038D000002812D1607D00280FD1207DC0070BD0B9
:1038E000A169E0680127401A4FF0020A04F1300B89
:1038F000854200D9054695E0072009B0BDE8F08F64
:10390000049BA1699889B1FBF0F200FB1212002A16
:1039100069D1B1FBF0F65889401E064011D129B19A
:10392000E06A28B12046FFF73BFA05E0A06803E013
:103930002046E16900F0F0FA02281DD3411C4DD069
:10394000E061E1690498FFF73EFAA8B130440090C5
:1039500004988189B5FBF1F1059131B37218418961
:103960008A4201D9891B059140784146059B009AFE
:10397000FFF72CFE90BB03E084F815A00220BCE703
:10398000207D00060CD5216A0098081A0599884206
:1039900006D204998A89594600FB028000F030FC67
:1039A000049886890598464332E0226A00998A4243
:1039B00017D0217D090609D5407801235946FFF724
:1039C0001FFE58B9207D00F07F0020750498012368
:1039D00059464078009AFFF7F9FD10B1677501204C
:1039E0008BE7009820620498A1698089B1FBF0F20E
:1039F00000FB1212861AAE4200D92E46B1FBF0F23D
:103A000000FB1210011932464046303100F0F8FB3D
:103A1000A069B0443044A061D9F800008119AD1B01
:103A2000C9F80010002D7FF46BAF002065E7F8B5F2
:103A30000446694600F075FD00280ED1217D4A0636
:103A40000BD508060ED50098226A0123407804F1B0
:103A50003001FFF7D5FD08B10120F8BD207D00F051
:103A60007F00207500F0CCFA0646616A009800F0ED
:103A7000D8FB0028F1D1A56A2946E87A40F0200059
:103A8000E872A268206800F0B1FC05F11C00E16852
:103A900000F0C0FC314605F1160000F0BBFC00212F
:103AA00005F1120000F0BEFC00980121C17000F089
:103AB000CBFC217D01F0BF012175F8BD802804D326
:103AC0000B4A51B1FF2801D90020704702EB40009A
:103AD000A0F58050B0F8000F704732F811308342E3
:103AE00003D0491C89B28029F7D38031C8B270470E
:103AF0003E46000830B5B0F5805F01D21B4900E0BA
:103B00001B4931F8022B002A15D0904213D331F80B
:103B1000024B230AE5B252FA84F4844221D9092BDC
:103B200009D2DFE803F005090E11131517191B0060
:103B3000801A31F8100030BD811A01F00101401ADD
:103B400000E0103880B230BD2038FBE73038F9E7AC
:103B50001A38F7E70830F5E75038F3E7A0F5E350F7
:103B6000F0E7002BCDD101EB4501CAE73E47000845
:103B7000304900082DE9FF41002790460E460F60AE
:103B800000F040FA050003D50B2004B0BDE8F08139
:103B9000984850F825409CB13460207808F0FE0623
:103BA00020B16078FFF720FDC1070BD02770E8B285
:103BB000B8466070FFF7E8FCC10708D00320E4E7CF
:103BC0000C20E2E70EB1400704D40020DDE71EB16F
:103BD000400701D50A20D8E7607804F10C020221E1
:103BE000FFF7E6FCF0BBA089A0F50071B1F5606FAE
:103BF0003FD8411E08423CD1002631462046FFF7FF
:103C000051F8022822D100254FEA0D0704EB0510D8
:103C100090F8FA1100F5FB7019B1083000F063FA62
:103C200000E0002047F825006D1C042DEED3002590
:103C300057F8256036B131462046FFF733F80228A1
:103C400001D203E003206D1C042DF1D3042810D011
:103C5000022878D204F1430000F050FAA18988428A
:103C600071D100E005E004F14E0000F047FA10B118
:103C700005E0012089E704F15C0000F034FA2062DD
:103C800094F84850A570012D01D0022D5BD1454319
:103C900094F845006081E8B3411E084253D104F115
:103CA000490000F02BFA2081A1894909B0FBF1F20B
:103CB00001FB120070BB04F14B0000F01FFA07007B
:103CC00004D104F1580000F00EFA074604F1460052
:103CD00000F014FA010036D0A08923894009B3FB13
:103CE000F0F04A19024497422DD3B81A6789B0FB05
:103CF000F7F078B103274FF6F57C604500D802272E
:103D000040F6F57C604500D801273244801C3144E0
:103D1000226300E017E0E061C4E90961032F14D0D9
:103D20008BB12944E162022F20D000F0010100EBA9
:103D3000400001EB5000A189401E0844B0FBF1F0A7
:103D4000216A884214D90D201FE704F1620000F0B7
:103D5000D5F90028F7D120890028F4D104F16400B6
:103D600000F0C1F9E062E0698000E4E74000E2E7CA
:103D70004FF0FF30A061606180202071032F2CD1B3
:103D800004F1680000F0BAF9012826D1711C204620
:103D900000F047FA08BB84F8048004F2362000F0F3
:103DA000ADF9A0F52A41553917D104F1380000F0DA
:103DB0009AF91149884210D104F5077000F093F97F
:103DC0000E49884209D104F5087000F08CF9A06111
:103DD00004F5097000F087F9606106482770001F3C
:103DE0000188491C0180E180054820612046FEF7DA
:103DF000C7FFEAE65C0000205252614172724161E5
:103E000014A2002073B504460568019801E0401C27
:103E1000019001782F29FAD05C29F8D00021A16007
:103E200001980078202806D2802084F82F002046B0
:103E3000FFF762FB7CBD01A92046FFF763F800286D
:103E4000F8D12046FFF77CF994F82F1028B1042808
:103E5000F0D14907EED405207CBD4907FCD4A079F8
:103E6000C006F8D5A9896069B0FBF1F201FB120028
:103E700041192846383100F023F9A060DBE7000043
:103E800013B54FF6FF73012269460248FDF704FFA0
:103E900000981CBD188100207CB516461C460546BE
:103EA0000B2200F0ADF9052C11D91A4A0CE00021C3
:103EB000B61C2346044663F35F044008E30300D5C1
:103EC0005440491C1029F4D330880028EFD1072131
:103ED0004FEA0D0204F00F003030392800D9C01D20
:103EE0005054491E2409F5D17E205054002000E092
:103EF000401C884202D22B5C202BF9D1082902D227
:103F0000535C491C00E020232B54401C0828F5D3A7
:103F10007CBD0000211001002DE9F04104680D4630
:103F200002290BD3E069A84208D920784FF0FF3668
:103F3000012807D0022834D0032849D00126304672
:103F4000BDE8F081A08905EB5507B7FBF0F0A16A49
:103F50000144204600F065F90028F0D1A089B7FBA4
:103F6000F0F100FB11717F1CB7FBF0F0214491F8D8
:103F70003880A16A0144204600F053F90028DED1C0
:103F8000A089B7FBF0F100FB1170204490F83810C5
:103F900048EA0120E90701D00609D0E7C0F30B0683
:103FA000CDE7A089A16A4008B5FBF0F001442046A6
:103FB00000F037F90028C2D1A1896800B0FBF1F206
:103FC00001FB12002044383000F098F80646B6E7AE
:103FD000A089A16A8008B5FBF0F00144204600F0FA
:103FE00020F90028ABD1A189A800B0FBF1F201FBB8
:103FF00012002044383000F076F820F070469EE73A
:104000000020704710B504464FF0FF302268002AA8
:1040100013D0114600E0491C0B78202B0ED33A2B0D
:10402000F9D112F8013B303B0A2B06D28A4204D167
:10403000002B02D1491C1846216010BD002010BD84
:10404000F0B502461D4BD2F80050002003EB0014DF
:104050002668AE4207D166689768BE4203D1A4685D
:104060005669B44202D0401C0228EFD3022814D172
:10407000002002E0401C022804D203EB0014246854
:10408000002CF7D102280ED003EB001425609568B0
:1040900065605269A2600022A281002903EB001131
:1040A000898902D019B10020F0BD491C01E04FF40C
:1040B000807103EB0012401C9181F0BDF4A100203F
:1040C00070B506460D4601F11A0000F017F80446D7
:1040D0003078032805D105F1140000F00FF844EA08
:1040E0000044204670BDC178827842EA01214278BE
:1040F000007842EA012140EA0120704741780078C7
:1041000040EA01207047000000210120FCF700F97F
:1041100000210220FCF7FCF80120FCF7EDF878B351
:104120000220FCF7E9F868B3264908682022B2EBC0
:10413000106F04D008681022B2EB106F07D14868E6
:10414000214A50609060096881F308888047FCF735
:1041500003FEFEF7D9FBFDF707FE1D481B490024AF
:1041600001604FF4E131C0E901140C21C460C0E9E1
:1041700004418461C461FDF727FD48B1FCF73FFAB3
:1041800014A200E016A219A11A48FEF7E7FCDEE728
:104190000F4819498438C0E90014C9148460C0E983
:1041A000034144618461FDF7D1FD1448FEF7C6FC6C
:1041B0000020FCF779F80120FCF776F8FEF7CAFA40
:1041C000FEE7000000C0000834000020001001409D
:1041D00018810020696D616765312E62696E00008B
:1041E000696D616765322E62696E0000303A257331
:1041F00000000000C4A10020002C0140EC49000890
:10420000002A05D011F8013B00F8013B521EF9D1FC
:10421000704700005FFA81F100F8011B521EFBD1CC
:10422000704770B50446406B0D460026A8420FD07B
:10423000204600F04DF906000AD1607801232A4695
:1042400004F13801FFF7C2F908B1751E0126656354
:10425000304670BD2DE9F047022617460D4604464C
:1042600002297DD3E069A8427AD920784FF001096C
:10427000012804D0022840D003287AD154E0A18933
:1042800005EB5508B8FBF1F0A16A01442046FFF7A1
:10429000C8FF06006DD1A189B8FBF1F201FB1280C5
:1042A0002044383008F10108E90704D00178FAB257
:1042B00062F31F1100E03946017084F80390A18970
:1042C000B8FBF1F0A16A01442046FFF7AAFF0600FF
:1042D0004FD1A189B8FBF1F201FB128020443830A4
:1042E000E90702D0C7F3071105E00178C7F30322FD
:1042F00001F0F0011143017039E0A089A16A400882
:10430000B5FBF0F001442046FFF78BFF060030D1EB
:10431000A1896800B0FBF1F201FB12002044B9B2A0
:10432000383000F07FF822E0A089A16A8008B5FB50
:10433000F0F001442046FFF774FF060019D1A08970
:10434000AD00B5FBF0F100FB115020443830FFF711
:10435000CAFE67F31B000146A089B5FBF0F200E03E
:1043600007E000FB12502044383000F053F884F886
:1043700003903046BDE8F0872DE9F041056813460B
:104380000E46074602292DD3E869B0422AD93BB12F
:104390004FF0FF3219462846FFF75CFF00281FD177
:1043A00031463846FFF7B8FD040018D0012C19D06B
:1043B000601C19D0002231462846FFF74BFF002829
:1043C0000ED1D5E90610821E914205D2491CA96181
:1043D000297941F0010129712646B042E0D8002038
:1043E000BDE8F0810220FBE70120F9E770B50C463B
:1043F0000646154691B204F11A0000F013F8307821
:10440000032806D1290C04F11400BDE8704000F027
:1044100009B870BD0170090A4170090A8170090A62
:10442000C17070470170090A417070470146002051
:104430000B22430803EBC01011F8013B521E184435
:10444000C0B2F6D17047000070B5044600F040F8E5
:10445000050036D1207803282CD12079012829D1D4
:1044600004F13800A28900210646FFF7D3FE4AF680
:10447000552104F23620FFF7D5FF13493046FFF7E8
:10448000C9FF124904F50770FFF7C4FF04F508706F
:10449000A169FFF7BFFF04F509706169FFF7BAFF73
:1044A000626A0123521C626360783146FFF7A8F804
:1044B00000202071002260781146FFF779F800B1E2
:1044C0000125284670BD000052526141727241615F
:1044D0002DE9F0410446C0780027F8B1656B04F17E
:1044E0003801607801232A468846FFF789F808B129
:1044F000012713E00020E070A06A216A281A884290
:104500000CD2A67808E0206A0123054460782A4688
:104510004146FFF775F8761E022EF4D23846BDE804
:10452000F08170B50E4604004FF009050CD02068EC
:1045300050B1017841B1A188C288914204D140783C
:10454000FFF752F8C00703D000203060284670BD46
:1045500000252068F9E700020004000801001000AF
:10456000080006002800280041280008D728000875
:10457000B1280008DD2800086128000800000000BC
:104580000000000001020304060708090000000003
:1045900001020304435545414141414345454549D5
:1045A000494941414592924F4F4F5555594F554FAB
:1045B0009C4F9E9F41494F55A5A5A6A7A8A9AAAB68
:1045C000ACADAEAFB0B1B2B3B4414141B8B9BABB12
:1045D000BCBDBEBFC0C1C2C3C4C54141C8C9CACBAE
:1045E000CCCDCECFD1D145454549494949D9DADB72
:1045F000DCDD49DF4FE14F4F4F4FE6E8E8555555B9
:104600005959EEEFF0F1F2F3F4F5F6F7F8F9FAFB99
:10461000FCFDFEFF01030507090E10121416181CFD
:104620001E00010004001000400000010002000014
:104630000100020004000800100020000000C70074
:10464000FC00E900E200E400E000E500E700EA0029
:10465000EB00E800EF00EE00EC00C400C500C9006C
:10466000E600C600F400F600F200FB00F900FF00CF
:10467000D600DC00F800A300D800D7009201E100CA
:10468000ED00F300FA00F100D100AA00BA00BF006B
:10469000AE00AC00BD00BC00A100AB00BB0091258A
:1046A0009225932502252425C100C200C000A9003F
:1046B0006325512557255D25A200A5001025142549
:1046C00034252C251C2500253C25E300C3005A2554
:1046D000542569256625602550256C25A400F00029
:1046E000D000CA00CB00C8003101CD00CE00CF0001
:1046F00018250C2588258425A600CC008025D3000C
:10470000DF00D400D200F500D500B500FE00DE00C9
:10471000DA00DB00D900FD00DD00AF00B400AD0021
:10472000B1001720BE00B600A700F700B800B00027
:10473000A800B700B900B300B200A025A000610036
:104740001A03E0001703F8000703FF0001007801D7
:104750000001300132010601390110014A012E0128
:104760007901060180014D0043028101820182012D
:104770008401840186018701870189018A018B01F7
:104780008B018D018E018F019001910191019301A7
:104790009401F60196019701980198013D029B0151
:1047A0009C019D0120029F01A001A001A201A20184
:1047B000A401A401A601A701A701A901AA01AB01B7
:1047C000AC01AC01AE01AF01AF01B101B201B30167
:1047D000B301B501B501B701B801B801BA01BB0118
:1047E000BC01BC01BE01F701C001C101C201C3018E
:1047F000C401C501C401C701C801C701CA01CB0179
:10480000CA01CD011001DD0101008E01DE0112019E
:10481000F3010300F101F401F401F801280122027F
:1048200012013A020900652C3B023B023D02662C54
:104830003F0240024102410246020A015302400087
:1048400081018601550289018A0158028F015A02AD
:1048500090015C025D025E025F02930161026202EE
:1048600094016402650266026702970196016A027A
:10487000622C6C026D026E029C01700271029D013D
:10488000730274029F0176027702780279027A023B
:104890007B027C02642C7E027F02A60181028202DE
:1048A000A9018402850286028702AE014402B10199
:1048B000B20145028D028E028F0290029102B70171
:1048C0007B030300FD03FE03FF03AC030400860328
:1048D000880389038A03B1031103C2030200A303FF
:1048E000A303C4030803CC0303008C038E038F03CC
:1048F000D8031801F2030A00F903F303F403F503E4
:10490000F603F703F703F903FA03FA03300420036D
:1049100050041007600422018A043601C1040E010C
:10492000CF040100C004D004440161052604000046
:104930007D1D0100632C001E9601A01E5A01001F60
:104940000806101F0606201F0806301F0806401F15
:104950000606511F0700591F521F5B1F541F5D1F82
:10496000561F5F1F601F0806701F0E00BA1FBB1F77
:10497000C81FC91FCA1FCB1FDA1FDB1FF81FF91F73
:10498000EA1FEB1FFA1FFB1F801F0806901F080677
:10499000A01F0806B01F0400B81FB91FB21FBC1F1C
:1049A000CC1F0100C31FD01F0206E01F0206E51F37
:1049B0000100EC1FF21F0100FC1F4E2101003221FB
:1049C00070211002842101008321D0241A05302C8B
:1049D0002F04602C0201672C0601752C0201802C2B
:1049E0006401002D260841FF1A0300000A0D20551E
:1049F000415254205072696E7466204578616D7022
:104A00006C653A20726574617267657420746865BC
:104A10002043206C696272617279207072696E74D1
:104A2000662066756E6374696F6E20746F2074689B
:104A30006520554152540A0D000000005C4A0008F0
:104A40000000002064000000A42B0008C04A0008F9
:104A500064000020BCA70000B42B00080014024032
:104A60000014024000140240000002400010024006
:104A700000100240000000000000000000C000081C
:104A80000000000000000000000000000000000026
:104A90000000000000000000000000000100000015
:104AA000000000000024F4000100000010000000DD
:104AB00000000000000000000000000000000000F6
:040000050800018965
:00000001FF
