:020000040800F2
:1000000070060020690200084B0B0008470B00082F
:10001000490B00085F040008E50B00080000000021
:100020000000000000000000000000004F0B00086E
:1000300061040008000000004D0B0008510B00088F
:10004000830200088302000883020008830200087C
:10005000830200088302000883020008830200086C
:10006000830200088302000883020008830200085C
:10007000830200088302000883020008830200084C
:10008000830200088302000883020008830200083C
:10009000830200088302000883020008830200082C
:1000A000830200088302000883020008830200081C
:1000B000830200088302000883020008830200080C
:1000C00083020008830200088302000883020008FC
:1000D00083020008830200088302000883020008EC
:1000E00083020008830200088302000883020008DC
:1000F00083020008830200088302000883020008CC
:1001000083020008830200088302000883020008BB
:1001100083020008830200088302000883020008AB
:10012000830200088302000883020008830200089B
:10013000830200088302000883020008830200088B
:10014000830200088302000883020008830200087B
:10015000830200088302000883020008830200086B
:10016000830200088302000883020008830200085B
:1001700083020008830200088302000800000000D8
:10018000830200088302000883020008830200083B
:10019000830200088302000883020008830200082B
:1001A000830200088302000883020008830200081B
:1001B000830200088302000883020008830200080B
:1001C000830200088302000800F002F800F03CF807
:1001D0000AA090E8000C82448344AAF10107DA45A2
:1001E00001D100F031F8AFF2090EBAE80F0013F0B8
:1001F000010F18BFFB1A43F0010318477C0A0000E7
:100200009C0A0000103A24BF78C878C1FAD8520777
:1002100024BF30C830C144BF04680C607047000080
:100220000023002400250026103A28BF78C1FBD8FF
:10023000520728BF30C148BF0B6070471FB500F0A0
:100240000EFD1FBD10B510BD00F0CFF81146FFF731
:10025000F5FF00F0D9FC00F0EDF803B4FFF7F2FF72
:1002600003BC00F0F5F80000094880470948004742
:10027000FEE7FEE7FEE7FEE7FEE7FEE7FEE7FEE756
:10028000FEE7FEE704480549054A064B70470000B3
:10029000D50B0008C901000870000020700600207E
:1002A000700200207002002053EA020C00F0698006
:1002B0002DE9F04B4FF00006002B1FBFB3FA83F57A
:1002C00003FA05F424FA05F65E4012BF1643B2FAAB
:1002D00082F502FA05F4C5F120051EBF22FA05FCDD
:1002E00044EA0C04203556EA044C4FEA144418BF83
:1002F000641C4FF000084FF00009904271EB030CB2
:1003000039D3002919BFB1FA81F701FA07F6B0FA1B
:1003100080F700FA07F6C7F120071EBF20FA07FC96
:1003200046EA0C062037B6FBF4FCA7EB0507103FA6
:1003300007F01F0BCBF120060CFA0BFB2CFA06F68C
:1003400044BFB3460026202FA4BF5E464FF0000BEB
:100350005BEA060C08BF4FF0010B19EB0B09ABFB76
:10036000027C48EB0608C01B06FB02CC0BFB03CC4F
:1003700071EB0C01C1E70B46024641464846BDE819
:10038000F08B13B54FF000004FF00001AFF3008089
:10039000BDE81C4070474FF0000200B5134694467C
:1003A0009646203922BFA0E80C50A0E80C50B1F1CD
:1003B0002001BFF4F7AF090728BFA0E80C5048BFE1
:1003C0000CC05DF804EB890028BF40F8042B08BF7F
:1003D000704748BF20F8022B11F0804F18BF00F87B
:1003E000012B7047704770477047754600F02CF836
:1003F000AE4605006946534620F00700854618B012
:1004000020B5FFF73FFFBDE820404FF000064FF05A
:1004100000074FF000084FF0000B21F00701AC4639
:10042000ACE8C009ACE8C009ACE8C009ACE8C00958
:100430008D46704710B50446AFF300802046BDE8F6
:100440001040FFF70ABF000000487047100000206E
:1004500001491820ABBEFEE7260002007047FEE708
:1004600070470000014880687047000000000020CD
:1004700002488168027811448160704700000020C2
:10048000032010B500F0AEF80F2000F005F800F0E2
:1004900071F8002010BD000070B50D4D04464FF4FA
:1004A0007A700C4A29781268B0FBF1F0B2FBF0F0D8
:1004B00000F036FB48B9102C07D200222146501E0E
:1004C00000F070F800206C6070BD012070BD00006D
:1004D000000000200C000020F0B5154C4378211DD1
:1004E0000A1D23600378F3B143680B60057BC67A6D
:1004F000817A437B2D07847B45EA0665C77B90F8AC
:1005000009C0067A90F800E045EAC14040EA83401D
:1005100040EA444040EA074040EA0C2040EA4600F6
:1005200040EA0E0001E0002008601060F0BD00000D
:1005300098ED00E0BFF35F8F044800210368034A91
:1005400023F48033036070321160704724ED00E0C3
:10055000074A40F00100064970321060086840F414
:1005600080300860BFF34F8FBFF36F8F704700007C
:1005700024ED00E00A4808B5016841F080510160AF
:10058000006800F0805000900548001D016841F4AB
:1005900080410160006800F48040009008BD0000C8
:1005A000403802400E4BF0B41B680D46C3F30223E3
:1005B000C3F10706042E00D90426191D072901D20C
:1005C000002300E0DB1E012404FA06F19C40491ED2
:1005D0002940641E994014402143F0BC00F003BB45
:1005E0000CED00E0064900F0070210B54FF6FF04DD
:1005F0000868044B204040EA02201843086010BD00
:100600000CED00E00000FA052DE9F04705000F466B
:1006100063D0444E306800F00F00B84209D2306811
:1006200020F00F0038433060306800F00F00B8420F
:1006300053D128683C4C810712D5400703D5206868
:1006400040F4E05020602878000703D5206840F48B
:1006500060402060A968206820F0F0000843206016
:100660002878C0072AD0304968680839012810D096
:100670000968022810D0890700292EDA216821F0A4
:10068000030101432160FFF7EDFE804641F2883906
:100690000DE009688903EFE78901EDE7FFF7E2FE66
:1006A000A0EB0801494502D90320BDE8F08768683E
:1006B000216801F00C01B1EB800FEFD1306800F040
:1006C0000F00B8420BD9306820F00F00384330607B
:1006D000306800F00F00B84201D00120E5E728782B
:1006E000400705D5E968206820F4E0500843206001
:1006F0002878000706D52869216821F4604141EA7D
:10070000C000206000F018F82168084AC1F3031106
:10071000515CC8400649086006480068FFF7BCFE07
:100720000020C2E7003C024008380240680C000884
:100730000C00002004000020154910B51548096878
:1007400011F00C0213D01449042A0FD0082A0ED13C
:100750000F4C241F2268236802F03F025B0207D57A
:100760002068C0F38810A0FB010106E0084610BD18
:100770002168C1F38811A1FB00010023FFF794FD5C
:100780002168C1F30141491C4900B0FBF1F010BDE3
:10079000083802400024F40040787D012DE9F84F2C
:1007A00004004FF000076ED02078DFF868A3AAF1AC
:1007B0000408C007A8F104054CD0DAF80010504630
:1007C000C1F38101012908D00068C0F3810002282B
:1007D0000AD1D8F80000400206D52868800339D530
:1007E00060680028DFD035E06068B0F5803F0BD04E
:1007F00010B1B0F5A02F11D0286820F48030286007
:10080000286820F4802002E0286840F480302860C6
:10081000606890B1FFF726FE06460AE0286840F4BB
:1008200080202860F0E700BFFFF71CFE801B6428D3
:1008300072D828688003F7D50CE0FFF713FE064650
:1008400005E000BFFFF70EFE801B6428F0D8286883
:100850008003F7D42078800742D5DAF8001050469C
:1008600011F00C0F08D00068C0F3810002280BD1F2
:10087000D8F80000400207D42868800718D5E0683F
:10088000012800D114E041E1E0680028286817D071
:1008900040F001002860FFF7E5FD064605E000BFD7
:1008A000FFF7E0FD801B0228C2D828688007F7D533
:1008B0002069296821F0F80141EAC00028600FE0B2
:1008C00020F001002860FFF7CDFD064605E000BFDF
:1008D000FFF7C8FD801B02281ED828688007F7D4C0
:1008E0002078000729D58B4861696C300029814642
:1008F000016812D041F001010160FFF7B3FD064627
:1009000005E000BFFFF7AEFD801B022804D8D9F830
:1009100000008007F6D510E089E021F001010160B8
:10092000FFF7A0FD064604E0FFF79CFD801B0228B0
:100930007DD8D9F800008007F6D4207840076BD521
:10094000DFF8D09109F13809D9F80000C0000BD4C4
:10095000D9F8001041F08051C9F80010D9F8000012
:10096000012700F0805000906B480168C90512D43F
:100970000168834641F480710160FFF773FD06460C
:1009800005E000BFFFF76EFD801B64284FD8DBF841
:100990000000C005F6D55F4EA068683601280AD071
:1009A00008B1052811D0306820F0010030603068AF
:1009B00020F0040002E0306840F001003060A068E0
:1009C000A0B1FFF74FFD83460CE0306840F0040013
:1009D0003060F0E7FFF746FDA0EB0B0141F28830F5
:1009E000814266D830688007F4D50EE0FFF73AFD03
:1009F000834607E0FFF736FDA0EB0B0141F288309C
:100A0000814256D830688007F4D42FB1D9F800104D
:100A100021F08051C9F80010A069C8B3DAF80010BD
:100A2000C1F3810102294BD00228286800E040E090
:100A300020F08070286003D0FFF714FD04463BE0EF
:100A4000FFF710FD064604E0FFF70CFD801B0228AF
:100A50002FD828688001F7D4D4E90962D4E90701C6
:100A60002E4B570894F82C20084303EB074343EA26
:100A70008611084340EA026040F00050C8F80000C8
:100A8000286840F080702860FFF7ECFC044606E020
:100A90003EE000BFFFF7E6FC001B022809D82868EB
:100AA0008001F7D534E000BFFFF7DCFC001B022813
:100AB00002D90320BDE8F88F28688001F4D427E02C
:100AC0000128D8F8000021D0E16900F480028A42B0
:100AD0001CD1216A00F03F028A4217D1626A47F6B0
:100AE000C0710140B1EB821F10D1A16A4FF0FF32FB
:100AF00000F4403302EB5101B3EB014F06D194F8FF
:100B00002C1000F07060B0EB016F01D00120D1E734
:100B10000020CFE708380240007000400000FFFFCF
:100B2000401EB0F1807F10B501D3012010BD4FF001
:100B3000E02460610F21601700F055F80020A061EB
:100B40000721216110BDFEE7FEE7FEE77047704711
:100B5000FFF78EBC10B592B030216846FFF71BFC42
:100B600014210CA8FFF717FC1848016841F08051C8
:100B70000160006800F0805011901548016821F470
:100B8000404141F480410160006810220024069435
:100B900000F4404011900220009001216846CDE908
:100BA0000312FFF7FBFD08B172B6FEE70F200E94AB
:100BB000CDE90C0400210F940CA81094FFF724FD3C
:100BC000002801D072B6FEE712B010BD40380240D6
:100BD000007000400248016841F4700101607047F4
:100BE00088ED00E0FEE7090700284FEA116104DB09
:100BF00000F1E02080F80014704700F00F0000F1D1
:100C0000E02080F8141D70471FB5FFF739FC002461
:100C10000094019402940394FFF78CFC01208DF85A
:100C20000C001F218DF8081087228DF809208DF8FF
:100C30000D008DF8000068468DF80A408DF80E40D2
:100C40008DF8014001948DF80B408DF80F40FFF7AF
:100C500043FC0420FFF77CFCFFF77CFFFEE74FF02E
:100C60004070E1EE100A7047000000000000000034
:100C70000102030406070809980C00080000002080
:100C80001000000004020008A80C0008100000205A
:100C900060060000200200080100000010000000B3
:080CA000000000000024F40034
:04000005080001C925
:00000001FF
