:020000040800F2
:10000000201200209D0100084F280008A1250008AB
:100010004D280008FD0700088D5A00080000000068
:10002000000000000000000000000000693200082D
:1000300051080008000000005D2800086B3200082D
:10004000B7010008B7010008B7010008B7010008B0
:10005000B7010008B7010008B7010008B7010008A0
:10006000B7010008B7010008B7010008B701000890
:10007000B7010008B7010008B7010008B701000880
:10008000B7010008B7010008B7010008B701000870
:10009000B7010008B7010008B701000853080008BD
:1000A000B7010008B7010008B7010008B701000850
:1000B000B7010008B7010008B7010008B701000840
:1000C000B7010008B7010008B7010008B701000830
:1000D000B7010008B7010008B7010008B701000820
:1000E000B7010008B7010008B7010008B701000810
:1000F000B7010008B7010008B7010008B701000800
:10010000B7010008B7010008B7010008B7010008EF
:10011000B7010008B7010008B7010008B7010008DF
:10012000B7010008B7010008B7010008B7010008CF
:10013000B7010008B7010008B7010008B7010008BF
:10014000B7010008B7010008B701000851280008EE
:10015000B7010008B7010008B7010008B70100089F
:10016000B7010008B7010008B7010008B70100088F
:10017000B7010008B7010008B7010008000000003F
:10018000B7010008B7010008DFF80CD000F008FB49
:1001900000480047956A0008201200200648804762
:1001A00006480047FEE7FEE7FEE7FEE7FEE7FEE75C
:1001B000FEE7FEE7FEE7FEE70133000889010008DD
:1001C0002DE9F05F0546002092469B46884606468C
:1001D000814640241BE0284641464746224600F01F
:1001E00030FA53465A46C01A914110D31146184668
:1001F000224600F017FA2D1A67EB01084F462246F7
:100200000120002100F00EFA17EB00094E41201EDC
:10021000A4F10104DFDC484631462A464346BDE8E6
:10022000F09F40EA01039B0703D009E008C9121FB1
:1002300008C0042AFAD203E011F8013B00F8013BA0
:10024000521EF9D27047D2B201E000F8012B491ECC
:10025000FBD270470022F6E710B513460A46044663
:100260001946FFF7F0FF204610BD2DE9FE4F8046EE
:1002700081EA0300C00F0C46009021F0004123F0FA
:100280000045B8EB0200A94105D240462146904600
:100290001C460B46024623F00040104347D0270D72
:1002A000C7F30A00C3F30A510290401A0190402894
:1002B0006BDAC3F3130040F4801B0098924620B120
:1002C0000023D2EB030A63EB0B0B01985946C0F1F4
:1002D0004002504600F0A6F906460D4650465946E3
:1002E000019A00F0BEF910EB08006141002487EA92
:1002F000115284EAE7731A4340D0009A62B3019A1C
:10030000012A4FEA075215DC001B61EB02014FF096
:10031000004202EA0752CDE90042001C41F580117B
:1003200032462B4600F0BEF903B0BDE8F08F4046E0
:100330002146F9E7001B61EB0201001C41F5801327
:1003400000185B412018A2F5001747EB030140EAB3
:10035000D570B6196D4111E06D084FEA360645EAD1
:10036000C0754FEA0752001B61EB0201001C41F50A
:10037000801149084FEA30000019514132462B469E
:1003800003B0BDE8F04F00F07EB9009801224000B4
:100390000023D0EB020263EBE073009821464FEAA2
:1003A000E074B8EB000061EB0401E9E783F000437F
:1003B0005BE781F0004158E72DE9FE4F81EA030435
:1003C00004F0004421F0004100944FF0000B23F0B2
:1003D000004350EA01045ED052EA03045BD0C3F349
:1003E0000A54C1F30A552C44A4F2F3340194A0FB3F
:1003F0000254C1F3130141F48011C3F3130343F416
:10040000801301FB024400FB034E840A970A44EA6E
:10041000815447EA8357A4FB076802958D0A05FBC0
:1004200007854FEA932C04FB0C542705029D4FEAE5
:10043000065847EA1637B5EB08056EEB070C870E32
:10044000920E47EA811742EA8312A7FB0201B6EB3C
:100450000B0164EB00042B0D43EA0C335E1844EBF4
:100460001C50DA465146E7FB0201C5F313044FEA7C
:100470000B3343EA14534FEA0432019C43EA060368
:10048000A4F10C040294009CCDE900B400F00AF938
:1004900003B0BDE8F08F00200146F9E72DE9F04DEB
:1004A00081EA030404F0004B21F0004514464FF0AC
:1004B000000A23F0004150EA050220D054EA01026C
:1004C0001DD0C5F30A570246C5F31303C1F3130049
:1004D000C1F30A5640F4801543F48013A7EB0608D5
:1004E000101BD64608F2FD3873EB050002D308F165
:1004F000010801E092185B41B8F1000F03DA002017
:100500000146BDE8F08D00204FF480110646844678
:100510000EE0171B73EB050705D3121B63EB0503F6
:1005200006434CEA010C49084FEA300092185B413F
:1005300050EA0107EDD152EA030012D082EA04002A
:1005400083EA0501084305D0101BAB4106D2012206
:10055000002306E000224FF0004302E06FF00102AA
:1005600053101AEB06004CEB085110EB0A0041EB5C
:100570000B01BDE8F04D00F086B80EB540F23341F6
:1005800002910021CDE900110A460B4600F08AF8DD
:1005900003B000BDC1F30A5210B5C1F3130140F21C
:1005A000FF3341F480119A4201DA002010BD40F27D
:1005B00033439A42A2F2334203DC524200F041F844
:1005C00010BD904010BD000030B5041E71F1000454
:1005D00004DB4FF00044404264EB0101141E73F150
:1005E000000405DB1C464FF00043524263EB04035A
:1005F0008B4208BF824230BD30B50B460146002019
:100600002022012409E021FA02F59D4205D303FAD4
:1006100002F5491B04FA02F52844151EA2F1010255
:10062000F1DC30BD202A04DB203A00FA02F1002080
:1006300070479140C2F1200320FA03F31943904020
:100640007047202A04DB203A21FA02F0002170478B
:1006500021FA02F3D040C2F120029140084319462A
:100660007047202A06DBCB17203A41FA02F043EA12
:10067000E07306E041FA02F3D040C2F1200291405B
:1006800008431946704710B5141E73F1000408DAC8
:10069000401C41F1000192185B411A4301D120F046
:1006A000010010BD2DE9F04D92469B4611B1B1FA03
:1006B00081F202E0B0FA80F220329046FFF7B2FFFA
:1006C00004460F4640EA0A0041EA0B0153465A46E7
:1006D000084313D0114653EA010019D0C8F1400273
:1006E0005046FFF7AEFF05460E4650465946424675
:1006F000FFF798FF084305D0012004E02046394663
:10070000BDE8F08D0020054346EAE0762C433743F0
:100710000A986305E40AA0EB08000022FD0A44EAF7
:1007200047540A3002D500200146E9E701051019B7
:100730006941DDE9084500196941BDE8F04DA2E7CE
:10074000C1F30A52C1F3130140F2FF3341F48011A7
:100750009A4202DA00200146704740F233439A423F
:10076000A2F2334202DC5242FFF76BBFFFF75ABFDF
:1007700030B5041E71F1000404DB4FF00044404228
:1007800064EB0101141E73F1000405DB1C464FF0FD
:100790000043524263EB0403994208BF904230BDCC
:1007A000064C074D06E0E06840F0010394E80700BE
:1007B00098471034AC42F6D3FFF7EAFCD08B000820
:1007C000F08B00080449054A31F8101052F8200057
:1007D000012200F03CBA0000F06B00080C00002081
:1007E0000449054A31F8101052F82000002200F0A8
:1007F0002EBA0000F06B00080C000020FEE700009D
:1008000010B500224FEA020100EB8203521CC3F82C
:100810008413102AF8D300224FF400738418521C5A
:1008200084F81C119A42F9D3017041700122827040
:10083000C0F8C413027640238371417680F81C13FC
:1008400080F81D2380F81F1380F81E13002010BDB0
:100850007047202000F0F2B80120FFF7C1FF0648E2
:1008600006F0F4F8C8210A2006F0B0F803A006F05C
:1008700057F872B6FEE70000740000204552524F50
:100880005200000030B5B3F5804F05D06FF07041D5
:1008900040F82210002030BD8C690B688D6823431E
:1008A0004C688989240144EA0524234343EA014131
:1008B00050F82230014C23401943E9E70000F0CF03
:1008C00010B50A6850F8223023F0010340F82230B6
:1008D0008C68082C23D000234A682243CC681C4330
:1008E0000B6922431A434B690E4C1A43CB691A43D6
:1008F0000B6A1A434B6A1A438B6A1A43CB6A1A4330
:100900000B6B1A438B691343CA6B09681A4350F87F
:100910002130A343134340F82130002010BD402371
:10092000DAE700007FFF0F0030B5D1E9003443EA79
:1009300004138C688D89240244EA054423430C8AFD
:10094000094D00EB820005EB045423430C7D6D013F
:1009500005EB0464896923430B43416801F040417E
:100960000B434360002030BD0000F0FF70B504462B
:1009700000F072F90546601C02D004480078044477
:1009800000F06AF9401BA042FAD370BD2C00002091
:10099000F0B587B014216846FFF75CFC1548016884
:1009A000002924D10121016013480024016841F08D
:1009B000010101600068022500F0010005904FF67A
:1009C0008070CDE9000502AA03260C2782E8D0003A
:1009D00069460A4800F03EF84EF2B370CDE90005D2
:1009E00002AA694682E8D000054800F033F807B053
:1009F000F0BD000024000020383802400010024002
:100A0000000C024010B5202815D105F0C7F80028C9
:100A100011D00949881E05F03BF800280BD0064884
:100A20000121801F4FF478420170C1888088BDE8A1
:100A3000104005F037BE10BD06000020044910B577
:100A40000A68024202D00860FFF7DCFF10BD000018
:100A5000143C01402DE9F84FDFF8BCA1002201252C
:100A600003264FF00F090AF1040BAAF1040E00BF90
:100A70000B6805FA02F42340A34270D10F7907F006
:100A80000307012F01D0022F16D187684FEA4208D1
:100A900006FA08FC27EA0C07D1F80CC00CFA08FC8F
:100AA0004CEA070CC0F808C04768A7430C79C4F3A8
:100AB000001494403C4344600C79E443A4070AD0FA
:100AC000C4684FEA420C06FA0CF7BC438F6807FA79
:100AD0000CF72743C7600C7904F00304022C12D1F1
:100AE000D40800EB840CDCF820405707FF0E09FA0D
:100AF00007F824EA0804D1F8108008FA07F848EA51
:100B00000408CCF8208004684FEA420C06FA0CF77F
:100B1000BC430F7907F0030707FA0CF72743076078
:100B20004C6814F4403F70D03C4C276847F4804731
:100B30002760246822F0030704F480440094384CB2
:100B400007EB040CDCF8084897074FEA177809FA16
:100B500008F7BC43334FB84202D1002724E054E0E9
:100B6000314FB84201D101271EE0304FB84201D1C8
:100B7000022719E02E4FB84201D1032714E02D4F70
:100B8000B84201D104270FE02B4FB84201D105270D
:100B90000AE02A4FB84201D1062705E0284FB842A3
:100BA00001D1072700E0082707FA08F72743CCF808
:100BB0000878DAF800405746D1F804C09C435FEA51
:100BC000CC2C00D51C433C60DBF800405F46D1F8DC
:100BD00004C09C435FEA8C2C00D51C433C60DEF8CB
:100BE00000407746D1F804C09C435FEA8C3C00D5B6
:100BF0001C433C60084F083F3C68D1F804C09C434C
:100C00005FEACC3C00D51C433C60521C102AFFF428
:100C10002FAFBDE8F88F0000083C01404438024087
:100C20000030014000000240000402400008024081
:100C3000000C024000100240001402400018024064
:100C4000001C02400069084000D0012070470AB132
:100C5000816170470904FBE7014880687047000024
:100C60002C000020D0F8000303F02DBAD0F80003C8
:100C700003F033BA006804F027BC006804F028BC15
:100C800001EB410202EBC10100EB810090F8600032
:100C9000704701EB410202EBC10100EB8100006DE6
:100CA000704710B5044690F8F802012809D00120D9
:100CB00084F8F802206804F016FC002084F8F8029A
:100CC00010BD022010BD2DE9FE430546DDE90B7085
:100CD00095F8F842DDF828C0012C1ED001EB410444
:100CE00004EBC1044FF0010905EB840485F8F89288
:100CF000002684F83D6084F83830A4F8400084F879
:100D0000391084F83F7002F07F0884F83A805FEA77
:100D1000026805D584F83B9004E00220BDE8FE831C
:100D200084F83B6084F83CC0CDF800C0CDE9017088
:100D3000286804F03BFC85F8F862EFE770472DE97E
:100D4000F00301EB4104DDE906C9DDE9087504EBB8
:100D5000C10400EB8404022684F83B2084F83F3071
:100D6000BCF1000F0AD084F8426000256BB1012B62
:100D70002FD0022B12D0032B16D10FE04FF0030817
:100D800084F8428084F83D50EFE7BCF1010F0BD1AD
:100D900052B9DFB9012284F8552003E0B2B194F8CA
:100DA0005420B2B184F84260C4F84490E76484F8F7
:100DB0006050256584F8391084F86150027C04F194
:100DC00038010068BDE8F00304F079BC94F85520C0
:100DD000E7E784F84250E7E72DE9F041066804466A
:100DE000304604F07CFB012875D1206804F08BFDAF
:100DF000002870D0206804F086FD800203D52168A9
:100E00004FF400104861206804F07DFDC00203D556
:100E100021684FF480104861206804F074FD40019F
:100E200003D521684FF080604861206804F06BFDB5
:100E3000800702D5216802204861206804F063FD24
:100E4000800015D521684FF000504861D6F8400465
:100E5000C0070DD11021304604F016FB304604F0D7
:100E6000F5FA0121206804F033FD2046FFF7FEFE6D
:100E7000206804F048FDC00102D5204601F000FBC7
:100E8000206804F040FD000705D5204600F0C7F8B3
:100E9000216808204861206804F035FDC043C00681
:100EA0000CD42068816921F010018161204601F095
:100EB00031FB2068816941F010018161206804F0F4
:100EC00022FD800123D5206804F0F5FB07460025AC
:100ED0004FF0010814E01AE005F00F0108FA01F0E4
:100EE00038420CD006EB4510D0F80005E9B20004FA
:100EF000204602D501F0C1F801E001F0B3F96D1C04
:100F0000A068A842E8D821684FF000704861BDE8A9
:100F1000F08170B58AB0040005D094F8F902256814
:100F2000002618B107E001200AB070BD84F8F8620D
:100F3000204600F027F8032084F8F902E86BC0058A
:100F400000D42661206804F04DFA04F11001282233
:100F50000D466846FFF765F994E80F0004F0E8F9DC
:100F60000121206804F00BFD282229466846FFF77E
:100F700058F994E80F0004F043FC012084F8F902CA
:100F80000020D1E710B586B0044614216846FFF76B
:100F900061F92068B0F1A04F2FD1194800210268F3
:100FA00042F001020260006800F0010005904FF479
:100FB000C05000900220CDE90101032003900A20D7
:100FC000049069460F48FFF745FD0D48001D016874
:100FD00041F0800101600A481430016841F4804109
:100FE00001600068002200F4804005901146432013
:100FF00000F0AAF8432000F099F806B010BD0000F8
:101000003038024000000240D0F8000303F0E0B89E
:10101000D0F8000303F0E0B8006804F097BCD0F803
:10102000000303F090B810B5044690F8F8020128C8
:101030000DD0012084F8F8020121206804F0EAF9BB
:10104000206804F0FDF9002084F8F80210BD0220A9
:1010500010BD10B5044690F8F802012809D001200F
:1010600084F8F802206804F0B8FC002084F8F80244
:1010700010BD022010BD00000248816802781144B2
:10108000816070472C0000200B4810B5016841F4C6
:1010900000710160016841F480610160016841F400
:1010A00080710160032000F06FF80F2000F006F857
:1010B00000F024F8002010BD003C024070B50D4D3A
:1010C00004464FF47A712878B1FBF0F00A490968B8
:1010D000B1FBF0F000F072FD48B9102C07D20022ED
:1010E0002146501E00F030F800206C6070BD0120D9
:1010F00070BD00002C000020380000200A4808B510
:10110000016841F480410160006800F48040009073
:101110000548001F016841F080510160006800F03F
:101120008050009008BD000044380240002809DBD0
:1011300000F01F02012191404009800000F1E020F1
:10114000C0F8001170470000F0B40E4B1B680C464D
:10115000C3F30223C3F10705042D00D90425191D8B
:10116000072901D2002300E0DB1E012606FA05F163
:10117000491E214099409E40761E16403143F0BCE6
:1011800004F03ABD0CED00E0064900F007020868E3
:101190004FF6FF03184040EA0220034A104308605C
:1011A000704700000CED00E00000FA052DE9F04763
:1011B0000E46050065D0DFF81481D8F80000F7B2BC
:1011C00000F00700B04207D288F80070D8F800009D
:1011D00000F00700B04254D128683D4C810712D579
:1011E000400703D5206840F4E050206028780007CD
:1011F00003D5206840F4604020602068A96820F092
:10120000F000084320602878C0072DD03049686876
:101210000839012812D0022813D0032811D00968F8
:10122000890700292DDA216821F00301014321609B
:10123000FFF712FD814641F2883A0EE00968890302
:10124000EFE709688901ECE7FFF706FDA0EB09016C
:10125000514502D90320BDE8F0872068696800F095
:101260000C00B0EB810FEFD1D8F80010404601F030
:101270000701B14207D90770006800F00700B042CB
:1012800001D00120E7E72878400705D52068E96804
:1012900020F4E050084320602878000706D5206835
:1012A000296920F4604040EAC100206000F038F86D
:1012B0002168084AC1F30311515CC840064908601F
:1012C00006480068FFF7FAFE0020C4E7003C024031
:1012D00008380240FA6B0008380000203000002077
:1012E0000448054900680968044AC1F38221515C39
:1012F000C840704738000020083802400A6C0008D7
:101300000448054900680968044AC1F34231515C48
:10131000C840704738000020083802400A6C0008B6
:10132000154810B5006810F00C02144813D0411095
:10133000042A0FD0082A0ED10F4C241F22682368DC
:1013400002F03F025B0207D52068C0F38810A0FBC3
:10135000010106E0084610BD2168C1F38811A1FB18
:1013600000010023FEF72CFF2168C1F30141491C55
:101370004900B0FBF1F010BD083802400024F40031
:101380002DE9F84F04006ED02078DFF84C93C007A9
:10139000A9F104054AD009F104000168C1F38101F3
:1013A000012908D00068C0F3810002280AD1D9F8C9
:1013B0000000400206D52868800337D56068002801
:1013C000E1D033E06068B0F5803F10D0B0F5A02FD9
:1013D000286810D020F480302860286820F480200D
:1013E00028606068A8B1FFF737FC06460DE0286862
:1013F00040F48030F4E740F480202860F7E700BF35
:10140000FFF72AFC801B642873D828688003F7D56F
:101410000CE0FFF721FC064605E000BFFFF71CFCCF
:10142000801B6428F0D828688003F7D42078DFF880
:10143000AC8280074FF0000A3ED5A748001D016826
:1014400011F00C0F08D00068C0F3810002280BD106
:10145000D9F80000400207D42868800716D5E06854
:10146000012800D112E033E1E068B8B10120C8F8EA
:101470000000FFF7F1FB064605E000BFFFF7ECFBBD
:10148000801B0228C0D828688007F7D52868216902
:1014900020F0F80040EAC10028600DE0C8F800A084
:1014A000FFF7DAFB064604E0FFF7D6FB801B0228B5
:1014B0001FD828688007F7D42078000722D5864FE8
:1014C00087486169703771B101210160FFF7C4FB82
:1014D000064604E0FFF7C0FB801B022809D83868E5
:1014E0008007F7D50EE0C0F800A0FFF7B5FB064671
:1014F00005E082E0FFF7B0FB801B02287DD838684A
:101500008007F7D42078400768D5DFF8CCB10027F2
:101510000BF13C0BDBF80000C0000BD4DBF8001033
:1015200041F08051CBF80010DBF80000012700F0FB
:10153000805000906B4E3068C00510D4306840F485
:1015400080703060FFF788FB009005E0FFF784FBB8
:101550000099401A022850D83068C005F6D55E4E72
:10156000A0686C3601280FD00528306810D020F014
:1015700001003060306820F004003060A068B8B12D
:10158000FFF76AFB00900FE0306840F00100F4E7DD
:1015900040F004003060F7E7FFF75EFB0099411A66
:1015A00041F28830814266D830688007F4D50EE079
:1015B000FFF752FB009007E0FFF74EFB0099411A3E
:1015C00041F28830814256D830688007F4D42FB178
:1015D000DBF8001021F08051CBF80010A069C8B3EF
:1015E0003D49091D0968C1F3810102294AD0022839
:1015F000504607D0C8F8600000E03CE0FFF72CFB45
:1016000004463BE04746C8F86000FFF725FB064666
:1016100005E000BFFFF720FB801B02282BD82868BD
:101620008001F7D4D4E907010843A16A2E4A49088A
:1016300002EB0141626A41EA8211084394F82C10DE
:1016400040EA0161C9F8001001203866FFF704FB89
:10165000044606E03EE000BFFFF7FEFA001B02284A
:1016600009D828688001F7D534E000BFFFF7F4FA05
:10167000001B022802D90320BDE8F88F28688001EA
:10168000F4D427E00128F7D0D9F80000E26900F48B
:10169000800191421CD1226A00F03F01914217D192
:1016A00047F6C071626A0140B1EB821F10D1A26A95
:1016B0004FF0FF3300F4403103EB5202B1EB024F25
:1016C00006D194F82C1000F07060B0EB016F01D0DF
:1016D0000120D1E70020CFE7043802400000474254
:1016E000800E4742007000400000FFFF70B504000C
:1016F00009D0606A002540B125616561A56294F852
:10170000510040B10CE0012070BD6068B0F5827FEF
:10171000F4D0E561F2E784F85050204600F044F838
:10172000022084F851002068016821F04001016026
:10173000A088218900F4827001F404410843A18942
:1017400001F400610843217C01F002010843217D7E
:1017500001F001010843218B01F400710843217F4E
:1017600001F03801084394F8201001F0800108438B
:10177000218D01F40051084321680860A06904210B
:1017800001EA104094F8241001F010010843216888
:1017900048602068C16921F40061C161656501206C
:1017A00084F85100002070BD10B586B004461421A5
:1017B0006846FEF74FFD14492068884221D113483E
:1017C0000021026842F480420260006800F4804018
:1017D00005900E481038026842F00202026000686C
:1017E00000F0020005904FF4604000900220CDE927
:1017F0000101032003900520049069460448FFF787
:1018000029F906B010BD0000003800404038024001
:10181000000402402DE9F84F044690F850000027DC
:101820001D461646894601280DD04FF0010B84F85D
:1018300050B0FFF711FA804694F85100BA460128DB
:1018400004D0022793E00220BDE8F88FB9F1000F21
:1018500073D0002E71D0032084F85100C4F854A036
:10186000C4F83090A686E686C4F838A0A4F83CA058
:10187000A4F83EA0C4F844A0C4F840A0A068B0F505
:10188000004F09D12068016821F040010160206803
:10189000016841F48041016020680168490603D471
:1018A000016841F040010160E068B0F5006F6068D8
:1018B00003D030B3012E24D041E008B1012E1CD159
:1018C000206B21680088C86006E02068816889076D
:1018D00009D5216B0988C160206B801C2063E08ED4
:1018E000401EE08609E0FFF7B7F9A0EB0800A84228
:1018F00002D3681C01D031E07DB3E08E0028E4D132
:1019000020E0206B21680078087306E02068816879
:10191000890709D5216B09780173206B401C20636E
:10192000E08E401EE0860AE0FFF796F9A0EB080083
:10193000A84203D3681C02D010E017E06DB1E08E1E
:101940000028E3D142462946204601F005FC08B1B3
:1019500020206065A06818B106E0FFE7032706E0D5
:101960002068C16880680090606D00B1012784F82C
:1019700051B084F850A0384666E72DE9F84F044688
:1019800090F8500000270A9E1D4692468B464FF065
:10199000010901280ED0012084F85000FFF75CF9FE
:1019A000804694F85100616801280CD0B1F5827F1F
:1019B00007D102E00220BDE8F88FA16809B9042828
:1019C00001D00227C2E0BBF1000F27D0BAF1000F0F
:1019D00024D01DB394F85100042802D0052084F8C7
:1019E000510000206065C4F838A0E587A587C4F8D9
:1019F00030B0E586A58620646064206801684906E9
:101A000003D4016841F040010160E068B0F5006F67
:101A1000606805D0E8B3012D46D07FE0012795E04E
:101A200008B1012D39D1206B21680088C860206B76
:101A3000801C2063E08E401EE0862EE020688168D6
:101A400089070FD5E18E69B1B9F1010F0AD1216B78
:101A50000988C160206B801C2063E08E401EE086F8
:101A60004FF0000920688168C9070CD0E18F51B19F
:101A7000C068A16B0880A06B801CA063E08F401E33
:101A8000E0874FF00109FFF7E7F8A0EB0800B0424C
:101A900000E009E001D3701C50D1E08E0028CDD1C8
:101AA000E08F0028CAD13FE0206B216800780873DE
:101AB000206B401C2063E08E401EE0862EE02068F4
:101AC000816889070FD5E18E69B1B9F1010F0AD19B
:101AD000216B09780173206B401C2063E08E401E4F
:101AE000E0864FF0000920688168C9070CD0E18FBB
:101AF00051B1C068A16B0870A06B401CA063E08F5F
:101B0000401EE0874FF00109FFF7A6F8A0EB0800A0
:101B1000B04202D3701C01D010E07EB1E08E0028EC
:101B2000CDD1E08F0028CAD142463146204601F08F
:101B300013FB28B101272020606507E0032705E09B
:101B4000A06818B92068C16880680090012084F8F6
:101B50005100002084F8500038462CE770B5154637
:101B60000E46040003D094F8490010B107E00120AC
:101B700070BD002084F84800204600F01DF804F1F4
:101B800008012068FEF79CFE3146A2682068FEF737
:101B9000CBFED4E901022946236BFEF773FE2168D0
:101BA000A06851F8202042F0010241F820200120D5
:101BB00084F84900002070BDFEF7EABE10B5401E53
:101BC000B0F1807F01D3012010BD4FF0E0246061AF
:101BD0000F21601704F010F80020A0610720206199
:101BE000002010BD70B590F83C20012A32D00124AD
:101BF00080F83C40022280F83D2003685A689D68C6
:101C000022F070060A6832435A60134B02689A4207
:101C100014D0B2F1804F11D0104B9A420ED0104B1D
:101C20009A420BD00F4B9A4208D00F4B9A4205D0E4
:101C30000E4B9A4202D00E4B9A4204D1496825F0CD
:101C400080031943916080F83D40002180F83C10EA
:101C5000084670BD022070BD000001400004004035
:101C600000080040000C004000040140004001401A
:101C70000018004010B5040003D094F83D0010B1E6
:101C800007E0012010BD002084F83C00204600F051
:101C90001FF8022084F83D00211D206801F038FB68
:101CA000012084F8460084F83E0084F83F0084F860
:101CB000400084F8410084F8420084F8430084F82E
:101CC000440084F8450084F83D00002010BD000069
:101CD00008B500680649884208D10648016841F005
:101CE00002010160006800F00200009008BD0000E1
:101CF000000400404038024090F83D10012901D016
:101D000001207047022180F83D1000681149884287
:101D100014D0B0F1804F11D00F4988420ED00F4936
:101D200088420BD00E49884208D00E49884205D01F
:101D30000D49884202D00D49884204D1816801F0E2
:101D40000701062903D0016841F00101016000206C
:101D500070470000000001400004004000080040FF
:101D6000000C004000040140004001400018004009
:101D700070B5044690F83C000025012817D00126D4
:101D800084F83C60022084F83D002068826822F0DC
:101D9000770222F47F4282600868502838D00DDC38
:101DA00020284FD005DC90B3102811D14AE0022042
:101DB00070BD302846D040280AD13BE060282FD0A3
:101DC00070280DD0B0F5805F03D0B0F5005F12D061
:101DD000012584F83D60002084F83C00284670BD51
:101DE000CB68D1E90121206801F0F6FA206881680A
:101DF00041F0770109E0CB68D1E90121206801F0C9
:101E0000EBFA2068816841F480418160E1E719E0E4
:101E1000CA684968206801F0B3FB5021206806E0D9
:101E2000CA684968206801F0BCFB6021206801F0A5
:101E3000DDFACEE7CA684968206801F0A1FB4021BD
:101E40002068F4E7226801461046F0E770B50446C2
:101E500090F83C00002501280FD0012084F83C00B8
:101E60006AB1042A0FD0082A11D00C2A13D00125F8
:101E7000002084F83C00284670BD022070BD206818
:101E800001F0BCFAF4E7206801F0E8FAF0E7206816
:101E900001F01AFBECE7206801F04AFBE8E710B517
:101EA000040003D094F83D0010B107E0012010BDFC
:101EB000002084F83C00204600F01EF8022084F840
:101EC0003D00211D206801F023FA012084F846001E
:101ED00084F83E0084F83F0084F8400084F8410014
:101EE00084F8420084F8430084F8440084F84500F4
:101EF00084F83D00002010BD704770B5040004D088
:101F000094F83D00002510B106E0012070BD84F872
:101F10003C50204600F022F8242084F83D00206840
:101F2000C16821F40051C160204601F04DFB2068DA
:101F3000016921F4904101612068416921F02A0181
:101F400041612068C16841F40051C16025642020CE
:101F500084F83D0084F83E00002070BD10B586B0C6
:101F6000044614216846FEF775F914492068884232
:101F700021D113480021026842F01002026000687B
:101F800000F0100005900E481438026842F001027B
:101F90000260006800F0010005904FF4C0600090FE
:101FA0000220CDE901010320039007200490694637
:101FB0000448FEF74FFD06B010BD000000100140C0
:101FC00044380240000002402DE9F843044690F8EE
:101FD0003D001F4616460D4620284CD1C5B1BEB166
:101FE00094F83C00012846D0012084F83C004FF0D2
:101FF0000008C4F84080212084F83D00FEF72CFE44
:10200000A6848146E684A068B0F5805F03D004E032
:102010000120BDE8F883206928B12E465FF0000555
:1020200084F83C800EE00026FAE78021204601F08B
:1020300051FBA0B9AEB116F8010B21684860E08CE5
:10204000401EE084E08C4B464FF0000200970028D1
:10205000EBD14FF04001204601F03CFB30B10320B2
:10206000D7E735F8020BC0F30800E6E7202084F834
:102070003D000020CDE70220CBE72DE9F0470746E1
:1020800000680D4600EB4116D6F8080501EB410348
:10209000420703EBC5014FF006004FF004084FF074
:1020A000050A07EB810401D541463CE0D6F8081546
:1020B000C90507D54FF48070C6F80805072084F8D5
:1020C00061001CE0D6F80815890603D52020C6F863
:1020D000080518E0D6F808150A074FF0080104D5DE
:1020E000C6F8081584F861A009E0D6F8082552055D
:1020F00014D54FF48060C6F8080584F861102946AD
:10210000386803F0F0F9D6F8080580050ED52946A1
:10211000386803F0E8F94FF40070A0E0D6F808152D
:102120000906F0D58021C6F80815C8E7D6F80805D5
:102130004FF00001C0074FF010094FF001023BD0F3
:10214000386930B1A06CD6F81035C3F31203C01A49
:10215000206584F86120E165C6F8082594F83F0001
:1021600030B1022804D0032809D0012807D012E09A
:102170002946386803F0B7F9C6F808950BE0D6F899
:10218000000540F00050C6F8000584F8602029469C
:102190003846FEF7D3FD3869012806D1B4F840105F
:1021A000A06CB0FBF1F0C00704D014F8540F80F01D
:1021B00001002070BDE8F087D6F80805800735D506
:1021C00094F86100022301280AD005280BD00628C4
:1021D0000CD008280AD003280FD0072818D01CE0FC
:1021E00084F8602019E084F860A016E0E06D401CDF
:1021F000E065022801D9E1650DE084F86030D6F889
:10220000000520F0804040F00040C6F8000504E0E2
:10221000E06D401CE06584F86080C6F8083594F8ED
:10222000602029463846FEF789FDC3E7D6F8080541
:10223000C006BFD594F83F00032803D020B1022880
:1022400002D00BE0E16505E0E165386930B90320B3
:1022500084F861002946386803F045F94846C6F815
:102260000805A7E72DE9F047026802EB4114D4F80E
:10227000082501EB4103550703EBC1034FF00402AE
:102280004FF0060A00EB830304D5C4F8082583F851
:1022900061A051E0D4F808554FF00007AD064FF0AB
:1022A000020C0BD52022C4F8082593F83D20012A02
:1022B00033D183F83D7083F860C03DE0D4F8085511
:1022C000AD0504D54FF40072C4F8082534E0D4F805
:1022D00008554FF001065FEAC5784FF040050DD074
:1022E000DF65D4F80825520603D583F83D60C4F8AD
:1022F0000855C4F8086583F861601DE0D4F80885C6
:102300005FEA48680BD583F8612083F83D60DF659C
:10231000006803F0E8F8C4F80855BDE8F087D4F881
:1023200008554FF008095FEA05784FF0050508D514
:10233000C4F8089583F861500068BDE8F04703F0E1
:10234000D2B8D4F808855FEAC86810D50322DF65E3
:1023500083F8612093F83D2022B993F83C200AB914
:1023600083F83D60006803F0BEF810201AE0D4F84E
:1023700008855FEA086818D5056955B1DD6D6D1CE3
:10238000DD65022D0BD9DF6583F86020FEF7D6FCF2
:1023900007E083F861A0006803F0A5F801E083F886
:1023A00060C08020C4F80805B7E7D4F808855FEA64
:1023B000485807D583F86190006803F094F84FF40B
:1023C0008060EFE7D4F808855FEA8878A5D593F8B0
:1023D0006180B8F1010F0FD0B8F1030F30D0B8F120
:1023E000040F2DD0B8F1050F2DD0B8F1060F2DD068
:1023F000B8F1080F2AD03CE083F8606093F83F20E2
:10240000022A01D0032A34D102692AB993F855204F
:1024100082F0010283F855200269012A29D1DA6C81
:102420003AB3B3F840502A44521EB2FBF5F2D20739
:102430001FD093F8552082F0010283F8552018E050
:1024400083F860C015E083F8605012E0DD6D6D1C0C
:10245000DD65022D03D9DF6583F8602009E083F88C
:1024600060C0D4F8002522F0804242F00042C4F857
:102470000025C4F808C593F86020FEF75FFC4CE720
:102480007CB504680546D4F840040190D4F84004B3
:1024900020F02E0000900198800709D50198C00710
:1024A00002D02846FEF7DEFB009840F002000090C4
:1024B0000198000724D5009840F00800009001988A
:1024C00040071AD5A869022803D0E86801280CD073
:1024D0000FE00198C0F341400228286803D0012191
:1024E00003F0F6F905E00221FAE74EF66020C4F8A1
:1024F00004042846FEF78CFD02E02846FEF784FD22
:1025000001988006009802D540F020000090C4F8A1
:1025100040047CBD2DE9F041024600680646016A90
:10252000C1F3434301F00F07C1F30A15022B31D168
:10253000002D2FD007EB470101EBC70102EB81040F
:10254000616C002926D0226DE36C2A449A4223D87C
:102550002A4603F0DCF9606C28446064206D28444E
:10256000206506EB4710D0F81015B4F84020C1F3F1
:10257000C941AA420ED100290CD0D0F8001521F093
:10258000804141F00041C0F8001514F8540F80F06C
:1025900001002070BDE8F081042084F86000F9E7B4
:1025A000FEE7000000B587B01C216846FDF752FE2B
:1025B00015484FF02041102201601449416000216C
:1025C0008160C160C0E904128161C16113020162CE
:1025D000C0E90913C16201634163816341640F2053
:1025E000FF230090CDE90103CDE903021120CDE9DD
:1025F0000501002269460448FFF7B0FA002801D01F
:10260000FEF72AF907B000BD8C010020040100A0EC
:102610002DE9F04186B014216846FDF71BFE4248C3
:102620000024016841F010010160016801F010010F
:102630000591016841F080010160016801F08001AD
:102640000591016841F001010160016801F001019B
:102650000591016841F004010160016801F0040185
:102660000591016841F002010160016801F0020179
:102670000591016841F00801016000682B4E00F0EF
:10268000080005900022C0213046FEF7E0FADFF88E
:10269000A080002202214046FEF7D9FA012217034A
:1026A00039464046FEF7D3FA1820CDE900046946C2
:1026B00020480294FEF7CEF90125CDE90054694681
:1026C00030460294FEF7C6F9C0200090CDE90154CF
:1026D000694630460394FEF7BDF9202000904FF480
:1026E0000410CDE9010569461348FEF7B3F9022647
:1026F0000096CDE90154694640460394FEF7AAF9D5
:10270000CDE90075CDE9025669464046FEF7A2F9CB
:10271000002211461720FEF717FD1720FEF706FDD1
:1027200006B0BDE8F08100003038024000000240F1
:102730000004024000100240000802400F4810B59B
:102740000D4901604FF48271416000218160C160D8
:102750004FF400720161C0E905122022C0E907218F
:10276000416281620A21C162FEF7C0FF002801D0E8
:10277000FEF772F810BD000000380040A8000020ED
:1027800010B58EB000240794089409940A940B9411
:102790001C2168460C94FDF75DFD18481649C0E9F8
:1027A00000144FF6FF71C0E9024104618461FFF734
:1027B00061FAE8B94FF48050079007A90F48FFF776
:1027C000D7FAA8B90D48FFF76AFB88B90B940BA993
:1027D0000A480C94FFF706FA50B900940194029449
:1027E0000022694605480494FFF730FB002801D019
:1027F000FEF732F80EB010BD0004004000010020CA
:1028000010B501220B490C4801F01CFC08B1FEF781
:1028100023F80A49084802F0DDFB08B1FEF71CF86E
:10282000054802F0B9FC002803D0BDE81040FEF7CF
:1028300013B810BDAD510008400200203C0000203C
:10284000014801F0F7BD000040020020FEE7FEE76E
:102850000148FEF7C1BA00001806002070470000CA
:1028600038B50020FDF7BCFF0120FDF7B9FFC820F7
:10287000FEF77CF80020FDF7A5FF0120FDF7A2FF81
:10288000C820FEF773F80020FDF7AAFF0120FDF72E
:10289000A7FFC820FEF76AF80020FDF793FF01208C
:1028A000FDF790FF03F05AFE03F04CFF012004F007
:1028B00097F84FF6FF74204603F000FF0C4804F031
:1028C000C5F81F21204604F0BBF81F20002100900E
:1028D000142340F23F12084603F00AFF05210220AC
:1028E00004F074F8BDE8384002A004F019B8000004
:1028F0006C0000202053544D33324634205553424F
:102900002046532052544C2D53445220486F737428
:102910000000000070B5D0F87C438578E469012D93
:102920000DD16182202141EA0221A182C0210174DE
:1029300000214174A18A4182618A8182C3821A4640
:1029400004F1160100F042FFE18B218270BD2DE9F8
:10295000F041D0F87C431746069AE4690125002629
:1029600094F80EC0BCF1000F03D0BCF1010F2CD1C4
:1029700024E090F802C0BCF1010F14D141F0100125
:102980006183202141EA0721A183D9B2012A10D015
:102990001B0AA377E177402101744674A18B418221
:1029A000618B8182C28204F11E0100F00FFF10B121
:1029B0000AE0A177EEE70120A07306E001231A46A2
:1029C0000A21FFF7A7FF18B105462846BDE8F081A8
:1029D000A6730025F9E7F8B51346D0F87C23012447
:1029E0000027D5690A462646A5F8481085F84A30DA
:1029F00085F84B7095F86B1011B1012914D109E0DD
:102A000005F14A030621009600F066FB48B985F8F7
:102A10006B6009E005F14C030621009600F07AF99D
:102A200020B1032800D004462046F8BD15F84C0F0D
:102A30003C4605F8010CEF77F6E7000070B5054657
:102A40005EA003F0B7F860A003F0B4F864A003F050
:102A5000B1F8D5F87C130220CC6994F86A100029EB
:102A600027D001294DD0022977D003296DD153A059
:102A700003F0A0F85BA003F09DF859A003F09AF8CA
:102A8000002274212846FFF7A6FF08B103285CD175
:102A900094F84B00692849A07AD003F08BF894F899
:102AA0004B1055A003F086F84DA003F083F80420E6
:102AB00048E042A003F07EF855A003F07BF848A060
:102AC00003F078F80022C6212846FFF784FF08B1FA
:102AD00003283AD194F84B00A12838A00BD003F07A
:102AE00069F894F84B104FA003F064F83CA003F091
:102AF00061F8012026E003F05DF850A003F05AF8D9
:102B0000F4E72EA003F056F854A003F053F834A0D5
:102B100003F050F80022C6212846FFF75CFF08B1F9
:102B2000032812D194F84B00A32824A00FD003F05F
:102B300041F894F84B104EA003F03CF828A003F0A5
:102B400039F8022084F86A00012070BD05E003F026
:102B500031F84DA003F02EF8F0E718A003F02AF8A2
:102B600051A003F027F81EA003F024F8002234211E
:102B70002846FFF730FF08B10328E6D194F84B0050
:102B800069280EA00DD003F015F894F84B1000E062
:102B90000DE04AA003F00EF811A003F00BF803209B
:102BA000D0E703F007F84BA003F004F8F4E703F0D4
:102BB00001F850A002F0FEFF76E7000044454255C0
:102BC00047203A20000000002A2A52544C53445215
:102BD0005F70726F62655F74756E6572730000007E
:102BE0000A00000052544C5344525F50524F424529
:102BF0005F523832384400005238323844206E6F09
:102C00007420666F756E643A2025303258000000DB
:102C100052544C5344525F50524F42455F464330EA
:102C200030313200464330303132206E6F742066CE
:102C30006F756E643A20253032580000466F756E0D
:102C4000642046697469706F77657220464330303E
:102C500031322074756E65720000000052544C537E
:102C600044525F50524F42455F464330303133004B
:102C7000464330303133206E6F7420666F756E645A
:102C80003A20253032580000466F756E6420466940
:102C90007469706F77657220464330303133207429
:102CA000756E65720000000052544C5344525F50E0
:102CB000524F42455F523832305400005238323061
:102CC00054206E6F7420666F756E643A2025303222
:102CD00058000000466F756E642052616661656C35
:102CE000204D6963726F2052383230542074756EF3
:102CF00065720000466F756E642052616661656C96
:102D0000204D6963726F2052383238442074756EDA
:102D100065720000F0B40D46D0F87C138678049CF0
:102D2000C969012E09D12D02CD87C0250574002562
:102D300045744282C98F8182C4822246F0BC194602
:102D400000F044BD2DE9F84FD0F87C134FF0010A94
:102D50004FF00008CC69D14694F8221031B1012916
:102D60004BD0022959D003296BD166E0364E00259D
:102D700056F8257007F18000FF2808D933A002F02B
:102D800019FF35A002F016FF3AA002F013FF6019F8
:102D90006D1C80F82470082DEADB00254FEA060B35
:102DA0000BEB8500D0E9087607F50060B0F5805F91
:102DB00005D216F5006F02DBB6F5006F08DB23A025
:102DC00002F0F8FE24A002F0F5FE2AA002F0F2FEC6
:102DD00005EB450000EBD070390904EB6000AD1C39
:102DE00000F82C1FC6F3032141EA071141708670D9
:102DF000082DD5DB84F822901CE0CDF8009094F8E3
:102E0000232004F12401535C01211C32FFF79FFDB4
:102E100010B9022084F8220013E094F8230013284C
:102E200005D0401C84F8230084F8229009E0032098
:102E300084F8220084F8238003E084F822804FF095
:102E4000000A5046BDE8F88F146C0008444542550E
:102E500047203A2000000000496E76616C696420CA
:102E600046495220636F656666696369656E7421C1
:102E7000000000000A00000008B50122009209B11C
:102E8000182300E0102301221146FFF760FD08BD62
:102E9000F0B52DED028B0746D0F87C0302240E46D8
:102EA000C569012081B095F8542021460A2A7DD2B7
:102EB000DFE802F0056C81868C9197979BAA5B48AE
:102EC000864207D95A48864204D85A485A4930445B
:102ED000884209D859A002F06DFE31465AA002F08E
:102EE00069FE60A002F066FE3046FDF746FB0E4626
:102EF00046EC100B044653EC102B9FED5B8B51EC12
:102F0000180BFDF7CBFAFDF745FB5949084000F0D7
:102F10000061A86540EA4100E865FDF72EFB41EC41
:102F2000100B51EC180B53EC102BFDF7B7FA41ECDA
:102F3000110B46EC104B85ED181B53EC112B51EC8B
:102F4000100BFDF741FB59D03CA002F033FE95ED8C
:102F5000180B48A053EC102B02F02CFE41A002F0FD
:102F600029FE36A002F026FE49A0A96D02F022FE3D
:102F70003CA002F01FFE31A002F01CFE49A0E96D4A
:102F800002F018FE37A002F015FE37E001213846A6
:102F9000FFF772FF88BB15F8540F0124401C05F899
:102FA000040995ED040B51EC100B00E035E0FDF742
:102FB000F1FA286031E0E86EC1683846884703E0DE
:102FC00001213846FFF758FFC0B125E00091A86DF8
:102FD000030C9F220CE00091B5F85800A12283B2A7
:102FE00006E000233F22009002E01423012200901B
:102FF00001213846FFF7ABFCE6E70DE015F8540F6A
:103000000124401C287008E0012200901023114682
:103010003846FFF79CFC28B1044601B02046BDECC1
:10302000028BF0BD002485F85440F6E7E86E0300FB
:1030300000D430001F6CFBFFBF27090044454255F8
:1030400047203A2000000000496E76616C696420D8
:1030500073616D706C6520726174653A20256C75C2
:1030600020487A000A000000000000004077DB42A0
:10307000FCFFFF0F45786163742073616D706C65B0
:1030800020726174652069733A20256620487A00B1
:103090005273616D705F726174696F3A20256C754F
:1030A00020487A005265616C5F7273616D705F7267
:1030B0006174696F3A20256C7520487A0000000021
:1030C00008B50122009209B1032300E0052319226B
:1030D0000021FFF73CFC08BDF0B40C46D0F87C138F
:1030E0008678049DC969012E0CD1102646EA042475
:1030F00021F8404F4024047400244474428209881B
:103100008182C5822A46F0BC194600F05FBBF0B44C
:103110000C46D0F87C1315468678049AC969012EAE
:1031200013D1102646EA04240C87DCB2012A10D001
:103130001B0A81F83A3081F83B4040230374002396
:10314000437445820B8F8382C282F0BC3A3100F017
:103150003DBB81F83A40EEE738B504461248134BC0
:103160000068B0FBF3F04FF47A7358430090606846
:10317000B0F5827F0DD10B460092002280212046BF
:1031800000F016F870B1606D40F02000606503201B
:1031900038BD009830B1401E009020688068C04360
:1031A0000006F6D5002038BD3800002000366E013C
:1031B0002DE9F8431E46914688460446089DFDF7D2
:1031C0004BFD401B351AFDF747FD074625480068B3
:1031D000C0F3CB30684338E0701C37D0FDF73CFDBE
:1031E000C01BA84203D215B1009860B32CE0206840
:1031F000416821F0E00141606068B0F5827F0BD149
:10320000A068B0F5004F02D0B0F5806F04D12068FF
:10321000016821F040010160A06AB0F5005F09D1AA
:103220002068016821F4005101602068016841F4C0
:1032300000510160012084F85100002084F8500002
:103240000320BDE8F8830025401E009020688168B7
:1032500038EA010004D000214945BDD10020F0E743
:103260000121F9E7380000207047FDF705BF000095
:1032700030B593B030216846FCF7ECFF14210CA860
:10328000FCF7E8FF1C480025016841F0805101600F
:10329000006800F0805011901848016841F48041A6
:1032A00001600068022400F4804011900120009029
:1032B000000401908001CDE9064004200890A82078
:1032C000CDE9090407200B906846FEF759F870B95C
:1032D0000CA90F2081E831004FF4A0500F90E002BC
:1032E000109005210CA8FDF761FF002801D0FDF723
:1032F000B3FA13B030BD0000403802400070004007
:103300000248016841F470010160704788ED00E0F7
:10331000F0B50268254C264D264E274F274B4FF01F
:10332000804CA04209D0604507D0A84205D0B042E9
:1033300003D0B84201D0984204D122F0700E4A68FE
:1033400042EA0E02A0421BD0604519D0A84217D015
:10335000B04215D0B84213D0984211D0184DA842AF
:103360000ED0184DA8420BD0174DA84208D0174DCB
:10337000A84205D0164DA84202D0164DA84203D14E
:1033800022F44075CA682A434D6922F080022A431C
:1033900002608A68C2620A688262A04201D09842D2
:1033A00001D10969016301214161F0BD00000140C3
:1033B0000004004000080040000C004000040140F0
:1033C0000040014000440140004801400018004016
:1033D000001C00400020004010B5846842EA03222F
:1033E00024F47F440A432243826010BD826822F0A5
:1033F00070020A4342F0070181607047F0B5026A2B
:1034000022F001020262036A42688469124E24F0CB
:1034100073050C682C4323F002058B682B430D4D7C
:10342000A84201D0B04205D123F00807CB683B4346
:1034300023F00403A84201D0B04205D14D6922F423
:10344000407215438A692A43426084614968416336
:103450000362F0BD0000014000040140F0B5026AC3
:1034600022F010020262026A436884690D6824F443
:10347000E64444EA05248D6822F0200242EA05125F
:103480000F4D104EA84201D0B04206D1CF6822F0B5
:10349000800242EA071222F04002A84201D0B04264
:1034A00007D14D6923F4406343EA85038D6943EAFC
:1034B000850343608461496881630262F0BD000056
:1034C0000000014000040140F0B5026A22F480725D
:1034D0000262026A4368C46922F4007224F0730530
:1034E0000C68124E2C438D6842EA05220E4DA8420C
:1034F00001D0B04206D1CF6822F4006242EA07222E
:1035000022F48062A84201D0B04207D14D6923F471
:10351000405343EA05138D6943EA05134360C461D0
:103520004968C1630262F0BD00000140000401402F
:1035300030B5026A22F480520262046A4268C369AA
:103540000D6823F4E64343EA05238D6824F4005410
:1035500044EA0534084DA84202D0084DA84204D1DF
:103560004D6922F4804242EA85124260C361496893
:103570000164046230BD000000000140000401400D
:1035800010B5036A046A24F001040462846924F01B
:10359000F00444EA021423F00A020A43846102623E
:1035A00010BD10B5036A23F0100303628369046A37
:1035B00023F4704343EA023224F0A00343EA0111EA
:1035C0008261016210BD000070B5044600680169A7
:1035D000E26821F44051114301612169A068E26968
:1035E00008436169114308432168CA6849F20C63C2
:1035F0009A430243CA6020684169A26921F440717C
:103600001143416131492068884202D030498842E3
:1036100002D1FDF775FE01E0FDF762FEE2690023CD
:10362000192164253226B2F5004F626828D0A0FB2C
:103630000101930F9200FCF7C3FD0146B0FBF5F0CA
:103640006FF01802504301EB800006EB0010B0FB56
:10365000F5F000F0F002B1FBF5F002EB0012B1FB67
:10366000F5F06FF01803584301EB800006EB0010F3
:10367000B0FBF5F000F00F0021681044886070BDC9
:10368000A0FB010192185B41FCF79AFD0146B0FBDB
:10369000F5F00201B1FBF5F06FF01803584301EBB0
:1036A000800006EBC000B0FBF5F000F0F80002EB84
:1036B0004002B1FBF5F0584301EB800006EBC0007F
:1036C000B0FBF5F000F00700D6E700000010014065
:1036D000001401402DE9F041984617460E46044675
:1036E000069D27E0681C25D02DB1FDF7B5FAA0EBAB
:1036F0000800A8421ED920680C3050E8001F21F4B1
:10370000D07140E80012002AF5D12068143050E84A
:10371000001F21F0010140E80012002AF5D120200D
:1037200084F83D0084F83E00002084F83C0003202B
:10373000BDE8F0812068006836EA000004D000206F
:10374000B842CFD00020F3E70120F9E710B50022FE
:103750004FF6FF7300EB8204B4F8844324040BD4C7
:103760009A4207D002F00F0300EB830041F40041BE
:10377000C0F88413D0B210BD521CD2B2102AE9D3C3
:103780001A46F7E77FB51C46012501AE00230095D8
:1037900086E80E0002232A46214600F051FD04B0BF
:1037A000002070BD10B500F085FC002010BD7FB575
:1037B0001C46012501AE0023009586E80E002A462E
:1037C000214600F03DFD04B0002070BD70B50446F8
:1037D0000120A3780546012B0BD0022B08D12046EF
:1037E00000F020F958B1032809D0022800D1A570B3
:1037F00070BDA160A28125760221A17070BDA57067
:103800000021217670BD7FB51D4690F81D33089CC0
:1038100003B100240123CDE90031CDE902240023C6
:103820001A46294600F00CFD04B0002070BD1FB5FB
:1038300000231446CDE900310822CDE902231A46BF
:10384000214600F0FDFC04B0002010BDFDF78EB84D
:1038500070B50546002005F54E7500BF00EB8004ED
:1038600004EBC00405EB4404E67B0A348E4201D02D
:10387000FF2909D1A679964201D0FF2A04D1E47923
:103880009C4206D0FF2B04D0401CC0B20228E5D3D6
:10389000FF2070BD102907D200EB8100B0F884131F
:1038A000C1F30E01C0F884130020704730B485784E
:1038B000029C012D0FD141F0800101740621417459
:1038C00003214282B1EB122F02D140F2094100E004
:1038D00000218182C482224630BC1946FFF776BFA0
:1038E0000A8803781A440A80017808447047F8B5BA
:1038F0000E4600F11C040091054623464FF4007269
:103900000021FFF7D3FF002806D132462146284682
:10391000BDE8F84000F0AFBCF8BD38B50D460091E9
:10392000044600F58E734FF480720021FFF7BEFF4E
:10393000010044D194F81C0184F8260394F81D0179
:1039400084F82703B4F81E01A4F8280394F8200192
:1039500084F82A0394F8210184F82B0394F82201B7
:1039600084F82C0394F8230184F82D03082806D04A
:10397000102804D0202802D0402800D0402084F80D
:103980002D03082D1BD9B4F82401A4F82E03B4F894
:103990002601A4F83003B4F82801A4F8320394F8FF
:1039A0002A0184F8340394F82B0184F8350394F841
:1039B0002C0184F8360394F82D0184F83703084667
:1039C00038BDF8B51C461646009341F4407200F528
:1039D0008E731D460021FFF769FF002814D1697816
:1039E000032911D129788A1EA24200D81446002149
:1039F000A2B2AD1C04E06B5C891C06F8013B89B2E5
:103A00009142F8D300213170F8BD01004FF0000061
:103A100004D0012901D0022901D0022070470120E1
:103A2000704700002DE9F84F0125017E04460B2662
:103A3000092728464FF007084FF0050A4FF00D09F7
:103A40000C2919D2DFE801F0BD060E26313C486092
:103A50006B7C899A627904F110012046FFF7E7FE3A
:103A6000022012E06179204600F069FB012804D0B1
:103A7000042871D002287FD0A3E0207CE18A00F0E6
:103A8000800021B180283AD10320207699E0802857
:103A900014D02EE0D4F8C403E0812379A289204613
:103AA000A168FFF784FE0420EFE72179204600F0AB
:103AB00046FB012802D0052840D056E0277680E05A
:103AC00000906379A2892046A168FFF79CFED4F894
:103AD000C403E0810620D8E76179204600F02FFB7F
:103AE000012806D0052807D0022808D0042809D0CC
:103AF00067E084F8188064E00C2020761EE084F8EB
:103B000018A05EE026765BE000222379114620466D
:103B1000FFF74DFED4F8C403E0810820B5E7217912
:103B2000204600F00CFB012804D0042824D00528EE
:103B300004D046E084F81890002542E0032540E0D8
:103B400000900022637911462046FFF75CFED4F80E
:103B5000C403E0810A2098E70EE06179204600F076
:103B6000EEFA012804D00228A8D0042804D028E0C6
:103B7000002584F8189024E0267622E0617E491C16
:103B8000C9B26176022902D82076A07019E0D4F873
:103B9000D423062120469047002565760AA002F02E
:103BA00009F80BA002F006F813A002F003F86179FF
:103BB0002046FFF76FFE21792046FFF76BFE257048
:103BC00002252846BDE8F88F4552524F523A200050
:103BD000436F6E74726F6C206572726F723A20441C
:103BE0006576696365206E6F7420726573706F6EA1
:103BF00064696E67000000000A0000002DE9FE43C2
:103C00000126417800250D270446B04600F58E793F
:103C100008290CD2DFE801F0042C5EA2C3E0F4ED29
:103C200008212046FFF779FE10B1032806D016E1DF
:103C300094F82D03A07184F8018062E08BA001F05C
:103C4000B9FF8CA001F0B6FF97A001F0B3FF94F884
:103C50001E03401CC0B284F81E03032875D8617986
:103C60002046FFF717FE21792046FFF713FEB1E04B
:103C700012212046FFF751FE10B1032812D0EEE0CA
:103C8000B4F8301389A001F095FF87A001F092FFEE
:103C9000B4F82E1388A001F08DFF83A001F08AFFF5
:103CA000022061E071A001F085FF86A001F082FF93
:103CB0007DA001F07FFF94F81E03401CC0B284F881
:103CC0001E03032863D88EA001F074FF76A001F0D4
:103CD00071FF76E00121204601F034FA10B103288B
:103CE00029D0BCE00220FFF7B1FD414684F81C83D7
:103CF00088A001F05FFF6CA001F05CFF0320607002
:103D0000A07994F81D130091CDE9015094F81C336B
:103D100021798022204600F0A4FAA07994F81D139E
:103D20000091CDE9015094F81C33617900222046BE
:103D300000F097FA93E04DA001F03CFF7BA001F06A
:103D400039FF59A001F036FF00E020E084A001F027
:103D500031FF55A001F02EFF277065E009212046B4
:103D6000FFF7C5FD08BB0420607078E03FA001F0BC
:103D700021FF8B4801F01EFF4BA001F01BFF94F8C0
:103D80001E03401CC0B284F81E03032819D974A076
:103D900001F010FF44A001F00DFF27705FE0B4F8C0
:103DA0003A132046FFF7A3FD10B10328DED056E0FA
:103DB000052060707BA001F0FDFE3BA001F0FAFE43
:103DC0004DE061792046FFF765FD21792046FFF738
:103DD00061FD6570257042E094F83413062569B1E1
:103DE000FF234A462046FFF7ECFD20B1032805D00B
:103DF00035E020E004E0494676A010E07AA015E026
:103E000094F835130725A1B1FF234A462046FFF752
:103E1000D8FD10B103280CD021E0494677A001F06D
:103E2000C9FE21A001F0C6FE657018E001F0C2FED7
:103E3000F7E776A0FAE794F8361399B1FF234A46DC
:103E40002046FFF7BEFD10B103280BD007E049461E
:103E500072A001F0AFFE14A001F0ACFE00263046C7
:103E6000BDE8FE8372A001F0A5FEF4E74552524F73
:103E7000523A2000436F6E74726F6C206572726FDD
:103E8000723A20476574204465766963652044650D
:103E90007363726970746F72207265717565737483
:103EA000206661696C6564000A0000005049443A6C
:103EB00020257868000000005649443A202578689B
:103EC00000000000436F6E74726F6C206572726F39
:103ED000723A204765742046756C6C20446576699B
:103EE00063652044657363726970746F72207265D4
:103EF0007175657374206661696C6564000000000B
:103F00004672656520636F6E74726F6C20706970A5
:103F100065732E00416464726573732028232564E1
:103F2000292061737369676E65642E00436F6E7438
:103F3000726F6C206572726F723A204465766963A5
:103F400065205365742041646472657373207265E3
:103F50007175657374206661696C656400000000AA
:103F6000436F6E74726F6C206572726F722C204496
:103F70006576696365206E6F7420526573706F6E2D
:103F800064696E6720506C6561736520756E706C36
:103F9000756720746865204465766963652E000046
:103FA000848B000870686F73742D3E456E756D5379
:103FB00074617465203D20454E554D5F4745545F03
:103FC0004D46435F535452494E475F444553432E39
:103FD000000000004D616E756661637475726572F4
:103FE000203A2025730000004D616E756661637490
:103FF00075726572203A204E2F41000050726F6436
:10400000756374203A2025730000000050726F64BD
:10401000756374203A204E2F410000005365726989
:10402000616C204E756D626572203A202573000028
:1040300053657269616C204E756D626572203A201D
:104040004E2F410070B50E46040018D084F8CC23E2
:104050000025C4F87C53C4F8805304F54874FCF779
:10406000CFFBE57025706570A570A4F548740EB19E
:10407000C4F8D463204600F075F8002070BD05A098
:1040800001F098FD05A001F095FD09A001F092FD59
:10409000022070BD4552524F523A2000496E76615F
:1040A0006C696420486F73742068616E646C65008D
:1040B0000A00000010B5D0F8D003FCF7F2FDBDE80F
:1040C0001040FFF7A2BC012180F82013002180F8E6
:1040D000211380F822130846704710B504460120CA
:1040E00084F82103002084F8200384F82303204669
:1040F00000F09DF821792046FFF7CCFB617920463E
:10410000FFF7C8FB002010BD10B5C820FCF72EFC3F
:10411000002010BDD0F8D003FCF7BBBD10B50124C2
:10412000D0F8D003FCF7A9FD20B1012805D0022862
:1041300003D101E0002400E00224204610BDD0F8A5
:10414000D003FCF79DBDD0F8C413491CC0F8C413BC
:1041500001780B2905D1D0F87C13002901D0896999
:104160000847704710B5044690F8CC0301281CD1CD
:104170000F484FF0A0410022C0F80043C4F8D0031C
:104180000160082181600121C0E903120221C0E918
:104190000612FCF7BEFE08B1FCF75EFB0448FCF714
:1041A00069FD0146204600F024F8002010BD000003
:1041B00018060020FEB508AF97E870008DE8700083
:1041C000D0F8D003FCF77FFDBDE8FE40FFF71DBC33
:1041D000002180F823137047012180F823137047D2
:1041E00010B5D0F8D003FCF717FFBDE81040FFF77B
:1041F0000CBCC0F8C4137047D0F8D00301EB4103E6
:1042000003EBC10100EB810090F83B1011B180F885
:10421000542001E080F855200020704710B5D0F8F8
:10422000D003FCF700FFBDE81040FFF7EEBB10B570
:10423000D0F8D003FCF70DFFBDE81040FFF7E5BB59
:104240002DE9FF410DF1280898E8F0008DE8F00015
:10425000D0F8D003FCF773FD04B0BDE8F041FFF7E0
:10426000D4BBFEB508AF97E870008DE87000FFF78B
:10427000A1FF0020FEBD2DE9F74F82B00878029D16
:104280004FF0000B0C4685F83803487885F8390361
:104290004888D84605F54E75FF2801D94FF480703F
:1042A000688008792871487968718879A871C87917
:1042B000E871207A287229780920092900D028700D
:1042C000092A7CD98146ADF800005FE069462046A6
:1042D000FFF706FB04464078042854D120780928CB
:1042E00001D084F8009008EB880101EBC80005EBD1
:1042F000400A20788AF80A0060788AF80B00A078D3
:104300008AF80C00E0788AF80D0020798AF80E000F
:1043100060798AF80F00A0798AF81000E0790AF134
:104320000A068AF81100207A307200271CE06946DC
:104330002046FFF7D5FA04464078052814D1707955
:10434000012802D1B079022830D02078072801D086
:10435000072020700AEBC70122461431029800F0B2
:1043600031F87F1C8346FFB23079B84204D968889F
:10437000BDF800108842DAD83079B84211D808F177
:10438000010000F0FF08B8F1020F04D26888BDF800
:10439000001088429AD82879022800D3022040458C
:1043A0000DD9032005B0BDE8F08F08E0F0790028B2
:1043B000D0D120780928CDD084F80090CAE758469B
:1043C000F0E70000F0B513780B7053784B709378DA
:1043D0008B70D478CC7095888D80064693790020B8
:1043E0008B71D5B16FF30A058D8092884FF40077F9
:1043F000C2F30A02BA4200D33A461543A1F8045068
:1044000096F81D13002904F0030108D001290BD0F0
:10441000E143890700D153B1F0BD0320F0E7012942
:1044200002D0E1438907F7D10BB1102BF4D9032057
:10443000F0BD00002DE9FE434FF0020804468DF860
:10444000008094F821130020012901D1032121705B
:1044500021780D26082700250C291DD2DFE801F060
:10446000061D49FD1C7FFCA1AAB5D4FB94F82003CE
:10447000002811D0AEA001F09DFBB3A001F09AFB83
:1044800001202070C820FFF7E1F92046FFF7A8FEC1
:1044900084F81C53C4F8C85341E194F8230301285D
:1044A00014D0D4F8C803B0F57A7F1BD994F81F0351
:1044B000401CC0B284F81F03032811D9A3A001F047
:1044C00079FBA1A001F076FB267028E1AAA001F0FB
:1044D00071FB9DA001F06EFB84F81F534046E9E09C
:1044E00025701CE10A30C4F8C8030A20FFF7AEF9B2
:1044F00015E1D4F8D42312B104212046904764205A
:10450000FFF7A4F92046FFF709FE84F81D030520F4
:10451000207000212046FFF719F9607180212046A4
:10452000FFF714F920710146A07994F81D23009239
:10453000CDE9015094F81C3380222046FFF791FE0C
:10454000A07994F81D130091CDE9015094F81C3323
:10455000617900222046FFF784FE8EA017E02046F6
:10456000FFF74CFB8DF800009DF80000002893D168
:104570008DA001F01FFB74A001F01CFB84F82453F4
:1045800094F83703012805D0072020708BA001F094
:1045900011FB66E08FA001F00DFB6BA001F00AFBA0
:1045A00006E0D4F8D423002A8FD00121204690477A
:1045B0002770B4E094F83D13204600F0D1FD0028A8
:1045C0008FD1092020708DA0E1E794F83F034FF0D0
:1045D0000A05800616D50121204600F0CFFD8DF892
:1045E00000009DF8000020B19DF80000032807D0CE
:1045F00095E089A001F0DEFA53A001F0DBFA6FE745
:104600008DA0F7E797A0F5E7D4F8801391B1C4F82F
:104610007C5394F8471300BF04EB8002D2F8782350
:1046200012798A4208D104EB8000D0F87803C4F8EC
:104630007C0306E090A0AAE7401C10F0FF00EBD03E
:10464000284618B381682046884770B12670D4F890
:104650007C03016802E03BE01BE040E08EA001F03B
:10466000A9FA39A001F0A6FA59E006202070D4F882
:104670007C03016890A001F09DFA33A001F09AFA42
:10468000D4F8D42303212046904748E026708FA019
:104690007DE7D4F87C03A8B10169204688478DF8EE
:1046A00000009DF8000020B19DF80000022803D012
:1046B00035E00B20207032E026708EA001F07AFAEF
:1046C0008EA064E726708BA001F074FA95A05EE7D7
:1046D000D4F87C0318B34169204688471FE084F86A
:1046E00021532046FCF78CF8D4F87C0320B1C16834
:1046F00020468847C4F87C53D4F8D42312B105214E
:10470000204690478DA001F055FA0FA001F052FA13
:1047100094F82203012805D02046FFF77FFD0020F2
:10472000BDE8FE8384F82253204600F035FDF6E70D
:104730005553422044657669636520436F6E6E650C
:1047400063746564000000000A00000055534220B5
:104750005265736574204661696C65642C20506CE9
:104760006561736520756E706C756720746865206F
:104770004465766963652E00555342204465766929
:10478000636520526573657420436F6D706C65744A
:1047900065640000484F53545F4445565F4154548C
:1047A00041434845442E0000456E756D6572617445
:1047B000696F6E20646F6E652E0000005468697327
:1047C0002064657669636520484F53545F494E50B5
:1047D00055542E00546869732064657669636520BA
:1047E000686173206F6E6C79203120636F6E66692B
:1047F0006775726174696F6E2E00000044656661B2
:10480000756C7420636F6E66696775726174696F29
:104810006E207365742E00004465766963652072AE
:10482000656D6F74652077616B65757020656E616D
:10483000626C65640000000052656D6F74652077DE
:10484000616B657570206E6F7420737570706F7218
:104850007465642062792074686520646576696394
:1048600065000000484F53545F434845434B5F4346
:104870004C415353000000004E6F20436C61737332
:1048800020686173206265656E2072656769737464
:10489000657265642E000000446576696365206E6C
:1048A0006F7420737570706F7274696E67202573F2
:1048B00020636C6173732E00257320636C617373C6
:1048C00020737461727465642E0000004E6F207254
:1048D00065676973746572656420636C61737320C6
:1048E000666F722074686973206465766963652EEB
:1048F000000000004552524F523A2000446576694C
:104900006365206E6F7420726573706F6E64696E7C
:104910006720506C6561736520556E706C75672EED
:1049200000000000496E76616C696420436C61731D
:1049300073204472697665722E0000005553422040
:1049400044657669636520646973636F6E6E656341
:10495000746564002DE9F843814681A001F02AF9CD
:1049600082A001F027F988A001F024F9D9F87C038E
:1049700002273C46C669307B00F0A0FC78A001F01D
:1049800019F9317B81A001F015F97FA001F012F92E
:10499000317B022029B1002401296ED002293CD1AB
:1049A000CAE096F80DC001254FF4005141F2020310
:1049B00042F24812BCF1220F22D2DFE80CF01111B2
:1049C000152F31363C3F44484A4E52565A5F636772
:1049D0006B6F73777B83878B9095999CA2A72FAC85
:1049E00009230A46009598E0022342F258120090EB
:1049F00093E04846FEF78BFB04006FD0012C0CD0EF
:104A000057A001F0D7F8717B224667A001F0D2F8D9
:104A10005DA001F0CFF8270072D09DE000907CE00F
:104A2000222343F20B02009503E0E8234FF44052A7
:104A300000950221DDE71423009501E01023009585
:104A4000012201213AE0002315220095F9E70090A8
:104A500000E0009500231622F3E7002317220095BB
:104A6000EFE7002318220095EBE7002319220095B9
:104A7000E7E700231A220095E3E752E000231B2218
:104A80000095DEE74846FEF75DF9B5E705231922F4
:104A9000009512E0F02393220095D2E70F23942291
:104AA0000095CEE7002311220095CAE700230422D7
:104AB0000095C6E760236122009500214846FDF776
:104AC00046FF99E7802306220095F6E71B23B122D3
:104AD0000095B6E783230D220095EEE71FE0012144
:104AE0004846FEF7C9F987E74846FDF7A7FF83E781
:104AF000F06E416801E0F06E8168484688477BE7C8
:104B000025E032494846FEF7C3F975E701214846DA
:104B1000FEF7D6FA70E700230090012169E73573AC
:104B200005E0717B212904D0491C7173347301277E
:104B300012E030737473FAE709A001F03BF824A087
:104B400001F038F810A001F035F834730027D9F8D7
:104B5000D4234846022190473846BDE8F883000038
:104B60004445425547203A20000000005553424832
:104B70005F52544C5344525F436C6173735265717E
:104B800075657374000000000A00000052544C5315
:104B900044525F48616E646C652D3E72657153745A
:104BA0006174652025640000577269746520466150
:104BB000696C207265714E756D6265723D25642C5D
:104BC000206572726F723D256400000080A90300A9
:104BD00052544C53445220496E697420436F6D7097
:104BE0006C6574650000000070B50546D0F87C0364
:104BF0000026C469217839B12846FEF7D3FD217813
:104C00002846FEF747FE2670D5F87C03C06920B120
:104C100001F07CFCD5F87C03C661002070BD00006B
:104C20002DE9FE43FF2306464FF000091A461946B8
:104C3000FEF70EFE0746FF2854A07DD000F0BAFF15
:104C4000D6F87C03016854A000F0B4FF5AA000F02D
:104C5000B1FF3946304600F0FBF9C02001F092FF69
:104C6000D6F87C1300254FF00208C86185730573E0
:104C7000457380F8225080F8235080F86A8080F8CD
:104C80006B50C56680F8BC50044680F8545007EB62
:104C9000870000EBC70006EB400191F84E030206C7
:104CA00003D56070B1F85003608038A000F082FF37
:104CB0006288617841A000F07DFF3FA000F07AFF9C
:104CC00061783046FEF742FD2070628896F81D3309
:104CD000CDE900380292014696F81C3362783046DE
:104CE000FFF7BFFA3C48A0604FF400706060217885
:104CF00000223046FFF780FA3848016841F002018F
:104D000001600068374900F00200009034480068F4
:104D1000B0FBF1F034492167401EC4F8B8003349B4
:104D2000C4E91F15C4E91D0504F17000C4F88450DE
:104D30000446FCF79FFF00E013E040B113A000F031
:104D400039FF2BA000F036FF1BA000F033FF2046F8
:104D5000FCF7D2FF00280DA00CD000F02BFF2AA0FA
:104D60000BE000F027FFD6F87C0301682CA000F0D0
:104D700021FF04E000F01EFF33A000F01BFF0EA097
:104D800000F018FF4846BDE8FE8300004445425548
:104D900047203A20000000002A2A466F756E6420E2
:104DA000696E7465726661636520666F7220636CFC
:104DB0006173733A202573000A0000005364722067
:104DC00045503A203078253032582C2053697A6586
:104DD0003A2025640000000000F807C04038024077
:104DE00038000020400D0300000400409F860100B1
:104DF000556E61626C6520746F20696E6974205411
:104E0000696D657220330000556E61626C652074B7
:104E10006F2073746172742054696D657220330061
:104E200043616E6E6F742046696E642074686520FD
:104E3000696E7465726661636520666F7220636C6B
:104E40006173733A2025730053746172742054693E
:104E50006D657220330000002DE9F0410746022500
:104E60003BA000F0A7FE3DA000F0A4FE41A000F092
:104E7000A1FED7F87C030026C46994F8BC0020B1D9
:104E8000012812D0022860D153E0206F4662A0882A
:104E9000237882B23846A168FEF774FC05460120EB
:104EA00084F8BC00A4F868604FE0B4F86800401CC7
:104EB000A4F8680021783846FFF741F9012802D0AC
:104EC00004282CD041E022A000F074FEA0684278B3
:104ED000017829A000F06EFE26A000F06BFE1CA059
:104EE00000F068FE21783846FFF714F96421484342
:104EF000216F496AB0FBF1F521783846FFF70AF9CE
:104F000001462A4622A000F055FE1AA000F052FEEB
:104F1000206F46620025022084F8BC0015E00CA03A
:104F200000F048FE21A000F045FE12A000F042FE75
:104F30000BE007A000F03EFE1FA000F03BFE0DA01E
:104F400000F038FE84F8BC6000252846BDE8F081FA
:104F50004445425547203A2000000000456E7465E4
:104F6000722052544C5344525F50726F6365737396
:104F7000000000000A0000005866657220636F6D33
:104F8000706C657465202530325820253032580009
:104F90005866657220636F6D706C6574652025645A
:104FA00020422C202564206B422F730058666572C6
:104FB000206572726F72000052544C5344525F5815
:104FC0004645525F434F4D504C455445000000004C
:104FD0000020704710B50022A1B1D0F8803353B142
:104FE0000BA000F0E7FD0CA000F0E4FD11A000F024
:104FF000E1FD022204E00123C0F88033C0F87813F9
:10500000104610BD02A000F0D5FD0BA0ECE700009B
:105010004552524F523A20004D617820436C6173E3
:1050200073204E756D626572207265616368656498
:10503000000000000A000000496E76616C6964207F
:10504000436C6173732068616E646C6500000000DE
:1050500070B5054690F83C030C460026A04227D9BF
:1050600085F82443214618A000F0A4FD1EA000F0FE
:10507000A1FD04EB840000EBC40005EB40041BA081
:1050800094F8471304F2473400F094FD16A000F0A2
:1050900091FD617819A000F08DFD13A000F08AFD4C
:1050A000A1781AA000F086FD0FA000F083FD09E0B2
:1050B0001AA000F07FFD1BA000F07CFD0AA000F00C
:1050C00079FD0226304670BD537769746368696E56
:1050D0006720746F20496E7465726661636520286D
:1050E00023256429000000000A000000436C61735E
:1050F00073202020203A20257868000053756243F1
:105100006C617373203A20257868000050726F74C8
:105110006F636F6C203A2025786800004552524F2B
:10512000523A200043616E6E6F742053656C656364
:1051300074205468697320496E7465726661636592
:105140002E0000008278012A06D100220274052375
:10515000437441828282C28200221146FEF736BB2E
:105160008278012A06D10022027409234374418205
:105170008282C28200221146FEF728BB8278012A71
:1051800006D1002202740323437441828282C282C8
:1051900000221146FEF71ABB10B50446FFF73EF891
:1051A00001212046FEF7B0FF002010BD70B5124D62
:1051B0000C462878814218D0072C18D2DFE804F07A
:1051C0001704060A0C0E10000CA000E013A000F05B
:1051D000F1FC07E017A0FAE71DA0F8E722A0F6E728
:1051E00027A0F4E72DA000F0E5FC2C7070BD2CA0EA
:1051F00000F0E0FCF6E7000020000020484F535488
:105200005F555345525F53454C4543545F434F4EA2
:1052100046494755524154494F4E0000484F535458
:105220005F555345525F434C4153535F414354498B
:1052300056450000484F53545F555345525F434C09
:105240004153535F53454C454354454400000000CF
:10525000484F53545F555345525F434F4E4E45435D
:1052600054494F4E00000000484F53545F5553457A
:10527000525F444953434F4E4E454354494F4E00AD
:10528000484F53545F555345525F554E5245434F17
:1052900056455245445F4552524F52000A000000A5
:1052A000556E6B6E6F776E2055534248205573656F
:1052B000722053746174653A2025640070B50D4CFA
:1052C00005460026606885420DD10B49206888425A
:1052D0000CD10AA000F06EFC29460BA000F06AFC7D
:1052E00012A000F067FC2660656070BD401C206065
:1052F000FAE700005C000020A0860100444542550A
:1053000047203A2000000000436C617373526571BE
:10531000756573742073746F707065642061742098
:1053200073746174653A2025640000000A0000006F
:1053300070B5044606990A9E049D0D98012916D061
:10534000E06840F04000E060204600F02BF8A16BE0
:105350001EB321F48031A163012D07D1A16841F072
:105360000601A160A16841F02001A16070BDA16BA0
:1053700021F48031A163E168094A1140E160E168EC
:1053800021F44011E160012803D1E06840F480106D
:10539000E060204600F006F8DEE741F48031DAE70D
:1053A000BFFFBDFF08B500220D490092009B5B1CAA
:1053B00000938B420CD80369002BF7DA0092026944
:1053C00042F001020261009A521C00928A4201D905
:1053D000032008BD0269D207F5D1002008BD0000F6
:1053E000400D0300816821F00101816000207047B9
:1053F00000EB4110064AC0F81025D0F8001521F046
:10540000804141F00041C0F80015002070470000C5
:105410000000088008B5D0F8402422F02E02009247
:10542000D20405D4012909D1009941F4805103E047
:1054300021B9009921F48051C0F84014002008BD22
:10544000816841F0010181600020704708B50022A9
:105450000C490092009B5B1C00938B420AD80369A5
:10546000002BF7DA009210220261009A521C00927F
:105470008A4201D9032008BD0269D206F5D4002072
:1054800008BD0000400D030018B500230D4A00932D
:10549000009C641C009494420CD80469002CF7DA38
:1054A0000093202343EA811101610099491C009176
:1054B000914201D9032018BD01698906F5D4002065
:1054C00018BD0000400D0300D0F8080480B27047FA
:1054D00008B5D0F840040090C0F3414008BD4069D1
:1054E00000F00100704718B5002200EB4111009256
:1054F000D1F80025D1F80035C2F381428468DB0F72
:10550000A40600D51BB34FF47A736AB1022A0BD0FC
:10551000D1F8002542F08042C1F80025D0F81004EF
:1055200010F47F0F2BD00CE0D1F8002542F0804220
:10553000C1F800258268920609D4C06A10F47F0F72
:1055400007D0D1F8000540F00040C1F80005002068
:1055500018BDD1F8000520F00040C1F80005D1F8D1
:10556000000540F00040C1F800050098401C009084
:105570009842ECD8D1F800050028F6DBE7E7D1F82F
:10558000000520F00040C1F80005D1F8000540F00A
:105590000040C1F800050098401C00909842D6D801
:1055A000D1F800050028F6DBD1E700002DE9F04333
:1055B0001E46DDE90785002700EB41147B1EDDF860
:1055C0002490C4F8083505B3012D39D0022D1CD024
:1055D000032D2ED05FF00107D4F80C3543F0020301
:1055E000C4F80C35D0F8183401F00F0C012101FA81
:1055F0000CF10B43C0F81834816941F000718161EE
:1056000011062AD54FF4004128E040F29D43C4F82A
:105610000C35130605D500BFD4F80C3543F4807360
:1056200018E0C36BDB05D7D5D4F80C3543F0600325
:1056300010E040F29D63C4F80C351306ECD4CBE7C0
:1056400040F22523C4F80C351306C5D5D4F80C3523
:1056500043F4C073C4F80C35BEE70021FFF738FFF0
:10566000B8F1020F04D1022802D04FF4003000E05C
:1056700000204FF0FE5303EA86534FF4F04606EA4B
:10568000C22213434FF4402202EA85421343C9F376
:105690000A0213430B430343C4F80035032D01D022
:1056A000012D05D1D4F8000540F00050C4F80005E4
:1056B0003846BDE8F083D0F8140480B27047F8B5DE
:1056C0004C78C56B4FF48073ED0515D50D799DB9F8
:1056D000012A01D06AB10FE0CD790DB1022D0BD1B5
:1056E00000EB4415D5F80C6526F07006C5F80C657E
:1056F00002E04D79012D0DD04E697EB10D897719EB
:105700007F1EB7FBF5F7BFB29F4208D91F462B0299
:105710000B6104E02146FFF76BFE6EE00127CB78BA
:105720001BB10B897B430B6101E033460E61C3F370
:1057300012056FF0604303EAC7431D438B7A4FF0B5
:10574000C04606EA43731D4300EB4413C3F81055EB
:1057500012B1CC68C3F81445D0F80844D3F800550A
:1057600044F3000425F00055C3F80055D3F8005564
:10577000641C45EA4474C3F80045D3F8004524F09E
:1057800080440094CC78002C009C02D044F4004467
:1057900001E024F4004444F000440094C3F80045C0
:1057A0005ABBCA784ABB4A693AB3CB7933B1012BA9
:1057B0000FD0022B02D0032B17D10AE0D21CC36AF0
:1057C000C2F38F029BB293420FD2826942F0200251
:1057D0000AE0D21CD0F81034C2F38F029BB293427D
:1057E00003D2826942F080628261002200928A8A3A
:1057F00093B24A78C96800F035F90020F8BD00007E
:105800002DE9F0410025DDF81880174604462E46A4
:10581000C0F8005E806B40F40010A063A06B20F421
:105820000020A063A06B20F48020A063E06BC00583
:1058300001D5012B04D0D4F8000420F0040103E0CA
:10584000D4F8000440F004012046C4F800141021EC
:10585000FFF71AFE00B101252046FFF7F7FD00B162
:1058600001250020411E06E004EB4012C2F8081595
:10587000C2F80C65401C8742F6D8A6616161E06BF6
:10588000C00506D54FF4007060620C48A0620C4859
:1058900004E0802060620B48A0620B48C4F800015D
:1058A000B8F1000F03D1A06940F01000A061A06919
:1058B00006490843A0612846BDE8F08100020001C6
:1058C0000003E00080006000E0004000080020A32A
:1058D000D0F8002422F00302C0F80024D0F80024FD
:1058E00001F003031A43C0F80024012902D0022961
:1058F00003D006E04BF6803101E041F27071C0F850
:10590000041400207047416980690840704730B531
:1059100003460846940802F00301002203F5805371
:1059200003E01D6840F8045B521CA242F9D3002931
:105930000BD01C680022D50024FA05F3491E521C26
:10594000090400F8013B090CF5D130BD38B5044617
:10595000D0F8400420F02E00009040F48070C4F88D
:105960004004642004F58864FBF700F8009820F4F4
:10597000807020600A20FAF7F9FF002038BD70B56A
:105980000446C068002520F0C040E060012901D035
:1059900079B120E0E06840F00050E0600120FAF7C3
:1059A000E5FF60696D1C10F0010F10D1322DF5D3A9
:1059B0000DE0E06840F08040E0600120FAF7D6FF9B
:1059C00060696D1C10F0010F01D0322DF5D3322D1E
:1059D00001D0002070BD012070BD38B500250446FF
:1059E0000095806820F00100A06010212046FFF79C
:1059F0004BFD00B101252046FFF728FD00B1012530
:105A0000002004EB4011D1F8002522F0802242F062
:105A10008042C1F80025401C0F28F2D900204FF425
:105A20007A7304EB4011D1F8002522F4004242F0D1
:105A30004042C1F80025009A521C00929A4203D8B5
:105A4000D1F80025002AF6DB401C0F28E9D94FF0D9
:105A5000FF30C4F814046061A06840F00100A06049
:105A6000284638BD10B5029C74B9DB1C9C0800EBBD
:105A70000230002300F5805004E000BF51F8042BF1
:105A800002605B1CA342F9D3002010BDFEE70000BA
:105A90002DE9FE4F8A46834600224FF480513C4850
:105AA000FBF7D5F800273C463E464FF020083D4620
:105AB00000F074F880B3761C4FF0FF39F6B24B4615
:105AC000012234493448FBF7A5FE3249022301AADA
:105AD000491C3148CDF80090FBF74FFF2D494B464C
