:020000040800F2
:10000000A808002035020008574C0008E73F000808
:10001000554C00087D220008C55200080000000071
:10002000000000000000000000000000754F000804
:10003000B722000800000000594C0008774F000864
:100040004F0200084F0200084F0200084F0200084C
:100050004F0200084F0200084F0200084F0200083C
:100060004F0200084F0200084F02000881220008DA
:100070004F0200084F0200084F0200084F0200081C
:100080004F0200084F0200084F0200084F0200080C
:100090004F0200084F0200084F0200084F020008FC
:1000A0004F0200084F0200084F0200084F020008EC
:1000B0004F0200084F0200084F0200084F020008DC
:1000C0004F0200084F0200084F0200084F020008CC
:1000D0004F0200084F0200084F0200084F020008BC
:1000E0004F0200084F0200084F02000800F002F81B
:1000F00000F090F80AA090E8000C82448344AAF132
:100100000107DA4501D100F085F8AFF2090EBAE82F
:100110000F0013F0010F18BFFB1A43F0010318473B
:100120001071000030710000103A24BF78C878C107
:10013000FAD8520724BF30C830C144BF04680C60ED
:10014000704700000023002400250026103A28BF35
:1001500078C1FBD8520728BF30C148BF0B60704739
:100160006E2900F08D82702900F0D783662905F092
:100170003585652905F03285672905F02F856129C8
:1001800005F02E8503681B0A28BF41F0800169290C
:1001900000F03A82642900F03782752900F0348239
:1001A0006F2900F06483782900F0A383E92900F027
:1001B000FF82E42900F0FC82F52900F0F982EF29A2
:1001C00000F06183F82900F0A2830368DB0928BFEF
:1001D00041F08001632901F0F180732901F0F6807C
:1001E000E32901F00181F32901F006810020704725
:1001F0001FB501F00DFB04000020002105F0D8FC24
:10020000401C60600020002105F0BCFCE0601FBDC8
:1002100010B510BD01F0CEFA1146FFF7E9FF05F069
:10022000D3FB01F0ABFB03B4FFF7F2FF03BC01F01B
:10023000B3FB00000948804709480047FEE7FEE796
:10024000FEE7FEE7FEE7FEE7FEE7FEE7FEE7FEE786
:1002500004480549054A064B70470000F34F000863
:10026000ED000008A8020020A8080020A804002033
:10027000A80400207CB51D4616460C00009001D055
:100280002044401E074B7B442A4669460190304675
:1002900000F00FFA05461CB10020694600F01CFA78
:1002A00028467CBD590400000FB400B58DB010A9DC
:1002B000099000910B904FF0FF300A9000200C90B5
:1002C000064878440690064878446A4607900F9995
:1002D00009A800F005FC0DB05DF814FB3B08000018
:1002E000530800002DE9FF5F1D464FF0FF3B91468C
:1002F0004FF000085F46D5E90146A96901987F1CC7
:100300008847296A824688470028F6D1BAF1FF3F1C
:100310000CD0002E24F4C06419DD600614D5BAF1A7
:100320002B0F09D0BAF12D0F0ED103E0584604B0BF
:10033000BDE8F09F44F48064A96901987F1C884758
:10034000761E8246002E02DDBAF1300F03D0B9F1DD
:10035000000F26D032E0A969761E01987F1C44F474
:1003600000748847002E824605DDBAF1780F06D06A
:10037000BAF1580F03D0B9F1000F10D01EE0B9F157
:10038000000F02D0B9F1100F18D1A969761E01989B
:100390007F1C24F4007488478246102002E0082065
:1003A00000E00A20814609E0A96908FB0908761ED9
:1003B00001987F1C44F4007488478246002E05DDB6
:1003C0004946504600F078FB0028EDDAE9690198CB
:1003D0008847A00502D46FF00100A8E7E00725D107
:1003E000600613D5600502D5C8F1000000E0404664
:1003F00029680A1D2A600968220501D5087015E0E0
:10040000220701D5088011E008600FE02868011D6F
:1004100029600068210502D580F8008006E02107E8
:1004200002D5A0F8008001E0C0F8008038467EE7E1
:1004300010B5431C02E010F8011B71B18107FAD11D
:100440004FF0013202C88C1A8C4314EAC211F9D061
:10045000C01A0A0603D0C01E10BDC01A10BD0A047F
:1004600001D0801E10BD0902FCD0401E10BD4FF00F
:10047000000200B5134694469646203922BFA0E8F4
:100480000C50A0E80C50B1F12001BFF4F7AF090700
:1004900028BFA0E80C5048BF0CC05DF804EB8900F1
:1004A00028BF40F8042B08BF704748BF20F8022B34
:1004B00011F0804F18BF00F8012B70474FF0013C3E
:1004C00050F8042B51F8043B9A4221D1A2EB0C03C3
:1004D000934313EACC1317D150F8042B51F8043B83
:1004E0009A4215D1A2EB0C03934313EACC130BD120
:1004F00050F8042B51F8043B9A4209D1A2EB0C03AB
:10050000934313EACC13DBD04FF00000704700BFD9
:10051000D01A01BAB1FA81F101F0180122FA01F002
:10052000CB40C1F12001DBB2C0B2C01A2CFA01F3FA
:10053000D11A914311EAC311E6D170477047704751
:10054000704770B5044685690068C10601D530263C
:1005500000E02026C00707D070BDD4E90121304655
:100560009047206A401C20626D1EF6D570BD70B5A4
:10057000044685690078C00707D170BDD4E9012120
:1005800020209047206A401C20626D1EF6D570BD69
:1005900009684A0501D540B27047C905FCD500B2CB
:1005A000704709684A0501D5C0B27047C905FCD536
:1005B00080B2704770B50C460546012A05D02878F0
:1005C000800600D5EA69002302E0012305E05B1CF8
:1005D000934202D2E05C0028F9D1A869E618C01A5B
:1005E000A861286A184428622846FFF7AAFF04E099
:1005F000D5E9012114F8010B9047B442F8D32846FD
:10060000FFF7B5FF70BD00002DE9F041064600245C
:1006100010687529314616A510D0FFF7B9FF0028DC
:1006200002DA404213A507E031688A0701D512A516
:1006300002E0490704D511A5012401E0FFF7B1FF4D
:1006400000210A2206F1240709E0B0FBF2FCB0FB0E
:10065000F2F302FB1C00303078541846491C002885
:10066000F3D123462A463046BDE8F04100F0B6BA41
:10067000000000002D0000002B0000002000000002
:1006800011680268006A530501D508700AE0D305B5
:1006900001D5088006E0130603D5C217C1E90002A0
:1006A00000E008600120704701694A1C0261087877
:1006B000704700B58FB0CDE90131002105910549A2
:1006C0007944CDE903101146684600F031F90FB0C6
:1006D00000BD0000E5FFFFFF0A6802F8010B0A6099
:1006E0007047D1E900239A4202D2531C0B6010706C
:1006F000704700002DE9FF5F15468A460446DFF883
:10070000AC80F8440027D8E900103E46CDE900103F
:1007100010E03AF816106A4602A801F02BF8411CC6
:1007200007D02178890603D5E269391891420DD89E
:100730000744761C2078800602D5E069B84205DDC2
:10074000AE42E6DB3AF816000028E2D1A069C01BF1
:10075000A0612046FFF7F5FED8E90010CDE90010B2
:10076000002017E03AF818106A4602A801F002F8D3
:10077000B0F1FF3F81460BD000250DF1080B05E0DD
:10078000D4E901211BF8050090476D1C4D45F7D3B6
:1007900008F10100B0428046E4DB206A3844206260
:1007A0002046FFF7E4FEBDE8FF9F00001669000049
:1007B0002DE9F0418046D21D22F007020025D2E942
:1007C0000002F52915A614D0011E72F1000106DA07
:1007D0000023D0EB030063EB020211A608E0D8F877
:1007E00000108B0701D50FA602E0490701D50EA620
:1007F00001251146002408F1240704E000F0A0F9C7
:1008000030323A55641C50EA0102F7D12B46324689
:1008100021464046BDE8F04100F0E0B9000000008C
:100820002D0000002B0000002000000030B400214B
:1008300000F1240408E002F00705D208303542EA4E
:100840004372DB086554491C52EA0305F3D104687E
:10085000002310A2250707D5A40600D421B1C4693E
:1008600001230DA2641EC46130BC00F0B7B910B5FD
:10087000044621461068FFF794FE02462046BDE874
:1008800010400023D2E7D21D22F00701D1E9002356
:10089000CCE700000000000030000000F0B40D467E
:1008A0000188090502D5214C7C4402E01F4C7C44A0
:1008B0000E34002100F1240608E002F00F071209AF
:1008C000E75D42EA03721B097754491C52EA0307A9
:1008D000F3D102780023120704D5702D06D009B198
:1008E000022311342246F0BC00F078B90123103401
:1008F000F8E770B504460D4621461068FFF751FE33
:10090000024629462046BDE870400023C6E7D21DB6
:1009100022F00703D3E90023C0E70368126843F01D
:10092000200303600823C3610023B7E77867000052
:100930002DE9F05F894604464FF0000ADFF874B1F4
:10094000FB44C0F820A02046E1688847002874D006
:10095000252806D0D4E901219047206A401C206256
:10096000F1E700265F462046E168884720280546D3
:1009700007DB312D05D2781910F8200C08B1064399
:10098000F1E7B00701D526F00406C4F81CA0002743
:10099000C4F818A02A2D09D0284604F0B8FC38B3B2
:1009A00004EB8708303DC8F8185019E059F8041BCB
:1009B000204604EB87029161E1688847012F0546D4
:1009C00018D1E069002820DA26F020061DE0D8F8CA
:1009D000180000EB800005EB40003038C8F8180024
:1009E0002046E1688847054604F091FC0028EED1D6
:1009F000012F0AD02E2D08D12046E16888477F1CA0
:100A00000546022F46F02006C4DBA069002803DA61
:100A1000404246F00106A061F00701D026F0100622
:100A20006C2D0BD0682D09D04C2D39D06A2D35D0C6
:100A3000742D35D07A2D33D016E038E0E1682F469A
:100A400020468847B842054609D16C2F26D04FF47E
:100A50008060E168064320468847054604E06C2F25
:100A60001AD04FF4807006430DB3A5F14100192848
:100A700002D8203546F400664A46294620462660BC
:100A80004E46FFF76DFB80B101280BD0F61D26F016
:100A9000070000F1080956E74020E4E78020D8E786
:100AA0000020D6E706F104094DE7284652E7206A00
:100AB000BDE8F09F086700003A2800D2303820F0E7
:100AC0002002412A01D3A2F13700884201D34FF01E
:100AD000FF30704702681144137801601846704770
:100AE000D16005497944516104497944116200217A
:100AF0001161114600F084BCEDFFFFFFDD00000036
:100B0000426842B1016811F8013B23B1521EC0E9AD
:100B10000012184670470121C160881E7047426864
:100B20005AB1C368016843B983688B4205D0491E36
:100B3000521CC0E90012002070474FF0FF30704790
:100B400030B5B0F10A024FEA900E71F100034EEA9F
:100B5000817EB0EB0E0061EB91014FEA101E4EEA70
:100B6000017E10EB0E0041EB11114FEA102E4EEA00
:100B7000016E10EB0E0041EB11214FEA104E4EEAD0
:100B8000014E10EB0E0041EB1141401841F1000104
:100B90004FEAD00040EA41704FEAD10110EB8005E6
:100BA0004FEA810444EA907444EB01046D1944EB6C
:100BB0000404521BA3414FF0000348BF0A3200D582
:100BC00030BD401C41F1000130BD10B5044600F0BD
:100BD00017FE0068005D00F0010010BD2DE9F04730
:100BE0000D4699469246044600F12408016888069D
:100BF00004D5E06921F01001216000E00120A84245
:100C000001DD471B00E00027A1697A1902EB09000A
:100C1000081AA0612078C00602D42046FFF791FC94
:100C2000002608E0D4E901211AF806009047206A5E
:100C3000401C761C20624E45F4DB2078C0060AD5A5
:100C40002046FFF77EFC06E0D4E9012130209047E2
:100C5000206A401C2062381EA7F10107F4DC07E07F
:100C6000D4E9012118F805009047206A401C206251
:100C7000281EA5F10105F3DC2046FFF778FC20785B
:100C8000000602D50220BDE8F0870120FBE770478F
:100C90002DE9FF4F0C461E464FF0FF378BB0D2E9CF
:100CA0000001DDF860800A908A46C1F30A5505B953
:100CB0003D46002108464FF00000BAF1000F00F455
:100CC000400005DA00EB80004FF4400101EA5000DB
:100CD0004FEA9059B9F1010F00DDB9460A9850EA80
:100CE0004A000ED044F61050A5F2FF3545432F14AC
:100CF000B8F1000F1ED07542291E1EDDC9F1000299
:100D00001CE0B8F1010F4FF0000001D0302103E0EA
:100D1000F24305E02154401CB042FBDB3046002288
:100D2000002121540B99C1F80880C1E900200FB0BF
:100D3000BDE8F08FBD1B6D1CDEE74A4600DA694254
:100D400006A800F0A9FD06AB93E8070003AB83E813
:100D5000070050460A9900F026FE8DE80700A0F52E
:100D600000501F3800900398002D0ADD42F21F0149
:100D70004A460844002303A90390684601F08FF80F
:100D800009E0A0F500504A461F38002303A903904C
:100D9000684601F099F88DE807000004000C03D0C4
:100DA0004FF0FF30410800E01046B8F1000F03D0CB
:100DB0000022009215461EE0751E05D4FFF7C0FE06
:100DC000303262556D1EF9D5B3460122084302D078
:100DD00000227F1C04E02078302801D100227F1EF1
:100DE000002A099784D01DE0112D07DAFFF7A8FE2D
:100DF000303262556D1C50EA0102F5D1084302D031
:100E00000098C8B10EE00021681E05E0235C625C1A
:100E100063542254401E491C8142F7DBAB46A81B99
:100E2000401E0990002004F80B000B98099AC0F8A6
:100E30000880C0E9002B7AE711264FF0000857E739
:100E40002DE9F04F88460446D21D22F0070191B0EB
:100E5000D1E90001CDE90A0104F035FA02460B9808
:100E6000C00F01D02D2007E02068810701D52B207D
:100E700002E0202101EAC000032A099001D0072ADC
:100E800005DB03464146204600F0C6FC0BE1207816
:100E9000800601D5E06900E00620B8F1650F8146C3
:100EA00006D0B8F1660F18D0B8F1670F70D131E0F5
:100EB0000020B9F1110F009001DB112301E009F1CD
:100EC00001030AAA01A90CA8FFF7E2FEDDE90C70F4
:100ED000002609F10105834647E001204B460090BA
:100EE0004FF000470AAA01A90CA8FFF7D1FEDDE9DF
:100EF0000DB00C995D46002610B909F101000D18DE
:100F0000B9EB050003D4C0F1FF3609F10105A5EBEB
:100F100009002BE0B9F1010F01DA4FF001090020BF
:100F2000B9F1110F0090484601DD112300E003469E
:100F30000AAA01A90CA8FFF7ABFEDDE90C704D462B
:100F400000268346207800070AD4AB4500DA5D46C8
:100F500001A8012D04DD411911F8011C302907D029
:100F60004F4502DA17F1040F04DA012082460FE040
:100F70006D1EEEE7002F02DCED1B3E4403E0781C03
:100F8000A84200DD7D1CB81B00F1010A4FF00047AC
:100F90002078000703D4AA4501DB4FF0FF3A002177
:100FA000B7F1004F0DF143088DF8431024D0022013
:100FB0002B23002F01DA7F422D230A21021EA0F1EC
:100FC000010000DC5FB197FBF1FC97FBF1F201FB44
:100FD0001C7C17460CF1300C08F801CDEEE7A8F1A7
:100FE000010003702188090501D5452100E0652134
:100FF000A0F1010800F8011C09980FA9A1EB08074E
:10100000FF1D00B10120411901EBEA70A1693844CC
:10101000081A401EA0612078C00602D42046FFF7BF
:1010200090FA099828B1D4E901219047206A401C20
:1010300020622078C00622D52046FFF782FA1EE003
:10104000002E04DBB34502DD01A8805D00E0302006
:10105000D4E901219047206A401C2062761CAAF145
:1010600001005FEA000A0AD100F0D2FBC068016803
:10107000405CD4E901219047206A401C2062281E70
:10108000A5F10105DCDC07E0D4E9012118F8010B2A
:101090009047206A401C2062381EA7F10107F3DC4C
:1010A0002046FFF764FA032011B041E62DE9F04F26
:1010B00004460D46D21D22F0070089B0D0E9009702
:1010C0004846394604F0FFF80246F80F01D02D23B8
:1010D00007E02068810701D52B2302E0202101EAE7
:1010E000C0038DF820300BB1012000E00020032A5E
:1010F000824601D0072A04DB2946204600F08CFBFB
:101100003FE12078800601D40D2500E0E569C7F3B2
:101110000A560D2D49DA00214FEA175B08464FF0B9
:101120000000002F00F4400007DA00EB80004FF4CD
:10113000400100EBD07001EA60008115012901DD5A
:101140004FF0FF3100224FEA850CBCF1180F06D397
:101150001346ACF118004FF08052C24003E04FF448
:10116000801323FA0CF30CF10C0CBCF1200F04D308
:10117000ACF1200C09FA0CF001E007FA0CF00029A0
:101180004FF0004801DD18B90FE00ED140450CD3F7
:1011900019EB02095F4121B9404502D19F4329EA79
:1011A0000209BBEB175F00D0761C2088000502D532
:1011B0007B48784402E07A487844193808AA3023FA
:1011C00002F80A30037C0AF10101002E0AF1020A3A
:1011D00053546A4602DC4FF0300101E04FF0310118
:1011E0004FF001088DF8001002D0A6F2FF3603E0A0
:1011F00059EA470100D06B4E002D02DC2178090727
:1012000004D54FF002082E218DF80110C4460021AC
:101210000BE0C7F303433F01C35C491C6D1E02F89A
:101220000830052908F1010801DA002DF1DC002160
:101230000CE000EB1973491C1B786D1E082902F89D
:1012400008304FEA091908F1010801DA002DF0DC35
:1012500021688B0602D516E0A8F10108E04505DDFE
:1012600002EB080313F8013C302BF5D0B8F1000F66
:1012700009DD02EB080313F8013C2E2B03D109070B
:1012800001D4A8F10108002D05DD3E2102F8081067
:101290006D1E08F10108407C002E02F8080008F1DC
:1012A000010804DA2D20764202F8080002E02B2023
:1012B00002F808000A214FF47A70864208F101080A
:1012C0000BDB96FBF0F3303302F8083096FBF0F3BB
:1012D00008F1010800FB136601E0642E0CDB6420BA
:1012E00096FBF0F3303302F8083096FBF0F308F188
:1012F000010800FB136601E00A2E06DB96FBF1F005
:10130000303002F8080008F1010896FBF1F001FB0B
:101310001060303002F80800A16908F1010808EBFC
:10132000050202EB0A00081AA0612078C00602D468
:101330002046FFF706F9216A08AE01EB0A00206299
:1013400004E0D4E9012116F8010B9047BAF1010A33
:10135000F7D22078C00602D52046FFF7F2F86E4695
:1013600009E016F8010B3E280FD0D4E9012190477F
:10137000206A401C2062B8F10108F2D22046FFF733
:10138000F6F809B00320BDE8F08F206A28442062F7
:1013900003E0D4E90121302090476D1EEBD3F8E73C
:1013A000BA5E000002FCFFFF10B5436913B1AFF352
:1013B000008001E0FFF7FEF8012010BD127800F177
:1013C00024010A7000224A700122EDE711684FF0F3
:1013D000FF32E9E710B5436913B1AFF3008001E0D4
:1013E000FFF788F9012010BD128800F124018284E2
:1013F0000022C2840122EDE711684FF0FF32E9E7D5
:101400002DE9F34F4FF0000A0C4656468DB00120EF
:101410000C9001F10C000B9062690B980121904730
:10142000051E2DD0252D2CD0216A8847C0B16269B8
:101430000B9801219047216A88470028F7D16269FB
:10144000411E0B98904700E0761CA1690D988847D3
:10145000216A88470028F7D1E1690D988847DBE7C2
:10146000A1690D988847A842074601D1761CD3E7A9
:10147000E1690D9888477F1C02D1BAF1000F6FD047
:101480006BE162690B9800273D46394690472A2850
:1014900004D162690B98012190470125DFF8D082C1
:1014A00062690B9801219047A0F130010A290AD204
:1014B0004745E5DC07EB870100EB4107303FDFD410
:1014C00045F01005ECE7E90601D46FF000476C2801
:1014D0000AD04C2814D0682815D06A280DD074285A
:1014E0001CD07A281AD01DE062690B980121904720
:1014F0006C2802D045F0040514E045F002050DE02B
:1015000045F020050AE062690B98012190476828A0
:1015100002D045F0080505E045F4006562690B98C6
:1015200001219047C4E9015765283DD019DC5828AE
:101530007AD00CDC452837D004DC252826D0412879
:101540009ED131E046282FD0472899D12CE05B2846
:1015500077D0612828D063287CD0642823D15AE032
:10156000F6E06F2848D008DC66281DD067281BD01D
:10157000692821D06E2816D127E0702845D073281D
:1015800068D0752847D078280DD14DE0A1690D9815
:101590008847252805463FF469AFE1690D988847DB
:1015A0006D1C3FF46AAFD8E00D9923466A466FF090
:1015B0000100AFF30080C5E045F0400023464FF046
:1015C00000026060A80736D43EE0E8077FF447AF2A
:1015D0002068011D21600068290501D506701BE700
:1015E000290701D5068017E7A90703D5F117C0E938
:1015F000006111E706600FE745F0400023464FF019
:1016000008026060A80716D41EE040F60E0125EA25
:101610000100606016E045F0400023464FF00A02EA
:101620006060A80707D40FE045F040006060A8079D
:1016300008D5234610220D996FF00100AFF300800A
:1016400080E007E0102223460D996FF00100FEF7BD
:1016500049FE77E04FF0000963284F46C8464B46E5
:10166000CB4602D05B2806D038E0E80601D4012042
:10167000A060012732E06269D4F80CB00B98012118
:1016800090475E2807D14FF0010949466269D4F8B6
:101690000CB00B989047216939B900210A4603AB79
:1016A00043F82120491C0829FADBD8B3216949B342
:1016B00008F1010862690B98012190475D28F4D177
:1016C000B9F1000F09D0002003A951F82020D2431E
:1016D00041F82020401C0828F7DB03AB20690028D4
:1016E00020794FEA40701ED05B462246CDF800803C
:1016F000CDE901970D9900286FF0010020DAAFF3D2
:1017000000801FE0C11703AA00EBD1614B1121F04B
:101710001F0102EB8302411A136801208840034332
:101720001360C7E719E00D99224600286FF0010009
:10173000009702DAAFF3008004E0AFF3008001E02D
:10174000AFF3008000280ADA401C06D10C9820B1C3
:101750004FF0FF300FB0BDE8F08F5046FAE7E907D1
:1017600001D10AF1010A064400200C9054E6000061
:10177000CCCCCC0C70B516460C46054600F040F8B3
:10178000036893F80101012806D0FF2C0FD8185DDB
:1017900068B101202C7070BDD3F807013246214694
:1017A00003F2071303442846BDE8704018474FF082
:1017B000FF3070BD754600F0EBF8AE460500694697
:1017C000534620F00700854618B020B5FEF740FDCF
:1017D000BDE820404FF000064FF000074FF0000832
:1017E0004FF0000B21F00701AC46ACE8C009ACE8B3
:1017F000C009ACE8C009ACE8C0098D4670470000DC
:1018000010B500F005F8001D10BD00BFA543000095
:1018100000487047680200202DE9F0411F46044649
:1018200003260168072A01F4006004DB08B116A54D
:1018300005E016A503E008B115A500E015A521F007
:1018400010002060A069C01EA0610FB1401EA06101
:101850002046FEF776FE4FB1D4E901213846904785
:10186000206A401C2062C01C206206E0206AFAE761
:10187000D4E9012115F8010B9047761EF8D22046D5
:10188000FEF775FEBDE8F0814E414E006E616E00C0
:10189000494E4600696E66002DE9F04781461646BE
:1018A0008AB0354878440DC88DE80D003248784438
:1018B000801C03AC0DC884E80D0041F69B30084441
:1018C000372190FBF1F290FBF1F5A5F1800501FBCA
:1018D00012041B3C02D56442012000E00020DFF826
:1018E00098A080460027FA44AAF1BE0A0EE0E0075D
:1018F0000AD03246684607EB470101230AEB810113
:1019000000F0E2FA8DE8070064107F1C002CEED195
:10191000194F7F44AE3F19E0E80715D007EB0410DC
:101920000DF1180A90E80E008AE80E00C068F04237
:1019300001D1981908903246012306A903A800F0A6
:10194000C3FA03AB83E807006D10641C002DE3D1DC
:101950004FF0010332466946B8F1000F03A802D0E8
:1019600000F09DFA01E000F0AFFAC9E90001C9F802
:1019700008200AB0BDE8F0875858000010B50446AA
:10198000AFF300802046BDE81040FEF74CBC0000DD
:10199000004870474802002001491820ABBEFEE70E
:1019A0002600020070475FEA400C08BF91F0000F6C
:1019B0004FEA8C234FEAC12243EA51514FEA1C50AF
:1019C00018BF00F5F0404FEA300018BF41F0004169
:1019D0005FEA6C5C00F02980BCF1FF3F08BF40F07B
:1019E00080407047130C06BF12044FF0100C4FF0EC
:1019F000000C130E04BF12020CF1080C130F04BFED
:101A000012010CF1040C930F04BF92000CF1020CB4
:101A1000D30F04BF52000CF1010C11464FF000022D
:101A2000A0F11F00A0EB0C00704711F0004F08BFA1
:101A3000704731F000413FF4D5AF0B0C06BF0904ED
:101A40004FF0100C4FF0000C0B0E04BF09020CF10C
:101A5000080C0B0F04BF09010CF1040C8B0F04BF21
:101A600089000CF1020CCB0F04BF49000CF1010CF2
:101A7000CCF12003A0EB0C0022FA03F302FA0CF2E3
:101A800041EA030100F10100704720F07F4C80EA39
:101A9000030023F07F47ACEB070303F57C5300F012
:101AA000004003F1FF032DE980494FEA154B09B4CB
:101AB0004FEA144325EA0B4E24EA03480FF20426AA
:101AC00006EB132749083E785FEA320203FB0667FC
:101AD000C7F5000707FB06F64FEA54374FEAD6462C
:101AE00006F1020607FB066CCCF1005C4FEA1C47CE
:101AF0002CEA074C07FB06F40CFB06F504EB154635
:101B00004FEA961634BF00204FF000404FEAD1371D
:101B100006FB07FC4FEA1C4C0CFB0BF7D21B03FB2C
:101B20000CF761EB07010CFB0EF7B0EB074072EB13
:101B300017420CFB08F734BFA2EB0742B2EB074297
:101B400061EB17414FEA0C444FEA910706FB07FC93
:101B50004FEA1C4C0CFB0BF7B0EBC74072EB573253
:101B600003FB0CF734BFA2EBC742B2EBC74261EBF9
:101B700057310CFB0EF7B0EBC70072EB57720CFB42
:101B800008F734BFA2EBC702B2EBC70261EB577193
:101B9000039F4FEA816141EA921104EBCC044FEAC2
:101BA000D1374FEA826206FB07FC42EA90124FEA05
:101BB00080604FEA1C4C0CFB0BF7D21B03FB0CF7AD
:101BC00061EB07010CFB0EF7B0EB074072EB17421D
:101BD0000CFB08F734BFA2EB0742B2EB074261EB04
:101BE00017414FEA8C554FEA910704EB9C2406FB02
:101BF00007FC4FEA1C4C0CFB0BF7B0EBC74072EB39
:101C0000573203FB0CF734BFA2EBC742B2EBC7421B
:101C100061EB57310CFB0EF7B0EBC70072EB57725C
:101C20000CFB08F734BFA2EBC702B2EBC70261EBB3
:101C3000577115EB4C254FEA816141EA92114FEA49
:101C400082624FEAD13742EA901206FB07FC44F168
:101C500000044FEA80604FEA1C4C0CFB0BF7D21BD0
:101C600003FB0CF761EB07010CFB0EF7B0EB074031
:101C700072EB17420CFB08F734BFA2EB0742B2EB42
:101C8000074261EB174115EB1C154FEA813141EA20
:101C900092414FEA823242EA90424FEA80304FEA64
:101CA0000C7644F1000448EA03434EEA0B484FF037
:101CB000000EB2EB080C71EB030724BF62463946F5
:101CC0004EEB0E0E4FF0000B0018524149414BEB0A
:101CD0000B0BB2EB080C71EB03077BF1000B24BF7D
:101CE000624639464EEB0E0E4FF0000B0018524183
:101CF00049414BEB0B0BB2EB080C71EB03077BF18B
:101D0000000B24BF624639464EEB0E0E51EA020725
:101D100018BF46F0010616EB0E7655F1000254F19D
:101D2000000103D5BDE88901BDE80088BDE889014F
:101D3000BDE80048B619524141EB0101A3F101038E
:101D4000704780807F7E7D7C7B7A79787776767528
:101D50007473727171706F6E6E6D6C6C6B6A6A69A0
:101D60006868676666656464636362616160605F3A
:101D70005F5E5E5D5D5C5C5B5B5A5A5959585857B3
:101D8000575656555555545453535252525151501B
:101D900050504F4F4F4E4E4D4D4D4C4C4C4B4B4B6E
:101DA0004A4A4A49494948484847474747464646B4
:101DB00045454544444444434343434242424241EF
:101DC0004141002B9C4630D477002BD01CB54FEA04
:101DD000370703B44FF010004FF01001BAF1000FB5
:101DE00006D0BCF1000FDCBF40F0080040F0080155
:101DF0004FF000000FBCBDE810400BF1010BBBF130
:101E0000010F08BF5FEA170722BF12F1010211F1AB
:101E100001014FF0004143F1000300F0004043EAAC
:101E200000007047F9D35708D0E746EA064613F199
:101E3000400F4FEA16461FDD13F1200FDFBF164398
:101E40000A46002120335B42BED0C3F1200746EA98
:101E5000064602FA07F74FEA164646EA0706C3F1B6
:101E6000200722FA03F201FA07F721FA03F14FF0F3
:101E7000000342EA0702A7E746EA020646EA0646E8
:101E80004FEA164646EA0106BCBF46EA0646360C4D
:101E90004FF000034FF000024FF0000194E72DE9EE
:101EA000804C9A46934670B491E8380007C831EAEE
:101EB000400C48BF34EA430C03D5FFF7E6FDFFF7BB
:101EC00080FFF0BCBDE8008C2DE9804C9A4693461B
:101ED00070B491E8380007C810F0804F08BF13F0C5
:101EE000804F03D100F005F8FFF76BFFF0BCBDE8B1
:101EF000008C20F07F4780EA030023F07F4C07EB43
:101F00000C03A3F57C5300F00040A3F1FE0392F014
:101F1000000F00F0B38095F0000F00F077802DE9FE
:101F200001494FEA11404FEA144621EA004800FBFC
:101F300006FC24EA064708FB06F607FB08F800FB48
:101F400007F718EB06484CEB164C4FEA124B18EB10
:101F500007484FEA15464CEB174022EA0B4E0BFBA5
:101F600006FC25EA06470EFB06F607FB0EFE0BFBFA
:101F700007F71EEB064E4CEB164C4FF000061EEB1F
:101F8000074E4CEB174B18EB0B0840F1000018EB19
:101F90000E0B58EB000840F100008F1A4FF00001C3
:101FA0003CBFC943661B14BFB5EB040C00213CBF0A
:101FB000C943F61B4FEA17444EEA8E0E27EA044542
:101FC0004FEA1C4704FB07622CEA074C05FB07F7A6
:101FD0000CFB05F604FB0CFC16EB074642EB174224
:101FE00016EB0C4642EB1C421BEB060658EB0202BA
:101FF000414146EA9E0601D5BDE80189B619524124
:1020000041EB0101A3F10103BDE801894FEA144549
:102010004FEA114724EA054621EA074C05FB07F47D
:1020200006FB07F70CFB06F105FB0CFC11EB074167
:1020300044EB17444FEA124711EB0C4144EB1C44AC
:1020400022EA074C05FB07F206FB07F70CFB06F636
:1020500005FB0CFC16EB074642EB174216EB0C4651
:1020600042EB1C456A1854F1000148BF7047B6198D
:10207000524141EB0101A3F10103704795F0000FBC
:1020800037D04FEA11424FEA144721EA024624EAC8
:10209000074C02FB07F106FB07F70CFB06F402FBFB
:1020A0000CFC14EB074441EB17414FEA154714EBC6
:1020B0000C4441EB1C4125EA074C02FB07F506FBEB
:1020C00007F70CFB06F602FB0CFC16EB074645EB8C
:1020D000174516EB0C4645EB1C42121951F1000155
:1020E00048BF7047B619524141EB0101A3F101030A
:1020F00070474FEA14454FEA114724EA054621EAA2
:10210000074C05FB07F106FB07F70CFB06F24FF047
:10211000000605FB0CFC12EB074241EB174112EBEA
:102120000C4251EB1C4148BF7047921841EB010132
:10213000A3F101037047000070B504460068816890
:10214000C943C90717D1816821F00101816000F0FE
:1021500031FD05460AE000BF00F02CFD401B0228BF
:1021600004D920688068C043C00706D02068806812
:10217000C043C007F0D0002070BDA06A40F010003E
:10218000A062E06A40F00100E062012070BD10B57D
:102190000146406A826A12F0500F05D0006A026B55
:1021A000BDE8104008461047816A41F40071816221
:1021B00001688968C1F3424107290CD1017B51B9FB
:1021C000816A21F480718162816AC90403D4816AC1
:1021D00041F00101816200F05BF910BD10B5406A69
:1021E000816A41F040018162C16A41F00401C1622B
:1021F00000F05BF910BD10B5406A00F055F910BD54
:10220000F8B500260446009600688168C943C907EE
:102210002DD0816841F0010181601648164900689F
:10222000B0FBF1F000E0401E00900028FBD100F070
:10223000C1FC054616E000BF00F0BCFC401B0228B4
:1022400010D920688068C043C0070BD0A06A40F056
:102250001000A062E06A40F00100E06284F82460AF
:102260000120F8BD20688068C043C007E4D1002089
:10227000F8BD00002000002040420F00FEE70000F3
:10228000014800F07FBA0000E401002030B590F86A
:1022900040500124AC40C56B6C60046863604368C7
:1022A000102B036803D099600068C26030BD9A604B
:1022B0000068C16030BD704772B6FEE7F8B5002512
:1022C0000446009590F8240001280BD0012084F8E2
:1022D00024002046FFF730FF2046FFF791FF06005D
:1022E00002D050E00220F8BDA06A20F4885040F0EF
:1022F0000200A062022001F05BF825490968B1FBE9
:10230000F0F0400000E0401E00900028FBD1206863
:10231000816841F00801816000F04CFC074608E04C
:1023200000F048FCC01B0A2803D920688068000719
:1023300015D4206880680007F2D42068816841F0D5
:102340000401816000F036FC074612E000F032FC28
:10235000C01B0A280DD920688068400709D5A06AEB
:1023600020F0020040F01000A06284F82450012008
:10237000F8BD206880684007E8D4A06A20F0020019
:1023800040F00100A06284F824503046F8BD0000FF
:1023900020000020F8B50024009490F82420254661
:1023A000012A12D0012280F824204A681F23072A1C
:1023B0000DD20668776B521E02EB820293409F4358
:1023C0000B6893401F43776319E00220F8BD06684D
:1023D0000D2A0AD2376BD21F02EB820293409F4331
:1023E0000B6893401F43376309E0F76A0D3A02EB2D
:1023F000820293409F430B6893401F43F7620A6831
:10240000072306680A2A0AD3F7680A3A02EB42024F
:1024100093409F438B6893401F43F76008E0376900
:1024200002EB420293409F438B6893401F43376106
:102430000A68102A01D0112A20D1124B02689A4250
:1024400017D193681B0219D4936843F40003936077
:102450000968102912D10C490C4A0968B1FBF2F144
:1024600001EB8101490000E0491E00910029FBD1E8
:1024700004E0816A41F020018162012480F8245047
:102480002046F8BD002401402000002040420F00FB
:1024900000680349884202D1024901200870704750
:1024A0000024014000000020704770472DE9F041F2
:1024B0004FF0000704003D467ED0A06A002628B9F0
:1024C000E66284F82460204600F07EF82046FFF79C
:1024D00033FEA16AC90600D420B1A06A40F0100002
:1024E000A06269E0A16A21F4885141F00201A16271
:1024F0006268E169237B0A4347EA43010A43A16812
:102500004FF48077B94209D0012907D05FF000016C
:1025100094F814C0BCF1010F02D00AE03946F7E785
:10252000F3B1A36A43F02003A362E36A43F001031B
:10253000E3622368D3F804C02CF4694C4CEA010C24
:10254000C3F804C021688B68DFF870C003EA0C038D
:1025500013438B60A168B9420BD0012909D00CE06C
:10256000DFF85CC0A3690CEB43330B4343F4006119
:10257000DFE7218A0D05A5F580152168CB6A23F4D4
:1025800070032B43CB62216889680E4B194091423E
:1025900008D1E662A16A21F0020141F00101A162C5
:1025A000BDE8F081A06A20F0020040F01000A062B7
:1025B000E06A40F00100E0620120F1E7FDF7E1FF91
:1025C00000E0FFFFFE0E1FFF70B586B00025064637
:1025D00000950195029503950068214988423CD1F8
:1025E0002049886940F400708861886900F40070AF
:1025F0000490886940F004008861886900F0040054
:102600000490886940F0080088618869032400F01C
:10261000080004901F20CDE900046946124800F02C
:10262000D3F90120CDE900046946104800F0CCF947
:10263000104C0F48C4E900058020C4E90250400056
:1026400020618000C4E905052046E56100F044F9F9
:1026500008B1FFF731FE3462666206B070BD00005B
:10266000002401400010024000080140000C01401D
:1026700008000240E40100202DE9F04789460446A5
:102680003B4900683B4F0E1D9046884201D0B8423E
:1026900007D1306810F4702F03D001252846BDE81B
:1026A000F08794F8240001280CD0012084F824003D
:1026B0002046FFF7A5FD05004FF0000004D084F888
:1026C0002400EBE70220EAE7A16A40F601629143A9
:1026D00041F48071A1622168B94218D1326812F4C4
:1026E000702F14D0A16A41F48011A16231684905AC
:1026F00005D5A16A21F4005141F48051A162A16A7B
:10270000C9040AD5E16A21F00601E16206E0A26A85
:1027100022F48012A2624968E9E7E06284F82400AA
:10272000216A15488862216A1448C862216A1448DF
:10273000086321686FF0020008602068816841F436
:1027400080718160216843464A464C31206A00F01E
:10275000F1F820688168C1F342410729816803D0FC
:1027600041F48011816099E741F4A001FAE700008B
:1027700000240140002801408F210008F7210008B3
:10278000DD2100082DE9F05FC16B0C6801680B6862
:10279000D0F840C0042202FA0CF2494DDFF824A11F
:1027A000494E4A4FDFF828B1DFF828E122422CD009
:1027B0005A072AD50A68920603D40A6822F004024E
:1027C0000A600168A94201D1042219E0514501D1F2
:1027D000402215E0B14202D14FF4806210E0B942CC
:1027E00002D14FF480420BE0594502D14FF48022D0
:1027F00006E0714502D14FF4800201E04FF08062A3
:102800002F4908394A60C16A3BE04FF0020808FAD4
:102810000CF818EA040F4FF000094FF0010235D010
:102820005FEA837832D50B689B0605D40B6823F0EA
:102830000A030B6080F821200168A94201D102221D
:1028400019E0514501D1202215E0B14202D14FF4E7
:10285000007210E0B94202D14FF400520BE059452A
:1028600002D14FF4003206E0714502D14FF400125C
:1028700001E04FF00072124908394A6080F8209058
:10288000816A00291AD0BDE8F05F0847082505FADB
:102890000CF5254212D01B0710D50B6823F00E0350
:1028A0000B6090F84010C36B02FA01F1596082632B
:1028B00080F8212080F82090016BE2E7BDE8F09FCE
:1028C000080002401C000240300002404400024068
:1028D000580002406C00024030B528B308C81349C4
:1028E00014221944B1FBF2F18900C16310498163DC
:1028F000022141771A6843F6F0718A43D0E9001447
:102900002143D0E902452C43214304692143446912
:10291000214384692143114319600021416301224D
:1029200042770177084630BD012030BDF8FFFDBF7A
:102930000000024070B5044690F8200000250128F0
:102940000CD0012084F8200094F821600020012E92
:1029500006D084F820000225284670BD022070BDF4
:10296000022684F82160A0632068066826F001062C
:1029700006602046FFF78AFCE06A002820680168AC
:1029800002D041F00E0106E021F004010160206850
:10299000016841F00A0101602068016841F001010D
:1029A0000160D9E770B5044600F004F90546601CE3
:1029B00002D004480078044400F0FCF8401BA04218
:1029C000FAD370BD140000202DE9F84FDFF8B8915C
:1029D0000024A9F1040B23460F2709F1040AABF1E7
:1029E000040EC9E00125A5402A40AA427DD1674EC8
:1029F000D1F804C0ACEB0608B44532D014DCBCF10D
:102A0000030F3AD009DCBCF1000F2AD0BCF1010F52
:102A10001CD0BCF1020F31D11DE0BCF1110F17D059
:102A2000BCF1120F2AD119E0B8F5881F19D006DCC5
:102A3000B8F5803F15D0B8F5801F1FD111E0B8F56B
:102A4000001F0ED0B8F5041F18D10AE0CB6815E0BE
:102A5000CB681B1D12E0CB6808330FE0CB680C334A
:102A60000CE08B682BB1012B4FF0080303D04561BC
:102A700004E0042302E0056100E00023FF2A01D8FE
:102A8000064601E000F104064FEA840501D9A5F1EC
:102A90002005D6F8008007FA05FC28EA0C0803FA9E
:102AA00005F548EA0508C6F800804D68ED0062D5D6
:102AB000374DAE6946F00106AE61AD6924F00306FC
:102AC00005F001050095334D06EB050CDCF80850C8
:102AD000A607360F07FA06F825EA0805DFF8B880DA
:102AE000404503D14FF0000817E044E0DFF8AC8028
:102AF000404502D14FF001080FE0DFF8A4804045C7
:102B000002D14FF0020808E0DFF89880404502D17A
:102B10004FF0030801E04FF0040808FA06F848EA0D
:102B20000508CCF808804D68D9F80060ED024D46E4
:102B300001D5164300E096432E604D68DAF8006038
:102B4000AD02554601D5164300E096432E604D6810
:102B5000DBF80060AD035D4601D5164300E0964307
:102B60002E604D68DEF80060ED03754601D5164312
:102B700000E096432E60641C0D682A46E5407FF411
:102B800031AFBDE8F88F00000804014000001110CB
:102B9000001002400000014000080140000C01400C
:102BA00000100140001401400AB10161704709049E
:102BB000FBE7000001488068704700001400002017
:102BC00070B5040025D094F83D00002520B984F8A4
:102BD0003C50204600F02EFB242084F83D00206865
:102BE000016821F0010101602068016841F40041A1
:102BF00001602068016821F40041016000F036FDA9
:102C00004D4A6168914201D84C4900E04C498842E4
:102C100001D2012070BD4B492368B0FBF1F15E6821
:102C200026F03F060E435E606368934206D94FF478
:102C3000967359434FF47A73B1FBF3F12368491C3F
:102C40001E6A26F03F06314319626168914210D82E
:102C50004900401EB0FBF1F2521CC2F30B02042AE1
:102C600001D2042022E0B0FBF1F0401CC0F30B00C5
:102C70001CE0A268F2B301EBC10303EB0116431E93
:102C8000B3FBF6F35B1C43F480431B0549D092B3BE
:102C900001EBC10202EB0111401EB0FBF1F0401C40
:102CA000C0F30B0040F4804040F400402168CA6942
:102CB0004CF6FF739A431043C861D4E907100143EF
:102CC0002068026822F0C00211430160D4E90301C8
:102CD00001432068826848F2FF339A4311438160C0
:102CE000D4E9050108432168CA6822F0FF021043B5
:102CF000C86001E00EE016E02068016841F00101C3
:102D000001602564202084F83D00256384F83E504E
:102D1000002070BD01EB4106431EB3FBF6F35B1CC4
:102D2000B3E70120C2E701EB4101401EB0FBF1F027
:102D3000401CC0F30B00B7E7A086010080841E0092
:102D400000093D0040420F002DE9FF4F81B0894648
:102D50000446FFF72FFF054694F83D004FF00008AA
:102D600020287DD11923012250492046009501F0E9
:102D700051FA002874D194F83C00012870D0012049
:102D800084F83C0020680168C90703D1016841F05C
:102D9000010101602068016821F4006101602420C4
:102DA00084F83D00002626644148E0624FF0011B94
:102DB00020272068016841F480710160009500229D
:102DC00059462046049B01F025FA50B1206800685E
:102DD000C00502D54FF400702064032005B0BDE8A3
:102DE000F08F216809F0FE000861FFF7E3FE21681B
:102DF000054648694969C0F34000C1F380214FF09E
:102E0000A00A0FE0FFF7D6FE411B0498814200D8CC
:102E100008B984F83DA0216848694969C0F34000B9
:102E2000C1F3802194F83D20A02A02D008B90029DE
:102E3000E8D084F83D7020684169C943890716D4F9
:102E4000016841F4007101602068416980691923BB
:102E5000012216492046009501F0DCF9B8B900E0DE
:102E600021E084F83D7084F83C600020B6E70168FA
:102E700041F40071016021686FF48060486119239A
:102E800001220A492046009501F0C4F908B1012049
:102E9000A4E7039808F1010880458AD384F83D70BF
:102EA00084F83C60F3E7022098E70000020010007D
:102EB0000000FFFF2DE9FF4F83B00025DDE9107909
:102EC0009A4693460446DDF848800095FFF772FE67
:102ED000064694F83D0020287CD11923012285491B
:102EE0002046009601F096F90028F5D194F83C00B0
:102EF00001286FD0012084F83C0020680168C907D0
:102F000003D1016841F0010101602068016821F4EA
:102F100000610160222084F83D00402084F83E00DA
:102F200025646762A4F82A90608D20857248E0626B
:102F3000CDE9008653465A462046049901F06CF8C4
:102F400000287DD1208DDFF8B491202768B10128B9
:102F500014D00228206801681ED041F4806101600D
:102F60002068416980690090B6E020684169816904
:102F70000091016841F400710160ADE020680168D2
:102F800021F48061016072B6206841698169009115
:102F9000016841F400710AE041F40061016072B619
:102FA0002068416981690091016821F480610160B4
:102FB00062B691E0032868D801280CD00228434665
:102FC0004FF000024946204600960FD001F022F94A
:102FD000B0BB10E08BE032464146204601F0C0F91C
:102FE00070BB20680069616A08706CE001F012F93A
:102FF00030BB72B634E02068016821F48061016062
:1030000072B620680069616A0870606A401C60627C
:10301000208D401E2085608D401E6085384846F218
:10302000A8110068B0FBF1F0C0EBC00000EB80001D
:103030000090401E009008D020684069C04300E026
:1030400029E040070CD50098F3E744F8305F677338
:10305000A573206940F02000206162B625731AE054
:103060002068016841F40071016020680069616AAC
:103070000870606A401C6062218D491E2185618D47
:10308000491E618562B621681BE0324641462046F2
:1030900001F066F918B1012007B0BDE8F08F206893
:1030A0000069616A0870606A401C6062218D491E77
:1030B0002185618D491E618521684A69D243520785
:1030C0000AD409690170606A401C6062208D401E4C
:1030D0002085608D401E6085208D00287FF46AAFBA
:1030E00084F83D7084F83E5084F83C50D4E70220C8
:1030F000D2E70000020010000000FFFF0400010002
:10310000200000202DE9FF4F83B09A46DDE911979A
:1031100093460446DDF84080FFF74CFD054694F8E1
:103120003D0020287FD119230122404920460095E7
:1031300001F070F8002876D194F83C00012872D094
:10314000012084F83C0020680168C90703D10168A8
:1031500041F0010101602068016821F40061016013
:10316000212084F83D00402084F83E00002626649B
:10317000C4F82480A4F82A90608D20852C48E06251
:10318000CDE9007553465A462046049900F0C2FF27
:1031900070B930E02A463946204601F019F958B195
:1031A000206C042804D12068016841F4007101609A
:1031B000012007B0BDE8F08F606A216800780861DF
:1031C000606A401C6062218D491E89B22185628D32
:1031D000521E628522685369DB435B070BD469B1D9
:1031E00000781061606A401C6062208D401E20855E
:1031F000608D401E6085208D0028CBD12A4639463F
:10320000204600F0DBFF0028CAD154F83D0B0168CE
:1032100041F400710160202004F81E09E67766770A
:103220000020C6E7FFE70220C3E70000020010000D
:103230000000FFFF10B586B00021009101910291BE
:10324000039100680F4988421AD10F4CA06940F0E1
:103250000800A061A069694600F008000490C02041
:10326000009012200190032003900848FFF7ACFB68
:10327000E06940F40010E061E06900F4001004909F
:1032800006B010BD0054004000100240000C014088
:103290000248816802781144816070471400002060
:1032A000074810B5016841F010010160032000F0EB
:1032B0006DF80F2000F006F800F024F8002010BD93
:1032C0000020024070B50D4D04464FF47A71287805
:1032D000B1FBF0F00A490968B1FBF0F000F030FCF6
:1032E00048B9102C07D200222146501E00F02EF8BB
:1032F00000206C6070BD012070BD00001400002033
:1033000020000020094808B5816941F00101816170
:10331000816901F001010091C16941F08051C161F1
:10332000C06900F08050009008BD0000001002400D
:10333000002809DB00F01F020121914040098000B4
:1033400000F1E020C0F8001170470000F0B40E4B0F
:103350001B680C46C3F30223C3F10705042D00D9F3
:103360000425191D072901D2002300E0DB1E0126D8
:1033700006FA05F1491E214099409E40761E1640EE
:103380003143F0BC01F0B3BF0CED00E0064900F0A2
:10339000070208684FF6FF03184040EA0220034A7C
:1033A00010430860704700000CED00E00000FA05D3
:1033B00010B501460020234C012922D0022939D022
:1033C00010291DD161682268D20119D51E48C1F3A8
:1033D0008342C903805C0AD561681B4AC1F340413E
:1033E000921E515C194AB2FBF1F1484301E01849C1
:1033F00048436168490203D440000321B0FBF1F067
:1034000010BD226AC2F30121012903D1920701D51F
:10341000C80310BD022905D1626A920702D549F698
:10342000404010BD0329FCD121688903F9D54FF232
:10343000244010BD00F02AF96168C1F38131491CB4
:103440004900DBE700100240F26F000800127A002A
:1034500000093D002DE9F84305460078354CC007CA
:1034600054D0E0690026C00008D4E06940F08050E4
:10347000E061E069012600F0805000902E4801686C
:10348000C90512D40168804641F480710160FFF7DC
:1034900091FB074605E000BFFFF78CFBC01B6428CB
:1034A00023D8D8F80000C005F6D5206A10F4407083
:1034B00021D0A98801F4407181421CD0206A1F49A3
:1034C000012220F440700A6000220A602062C007D6
:1034D00011D0FFF76FFB074641F2883808E000BFC4
:1034E000FFF768FBC11B414502D90320BDE8F88303
:1034F000206A8007F4D5206A696820F44070084388
:1035000020621EB1E06920F08050E06128788007D9
:1035100005D56068A96820F44040084360602878B9
:10352000C00605D56068E96820F480000843606043
:103530000020DBE7001002400070004040044242DF
:103540002DE9F0470F46050061D0434E306800F08A
:103550000700B84209D2306820F0070038433060D5
:10356000306800F00700B84251D128683B4C810711
:1035700012D5400703D5606840F4E06060602878A9
:10358000000703D5606840F4605060606068A96817
:1035900020F0F000084360602878C00728D06868F1
:1035A000012810D02168022810D0890700292EDABE
:1035B000616821F0030101436160FFF7FBFA804677
:1035C00041F288390DE021688903EFE78901EDE7D1
:1035D000FFF7F0FAA0EB0801494502D90320BDE846
:1035E000F0876068696800F00C00B0EB810FEFD1E4
:1035F000306800F00700B8420BD9306820F00700AF
:1036000038433060306800F00700B84201D0012034
:10361000E5E72878400705D56068E96820F4E060B0
:10362000084360602878000706D56068296920F49F
:10363000605040EAC100606000F038F86168084AF4
:10364000C1F30311515CC840064908600648006890
:10365000FFF738FE0020C2E70020024000100240C1
:1036600002700008200000201800002004480549CE
:1036700000684968044AC1F30221515CC8407047A0
:103680002000002000100240127000080448054984
:1036900000684968044AC1F3C221515CC8407047C0
:1036A0002000002000100240127000080E4A5168ED
:1036B0000E4801F00C03042B11D0082B0FD10C483D
:1036C000C1F38343C903C05C0AD55168084AC1F3FA
:1036D0004041921E515C054A5043B0FBF1F07047E7
:1036E00004494843704700000010024000127A006D
:1036F000E06F000800093D002DE9F84F040070D08C
:103700002078C04DC00749D06868C0F38100012807
:1037100007D06868C0F38100022809D16868C00337
:1037200006D52868800339D560680028E7D035E0E1
:103730006068B0F5803F0BD010B1B0F5A02F11D06C
:10374000286820F480302860286820F4802002E077
:10375000286840F480302860606890B1FFF72AFA4A
:1037600006460AE0286840F480202860F0E700BFA1
:10377000FFF720FA801B642873D828688003F7D5E8
:103780000CE0FFF717FA064605E000BFFFF712FA54
:10379000801B6428F0D828688003F7D420789A4EDC
:1037A00080074FF001094FF0000839D5686810F024
:1037B0000C0F07D06868C0F38100022809D168683F
:1037C000C00306D42868800714D52069012808D1D1
:1037D00010E02069B0B1C6F80090FFF7EBF907469A
:1037E00005E00AE1FFF7E6F9C01B0228C4D8286803
:1037F0008007F7D52868616920F0F80040EAC10029
:1038000028600DE0C6F80080FFF7D4F9074604E011
:10381000FFF7D0F9C01B022823D828688007F7D407
:10382000207800072CD57948A169D9B1C0F800905B
:10383000FFF7C0F9074604E0FFF7BCF9C01B0228F8
:103840000FD8686A8007F7D571484FF4FA510068BD
:10385000B0FBF1F0009000BF0098411E0091FAD239
:103860000EE080E0C0F80080FFF7A4F9074604E00E
:10387000FFF7A0F9C01B022875D8686A8007F7D443
:103880002078400760D5E8690027C00008D4E869BF
:1038900040F08050E861E869012700F08050009016
:1038A0005C480168C90513D40168834641F48071FE
:1038B0000160FFF77FF9824606E000BFFFF77AF963
:1038C000A0EB0A0064284ED8DBF80000C005F5D54F
:1038D000E06801280AD008B1052813D0286A20F032
:1038E00001002862286A20F0040002E0286A40F003
:1038F00001002862E06841F2883B98B1FFF75AF96D
:1039000082460BE0286A40F004002862EEE700BF20
:10391000FFF750F9A0EB0A0159455AD8286A8007E9
:10392000F6D50CE0FFF746F9824605E0FFF742F9CD
:10393000A0EB0A0159454CD8286A8007F6D41FB17C
:10394000E86920F08050E861E06988B36968C1F3F4
:103950008101022944D00228C6F8608004D0FFF714
:1039600029F9044638E034E0FFF724F9074604E07B
:10397000FFF720F9C01B02282BD828688001F7D454
:10398000206AB0F5803F05D16868A16820F4003056
:1039900008436860D4E908010843696821F4741198
:1039A00008436860C6F86090FFF704F9044606E033
:1039B00025E000BFFFF7FEF8001B022809D82868A1
:1039C0008001F7D51BE000BFFFF7F4F8001B0228C9
:1039D00002D90320BDE8F88F28688001F4D40EE0F6
:1039E0000128F7D06868226A00F48031914204D13E
:1039F000616A00F47010884201D00120EAE70020DB
:103A0000E8E7000000100240000042428004424209
:103A1000200000200070004070B5040009D0606AEA
:103A2000002540B125616561A56294F8510040B15F
:103A30000CE0012070BD6068B0F5827FF4D0E561D4
:103A4000F2E784F85050204600F040F8022084F855
:103A500051002068016821F040010160A08821899F
:103A600000F4827001F404410843A18901F400616B
:103A70000843217C01F002010843217D01F001018E
:103A80000843218B01F400710843217F01F03801C4
:103A9000084394F8201001F080010843218D01F4BF
:103AA0000051084321680860A069042101EA104020
:103AB000216848602068C16921F40061C1616565C1
:103AC000012084F85100002070BD000030B585B0A1
:103AD00000240094019402940394006815498842DC
:103AE00025D11548C16941F48041C161C16901F422
:103AF00080410491816941F00801816180690F4D25
:103B000000F0080004904FF4204000900220019043
:103B10000320039069462846FEF756FF4FF4804085
:103B2000CDE90004694628460294FEF74DFF05B032
:103B300030BD00000038004000100240000C014081
:103B400010B5401EB0F1807F01D3012010BD4FF0B1
:103B5000E02460610F21601701F0C9FB0020A06123
:103B600007202061002010BD70B590F83C20012A8C
:103B700026D0012480F83C40022280F83D200368D2
:103B80005A689D6822F070060A6832435A600D4BED
:103B900002689A4208D0B2F1804F05D00A4B9A428F
:103BA00002D00A4B9A4204D1496825F08003194398
:103BB000916080F83D40002180F83C10084670BDBF
:103BC000022070BD002C01400004004000080040AD
:103BD00010B5040003D094F83D0010B107E00120B7
:103BE00010BD002084F83C00204600F01FF80220A1
:103BF00084F83D00211D206801F0FCF9012084F8C3
:103C0000460084F83E0084F83F0084F8400084F8C1
:103C1000410084F8420084F8430084F8440084F8AA
:103C2000450084F83D00002010BD000008B5006884
:103C30000649884208D10648C16941F00201C161C4
:103C4000C06900F00200009008BD000000040040C0
:103C50000010024090F83D10012901D0012070476A
:103C6000022180F83D1000680B49884208D0B0F16D
:103C7000804F05D00949884202D00949884204D1C1
:103C8000816801F00701062903D0016841F00101B4
:103C90000160002070470000002C0140000400403B
:103CA0000008004070B5044690F83C00002501284B
:103CB00017D0012684F83C60022084F83D0020687B
:103CC000826822F0770222F47F42826008685028DE
:103CD00038D00DDC20284FD005DC90B3102811D14E
:103CE0004AE0022070BD302846D040280AD13BE08F
:103CF00060282FD070280DD0B0F5805F03D0B0F5CC
:103D0000005F12D0012584F83D60002084F83C005B
:103D1000284670BDCB68D1E90121206801F0A0F9E7
:103D20002068816841F0770109E0CB68D1E9012181
:103D3000206801F095F92068816841F48041816034
:103D4000E1E719E0CA684968206801F09BF9502151
:103D5000206806E0CA684968206801F0A4F960217B
:103D6000206801F087F9CEE7CA684968206801F049
:103D700089F940212068F4E7226801461046F0E7FF
:103D800070B5040004D094F84100002510B106E09D
:103D9000012070BD84F84050204600F023F8242014
:103DA00084F841002068C16821F40051C1602046B8
:103DB00001F0F0F92068016921F490410161206867
:103DC000416921F02A0141612068C16841F4005134
:103DD000C1606564202084F8410084F84200656376
:103DE000002070BD70B586B0002400940194029448
:103DF000039403682648254E022103220515B34289
:103E00001ED1836943F480438361836903F4804353
:103E10000493836943F00403836180691D4E00F0BD
:103E2000040004900802CDE900010392694630467F
:103E3000FEF7CAFDCDE9005469463046029420E001
:103E4000154EB3421FD1C36943F48023C361C369D4
:103E500003F480230493836943F00803836180693A
:103E6000CDE9005100F00800CDE903200B4D694673
:103E70002846FEF7A9FDE814CDE900046946284666
:103E80000294FEF7A1FD06B070BD000000380140AD
:103E9000001002400008014000480040000C0140B2
:103EA0002DE9F843044690F84200994616460D461F
:103EB000202802D00220BDE8F883ADB1A6B10020D1
:103EC0006064222184F842102063FEF773FEA68509
:103ED0008046E685A0684FF48057B84201D120693A
:103EE00020B12E46002526E00120E4E7002622E04E
:103EF0004346002220212046CDF8009001F0A6F98B
:103F000008B10320D7E726B1A068B8421BD038B16A
:103F100008E020684068C0F3080025F8020B07E0BD
:103F2000206980B12068406800F07F0006F8010B2E
:103F3000E08D401EE085E08D0028D9D1202084F856
:103F400042000020B7E720684068EFE72DE9F8431A
:103F5000044690F841001F4616460D46202802D020
:103F60000220BDE8F8837DB176B100206064212095
:103F700084F84100FEF71EFEA6848046E684A06811
:103F8000B0F5805F02D003E00120EAE7206910B1BC
:103F90002E4600250EE000260CE08021204601F090
:103FA00055F9A0B9AEB116F8010B21684860E08C54
:103FB000401EE084E08C43464FF00002009700284A
:103FC000EBD14FF04001204601F040F930B1032021
:103FD000C7E735F8020BC0F30800E6E7202084F8B5
:103FE00041000020BDE7FEE701684A69D24352055F
:103FF0000FD46FF480624A61002140F8301F202204
:1040000042738173026942F004020261017301206C
:1040100070470020704700002DE9F84F0446006803
:1040200089460B9D01689846174641F480610160FE
:104030002068016841F48071016000954FF0011B18
:104040000022594620460A9B00F0E4F84FF4007A1B
:1040500040B120680068C00501D5C4F840A0032025
:10406000BDE8F88F216809F0FE0008612B46284959
:1040700020460A9A00F016F9F0BB20684169806971
:1040800000902A4620460A9900F0A2F940B1206C1F
:1040900004283AD12068016841F40071016034E0DD
:1040A000FEB2B8F1010F09D02168380A08612A462A
:1040B00020460A9900F08CF90028E8D120680661B2
:1040C0002A4620460A9900F083F90028DFD12068AB
:1040D000016841F480710160009500225946204634
:1040E0000A9B00F097F80028B3D1216809F0FF007F
:1040F00040F00100086100E007E02B46044920463B
:104100000A9A00F0CFF80028AAD00120A8E7000002
:10411000020001002DE9F843044600680D46DDE980
:10412000089701689846164641F4807101604B4635
:1041300000224FF001112046009700F06BF848B1C3
:1041400020680068C00502D54FF400702064032089
:10415000BDE8F883216805F0FE0008613B464A4649
:104160001549204600F09EF888B9206841698069A9
:1041700000903A464946204600F02AF948B1206CA2
:10418000042804D12068016841F400710160012015
:10419000DEE7F5B2B8F1010F09D02168300A0861F5
:1041A0003A464946204600F013F90028E7D1206836
:1041B00005610020CCE700000200010070B5164642
:1041C0000D4604461EE02046FFF70EFF08B1012011
:1041D00070BD681C16D0FEF7EDFC801BA84200D80D
:1041E00085B920684069C04340070BD5002044F8DA
:1041F000300F20216173A073216941F020012161FA
:104200002073E4E720684069C0434007DBD4002006
:1042100070BD00002DE9F047984617460D4604464C
:10422000C1F30746DDF820902AE000BFB8F1FF3F58
:1042300026D0FEF7BFFCA0EB0901414502D8B8F13A
:10424000000F1DD12068012E16D0806925EA0000DC
:104250000004000C12D00020B84211D1002044F814
:10426000300F20216173A073216941F02001216189
:1042700020730120BDE8F0874069E7E70120EBE704
:104280002068012E0AD0806925EA00000004000C95
:1042900006D00020B842C9D00020EBE74069F3E720
:1042A0000120F7E72DE9F047984616460D460446EB
:1042B0004FF000094FF0200AC1F3074723E02068C0
:1042C0004069C043400515D42068016841F400717D
:1042D000016021686FF480604861C4F8309084F810
:1042E0003DA084F83E90216C41F00401216484F8E3
:1042F0003C9021E0701C06D0FEF75CFCA0EB0800AF
:10430000B04203D816B1012F1FD021E02068012F41
:1043100015D0806925EA00000004000C18D000BF09
:1043200044F8309F84F80DA084F80E90216941F084
:104330002001216184F80C900120BDE8F0874069DC
:1043400025EA00000004000CEAD12068406901E081
:104350002068806925EA00000004000CAFD1ECE77A
:104360002DE9F041002590460E460446202728E01E
:104370004069C043C0060CD454F8301B6FF01000E5
:10438000486144F810596777A577206A206225773D
:1043900014E0FEF70FFCA0EB0800B04200D886B98D
:1043A00020684069C04340060BD544F8305F67730E
:1043B000A573206940F02000206125730120BDE82D
:1043C000F08120684169C9434906D1D40020F6E74D
:1043D00070B516460D4604461EE02046FFF704FE63
:1043E00008B1012070BD681C16D0FEF7E3FB801BEE
:1043F000A84200D885B920684069C04300060BD5A3
:10440000002044F8300F20216173A073216941F02E
:10441000200121612073E4E720684069C043000661
:10442000DBD4002070BD00002DE9F0410C460546AC
:10443000012291031348FEF7B7FB134F4FF4807628
:10444000002231463846FEF7AFFB1049081F2A0A02
:1044500008E00A6003689B07FCD50D6003689B07B2
:10446000FCD5641E002CF4D101688907FCD50168D5
:104470000906FCD431463846BDE8F0410122FEF77A
:1044800093BB000000100140000801400C380040C0
:1044900070B5084C0546238862880021084600F064
:1044A0003BF96188208841432846BDE87040FFF70A
:1044B000BBBF00000C00002010B50122510385484D
:1044C000FEF772FB00F008F9012000F055FA4FF4F6
:1044D0007A70FEF767FACB2000F04EFA392000F030
:1044E00071FA2C2000F06EFA002000F06BFA3420F4
:1044F00000F068FA022000F065FACF2000F03CFAE4
:10450000002000F05FFAC12000F05CFA302000F0DB
:1045100059FAE82000F030FA852000F053FA002024
:1045200000F050FA782000F04DFAEA2000F024FA6A
:10453000002000F047FA002000F044FAED2000F0DF
:104540001BFA642000F03EFA032000F03BFA122030
:1045500000F038FA812000F035FAF72000F00CFA6C
:10456000202000F02FFAC02000F006FA232000F0EF
:1045700029FAC12000F000FA102000F023FAC5202B
:1045800000F0FAF93E2000F01DFA282000F01AFA97
:10459000C72000F0F1F9862000F014FA362000F070
:1045A000EBF9482000F00EFA3A2000F0E5F955202A
:1045B00000F008FAB12000F0DFF9002000F002FA64
:1045C000182000F0FFF9B62000F0D6F9082000F01E
:1045D000F9F9822000F0F6F9272000F0F3F9F22033
:1045E00000F0CAF9002000F0EDF9262000F0C4F92F
:1045F000012000F0E7F9E02000F0BEF90F2000F004
:10460000E1F9312000F0DEF92B2000F0DBF90C207D
:1046100000F0D8F90E2000F0D5F9082000F0D2F90A
:104620004E2000F0CFF9F12000F0CCF9372000F057
:10463000C9F9072000F0C6F9102000F0C3F90320E3
:1046400000F0C0F90E2000F0BDF9092000F0BAF921
:10465000002000F0B7F9E12000F08EF9002000F012
:10466000B1F90E2000F0AEF9142000F0ABF90320F0
:1046700000F0A8F9112000F0A5F9072000F0A2F938
:10468000312000F09FF9C12000F09CF9482000F093
:1046900099F9082000F096F90F2000F093F90C200A
:1046A00000F090F9312000F08DF9362000F08AF901
:1046B0000F2000F087F9112000F05EF97820FEF756
:1046C00071F9292000F058F9BDE81040032000F0EE
:1046D000A7B800000010014070B50D4D4FF4005414
:1046E000002221462846FEF75FFAC820FEF75AF955
:1046F000002261110748FEF757FAC820FEF752F969
:1047000021462846BDE870400122FEF74DBA000060
:1047100000100140000801402DE9F05FDFF8F4B01F
:1047200090460F4681464FF4804A1E46002251466D
:104730005846FEF739FA00224FF480713648FEF7EA
:1047400033FA364D2A2129602C1F20688007FCD5BA
:1047500020680006FCD4012251465846FEF724FA90
:104760004FEA1920286020688007FCD509F0FF0077
:10477000286020688007FCD54FEA18202860206850
:104780008007FCD508F0FF00286020688007FCD572
:1047900020680006FCD40022D1465146D84658462F
:1047A000FEF702FA2B20286020688007FCD52068DD
:1047B0000006FCD4012249464046FEF7F5F9380AC6
:1047C000286020688007FCD5F8B228602068800740
:1047D000FCD5300A286020688007FCD5F0B228603C
:1047E00020688007FCD520680006FCD400224946DA
:1047F0004046FEF7D9F92C20286020688007FCD5B8
:1048000020680006FCD4BDE8F05F012211020248D6
:10481000FEF7CAB900100140000801400C38004002
:104820002DE9F041074600224FF480411A48FEF777
:10483000BBF91A4D4FF48074002221462846FEF73A
:10484000B3F9174936200860081F01688907FCD5AD
:1048500001680906FCD4012221462846FEF7A4F986
:10486000104CF0254FF4A07667B1012F0CD0022F29
:104870000CD0032F04D1E82000F0A4F86680258036
:10488000BDE8F081482002E02820F5E7882000F00C
:1048900099F865802680F3E7001001400008014088
:1048A0000C3800400C0000200FB44A1E2DE9F84FD0
:1048B000C3F30726324494B2DFB2DDE90FA9421EEA
:1048C0003A4492B22346FFF727FF002523E00C98D5
:1048D0000E99203800FB0650002431F810804FEA72
:1048E00019204FEA1A2B009012E000BF08FA04F0DA
:1048F000000405D5584600F065F80AF0FF0004E012
:10490000009800F05FF809F0FF0000F05BF8641C0D
:10491000A742EBD86D1CAE42D9D8BDE8F80F5DF8C0
:1049200014FB2DE9FE4F9B46DDE90D9814460E461B
:104930000546DFB2DDF830A019E07819B0F5A07FA8
:1049400009D3CBF3072081198EB200253044F0281B
:1049500010D2202A0AD0CDF800A0CDE901985B46FC
:1049600031462846FFF7A0FF781985B2641C2278EB
:10497000002AE2D1BDE8FE8F70B5044600224FF454
:1049800080410D48FEF710F90C4E4FF4807500225F
:1049900029463046FEF708F909480460001F0168FF
:1049A0008907FCD501680906FCD429463046BDE8D4
:1049B00070400122FEF7F8B80010014000080140E5
:1049C0000C38004070B50446012291030D48FEF7F3
:1049D000EBF80D4E4FF48075002229463046FEF765
:1049E000E3F80A480460001F01688907FCD50168E4
:1049F0000906FCD429463046BDE870400122FEF786
:104A0000D3B8000000100140000801400C380040FD
:104A1000FEB500242A4800940194284902940160BC
:104A2000891581600473047506250561C902446017
:104A3000C161FDF73BFD08B172B6FEE70126CDE985
:104A40000046022469461E480294FDF7A3FC08B103
:104A500072B6FEE7CDE9006469461948FDF79AFC95
:104A600008B172B6FEE70094032469461448019425
:104A7000FDF790FC08B172B6FEE708200426CDE9E8
:104A8000000669460E48FDF785FC08B172B6FEE7E0
:104A90000520CDE9006069460948FDF77BFC08B1B7
:104AA00072B6FEE769460648CDE90045FDF772FC9F
:104AB000002801D072B6FEE7FEBD000000240140D0
:104AC000300000202DE9F04F85B0002432480094DA
:104AD000019402940394816941F01001816181691C
:104AE00001F010010491816941F020018161816927
:104AF00001F020010491816941F004018161816923
:104B000001F004010491816941F00801816180692B
:104B1000DFF8889000F008004FF4C04504900022B0
:104B200029464846FEF740F8DFF874A04FF4905746
:104B3000002239465046FEF737F8DFF868B04FF4E8
:104B40008078002241465846FEF72EF8009502264E
:104B500001250396CDE9015469464846FDF734FF27
:104B6000E803CDE90004694648460294FDF72CFFAE
:104B700000970396CDE9015469465046FDF724FF9E
:104B8000CDF800800396CDE9015469465846FDF7FB
:104B90001BFF05B0BDE8F08F00100240001001407F
:104BA000000C0140000801400E4810B50C4901609E
:104BB0004FF48271416000218160C1604FF4007246
:104BC0000161C0E90512C1610162416281620A218D
:104BD000C162FEF721FF002801D072B6FEE710BDCA
:104BE00000380040B400002010B586B000241848FA
:104BF0000094019402940394049414490594016070
:104C000040F2CF21C0E9011442F20F71C0E9031450
:104C10008461FEF7DDFF08B172B6FEE74FF4805005
:104C2000009069460A48FFF73DF808B172B6FEE702
:104C30002020CDE9040404A90548FEF795FF0028CB
:104C400001D072B6FEE706B010BD000000040040BF
:104C50000C010020FEE7FEE77047000070B51B4D19
:104C60000024602208210B2000F066F9042211467E
:104C70000F2000F061F903220021102000F05CF900
:104C8000284600F0B7F8102211460B2000F054F926
:104C90000220FDF787FE102200210B2000F04CF9C6
:104CA000042200210F2000F047F9042000F054F8FE
:104CB00010F00F0103D00F2901D0002070BD641C3B
:104CC000052CCEDB4FF0FF3070BD000000C63E0566
:104CD00070B50D4D05242046295D00F03FF9641C98
:104CE000E4B2202CF7D3FFF7B9FF0F2000F07DF8D6
:104CF000012000F00DF90548006800F055F8BDE806
:104D000070400F2000F064B8306F000810000020E1
:104D10003EB515460C464FF0FF310094CDE90151E8
:104D20000246012334210A48FEF7C4F8002009494D
:104D30000BE0225C01EB121302F00F021B788A5C7D
:104D400043EA02122254401C80B2A842F1D33EBD75
:104D500060000020CE6F000810B588B004462028FF
:104D600002D3002008B010BD202269460020FFF7C2
:104D7000CFFF1DF80400F5E710B50AA100F00F0001
:104D80000A78C0F10F0040F0B001D0B240F00F043B
:104D90000A2000F0E3F82146BDE810400B2000F0A7
:104DA000DDB80000E080600010B5044600F078F83F
:104DB00002482044BDE8104000F01CB8404B4C00B5
:104DC00008B1002100E010211022052000F0B4B845
:104DD0000F220146052000F0AFB808B1102100E015
:104DE00000211022072000F0A7B80F22014607205B
:104DF00000F0A2B82DE9F041264C274D6300274E64
:104E000000214A1C00FA02F22A44B24202D9491C8B
:104E10000529F6D34A1C904000EB1442B2FBF3F292
:104E2000D2B203FB12060D3AD0B28508A0EB85077B
:104E30004807010EE022102000F07EF805EB8710F5
:104E4000C1B2142000F08AF80EB306EB144100251D
:104E500028464FF4004600BF24FA00F3994204D3D9
:104E600026FA00F21543C91A02D0401C1028F3D3C9
:104E7000E9B2152000F072F8290A162000F06EF849
:104E800008220021BDE8F041122000F055B80822A8
:104E90001146F7E760FECD0080F17F968038F57E01
:104EA00041F2C701A0FB010110B5184A002000BF64
:104EB00000EB400302EB4303DB888B4202D8401C2B
:104EC0001428F5D300EB400002EB40040822A1783F
:104ED000172000F031F8E178C3221A2000F02CF8F6
:104EE00021791B2000F03AF80B220821102000F055
:104EF00023F83F220021082000F01EF83F22002165
:104F0000BDE81040092000F017B80000506F0008FD
:104F10000F2201460C2000F00FB800000EB54FF034
:104F2000FF338DE80E000246012334210148FEF7CD
:104F3000E9F80EBD6000002030B420280AD2064BEC
:104F400011401C5C944321431954191830BC0122B0
:104F5000FFF7E4BF30BC704728020020202805D2AC
:104F6000034A115411180122FFF7D8BF70470000FF
:104F7000280200207047FEF78BB930B593B0282186
:104F80006846FBF774FA14210AA8FBF770FA0025AB
:104F900001200F9510951195010412958DE82300BD
:104FA00004904FF4E010CDE90810022407946846FD
:104FB000FEF7A2FB08B172B6FEE70AA90F2081E84E
:104FC00031004FF48060CDE90D0502210AA8FEF7FB
:104FD000B7FA08B172B6FEE74FF4004011900F9493
:104FE0000FA8FEF737FA002801D072B6FEE713B01B
:104FF00030BD7047F0B50268164B174C174D4FF097
:105000008047984205D0B84203D0A04201D0A842C0
:1050100003D122F070064A683243984205D0B84264
:1050200003D0A04201D0A84203D122F44074CA6840
:1050300022434C6922F08002224302608A68C262E5
:105040000A688262984201D10969016301214161C4
:10505000F0BD0000002C01400004004000080040AA
:1050600010B5846842EA032224F47F440A432243B1
:10507000826010BD826822F070020A4342F007018C
:105080008160704710B5036A046A24F00104046269
:10509000846924F0F00444EA021423F00A020A436B
:1050A0008461026210BD10B5036A046A24F0100422
:1050B0000462846923F0A00324F4704444EA0232B9
:1050C00043EA01118261016210BD00000FB44FF488
:1050D000807100B5C1B043AB6846429AFBF7CAF88D
:1050E0006846FBF7A5F982B24FF0FF3369460348E3
:1050F000FEF72CFF41B05DF814FB000054010020C6
:105100002DE9FC47814621A098460068009020A028
:10511000170000680E4601901FD0002431190D467B
:10512000434601224846FEF7BBFE002816D1305DFB
:10513000082815D07F2813D00D281DD00A281BD091
:10514000781E8442EAD02946434601224846FEF7AB
:10515000FDFE002802D1641CE0E70120BDE8FC87C9
:10516000002CDBDD4346032201A94846FEF7EEFE94
:105170000028F3D1641ED1E70020305543460222B7
:1051800069464846FEF7E2FEE8E700000D0A000027
:105190000820080070B5044600680169E26821F43F
:1051A0004051114301612169A068084361690843C6
:1051B0002168CA6841F20C639A430243CA602068BE
:1051C0004169A26921F44071114341611E4920687F
:1051D000884202D1FEF75AFA01E0FEF747FA00EBE7
:1051E000C00101EB0012606864218000B2FBF0F3A3
:1051F000B3FBF1F36FF018067343B2FBF0F5B2FBAB
:10520000F0F605EB8305322303EB0515B5FBF1F54D
:10521000B6FBF1F605F0F00505EB0615B2FBF0F66E
:10522000B2FBF0F0B0FBF1F06FF01802504306EB68
:10523000800003EB0010B0FBF1F0216800F00F00DC
:105240002844886070BD0000003801402DE9F0411D
:10525000984617460E460446069D27E0681C25D052
:105260002DB1FDF7A7FCA0EB0800A8421ED92068CD
:105270000C3050E8001F21F4D07140E80012002AE1
:10528000F5D12068143050E8001F21F0010140E8FA
:105290000012002AF5D1202084F8410084F8420051
:1052A000002084F840000320BDE8F08120680068F9
:1052B00036EA000004D00020B842CFD00020F3E747
:1052C0000120F9E7FEE7490050EAC12018BF042099
:1052D0004A0D18BF40F0010040F2FF72B2EB515F7F
:1052E00008BF40F00200012808BF052070470907E9
:1052F000090E002804DB00F1E02080F8001470475C
:1053000000F00F0000F1E02080F8141D70473038E5
:105310000A2801D201207047002070470F2802D9C7
:1053200002A0FFF7D3BEC0B2FFF726BD4F757420B1
:105330006F6620626F756E643A20302D31350D0A2C
:105340000000000010B5FFF789FC010004D0BDE8A3
:10535000104002A0FFF7BABE10BD000043616C69A7
:1053600062726174696F6E206661696C65642C207D
:10537000726573203D2025640D0A000070B588B069
:10538000202269460020FFF7C3FC00246E460AA0D5
:10539000315DFFF79BFEE543680702D108A0FFF7E8
:1053A00095FE280702D107A0FFF790FE641CE4B227
:1053B000202CECD308B070BD2530325820000000FE
:1053C000202000000D0A00000449054A01449142D2
:1053D00002D304A0FFF77ABEFFF7E6BC00CA91FE35
:1053E00081CFD4674F7574206F6620626F756E64CD
:1053F0003A2032343030303030302D31373636309C
:1054000030303030300D0A0010B516A0FFF75EFEC8
:105410001EA0FFF75BFE27A0FFF758FE3048FFF7FE
:1054200055FE3048FFF752FE2FA0FFF74FFE38A081
:10543000FFF74CFE4048FFF749FE40A0FFF746FE4D
:105440004AA0FFF743FE55A0FFF740FE5FA0FFF71D
:105450003DFE69A0FFF73AFEBDE8104073A0FFF7DC
:1054600035BE000068656C702020202020202020A0
:105470002020202020202D2073686F7720746869F9
:1054800073206D6573736167650D0A007363616EE8
:1054900020202020202020202020202020202D20FF
:1054A000706572666F726D20493243207363616E5E
:1054B0000D0A000064756D7020202020202020201F
:1054C0002020202020202D207265616420616C6CDA
:1054D000207265676973746572730D0A00000000BD
:1054E000D871000878710008696E69742020202046
:1054F000202020202020202020202D20696E69746B
:1055000069616C697A65205238323054320D0A0074
:1055100063616C6962726174652020202020202004
:1055200020202D2063616C6962726174652052389D
:10553000323054320D0A00001871000862616E6446
:105540007769647468203C76616C3E2020202D20B1
:105550005365742049462062616E6477696474689B
:10556000205B302D31355D0D0A0000006C6E615FEF
:105570006761696E203C76616C3E202020202D20E2
:10558000536574206761696E206F66204C4E412020
:105590005B302D31355D0D0A000000007667615FDC
:1055A0006761696E203C76616C3E202020202D20B2
:1055B000536574206761696E206F662056474120ED
:1055C0005B302D31355D0D0A000000006D69786596
:1055D000725F6761696E203C76616C3E20202D20F1
:1055E000536574206761696E204D69786572205B30
:1055F000302D31355D0D0A006C6E615F616763208F
:105600003C76616C3E20202020202D20456E61627A
:105610006C652F64697361626C65204C4E4120415A
:105620004743205B302D315D0D0A00006D697865C0
:10563000725F616763203C76616C3E2020202D20E4
:10564000456E61626C652F64697361626C65204DA3
:105650006978657220414743205B302D315D0D0A2A
:1056600000000000012802D90248FFF72FBDC0B298
:10567000FFF7A6BB2C5300080F2802D90248FFF7FA
:1056800025BDC0B2FFF7A4BB2C530008012802D9E6
:1056900002A0FFF71BBDC0B2FFF79FBB4F75742080
:1056A0006F6620626F756E643A20302D310D0A00EE
:1056B0000F2802D90248FFF709BDC0B2FFF795BB1A
:1056C0002C53000810B5202802D3202104A003E0A9
:1056D000FFF742FB014609A0BDE81040FFF7F6BC0A
:1056E0004F7574206F6620626F756E643A20307853
:1056F00030302D3078253032580D0A0025303258A0
:105700000D0A000070B500244FF6FF7505EA44014C
:105710000A2301220A48FDF717FB58B109A0FFF739
:10572000D5FC641CA4B2802CF0D3BDE8704006A068
:10573000FFF7CCBC214605A0FFF7C8FCF1E700004D
:10574000600000202E0000000D0A00003078253097
:10575000325820000F2802D90248FFF7B7BCC0B268
:10576000FFF7D6BB2C530008202803D3202102A02A
:10577000FFF7ACBCFFF7F2BB4F7574206F66206279
:105780006F756E643A20307830302D3078253032A5
:10579000580D0A0000B5A3B054A0FFF797FC4FF0D6
:1057A000FF33802269465448FFF7AAFC51A168469E
:1057B000FAF784FE002860D050A16846FAF77EFE12
:1057C00000285CD04FA16846FAF778FE002859D02F
:1057D0004EA16846FAF772FE002856D04DA16846E1
:1057E000FAF76CFE002853D04DA16846FAF766FE22
:1057F000002850D020AA4CA16846FAF755FD012890
:105800004CD020AA4CA16846FAF74EFD012849D099
:1058100020AA4DA16846FAF747FD012846D020AAE4
:105820004CA16846FAF740FD012843D020AA4CA1BC
:105830006846FAF739FD012840D020AA4CA16846F5
:10584000FAF732FD01283DD020AA4CA16846FAF7AC
:105850002BFD01283AD020AA4CA16846FAF724FD76
:10586000012837D021AB20AA4BA16846FAF71CFDCE
:10587000022834D04CA0FFF729FC23B000BDFFF76D
:10588000C3FDFAE7FFF73EFFF7E7FFF721FAF4E77A
:10589000FFF758FDF1E7FFF771FDEEE72098FFF7FE
:1058A00093FDEAE72098FFF739FDE6E72098FFF738
:1058B000E3FEE2E72098FFF74DFFDEE72098FFF7D1
:1058C000F7FEDAE72098FFF7CDFED6E72098FFF73E
:1058D000DDFED2E72098C0B2FFF7F4FECDE72198B5
:1058E000C1B22098C0B2FFF73FFFC6E7723832302E
:1058F00074323E20000000005401002068656C7086
:10590000000000007363616E00000000696E69743E
:105910000000000063616C696272617465000000E0
:1059200064756D70000000006672657175656E6368
:10593000792025750000000062616E6477696474E7
:1059400068202575000000006C6E615F6761696EFC
:10595000202575007667615F6761696E2025750097
:105960006D697865725F6761696E2025750000005A
:105970006C6E615F61676320257500006D697865F5
:10598000725F6167632025750000000072656164C5
:105990002025303278000000777269746520253048
:1059A0003278202530327800556E6B6E6F776E201E
:1059B000636F6D6D616E642C207472792060686510
:1059C0006C70600D0A00000096B0FDF769FCFFF7EF
:1059D000D4FAFFF777F85748416941F00101416176
:1059E0004069002200F00100009011460B20FDF7F5
:1059F000ADFC0B20FDF79CFCFFF70AF8FFF7F4F86D
:105A00004E484D494FF4E13500240160C0E901548E
:105A10000C26C460C0E904468461C461FEF7B0F995
:105A200008B172B6FEE745484549F438016045497A
:105A3000C0E901144FF48041C0E90341446184612D
:105A4000C4610462FDF7BCF808B172B6FEE7FFF767
:105A5000ABF83A483C4948300160C0E90154C460A1
:105A6000C0E904468461C461FEF78AF908B172B6E0
:105A7000FEE73648FCF722FC344906220C3933484D
:105A8000FCF7FAFD2D484838FEF7E4F84FF47A7534
:105A90002B4606222EA12948FEF758FA2B488430BF
:105AA0000068016841F040010160012211022F48A5
:105AB000FDF77AF8012211032D48FDF775F8FEF77E
:105AC000FBFC0020FEF7ACFE42F665163046FEF702
:105AD000DFFC4FF478711F20264CCDE9010126A28E
