:020000040800F2
:10000000F00D00209D010008DB25000849230008B1
:10001000D925000881070008D3330008000000003C
:10002000000000000000000000000000B1270008F0
:10003000D507000800000000E9250008B3270008E4
:10004000B7010008B7010008B7010008B7010008B0
:10005000B7010008B7010008B7010008B7010008A0
:10006000B7010008B7010008B7010008B701000890
:10007000B7010008B7010008B7010008B701000880
:10008000B7010008B7010008B7010008B701000870
:10009000B7010008B7010008B7010008D70700083A
:1000A000B7010008B7010008B7010008B701000850
:1000B000B7010008B7010008B7010008B701000840
:1000C000B7010008B7010008B7010008B701000830
:1000D000B7010008B7010008B7010008B701000820
:1000E000B7010008B7010008B7010008B701000810
:1000F000B7010008B7010008B7010008B701000800
:10010000B7010008B7010008B7010008B7010008EF
:10011000B7010008B7010008B7010008B7010008DF
:10012000B7010008B7010008B7010008B7010008CF
:10013000B7010008B7010008B7010008B7010008BF
:10014000B7010008B7010008B7010008DD25000865
:10015000B7010008B7010008B7010008B70100089F
:10016000B7010008B7010008B7010008B70100088F
:10017000B7010008B7010008B7010008000000003F
:10018000B7010008B7010008DFF80CD000F0CAFA88
:100190000048004789430008F00D002006488047CA
:1001A00006480047FEE7FEE7FEE7FEE7FEE7FEE75C
:1001B000FEE7FEE7FEE7FEE74928000889010008A0
:1001C0002DE9F05F0546002092469B46884606468C
:1001D000814640241BE0284641464746224600F01F
:1001E000F1F953465A46C01A914110D311461846A8
:1001F000224600F0D8F92D1A67EB01084F46224637
:100200000120002100F0CFF917EB00094E41201E1C
:10021000A4F10104DFDC484631462A464346BDE8E6
:10022000F09F40EA01039B0703D009E008C9121FB1
:1002300008C0042AFAD203E011F8013B00F8013BA0
:10024000521EF9D27047D2B201E000F8012B491ECC
:10025000FBD270470022F6E710B513460A46044663
:100260001946FFF7F0FF204610BD2DE9FE4F8046EE
:1002700081EA0300C00F0C46009021F0004123F0FA
:100280000045B8EB0200A94105D240462146904600
:100290001C460B46024623F00040104347D0270D72
:1002A000C7F30A00C3F30A510290401A0190402894
:1002B0006BDAC3F3130040F4801B0098924620B120
:1002C0000023D2EB030A63EB0B0B01985946C0F1F4
:1002D0004002504600F067F906460D465046594622
:1002E000019A00F07FF910EB08006141002487EAD1
:1002F000115284EAE7731A4340D0009A62B3019A1C
:10030000012A4FEA075215DC001B61EB02014FF096
:10031000004202EA0752CDE90042001C41F580117B
:1003200032462B4600F07FF903B0BDE8F08F40461F
:100330002146F9E7001B61EB0201001C41F5801327
:1003400000185B412018A2F5001747EB030140EAB3
:10035000D570B6196D4111E06D084FEA360645EAD1
:10036000C0754FEA0752001B61EB0201001C41F50A
:10037000801149084FEA30000019514132462B469E
:1003800003B0BDE8F04F00F03FB9009801224000F3
:100390000023D0EB020263EBE073009821464FEAA2
:1003A000E074B8EB000061EB0401E9E783F000437F
:1003B0005BE781F0004158E72DE9FE4F81EA030435
:1003C00004F0004421F0004100944FF0000B23F0B2
:1003D000004350EA01045ED052EA03045BD0C3F349
:1003E0000A54C1F30A552C44A4F2F3340194A0FB3F
:1003F0000254C1F3130141F48011C3F3130343F416
:10040000801301FB024400FB034E840A970A44EA6E
:10041000815447EA8357A4FB076802958D0A05FBC0
:1004200007854FEA932C04FB0C542705029D4FEAE5
:10043000065847EA1637B5EB08056EEB070C870E32
:10044000920E47EA811742EA8312A7FB0201B6EB3C
:100450000B0164EB00042B0D43EA0C335E1844EBF4
:100460001C50DA465146E7FB0201C5F313044FEA7C
:100470000B3343EA14534FEA0432019C43EA060368
:10048000A4F10C040294009CCDE900B400F0CBF878
:1004900003B0BDE8F08F00200146F9E72DE9F04DEB
:1004A00081EA030404F0004B21F0004514464FF0AC
:1004B000000A23F0004150EA050220D054EA01026C
:1004C0001DD0C5F30A570246C5F31303C1F3130049
:1004D000C1F30A5640F4801543F48013A7EB0608D5
:1004E000101BD64608F2FD3873EB050002D308F165
:1004F000010801E092185B41B8F1000F03DA002017
:100500000146BDE8F08D00204FF480110646844678
:100510000EE0171B73EB050705D3121B63EB0503F6
:1005200006434CEA010C49084FEA300092185B413F
:1005300050EA0107EDD152EA030012D082EA04002A
:1005400083EA0501084305D0101BAB4106D2012206
:10055000002306E000224FF0004302E06FF00102AA
:1005600053101AEB06004CEB085110EB0A0041EB5C
:100570000B01BDE8F04D00F047B830B50B46014621
:1005800000202022012409E021FA02F59D4205D332
:1005900003FA02F5491B04FA02F52844151EA2F1DC
:1005A0000102F1DC30BD202A04DB203A00FA02F11E
:1005B000002070479140C2F1200320FA03F3194351
:1005C00090407047202A04DB203A21FA02F00021F3
:1005D000704721FA02F3D040C2F120029140084353
:1005E00019467047202A06DBCB17203A41FA02F061
:1005F00043EAE07306E041FA02F3D040C2F1200280
:10060000914008431946704710B5141E73F1000459
:1006100008DA401C41F1000192185B411A4301D1F4
:1006200020F0010010BD2DE9F04D92469B4611B11E
:10063000B1FA81F202E0B0FA80F220329046FFF780
:10064000B2FF04460F4640EA0A0041EA0B01534656
:100650005A46084313D0114653EA010019D0C8F195
:1006600040025046FFF7AEFF05460E46504659463B
:100670004246FFF798FF084305D0012004E02046DA
:100680003946BDE8F08D0020054346EAE0762C436C
:1006900037430A986305E40AA0EB08000022FD0A2C
:1006A00044EA47540A3002D500200146E9E7010533
:1006B00010196941DDE9084500196941BDE8F04DAF
:1006C000A2E7C1F30A52C1F3130140F2FF3341F430
:1006D00080119A4202DA00200146704740F233430B
:1006E0009A42A2F2334202DC5242FFF76BBFFFF79D
:1006F0005ABF000030B5041E71F1000404DB4FF056
:100700000044404264EB0101141E73F1000405DB58
:100710001C464FF00043524263EB0403994208BF6A
:10072000904230BD064C074D06E0E06840F0010302
:1007300094E8070098471034AC42F6D3FFF728FD41
:100740006C6300088C6300080449054A31F81010F6
:1007500052F82000012200F03CBA000018440008C2
:100760000C0000200449054A31F8101052F820000E
:10077000002200F02EBA0000184400080C000020EF
:10078000FEE7000010B500224FEA020100EB8203F1
:10079000521CC3F88413102AF8D300224FF40073BC
:1007A0008418521C84F81C119A42F9D301704170CC
:1007B00001228270C0F8C41302764023837141760F
:1007C00080F81C1380F81D2380F81F1380F81E1377
:1007D000002010BD7047202000F0F2B80120FFF784
:1007E000C1FF064803F0ACFDC8210A2003F068FDF4
:1007F00003A003F00FFD72B6FEE700004C000020DE
:100800004552524F5200000030B5B3F5804F05D02D
:100810006FF0704140F82210002030BD8C690B68E9
:100820008D6823434C688989240144EA05242343C5
:1008300043EA014150F82230014C23401943E9E7D3
:100840000000F0CF10B50A6850F8223023F0010301
:1008500040F822308C68082C23D000234A682243B9
:10086000CC681C430B6922431A434B690E4C1A4354
:10087000CB691A430B6A1A434B6A1A438B6A1A43B1
:10088000CB6A1A430B6B1A438B691343CA6B096813
:100890001A4350F82130A343134340F8213000207D
:1008A00010BD4023DAE700007FFF0F0030B5D1E92B
:1008B000003443EA04138C688D89240244EA054419
:1008C00023430C8A094D00EB820005EB04542343BB
:1008D0000C7D6D0105EB0464896923430B4341687A
:1008E00001F040410B434360002030BD0000F0FFA9
:1008F00070B5044600F072F90546601C02D0044849
:100900000078044400F06AF9401BA042FAD370BD9D
:100910002C000020F0B587B014216846FFF79AFC40
:1009200015480168002924D10121016013480024E1
:10093000016841F0010101600068022500F001003A
:1009400005904FF68070CDE9000502AA03260C271A
:1009500082E8D00069460A4800F03EF84EF2B370D3
:10096000CDE9000502AA694682E8D000054800F0FA
:1009700033F807B0F0BD00002400002038380240F2
:1009800000100240000C024010B5202815D102F0E2
:10099000A7FD002811D00949881E02F01BFD002880
:1009A0000BD006480121001F4FF478420170818866
:1009B0004088BDE8104003F0EFBA10BD04000020ED
:1009C000044910B50A68024202D00860FFF7DCFF54
:1009D00010BD0000143C01402DE9F84FDFF8BCA128
:1009E0000022012503264FF00F090AF1040BAAF19A
:1009F000040E00BF0B6805FA02F42340A34270D135
:100A00000F7907F00307012F01D0022F16D1876855
:100A10004FEA420806FA08FC27EA0C07D1F80CC096
:100A20000CFA08FC4CEA070CC0F808C04768A7435A
:100A30000C79C4F3001494403C4344600C79E443C3
:100A4000A4070AD0C4684FEA420C06FA0CF7BC436C
:100A50008F6807FA0CF72743C7600C7904F003048A
:100A6000022C12D1D40800EB840CDCF8204057078C
:100A7000FF0E09FA07F824EA0804D1F8108008FAF2
:100A800007F848EA0408CCF8208004684FEA420CD2
:100A900006FA0CF7BC430F7907F0030707FA0CF7C7
:100AA000274307604C6814F4403F70D03C4C2768E3
:100AB00047F480472760246822F0030704F4804449
:100AC0000094384C07EB040CDCF8084897074FEA11
:100AD000177809FA08F7BC43334FB84202D1002710
:100AE00024E054E0314FB84201D101271EE0304FDD
:100AF000B84201D1022719E02E4FB84201D1032795
:100B000014E02D4FB84201D104270FE02B4FB8421B
:100B100001D105270AE02A4FB84201D1062705E096
:100B2000284FB84201D1072700E0082707FA08F745
:100B30002743CCF80878DAF800405746D1F804C0CB
:100B40009C435FEACC2C00D51C433C60DBF80040A2
:100B50005F46D1F804C09C435FEA8C2C00D51C434F
:100B60003C60DEF800407746D1F804C09C435FEA61
:100B70008C3C00D51C433C60084F083F3C68D1F8D2
:100B800004C09C435FEACC3C00D51C433C60521C33
:100B9000102AFFF42FAFBDE8F88F0000083C014099
:100BA000443802400030014000000240000402408E
:100BB00000080240000C02400010024000140240F5
:100BC00000180240001C02400069084000D00120CB
:100BD00070470AB1816170470904FBE701488068EA
:100BE000704700002C000020D0F8000302F0A2B8EB
:100BF000D0F8000302F0A8B8006802F063BA7047AA
:100C00002DE9F04106680446304602F05FFA0128FB
:100C100075D1206802F047FB002870D0206802F0F0
:100C200042FB800203D521684FF400104861206820
:100C300002F039FBC00203D521684FF480104861EF
:100C4000206802F030FB400103D521684FF080603E
:100C50004861206802F027FB800702D52168022046
:100C60004861206802F01FFB800015D521684FF015
:100C700000504861D6F84004C0070DD1102130461D
:100C800002F000FA304602F0DFF90121206802F09C
:100C9000EFFA2046FFF7ACFF206802F004FBC0012A
:100CA00002D5204601F0C0FA206802F0FCFA0007E5
:100CB00005D5204600F0C4F8216808204861206866
:100CC00002F0F1FAC043C0060CD42068816921F01B
:100CD00010018161204601F0F1FA2068816941F03C
:100CE00010018161206802F0DEFA800123D52068BE
:100CF00002F052FA074600254FF0010814E01AE00E
:100D000005F00F0108FA01F038420CD006EB45104F
:100D1000D0F80005E9B20004204602D501F081F8C0
:100D200001E001F073F96D1CA068A842E8D82168C1
:100D30004FF000704861BDE8F08170B58AB00400E2
:100D400005D094F8F9022568002618B107E00120C3
:100D50000AB070BD84F8F862204600F027F803203E
:100D600084F8F902E86BC00500D42661206802F01F
:100D700049F904F1100128220D466846FFF751FA9F
:100D800094E80F0002F0E4F80121206802F0AEFAC6
:100D9000282229466846FFF744FA94E80F0002F03B
:100DA000FFF9012084F8F9020020D1E710B586B0E0
:100DB000044614216846FFF74DFA2068B0F1A04FB1
:100DC0002FD119480021026842F001020260006838
:100DD00000F0010005904FF4C05000900220CDE9D2
:100DE0000101032003900A20049069460F48FFF791
:100DF000F3FD0D48001D016841F0800101600A48C3
:100E00001430016841F4804101600068002200F460
:100E1000804005901146432000F0A6F8432000F0E2
:100E200095F806B010BD00003038024000000240C6
:100E3000D0F8000301F0DCBFD0F8000301F0DCBF04
:100E4000D0F8000301F09DBF10B5044690F8F802F9
:100E500001280DD0012084F8F8020121206802F059
:100E6000D7F8206802F0EAF8002084F8F80210BDF4
:100E7000022010BD10B5044690F8F802012809D0F0
:100E8000012084F8F802206802F05EFA002084F85D
:100E9000F80210BD022010BD02488168027811449A
:100EA000816070472C0000200B4810B5016841F4A8
:100EB00000710160016841F480610160016841F4E2
:100EC00080710160032000F06FF80F2000F006F839
:100ED00000F024F8002010BD003C024070B50D4D1C
:100EE00004464FF47A712878B1FBF0F00A4909689A
:100EF000B1FBF0F000F072FD48B9102C07D20022CF
:100F00002146501E00F030F800206C6070BD0120BA
:100F100070BD00002C000020380000200A4808B5F1
:100F2000016841F480410160006800F48040009055
:100F30000548001F016841F080510160006800F021
:100F40008050009008BD000044380240002809DBB2
:100F500000F01F02012191404009800000F1E020D3
:100F6000C0F8001170470000F0B40E4B1B680C462F
:100F7000C3F30223C3F10705042D00D90425191D6D
:100F8000072901D2002300E0DB1E012606FA05F145
:100F9000491E214099409E40761E16403143F0BCC8
:100FA00002F0CCBA0CED00E0064900F00702086838
:100FB0004FF6FF03184040EA0220034A104308603E
:100FC000704700000CED00E00000FA052DE9F04745
:100FD0000E46050065D0DFF81481D8F80000F7B29E
:100FE00000F00700B04207D288F80070D8F800007F
:100FF00000F00700B04254D128683D4C810712D55B
:10100000400703D5206840F4E050206028780007AE
:1010100003D5206840F4604020602068A96820F073
:10102000F000084320602878C0072DD03049686858
:101030000839012812D0022813D0032811D00968DA
:10104000890700292DDA216821F00301014321607D
:10105000FFF7C4FD814641F2883A0EE00968890332
:10106000EFE709688901ECE7FFF7B8FDA0EB09019C
:10107000514502D90320BDE8F0872068696800F077
:101080000C00B0EB810FEFD1D8F80010404601F012
:101090000701B14207D90770006800F00700B042AD
:1010A00001D00120E7E72878400705D52068E968E6
:1010B00020F4E050084320602878000706D5206817
:1010C000296920F4604040EAC100206000F038F84F
:1010D0002168084AC1F30311515CC8400649086001
:1010E00006480068FFF7FAFE0020C4E7003C024013
:1010F0000838024022440008380000203000002058
:101100000448054900680968044AC1F38221515C1A
:10111000C8407047380000200838024032440008B8
:101120000448054900680968044AC1F34231515C2A
:10113000C840704738000020083802403244000898
:10114000154810B5006810F00C02144813D0411077
:10115000042A0FD0082A0ED10F4C241F22682368BE
:1011600002F03F025B0207D52068C0F38810A0FBA5
:10117000010106E0084610BD2168C1F38811A1FBFA
:1011800000010023FFF71CF82168C1F30141491C4D
:101190004900B0FBF1F010BD083802400024F40013
:1011A0002DE9F84F04006ED02078DFF84C93C0078B
:1011B000A9F104054AD009F104000168C1F38101D5
:1011C000012908D00068C0F3810002280AD1D9F8AB
:1011D0000000400206D52868800337D560680028E3
:1011E000E1D033E06068B0F5803F10D0B0F5A02FBB
:1011F000286810D020F480302860286820F48020EF
:1012000028606068A8B1FFF7E9FC06460DE0286891
:1012100040F48030F4E740F480202860F7E700BF16
:10122000FFF7DCFC801B642873D828688003F7D59F
:101230000CE0FFF7D3FC064605E000BFFFF7CEFC4D
:10124000801B6428F0D828688003F7D42078DFF862
:10125000AC8280074FF0000A3ED5A748001D016808
:1012600011F00C0F08D00068C0F3810002280BD1E8
:10127000D9F80000400207D42868800716D5E06836
:10128000012800D112E033E1E068B8B10120C8F8CC
:101290000000FFF7A3FC064605E000BFFFF79EFC39
:1012A000801B0228C0D828688007F7D528682169E4
:1012B00020F0F80040EAC10028600DE0C8F800A066
:1012C000FFF78CFC064604E0FFF788FC801B022831
:1012D0001FD828688007F7D42078000722D5864FCA
:1012E00087486169703771B101210160FFF776FCB1
:1012F000064604E0FFF772FC801B022809D8386814
:101300008007F7D50EE0C0F800A0FFF767FC06469F
:1013100005E082E0FFF762FC801B02287DD8386878
:101320008007F7D42078400768D5DFF8CCB10027D4
:101330000BF13C0BDBF80000C0000BD4DBF8001015
:1013400041F08051CBF80010DBF80000012700F0DD
:10135000805000906B4E3068C00510D4306840F467
:1013600080703060FFF73AFC009005E0FFF736FC34
:101370000099401A022850D83068C005F6D55E4E54
:10138000A0686C3601280FD00528306810D020F0F6
:1013900001003060306820F004003060A068B8B10F
:1013A000FFF71CFC00900FE0306840F00100F4E70C
:1013B00040F004003060F7E7FFF710FC0099411A95
:1013C00041F28830814266D830688007F4D50EE05B
:1013D000FFF704FC009007E0FFF700FC0099411ABA
:1013E00041F28830814256D830688007F4D42FB15A
:1013F000DBF8001021F08051CBF80010A069C8B3D1
:101400003D49091D0968C1F3810102294AD002281A
:10141000504607D0C8F8600000E03CE0FFF7DEFB74
:1014200004463BE04746C8F86000FFF7D7FB064696
:1014300005E000BFFFF7D2FB801B02282BD82868ED
:101440008001F7D4D4E907010843A16A2E4A49086C
:1014500002EB0141626A41EA8211084394F82C10C0
:1014600040EA0161C9F8001001203866FFF7B6FBB9
:10147000044606E03EE000BFFFF7B0FB001B022879
:1014800009D828688001F7D534E000BFFFF7A6FB34
:10149000001B022802D90320BDE8F88F28688001CC
:1014A000F4D427E00128F7D0D9F80000E26900F46D
:1014B000800191421CD1226A00F03F01914217D174
:1014C00047F6C071626A0140B1EB821F10D1A26A77
:1014D0004FF0FF3300F4403103EB5202B1EB024F07
:1014E00006D194F82C1000F07060B0EB016F01D0C1
:1014F0000120D1E70020CFE7043802400000474236
:10150000800E4742007000400000FFFF70B50400ED
:1015100009D0606A002540B125616561A56294F833
:10152000510040B10CE0012070BD6068B0F5827FD1
:10153000F4D0E561F2E784F85050204600F044F81A
:10154000022084F851002068016821F04001016008
:10155000A088218900F4827001F404410843A18924
:1015600001F400610843217C01F002010843217D60
:1015700001F001010843218B01F400710843217F30
:1015800001F03801084394F8201001F0800108436D
:10159000218D01F40051084321680860A0690421ED
:1015A00001EA104094F8241001F01001084321686A
:1015B00048602068C16921F40061C161656501204E
:1015C00084F85100002070BD10B586B00446142187
:1015D0006846FEF73FFE14492068884221D113482F
:1015E0000021026842F480420260006800F48040FA
:1015F00005900E481038026842F00202026000684E
:1016000000F0020005904FF4604000900220CDE908
:101610000101032003900520049069460448FFF768
:10162000DBF906B010BD0000003800404038024031
:10163000000402402DE9F84F044690F850000027BE
:101640001D461646894601280DD04FF0010B84F83F
:1016500050B0FFF7C3FA804694F85100BA4601280B
:1016600004D0022793E00220BDE8F88FB9F1000F03
:1016700073D0002E71D0032084F85100C4F854A018
:10168000C4F83090A686E686C4F838A0A4F83CA03A
:10169000A4F83EA0C4F844A0C4F840A0A068B0F5E7
:1016A000004F09D12068016821F0400101602068E5
:1016B000016841F48041016020680168490603D453
:1016C000016841F040010160E068B0F5006F6068BA
:1016D00003D030B3012E24D041E008B1012E1CD13B
:1016E000206B21680088C86006E02068816889074F
:1016F00009D5216B0988C160206B801C2063E08EB6
:10170000401EE08609E0FFF769FAA0EB0800A84256
:1017100002D3681C01D031E07DB3E08E0028E4D113
:1017200020E0206B21680078087306E0206881685B
:10173000890709D5216B09780173206B401C206350
:10174000E08E401EE0860AE0FFF748FAA0EB0800B2
:10175000A84203D3681C02D010E017E06DB1E08E00
:101760000028E3D142462946204600F099FF08B1FF
:1017700020206065A06818B106E0FFE7032706E0B7
:101780002068C16880680090606D00B1012784F80E
:1017900051B084F850A0384666E72DE9F84F04466A
:1017A00090F8500000270A9E1D4692468B464FF047
:1017B000010901280ED0012084F85000FFF70EFA2D
:1017C000804694F85100616801280CD0B1F5827F01
:1017D00007D102E00220BDE8F88FA16809B904280A
:1017E00001D00227C2E0BBF1000F27D0BAF1000FF1
:1017F00024D01DB394F85100042802D0052084F8A9
:10180000510000206065C4F838A0E587A587C4F8BA
:1018100030B0E586A58620646064206801684906CA
:1018200003D4016841F040010160E068B0F5006F49
:10183000606805D0E8B3012D46D07FE0012795E030
:1018400008B1012D39D1206B21680088C860206B58
:10185000801C2063E08E401EE0862EE020688168B8
:1018600089070FD5E18E69B1B9F1010F0AD1216B5A
:101870000988C160206B801C2063E08E401EE086DA
:101880004FF0000920688168C9070CD0E18F51B181
:10189000C068A16B0880A06B801CA063E08F401E15
:1018A000E0874FF00109FFF799F9A0EB0800B0427B
:1018B00000E009E001D3701C50D1E08E0028CDD1AA
:1018C000E08F0028CAD13FE0206B216800780873C0
:1018D000206B401C2063E08E401EE0862EE02068D6
:1018E000816889070FD5E18E69B1B9F1010F0AD17D
:1018F000216B09780173206B401C2063E08E401E31
:10190000E0864FF0000920688168C9070CD0E18F9C
:1019100051B1C068A16B0870A06B401CA063E08F40
:10192000401EE0874FF00109FFF758F9A0EB0800CF
:10193000B04202D3701C01D010E07EB1E08E0028CE
:10194000CDD1E08F0028CAD142463146204600F072
:10195000A7FE28B101272020606507E0032705E0E6
:10196000A06818B92068C16880680090012084F8D8
:101970005100002084F8500038462CE770B5154619
:101980000E46040003D094F8490010B107E001208E
:1019900070BD002084F84800204600F01DF804F1D6
:1019A00008012068FEF74EFF3146A2682068FEF766
:1019B0007DFFD4E901022946236BFEF725FF21684C
:1019C000A06851F8202042F0010241F820200120B7
:1019D00084F84900002070BDFEF79CBF10B5401E82
:1019E000B0F1807F01D3012010BD4FF0E024606191
:1019F0000F21601701F0A2FD0020A06107202061E7
:101A0000002010BD70B590F83C20012A32D001248E
:101A100080F83C40022280F83D2003685A689D68A7
:101A200022F070060A6832435A60134B02689A42E9
:101A300014D0B2F1804F11D0104B9A420ED0104BFF
:101A40009A420BD00F4B9A4208D00F4B9A4205D0C6
:101A50000E4B9A4202D00E4B9A4204D1496825F0AF
:101A600080031943916080F83D40002180F83C10CC
:101A7000084670BD022070BD000001400004004017
:101A800000080040000C00400004014000400140FC
:101A90000018004010B5040003D094F83D0010B1C8
:101AA00007E0012010BD002084F83C00204600F033
:101AB0001FF8022084F83D00211D206800F0CCFEB4
:101AC000012084F8460084F83E0084F83F0084F842
:101AD000400084F8410084F8420084F8430084F810
:101AE000440084F8450084F83D00002010BD00004B
:101AF00008B500680649884208D10648016841F0E7
:101B000002010160006800F00200009008BD0000C2
:101B1000000400404038024070B5044690F83C0094
:101B20000025012817D0012684F83C60022084F8A3
:101B30003D002068826822F0770222F47F428260B2
:101B40000868502838D00DDC20284FD005DC90B331
:101B5000102811D14AE0022070BD302846D040281C
:101B60000AD13BE060282FD070280DD0B0F5805FFF
:101B700003D0B0F5005F12D0012584F83D6000204D
:101B800084F83C00284670BDCB68D1E9012120686B
:101B900000F0C6FE2068816841F0770109E0CB685B
:101BA000D1E90121206800F0BBFE2068816841F482
:101BB00080418160E1E719E0CA684968206800F067
:101BC00083FF5021206806E0CA684968206800F059
:101BD0008CFF6021206800F0ADFECEE7CA6849683E
:101BE000206800F071FF40212068F4E72268014678
:101BF0001046F0E770B5044690F83C000025012837
:101C00000FD0012084F83C006AB1042A0FD0082AC2
:101C100011D00C2A13D00125002084F83C0028465E
:101C200070BD022070BD206800F08CFEF4E72068D3
:101C300000F0B8FEF0E7206800F0EAFEECE720686C
:101C400000F01AFFE8E710B5040003D094F83D0057
:101C500010B107E0012010BD002084F83C002046B0
:101C600000F01EF8022084F83D00211D206800F0DD
:101C7000F3FD012084F8460084F83E0084F83F001C
:101C800084F8400084F8410084F8420084F843005E
:101C900084F8440084F8450084F83D00002010BD1D
:101CA000704770B5040004D094F83D00002510B1D1
:101CB00006E0012070BD84F83C50204600F022F878
:101CC000242084F83D002068C16821F40051C160DF
:101CD000204600F01DFF2068016921F49041016158
:101CE0002068416921F02A0141612068C16841F4FE
:101CF0000051C1602564202084F83D0084F83E0036
:101D0000002070BD10B586B0044614216846FEF769
:101D1000A1FA14492068884221D1134800210268A1
:101D200042F010020260006800F0100005900E48BA
:101D30001438026842F001020260006800F00100FD
:101D400005904FF4C06000900220CDE9010103200E
:101D500003900720049069460448FEF73DFE06B054
:101D600010BD000000100140443802400000024055
:101D70002DE9F843044690F83D001F4616460D46EF
:101D800020284CD1C5B1BEB194F83C00012846D002
:101D9000012084F83C004FF00008C4F84080212066
:101DA00084F83D00FEF71AFFA6848146E684A06809
:101DB000B0F5805F03D004E00120BDE8F88320691E
:101DC00028B12E465FF0000584F83C800EE0002626
:101DD000FAE78021204600F021FFA0B9AEB116F845
:101DE000010B21684860E08C401EE084E08C4B468B
:101DF0004FF0000200970028EBD14FF04001204641
:101E000000F00CFF30B10320D7E735F8020BC0F328
:101E10000800E6E7202084F83D000020CDE70220FE
:101E2000CBE72DE9F047074600680D4600EB411669
:101E3000D6F8080501EB4103420703EBC5014FF05B
:101E400006004FF004084FF0050A07EB810401D5A6
:101E500041463CE0D6F80815C90507D54FF4807017
:101E6000C6F80805072084F861001CE0D6F80815BC
:101E7000890603D52020C6F8080518E0D6F808150D
:101E80000A074FF0080104D5C6F8081584F861A0C8
:101E900009E0D6F80825520514D54FF48060C6F83D
:101EA000080584F861102946386801F013F9D6F85E
:101EB000080580050ED52946386801F00BF94FF466
:101EC0000070A0E0D6F808150906F0D58021C6F804
:101ED0000815C8E7D6F808054FF00001C0074FF015
:101EE00010094FF001023BD0386930B1A06CD6F830
:101EF0001035C3F31203C01A206584F86120E16530
:101F0000C6F8082594F83F0030B1022804D0032811
:101F100009D0012807D012E02946386801F0DAF824
:101F2000C6F808950BE0D6F8000540F00050C6F85A
:101F3000000584F8602029463846FEF760FE3869BF
:101F4000012806D1B4F84010A06CB0FBF1F0C00736
:101F500004D014F8540F80F001002070BDE8F08721
:101F6000D6F80805800735D594F8610002230128CA
:101F70000AD005280BD006280CD008280AD0032840
:101F80000FD0072818D01CE084F8602019E084F8EE
:101F900060A016E0E06D401CE065022801D9E16513
:101FA0000DE084F86030D6F8000520F0804040F065
:101FB0000040C6F8000504E0E06D401CE06584F8D0
:101FC0006080C6F8083594F8602029463846FEF748
:101FD00016FEC3E7D6F80805C006BFD594F83F0043
:101FE000032803D020B1022802D00BE0E16505E010
:101FF000E165386930B9032084F861002946386802
:1020000001F068F84846C6F80805A7E72DE9F0474B
:10201000026802EB4114D4F8082501EB410355078F
:1020200003EBC1034FF004024FF0060A00EB8303F9
:1020300004D5C4F8082583F861A051E0D4F8085508
:102040004FF00007AD064FF0020C0BD52022C4F86C
:10205000082593F83D20012A33D183F83D7083F899
:1020600060C03DE0D4F80855AD0504D54FF40072CA
:10207000C4F8082534E0D4F808554FF001065FEAAB
:10208000C5784FF040050DD0DF65D4F8082552061D
:1020900003D583F83D60C4F80855C4F8086583F893
:1020A00061601DE0D4F808855FEA48680BD583F8C5
:1020B000612083F83D60DF65006801F00BF8C4F82B
:1020C0000855BDE8F087D4F808554FF008095FEAD5
:1020D00005784FF0050508D5C4F8089583F86150D8
:1020E0000068BDE8F04700F0F5BFD4F808855FEA66
:1020F000C86810D50322DF6583F8612093F83D207E
:1021000022B993F83C200AB983F83D60006800F0DA
:10211000E1FF10201AE0D4F808855FEA086818D5B6
:10212000056955B1DD6D6D1CDD65022D0BD9DF65CF
:1021300083F86020FEF763FD07E083F861A0006884
:1021400000F0C8FF01E083F860C08020C4F80805F3
:10215000B7E7D4F808855FEA485807D583F8619057
:10216000006800F0B7FF4FF48060EFE7D4F808850F
:102170005FEA8878A5D593F86180B8F1010F0FD098
:10218000B8F1030F30D0B8F1040F2DD0B8F1050F1E
:102190002DD0B8F1060F2DD0B8F1080F2AD03CE0B1
:1021A00083F8606093F83F20022A01D0032A34D1DB
:1021B00002692AB993F8552082F0010283F855206C
:1021C0000269012A29D1DA6C3AB3B3F840502A44A3
:1021D000521EB2FBF5F2D2071FD093F8552082F0C1
:1021E000010283F8552018E083F860C015E083F8F9
:1021F000605012E0DD6D6D1CDD65022D03D9DF65D9
:1022000083F8602009E083F860C0D4F8002522F04C
:10221000804242F00042C4F80025C4F808C593F893
:102220006020FEF7ECFC4CE77CB504680546D4F86A
:1022300040040190D4F8400420F02E000090019852
:10224000800709D50198C00702D02846FEF7CCFCCC
:10225000009840F0020000900198000724D50098F3
:1022600040F008000090019840071AD5A86902289C
:1022700003D0E86801280CD00FE00198C0F341407A
:102280000228286803D0012100F0F2FF05E00221B6
:10229000FAE74EF66020C4F804042846FEF7CCFDA9
:1022A00002E02846FEF7C4FD01988006009802D59A
:1022B00040F020000090C4F840047CBD2DE9F041BE
:1022C000024600680646016AC1F3434301F00F0766
:1022D000C1F30A15022B31D1002D2FD007EB470196
:1022E00001EBC70102EB8104616C002926D0226D4D
:1022F000E36C2A449A4223D82A4600F0D8FF606C47
:1023000028446064206D2844206506EB4710D0F80F
:102310001015B4F84020C1F3C941AA420ED10029DA
:102320000CD0D0F8001521F0804141F00041C0F8F8
:10233000001514F8540F80F001002070BDE8F08102
:10234000042084F86000F9E7FEE7000000B587B0DC
:102350001C216846FDF77EFF15484FF020411022F2
:1023600001601449416000218160C160C0E904122C
:102370008161C16113020162C0E90913C162016395
:102380004163816341640F20FF230090CDE9010385
:10239000CDE903021120CDE9050100226946044878
:1023A000FFF7ECFA002801D0FEF718FA07B000BDDD
:1023B0005C010020040100A02DE9F04186B0142149
:1023C0006846FDF747FF42480024016841F01001CC
:1023D0000160016801F010010591016841F0800180
:1023E0000160016801F080010591016841F001017F
:1023F0000160016801F001010591016841F00401EB
:102400000160016801F004010591016841F00201D9
:102410000160016801F002010591016841F00801C5
:10242000016000682B4E00F0080005900022C021DA
:102430003046FEF7CEFBDFF8A080002202214046A6
:10244000FEF7C7FB0122170339464046FEF7C1FBE2
:102450001820CDE90004694620480294FEF7BCFA32
:102460000125CDE90054694630460294FEF7B4FADE
:10247000C0200090CDE90154694630460394FEF730
:10248000ABFA202000904FF40410CDE90105694615
:102490001348FEF7A1FA02260096CDE901546946D9
:1024A00040460394FEF798FACDE90075CDE902564F
:1024B00069464046FEF790FA002211461720FEF7C3
:1024C00053FD1720FEF742FD06B0BDE8F081000085
:1024D0003038024000000240000402400010024078
:1024E000000802400F4810B50D4901604FF4827199
:1024F000416000218160C1604FF400720161C0E958
:1025000005122022C0E90721416281620A21C162CD
:10251000FEF7FCFF002801D0FEF760F910BD0000B7
:10252000003800407800002010B58EB000240794D9
:10253000089409940A940B941C2168460C94FDF7A6
:1025400089FE18481649C0E900144FF6FF71C0E92A
:10255000024104618461FFF79DFAE8B94FF48050AD
:10256000079007A90F48FFF7D7FAA8B90D48FFF75A
:102570006AFB88B90B940BA90A480C94FFF742FA3E
:1025800050B90094019402940022694605480494CD
:10259000FFF730FB002801D0FEF720F90EB010BD88
:1025A00000040040D000002010B50122084909486D
:1025B00000F088FB08B1FEF711F9064800F035FC81
:1025C000002803D0BDE81040FEF708B910BD000098
:1025D000412E000810020020FEE7FEE70148FEF74A
:1025E0000FBB0000E80500207047000038B5002050
:1025F000FEF7B8F80120FEF7B5F8C820FEF778F925
:102600000020FEF7A1F80120FEF79EF8C820FEF793
:102610006FF90020FEF7A6F80120FEF7A3F8C82006
:10262000FEF766F90020FEF78FF80120FEF78CF820
:1026300001F00EFC01F000FD012001F04BFE4FF611
:10264000FF74204601F0B4FC0C4801F079FE1F2114
:10265000204601F06FFE1F2000210090142340F25D
:102660003F12084601F0BEFC0521022001F028FEC1
:10267000BDE8384002A001F0CDBD000044000020BC
:102680002053544D33324634205553422046532074
:1026900052544C2D53445220486F73740000000074
:1026A00038B504461248134B0068B0FBF3F04FF402
:1026B0007A73584300906068B0F5827F0DD10B4665
:1026C000009200228021204600F016F870B1606D63
:1026D00040F020006065032038BD009830B1401EF6
:1026E000009020688068C0430006F6D5002038BD01
:1026F0003800002000366E012DE9F8431E46914651
:1027000088460446089DFEF769FA401B351AFEF715
:1027100065FA074625480068C0F3CB30684338E0C7
:10272000701C37D0FEF75AFAC01BA84203D215B16D
:10273000009860B32CE02068416821F0E00141601E
:102740006068B0F5827F0BD1A068B0F5004F02D071
:10275000B0F5806F04D12068016821F0400101606C
:10276000A06AB0F5005F09D12068016821F400512A
:1027700001602068016841F400510160012084F883
:102780005100002084F850000320BDE8F8830025A4
:10279000401E00902068816838EA010004D00021C2
:1027A0004945BDD10020F0E70121F9E738000020BC
:1027B0007047FEF771BB000030B593B0302168461A
:1027C000FDF748FD14210CA8FDF744FD1C48002529
:1027D000016841F080510160006800F08050119064
:1027E0001848016841F4804101600068022400F447
:1027F0008040119001200090000401908001CDE9FB
:10280000064004200890A820CDE9090407200B9079
:102810006846FEF7C5FC70B90CA90F2081E83100AD
:102820004FF4A0500F90E002109005210CA8FEF785
:10283000CDFB002801D0FDF7D1FF13B030BD000063
:1028400040380240007000400248016841F47001C5
:102850000160704788ED00E0F0B50268254C264D18
:10286000264E274F274B4FF0804CA04209D06045A1
:1028700007D0A84205D0B04203D0B84201D0984258
:1028800004D122F0700E4A6842EA0E02A0421BD028
:10289000604519D0A84217D0B04215D0B84213D025
:1028A000984211D0184DA8420ED0184DA8420BD016
:1028B000174DA84208D0174DA84205D0164DA84282
:1028C00002D0164DA84203D122F44075CA682A43AB
:1028D0004D6922F080022A4302608A68C2620A6857
:1028E0008262A04201D0984201D1096901630121AD
:1028F0004161F0BD000001400004004000080040BC
:10290000000C004000040140004001400044014030
:102910000048014000180040001C0040002000401A
:1029200010B5846842EA032224F47F440A43224318
:10293000826010BD826822F070020A4342F00701F3
:1029400081607047F0B5026A22F001020262036AF8
:1029500042688469124E24F073050C682C4323F0FE
:1029600002058B682B430D4DA84201D0B04205D122
:1029700023F00807CB683B4323F00403A84201D0AF
:10298000B04205D14D6922F4407215438A692A4349
:1029900042608461496841630362F0BD0000014008
:1029A00000040140F0B5026A22F010020262026ADD
:1029B000436884690D6824F4E64444EA05248D687C
:1029C00022F0200242EA05120F4D104EA84201D01B
:1029D000B04206D1CF6822F0800242EA071222F00C
:1029E0004002A84201D0B04207D14D6923F44063B0
:1029F00043EA85038D6943EA85034360846149683E
:102A000081630262F0BD000000000140000401404B
:102A1000F0B5026A22F480720262026A4368C469F5
:102A200022F4007224F073050C68124E2C438D685A
:102A300042EA05220E4DA84201D0B04206D1CF682D
:102A400022F4006242EA072222F48062A84201D006
:102A5000B04207D14D6923F4405343EA05138D6911
:102A600043EA05134360C4614968C1630262F0BD73
:102A7000000001400004014030B5026A22F4805297
:102A80000262046A4268C3690D6823F4E64343EABC
:102A900005238D6824F4005444EA0534084DA84207
:102AA00002D0084DA84204D14D6922F4804242EA86
:102AB00085124260C36149680164046230BD000050
:102AC000000001400004014010B5036A046A24F0CC
:102AD00001040462846924F0F00444EA021423F03F
:102AE0000A020A438461026210BD10B5036A23F032
:102AF000100303628369046A23F4704343EA0232D9
:102B000024F0A00343EA01118261016210BD0000BC
:102B100070B5044600680169E26821F44051114330
:102B200001612169A068E2690843616911430843B2
:102B30002168CA6849F20C639A430243CA6020685C
:102B40004169A26921F44071114341613149206812
:102B5000884202D03049884202D1FEF7E1FA01E012
:102B6000FEF7CEFAE2690023192164253226B2F578
:102B7000004F626828D0A0FB0101930F9200FDF77F
:102B80001FFB0146B0FBF5F06FF01802504301EB5C
:102B9000800006EB0010B0FBF5F000F0F002B1FB96
:102BA000F5F002EB0012B1FBF5F06FF0180358439B
:102BB00001EB800006EB0010B0FBF5F000F00F0019
:102BC00021681044886070BDA0FB010192185B4130
:102BD000FDF7F6FA0146B0FBF5F00201B1FBF5F0A6
:102BE0006FF01803584301EB800006EBC000B0FB08
:102BF000F5F000F0F80002EB4002B1FBF5F05843AD
:102C000001EB800006EBC000B0FBF5F000F0070020
:102C1000D6E7000000100140001401402DE9F0410A
:102C2000984617460E460446069D27E0681C25D0A8
:102C30002DB1FDF7D3FFA0EB0800A8421ED92068F4
:102C40000C3050E8001F21F4D07140E80012002A37
:102C5000F5D12068143050E8001F21F0010140E850
:102C60000012002AF5D1202084F83D0084F83E00AF
:102C7000002084F83C000320BDE8F0812068006853
:102C800036EA000004D00020B842CFD00020F3E79D
:102C90000120F9E7102907D200EB8100B0F8841376
:102CA000C1F30E01C0F884130020704701004FF0FB
:102CB000000004D0012901D0022901D00220704770
:102CC0000120704770B50E46040018D084F8CC235C
:102CD0000025C4F87C53C4F8805304F54874FDF70C
:102CE00051FDE57025706570A570A4F548740EB1AE
:102CF000C4F8D463204600F053F8002070BD05A04E
:102D000000F0FAFB05A000F0F7FB09A000F0F4FBCF
:102D1000022070BD4552524F523A2000496E7661F2
:102D20006C696420486F73742068616E646C650020
:102D30000A000000012180F82013002180F82113EF
:102D400080F822130846704710B50446012084F825
:102D50002103002084F8200384F82303204600F098
:102D60005BF821792046FFF795FF61792046FFF750
:102D700091FF002010BD10B5C820FDF7B9FD00205F
:102D800010BDD0F8C413491CC0F8C41301780B2936
:102D900005D1D0F87C13002901D089690847704714
:102DA00010B5044690F8CC0301281CD10F484FF011
:102DB000A0410022C0F80043C4F8D00301600821FC
:102DC00081600121C0E903120221C0E90612FDF76A
:102DD000B4FF08B1FDF702FD0448FDF70DFF014601
:102DE000204600F00DF8002010BD0000E80500208E
:102DF000002180F823137047012180F823137047C6
:102E0000C0F8C413704710B5D0F8D003FEF71CF813
:102E1000BDE81040FFF74ABF10B5D0F8D003FEF769
:102E200029F8BDE81040FFF741BF10B50446FFF791
:102E3000EAFF01212046FFF79EFF002010BD0000A1
:102E400070B5124D0C462878814218D0072C18D244
:102E5000DFE804F01704060A0C0E10000CA000E0D6
:102E600013A000F049FB07E017A0FAE71DA0F8E760
:102E700022A0F6E727A0F4E72DA000F03DFB2C7080
:102E800070BD2CA000F038FBF6E700002000002009
:102E9000484F53545F555345525F53454C45435437
:102EA0005F434F4E46494755524154494F4E0000EB
:102EB000484F53545F555345525F434C4153535F02
:102EC0004143544956450000484F53545F555345BC
:102ED000525F434C4153535F53454C454354454423
:102EE00000000000484F53545F555345525F434F15
:102EF0004E4E454354494F4E00000000484F535436
:102F00005F555345525F444953434F4E4E454354DA
:102F1000494F4E00484F53545F555345525F554EED
:102F20005245434F56455245445F4552524F520019
:102F30000A000000556E6B6E6F776E205553424845
:102F400020557365722053746174653A20256400BE
:102F500070B5044606990A9E049D0D98012916D065
:102F6000E06840F04000E060204600F02BF8A16BE4
:102F70001EB321F48031A163012D07D1A16841F076
:102F80000601A160A16841F02001A16070BDA16BA4
:102F900021F48031A163E168094A1140E160E168F0
:102FA00021F44011E160012803D1E06840F4801071
:102FB000E060204600F006F8DEE741F48031DAE711
:102FC000BFFFBDFF08B500220D490092009B5B1CAE
:102FD00000938B420CD80369002BF7DA0092026948
:102FE00042F001020261009A521C00928A4201D909
:102FF000032008BD0269D207F5D1002008BD0000FA
:10300000400D0300816821F00101816000207047BC
:1030100008B5D0F8402422F02E020092D20405D444
:10302000012909D1009941F4805103E021B90099A7
:1030300021F48051C0F84014002008BD816841F09F
:10304000010181600020704708B500220C49009200
:10305000009B5B1C00938B420AD80369002BF7DAB4
:10306000009210220261009A521C00928A4201D9F9
:10307000032008BD0269D206F5D4002008BD000077
:10308000400D030018B500230D4A0093009C641CFA
:10309000009494420CD80469002CF7DA00932023A2
:1030A00043EA811101610099491C0091914201D9C3
:1030B000032018BD01698906F5D4002018BD000061
:1030C000400D0300D0F8080480B27047406900F05A
:1030D0000100704718B5002200EB41110092D1F8B1
:1030E0000025D1F80035C2F381428468DB0FA406C5
:1030F00000D51BB34FF47A736AB1022A0BD0D1F812
:10310000002542F08042C1F80025D0F8100410F4E8
:103110007F0F2BD00CE0D1F8002542F08042C1F89F
:1031200000258268920609D4C06A10F47F0F07D088
:10313000D1F8000540F00040C1F80005002018BD9E
:10314000D1F8000520F00040C1F80005D1F80005D5
:1031500040F00040C1F800050098401C00909842E3
:10316000ECD8D1F800050028F6DBE7E7D1F8000538
:1031700020F00040C1F80005D1F8000540F0004003
:10318000C1F800050098401C00909842D6D8D1F8AC
:1031900000050028F6DBD1E7D0F8140480B27047B0
:1031A0002DE9F0410025DDF81880174604462E462B
:1031B000C0F8005E806B40F40010A063A06B20F4A8
:1031C0000020A063A06B20F48020A063E06BC0050A
:1031D00001D5012B04D0D4F8000420F0040103E051
:1031E000D4F8000440F004012046C4F80014102173
:1031F000FFF748FF00B101252046FFF725FF00B18A
:1032000001250020411E06E004EB4012C2F808151B
:10321000C2F80C65401C8742F6D8A6616161E06B7C
:10322000C00506D54FF4007060620C48A0620C48DF
:1032300004E0802060620B48A0620B48C4F80001E3
:10324000B8F1000F03D1A06940F01000A061A0699F
:1032500006490843A0612846BDE8F081000200014C
:103260000003E00080006000E0004000080020A3B0
:10327000D0F8002422F00302C0F80024D0F8002483
:1032800001F003031A43C0F80024012902D00229E7
:1032900003D006E04BF6803101E041F27071C0F8D6
:1032A000041400207047416980690840704730B5B8
:1032B00003460846940802F00301002203F58053F8
:1032C00003E01D6840F8045B521CA242F9D30029B8
:1032D0000BD01C680022D50024FA05F3491E521CAD
:1032E000090400F8013B090CF5D130BD70B5044666
:1032F000C068002520F0C040E060012901D079B10C
:1033000020E0E06840F00050E0600120FDF7F0FAB6
:1033100060696D1C10F0010F10D1322DF5D30DE056
:10332000E06840F08040E0600120FDF7E1FA60696C
:103330006D1C10F0010F01D0322DF5D3322D01D0CC
:10334000002070BD012070BD38B5002504460095F1
:10335000806820F00100A06010212046FFF792FE57
:1033600000B101252046FFF76FFE00B101250020C6
:1033700004EB4011D1F8002522F0802242F0804277
:10338000C1F80025401C0F28F2D900204FF47A73B1
:1033900004EB4011D1F8002522F4004242F04042F3
:1033A000C1F80025009A521C00929A4203D8D1F825
:1033B0000025002AF6DB401C0F28E9D94FF0FF302A
:1033C000C4F814046061A06840F00100A0602846C1
:1033D00038BDFEE72DE9FE4F8A46834600224FF4B2
:1033E00080513C48FDF7F5FB00273C463E464FF038
:1033F00020083D4600F074F880B3761C4FF0FF398A
:10340000F6B24B46012234493448FEF713F93249EB
:10341000022301AA491C3148CDF80090FEF7BDF9FE
:103420002D494B460122491E2C48FEF703F92A4933
:10343000022302AA491C2948CDF80090FEF7ADF9F5
:10344000BDF8080040BA17FA80F7BDF8040040BA8A
:1034500014FA80F46D1CEDB24545CBD30122110363
:103460001C48FDF7B6FB102E02D20020BDE8FE8FEF
:10347000B7FBF8F040F2DC5147F61812884201D24F
:10348000084602E0904200D91046B4FBF8F140F63D
:10349000CC4247F29E53914201D2114602E099423A
:1034A00000D91946A0F2DC5000EB8000800147F201
:1034B0003C32B0FBF2F0ABF80000A1F6CC41C1EB1E
:1034C0000110000146F6D201B0FBF1F0AAF80000AD
:1034D0000120CBE700040240676300087800002069
:1034E00010B520210348FDF76FFB08B1002010BD87
:1034F000012010BD000802400FB4054B10B503A910
:10350000044A029800F0FCF810BC5DF814FB0000BF
:10351000393E00087400002037B514460846064BB3
:103520006A46214600F0ECF804466946002000F0A7
:103530007EFC20463EBD00002F3E00080907090E14
:10354000002804DB00F1E02080F80014704700F050
:103550000F0000F1E02080F8141D704702E008C859
:10356000121F08C1002AFAD170477047002001E0FD
:1035700001C1121F002AFBD1704700002DE9FF5F37
:1035800082B00021DDE90430020DDDF840B00343D4
:1035900018D044F61050A2F2FF324243151411988D
:1035A00001281FD0A5EB0B00401C5FEA000A4FF07A
:1035B00000064E4FDFF83891B046504615D5CAF197
:1035C000000413E0119801244AA3012801D16FEAF5
:1035D0000B010298119AC0E90031C0E9024206B01D
:1035E000BDE8F09FCBF10000DFE704460021404A30
:1035F000491842EB0450CDE9001012E0E00707D073
:1036000032463B4640464946FCF7D6FE8046894650
:1036100032463B4610461946FCF7CEFE06460F469C
:103620006410002CEAD1DDE90401DDE90023BAF1E0
:10363000000F06DAFCF7C0FE42464B46FCF7BCFE24
:1036400005E0FCF72BFF42464B46FCF727FF0446FC
:103650000E460022284BFDF74DF803D84FF0FF30FF
:10366000014607E00022254B20463146FCF7FDFDD0
:10367000FDF727F8102409E0002C0ADB0A220023BA
:10368000FCF79EFD039B30321A55641E50EA01027E
:10369000F2D1641C039AC4F111031444119A012A53
:1036A00003D0012208430DD10AE0084304D00020D2
:1036B0004FF0110B119072E7A3EB0B056D1E0DE09F
:1036C0005B4504DD4FF0000205F1010504E003DA7B
:1036D0004FF00002A5F10105002AECD002981199E3
:1036E000C0E90231C0E9004579E70000000014405C
:1036F0000000F03F300000000000F0430000E03F19
:103700002DE9FF4F95B09B468946064600250FE2FE
:10371000252877D100242746F84A0121059400E0A6
:10372000044316F8013F203B01FA03F01042F7D1A1
:1037300030782A2811D06FF02F033078A0F13002B2
:10374000092A16D8059A44F0020402EB820203EB20
:1037500042021044761C0590EFE759F8042B0592BD
:10376000002A03DA504244F40054059044F0020465
:10377000761C30782E2816D116F8010F44F0040478
:103780002A280DD06FF02F023078A0F13003092BDA
:1037900009D807EB870302EB4303C718761CF3E74E
:1037A00059F8047B761C30786C280FD006DC4C2846
:1037B00017D068280DD06A2814D104E0742810D0DE
:1037C0007A280FD10DE044F400140AE044F4801488
:1037D00001E044F440147278824202D104F580146E
:1037E000761C761C307866280BD013DC582877D0EE
:1037F00009DC002875D04528F6D04628F4D04728A3
:103800001AD19DE118E0632835D0642879D0652865
:1038100012D195E1702873D008DC6728F1D06928AF
:103820006FD06E280DD06F2806D1B5E073282CD04C
:10383000752875D0782874D05A46179990476D1C12
:1038400075E1C4F30250022809D003280DD0D9F83D
:10385000001004280DD00D6009F1040967E1D9F8C2
:103860000010EA17C1E90052F6E7D9F800100D8000
:10387000F2E70D70F0E719F8041B8DF80010002036
:103880008DF80100EA46012003E059F804AB4FF03F
:10389000FF3061074FF0000102D40DE008F1010193
:1038A0008846B9420FDA8045F8DB1AF8081000297B
:1038B000F4D108E008F1010188468142FADB1AF8E8
:1038C00008100029F6D105985B46A0EB08072146B1
:1038D0003846179A00F094FA284400EB080507E0F0
:1038E0004DE029E10DE01AF8010B5A46179990476F
:1038F000B8F10108F7D25B4621463846179A13E122
:1039000042E00A220092C4F302524FF0000A022A57
:1039100008D059F804CB032A4FEAEC710AD00DE025
:1039200029E02AE009F1070121F00702F2E802C1CB
:10393000914609E00FFA8CFC4FEAEC71042A03D19E
:103940004FFA8CFC4FEAEC71002907DA0A46002195
:10395000DCF1000C61EB02012D2202E0220504D50E
:103960002B228DF80420012203E0E20701D020225F
:10397000F7E7904659E00A2102E010220DE01021FD
:103980004FF0000A00910BE010224FF0000A44F0C3
:1039900004040827009203E008224FF0000A009276
:1039A000C4F30252022A05D059F804CB0021032A9D
:1039B00008D009E009F1070121F00702F2E802C18D
:1039C000914605E01FFA8CFC042A01D10CF0FF0C93
:1039D0004FF00008220728D5702806D0009B83F0FE
:1039E000100353EA0A0305D00EE040228DF80420AC
:1039F000012208E05CEA010206D030228DF80420A2
:103A00008DF8050002229046009B83F0080353EADC
:103A10000A030AD15CEA010201D1620705D530220E
:103A20008DF804204FF001087F1E582804D034A0E0
:103A300003900EA802900DE036A0F9E753466046C9
:103A4000009AFCF7BDFB84460398825C0298401EF6
:103A5000029002705CEA0100F0D1029806A9081AEF
:103A600000F1200A600702D524F4803400E0012729
:103A7000574502DDA7EB0A0000E0002000EB0A0139
:103A8000009005984144401A0590E00306D45B4637
:103A90002146179A059800F0B3F90544002706E07F
:103AA00001A85A46C05D179990476D1C7F1C474579
:103AB000F6DBE0030CD55B462146179A059800F02B
:103AC0009FF9054404E030205A46179990476D1C31
:103AD0000099481E00900029F5DC08E00298029940
:103AE0005A460078491C0291179990476D1CBAF10B
:103AF0000001AAF1010AF1DC65E1000009280100DA
:103B00003031323334353637383961626364656653
:103B10000000000030313233343536373839414215
:103B2000434445460000000000F058F90544761C67
:103B3000307800287FF4ECAD19B02846BDE8F08F4E
:103B4000620700D4062709F1070222F0070CFCE8FF
:103B50000223E14603F000485FEA080C02D00FF2AE
:103B6000702C0DE05FEA045C02D50FF2682C07E0D0
:103B70005FEAC47C02D00FF2602C01E0AFF2700C5F
:103B80004FF0FF3823F00043CDF850C065280CD02B
:103B900006DC452809D046281DD047283DD13DE008
:103BA000662818D067287ED138E00021112F01DB6C
:103BB000112000E0781CCDE9000106A90EA8FFF74E
:103BC000DDFCDDE90F010E9A03910021009207F15F
:103BD000010A04914DE04FF000400097CDE901103B
:103BE00006A90EA8FFF7CAFCDDE90F0203920E9B9F
:103BF00011990022DDF80CA00093049211B9791CF0
:103C000000EB010AB7EB0A0004D4C0F1FF3007F162
:103C1000010A0490AAEB0700019044E0012F00DAAA
:103C200001270021112F01DD112000E03846CDE9E8
:103C3000000106A90EA8FFF7A1FCDDE90F010E9A0D
:103C40000391002104910092BA4621070CD40399F4
:103C5000514500DA8A46BAF1010F05DD009AAAF152
:103C60000101515C302908D0B84202DA10F1040F8A
:103C700006DA0121CDE9011015E0AAF10101E9E719
:103C8000002805DC049901440491AAEB000102E03C
:103C9000411C514500DD8A460499401A401C0190A0
:103CA0004FF000400290200704D40198504501DBFA
:103CB000CDF8048000208DF84F0002980DF14F07D9
:103CC000B0F1004F25D02B200E9002984FF0020843
:103CD00000280CDA404202902D200E9007E00A21C5
:103CE0000298FCF74AFC3031029007F8011DB8F148
:103CF0000001A8F10108F2DC02980028EFD1791E3A
:103D00000E980870307800F0200040F0450007F869
:103D1000020D12A8C01B00F107081498007800B12A
:103D2000012000EB0A01019801EBE0710598414484
:103D3000401A401E0590E00306D45B462146179AC0
:103D4000059800F05DF805441498007818B15A46BB
:103D5000179990476D1CE00324D55B462146179ABE
:103D6000059800F04DF805441CE00498002807DB96
:103D7000DDE90301884203DD0098405C179901E00A
:103D8000179930205A469047049805F10105401CC8
:103D900004900198401E019004D12E205A46179994
:103DA00090476D1CBAF10001AAF1010ADDDC05E0C3
:103DB00017F8010B5A46179990476D1CB8F100018E
:103DC000A8F10108F4DC5B462146179A0598ABE69A
:103DD0002D0000002B000000200000002DE9F04124
:103DE000044600251E461746880404D405E03946DB
:103DF0002020B0476D1C641EF9D52846BDE8F0812F
:103E00002DE9F041044600251E469046C80301D521
:103E1000302700E02027880404D505E041463846D5
:103E2000B0476D1C641EF9D52846BDE8F0810A68CC
:103E3000531C0B601070704713B54FF6FF730122CF
:103E400069460248FDF794FF00981CBD1801002048
:103E5000012202210148FCF7BCBE00000004024020
:103E600070B50446DDE90456002006B104200DB10A
:103E700040F008000BB140F010000AB140F0200003
:103E800009B140F04000002C01D040F0800070BD2E
:103E90002DE9FF4F83462E488A4602885A4555DD54
:103EA0004188514552DD00F108018868838813EB91
:103EB0000B0F4BD4C08810EB0A0F47D44FF000080B
:103EC000C0F3C70944463BE0002633E020480830F1
:103ED0008068C28801680298203800FB024202FB19
:103EE00009100025375C380609D50AEB040081B2B9
:103EF0000BEB050202EB080080B2039A0CE0039979
:103F00000D9888420AD00AEB040081B20BEB05023F
:103F100002EB080080B20D9A00F03EF878066D1CA6
:103F2000070EEDB2082DDED308F10800761C00F074
:103F3000FF08F6B24E45C9D3641C4FF00008E4B246
:103F4000034808308168C988A142BDD8BDE8FF8F09
:103F50005C00002070B51E46044613460D46A14283
:103F600001D20C4685B20A480188481EA94200D8F1
:103F700085B2A14200D884B22A461946204600F0F4
:103F8000E5F9044801E00680641CAC42FBDD70BD2D
:103F90005C0000200000086010B514460B46024685
:103FA00000F0D4F90148048010BD00000000086052
:103FB00030B50A4D044600216888401E83B2288827
:103FC000401E82B2084600F0C1F92888698848433B
:103FD000034900E00C80401EFCD230BD5C00002094
:103FE000000008602DE9F04105461248DDF8188010
:103FF0000488AC421CDD4088884219DDAE18761E6C
:10400000A64201DB621B12B2CC18641E844201DBA3
:10401000401A03B2AE180C46CF1807E0A2B2B1B2F4
:10402000A8B24346FFF796FF641C24B2A742F5DA14
:10403000BDE8F0815C0000202DE9FC41002501264F
:10404000CDE900652B462A4631462846FFF708FF92
:104050006E4F002301223870CDE9006519461846DD
:10406000FFF7FEFE78700023CDE900651A46194679
:104070000120FFF7F5FEB8700122CDE900650023AD
:1040800011461046FFF7ECFE4FF0C044F870268052
:104090003220FCF72DFC28202080CF2020805C4897
:1040A00005808321018030210180ED212180642160
:1040B0000180032101801221018081210180E821FA
:1040C000218085210180068079210180CB212180FA
:1040D000392101802C2101800580342101800221B9
:1040E0000180F721218020210180EA2121800580A3
:1040F0000580C021218026210180C121218011213C
:104100000180C5212180352101803E210180C72108
:104110002180BE21018036212180397801803A2119
:10412000218055210180B121218005801B21018042
:10413000F221218008210180262121800680E021B2
:1041400021801F2101801A210180182101800A216C
:1041500001800F21018006210180452101808721F6
:104160000180322101800A21018007210180022182
:10417000018007210180052101800580E121218046
:104180000580252101802721018005210180102142
:104190000180092101803A210180782101804D218F
:1041A000018005210180182101800D210180382125
:1041B00001803A2101801F2101802A212180058070
:1041C00005800580EF2101802B212180058005805D
:1041D00006803F210180B721218007210180B6217F
:1041E00021800A2101808221018027210180058010
:1041F000112020806420FCF77BFB29202080642094
:10420000FCF776FB2C202080BDE8FC8154000020C8
:10421000000008600FB428482DE9F84309AA08995E
:10422000FFF77AF9DFF894800026A8F10807224DFD
:104230003C1F2BE00A2A30D00D2A21D0092A32D087
:10424000B8F8040080B20090B8F80000B4F9021089
:1042500083B2B4F90000FFF71BFED8F808102288DB
:104260008888024492B2228098F80C3043B13B888F
:10427000181A904204DA6088C98808446080268051
:10428000608879886D1C884200D366802A78002A6D
:10429000D0D1BDE8F8035DF814FBD8F808006188B8
:1042A000C0880844EAE7D8F808002188808801EB34
:1042B00080002080E4E70000EC080020640000207B
:1042C000034A0B4610805180024600F03FB80000C0
:1042D00058000020154930B43622130708711A809F
:1042E000134BA1F10802F0244FF4A07530B101285E
:1042F0000BD0022804D003280DD108E0107800E08C
:10430000907818800C804D8005E0507800E0D078DF
:1043100018800D804C804888401E83B2088830BCCD
:10432000401E82B20021084600F010B85C00002058
:1043300000000860014AC2E90001704764000020E3
:1043400001498860704700006400002070B54FF09C
:10435000C0452A242C800B4C060A2680C0B220803F
:10436000100A2080D0B220802B202880080A2080CC
:10437000C8B22080180A2080D8B220802C20288043
:1043800070BD000000000860FCF78EFDFEF714FA17
:10439000FEF712F815481449002401604FF4E1318A
:1043A000C0E901140C21C460C0E904418461C46106
:1043B000FDF777FC08B1FCF711FAFEF7F5F8FDF709
:1043C000C5FFFEF78FF8FEF7AFF809A0FFF794F8E6
:1043D000FEF70CF90AA0FFF78FF80E4801780029C4
:1043E000FCD00470FAE70000001001401801002022
:1043F00053746172742073797374656D0D0A0000D3
:1044000053746172742073797374656D20454E44E2
:104410000D0A000000000020400080000100100094
:10442000080000000000000000000102030406076D
:104430000809000000000102030400000000000061
:10444000000000000000001010101010000010000C
:104450000000006C4848000000000000000000144C
:1044600014287C287C285050000000103840403828
:10447000487010100000002050200C700814080034
:1044800000000000001820205448340000000010F4
:1044900010101000000000000000000808101010AC
:1044A000101010080800002020101010101010200C
:1044B000200000107C1028280000000000000000F0
:1044C000101010FE1010100000000000000000008E
:1044D00000181030200000000000007C00000000E8
:1044E0000000000000000000003030000000000468
:1044F00004080810102020400000003844444444C0
:1045000044443800000000301010101010107C00DF
:10451000000000384404081020447C0000000038EB
:1045200044041804044438000000000C141424440B
:104530007E040E000000003C2020380404443800B3
:104540000000001C20407844444438000000007CF7
:10455000440408080810100000000038444438449F
:1045600044443800000000384444443C04087000CF
:10457000000000000030300000303000000000007B
:104580000018180000183020000000000C10608097
:1045900060100C000000000000007C007C000000A7
:1045A00000000000C02018041820C0000000000017
:1045B000182404081000300000003844444C5454BF
:1045C0004C40443800000030102828287C44EE007D
:1045D000000000F8444478444444F8000000003CE3
:1045E0004440404040443800000000F04844444407
:1045F0004448F000000000FC445070504044FC006F
:104600000000007E22283828202070000000003C96
:104610004440404E44443800000000EE44447C4492
:104620004444EE000000007C1010101010107C00BC
:104630000000003C0808084848483000000000EE30
:10464000444850704844E6000000007020202020BC
:1046500024247C00000000EE6C6C54544444EE00B2
:10466000000000EE64645454544CEC000000003828
:10467000444444444444380000000078242424384E
:104680002020700000000038444444444444381C56
:10469000000000F8444444784844E200000000343C
:1046A0004C40380404645800000000FE92101010C2
:1046B00010103800000000EE4444444444443800E4
:1046C000000000EE4444282828101000000000EEEE
:1046D0004444545454542800000000C64428101088
:1046E0002844C600000000EE4428281010103800AE
:1046F0000000007C4408101020447C0000000038BA
:1047000020202020202020203800004020202010C1
:1047100010080808000000380808080808080808F9
:1047200038000010102844000000000000000000C5
:10473000000000000000000000FE00100800000063
:1047400000000000000000000038443C44443E00EB
:10475000000000C0405864444444F80000000000D9
:10476000003C4440404438000000000C04344C44F9
:1047700044443E00000000000038447C40403C00BF
:104780000000001C207C202020207C000000000075
:1047900000364C4444443C04380000C04058644453
:1047A0004444EE00000000100070101010107C0057
:1047B000000000100078080808080808700000C011
:1047C000405C48705048DC000000003010101010B1
:1047D00010107C000000000000E854545454FE0007
:1047E0000000000000D864444444EE0000000000D3
:1047F00000384444444438000000000000D86444B9
:1048000044447840E000000000364C4444443C04FA
:104810000E000000006C302020207C000000000012
:10482000003C44380444780000000000207C202034
:1048300020221C000000000000CC4444444C360000
:104840000000000000EE4444282810000000000092
:1048500000EE4454545428000000000000CC4830BE
:104860003048CC000000000000EE4424281810104E
:1048700078000000007C481020447C000000000804
:104880001010101020101010080000101010101040
:104890001010101000000020101010100810101040
:1048A000200000000000002458000000000000006C
:1048B00000000000000000000000000000000000F8
:1048C00000000000000000000000000000000000E8
:1048D0000C000C000C000C000C000C000C000C0078
:1048E00000000C00000000000000000000000000BC
:1048F00000001DC01DC00880088008800000000066
:1049000000000000000000000000000000000000A7
:104910000D800D800D800D803FC01B003FC01B002F
:104920001B001B001B000000000000000000040032
:104930001F803180318038001E000F0003803180DD
:1049400031803F000400040000000000000000006F
:1049500018002400240018C007801E003180024087
:104960000240018000000000000000000000000084
:1049700000000F001800180018000C001D80370000
:1049800033001D8000000000000000000000000057
:104990000000070007000200020002000000000003
:1049A0000000000000000000000000000000000007
:1049B0000300030006000E000C000C000C000C00AD
:1049C0000E000600030003000000000000000000CD
:1049D000180018000C00060006000600060006007D
:1049E00006000C001C001800000000000000000081
:1049F000060006003FC03FC00F001F801980000066
:104A000000000000000000000000000000000000A6
:104A1000000000000400040004003F8004000400C3
:104A20000400000000000000000000000000000082
:104A30000000000000000000000000000000000076
:104A4000060004000C000800080000000000000040
:104A5000000000000000000000003F800000000097
:104A60000000000000000000000000000000000046
:104A70000000000000000000000000000000000036
:104A80000C000C000000000000000000000000C04E
:104A900000C0018001800300030006000C000C0030
:104AA0001800180030003000000000000000000076
:104AB0000E001B00318031803180318031803180A7
:104AC0001B000E00000000000000000000000000BD
:104AD00006003E000600060006000600060006006E
:104AE00006003FC0000000000000000000000000C1
:104AF0000F00198031803180030006000C0018007F
:104B000030003F80000000000000000000000000B6
:104B10003F006180018003001F000380018001804D
:104B200061803F0000000000000000000000000065
:104B3000070007000F000B001B00130033003F802D
:104B400003000F80000000000000000000000000D3
:104B50001F801800180018001F00118001800180BC
:104B600021801F0000000000000000000000000085
:104B700007801C00180030003700398031803180F8
:104B800019800F000000000000000000000000007D
:104B90007F004300030006000600060006000C002C
:104BA0000C000C00000000000000000000000000ED
:104BB0001F003180318031801F0031803180318091
:104BC00031801F0000000000000000000000000015
:104BD0001E0033003180318033801D80018003004E
:104BE00007003C0000000000000000000000000082
:104BF0000000000000000C000C000000000000009D
:104C00000C000C000000000000000000000000008C
:104C1000000000000000030003000000000000008E
:104C2000060004000800080000000000000000006A
:104C3000000000C003000400180060001800040019
:104C4000030000C0000000000000000000000000A1
:104C500000000000000000007FC000007FC00000D6
:104C60000000000000000000000000000000000044
:104C70000000600018000400030000C003000400EE
:104C800018006000000000000000000000000000AC
:104C900000001F0031803180018007000C000C00F3
:104CA00000000C00000000000000000000000000F8
:104CB0000E001100210021002700290029002700F3
:104CC000200011000E0000000000000000000000A5
:104CD00000003F000F000900198019801F8030C0BC
:104CE00030C079E00000000000000000000000007B
:104CF00000007F003180318031803F003180318081
:104D000031807F0000000000000000000000000073
:104D100000001F4030C060406000600060006040E4
:104D200030801F00000000000000000000000000B4
:104D300000007F00318030C030C030C030C030C093
:104D400031807F0000000000000000000000000033
:104D500000007F803080308032003E0032003080A2
:104D600030807F8000000000000000000000000094
:104D700000007FC03040304032003E003200300042
:104D800030007C0000000000000000000000000077
:104D900000001E80318060806000600067C061801C
:104DA00031801F0000000000000000000000000033
:104DB00000007BC03180318031803F803180318084
:104DC00031807BC0000000000000000000000000F7
:104DD00000003FC0060006000600060006000600B0
:104DE00006003FC0000000000000000000000000BE
:104DF00000001FC003000300030003006300630002
:104E000063003E0000000000000000000000000001
:104E100000007BC03180330036003C003E00330090
:104E2000318079C000000000000000000000000098
:104E300000007E00180018001800180018401840E4
:104E400018407FC0000000000000000000000000CB
:104E50000000E0E060C071C07BC06AC06EC064C08A
:104E600060C0FBE000000000000000000000000047
:104E7000000073C0318039803D80358037803380B9
:104E80003180798000000000000000000000000078
:104E900000001F00318060C060C060C060C060C0A2
:104EA00031801F0000000000000000000000000032
:104EB00000007F0031803180318031803F00300040
:104EC00030007E0000000000000000000000000034
:104ED00000001F00318060C060C060C060C060C062
:104EE00031801F000CC01F80000000000000000087
:104EF00000007F003180318031803E0033003180FE
:104F000031807CE000000000000000000000000094
:104F100000001F803180318038001F000380318005
:104F200031803F0000000000000000000000000091
:104F300000007F804C804C804C800C000C000C00EA
:104F40000C003F0000000000000000000000000016
:104F500000007BC0318031803180318031803180F0
:104F600031801F0000000000000000000000000071
:104F700000007BC0318031801B001B001B000A0039
:104F80000E000E0000000000000000000000000005
:104F90000000FBE060C064C06EC06EC02A803B8031
:104FA0003B80318000000000000000000000000095
:104FB00000007BC031801B000E000E000E001B00A5
:104FC00031807BC0000000000000000000000000F5
:104FD000000079E030C019800F00060006000600CE
:104FE00006001F800000000000000000000000001C
:104FF00000003F8021802300060004000C00188080
:1050000030803F8000000000000000000000000031
:1050100007800600060006000600060006000600DF
:1050200006000600060007800000000000003000B7
:105030003000180018000C000C00060003000300EC
:105040000180018000C000C00000000000000000DE
:105050001E00060006000600060006000600060008
:105060000600060006001E0000000000000004000C
:105070000A000A00110020802080000000000000CB
:105080000000000000000000000000000000000020
:105090000000000000000000000000000000000010
:1050A000000000000000000000000000FFE0080019
:1050B00004000200000000000000000000000000EA
:1050C00000000000000000000000000000000000E0
:1050D0000000000000001F00018001801F8031805F
:1050E00033801DC000000000000000000000000030
:1050F0007000300030003700398030C030C030C020
:10510000398077000000000000000000000000006F
:105110000000000000001E80318060806000608020
:1051200031801F00000000000000000000000000AF
:105130000380018001801D803380618061806180F7
:1051400033801DC0000000000000000000000000CF
:105150000000000000001F00318060C07FC06000C0
:1051600030C01F80000000000000000000000000B0
:1051700007E00C000C003F800C000C000C000C0041
:105180000C003F8000000000000000000000000054
:105190000000000000001DC03380618061806180DC
:1051A00033801D80018001801F000000000000008E
:1051B000700030003000370039803180318031801C
:1051C00031807BC0000000000000000000000000F3
:1051D0000600060000001E0006000600060006008D
:1051E00006003FC0000000000000000000000000BA
:1051F0000600060000003F00030003000300030058
:1052000003000300030003003E0000000000000054
:10521000700030003000378036003C003C00360023
:10522000330077C000000000000000000000000014
:105230001E00060006000600060006000600060026
:1052400006003FC000000000000000000000000059
:105250000000000000007F8036C036C036C036C077
:1052600036C076E0000000000000000000000000F2
:1052700000000000000077003980318031803180EB
:1052800031807BC000000000000000000000000032
:105290000000000000001F00318060C060C060C0DE
:1052A00031801F000000000000000000000000002E
:1052B0000000000000007700398030C030C030C0EE
:1052C00039803700300030007C0000000000000012
:1052D0000000000000001DC033806180618061809B
:1052E00033801D800180018007C0000000000000A5
:1052F0000000000000007B801CC01800180018008F
:1053000018007F0000000000000000000000000006
:105310000000000000001F8031803C001F0003805F
:1053200031803F000000000000000000000000008D
:105330001800180018007F00180018001800180046
:1053400018800F00000000000000000000000000B6
:105350000000000000007380318031803180318096
:1053600033801DC0000000000000000000000000AD
:105370000000000000007BC0318031801B001B005A
:105380000E000E0000000000000000000000000001
:10539000000000000000F1E060C064C06EC03B800F
:1053A0003B80318000000000000000000000000091
:1053B0000000000000007BC01B000E000E000E006D
:1053C0001B007BC000000000000000000000000087
:1053D00000000000000079E030C0198019800B0047
:1053E0000F00060006000C003E0000000000000058
:1053F0000000000000003F80218003000E00180024
:1054000030803F800000000000000000000000002D
:1054100006000C000C000C000C000C0018000C0026
:105420000C000C000C000600000000000000000052
:10543000060006000600060006000600060006003C
:105440000600060006000600000000000000000044
:105450000C00060006000600060006000300060019
:105460000600060006000C0000000000000000001E
:10547000000000000000000018002480030000006D
:10548000000000000000000000000000000000001C
:10549000000000000000000000000000000000000C
:1054A00000000000000000000000000000000000FC
:1054B00000000000000000000700070007000700D0
:1054C00007000700070002000200000000000700BC
:1054D00007000000000000000000000000000000C5
:1054E00000001CE01CE01CE00840084008400000F0
:1054F00000000000000000000000000000000000AC
:105500000000000000000CC00CC00CC00CC00CC09F
:105510003FF03FF00CC00CC03FF03FF00CC00CC09F
:105520000CC00CC00CC00000000000000000030014
:10553000030007E00FE0186018001F000FC000E034
:10554000186018601FC01F800300030003000000E4
:1055500000000000000000001C00220022002200C9
:105560001C6001E00F803C0031C0022002200220BC
:1055700001C000000000000000000000000000006A
:105580000000000003E00FE00C000C0006000F30EC
:105590001FF019E018C01FF007B000000000000065
:1055A0000000000000000000000003800380038072
:1055B00001000100010000000000000000000000E8
:1055C00000000000000000000000000000000000DB
:1055D00000C000C0018001800180030003000300BF
:1055E00003000300030001800180018000C000C0AF
:1055F00000000000000000000C000C000600060087
:10560000060003000300030003000300030006007C
:10561000060006000C000C00000000000000000066
:105620000300030003001B601FE0078007800FC01A
:105630000CC000000000000000000000000000009E
:105640000000000000000000000000000300030054
:10565000030003003FF03FF00300030003000300DA
:10566000000000000000000000000000000000003A
:10567000000000000000000000000000000000002A
:105680000000000003800300030006000600040081
:10569000000000000000000000000000000000000A
:1056A000000000003FE03FE00000000000000000BC
:1056B00000000000000000000000000000000000EA
:1056C00000000000000000000000000000000000DA
:1056D0000000000003800380038000000000000041
:1056E0000000000000000060006000C000C000C0BA
:1056F0000180018003000300060006000C000C007E
:105700000C0018001800000000000000000000005D
:105710000F801FC018C03060306030603060306073
:105720003060306018C01FC00F8000000000000013
:10573000000000000000000003001F001F00030025
:1057400003000300030003000300030003001FE045
:105750001FE000000000000000000000000000004A
:105760000F801FC038E03060006000C0018003007F
:1057700006000C0018003FE03FE0000000000000C1
:1057800000000000000000000F803FC030E000601B
:1057900000E007C007C000E00060006060E07FC07C
:1057A0003F8000000000000000000000000000003A
:1057B00001C003C003C006C00CC00CC018C030C07C
:1057C0003FE03FE000C003E003E000000000000015
:1057D00000000000000000001FC01FC018001800DB
:1057E0001F801FC018E000600060006030E03FC014
:1057F0001F8000000000000000000000000000000A
:1058000003E00FE01E001800380037803FC038E08A
:105810003060306018E01FC007800000000000000A
:1058200000000000000000003FE03FE0306000604A
:1058300000C000C000C0018001800180030003009F
:105840000300000000000000000000000000000055
:105850000F801FC038E0306038E01FC01FC038E044
:105860003060306038E01FC00F8000000000000092
:1058700000000000000000000F001FC038C03060B2
:10588000306038E01FE00F6000E000C003C03F80E0
:105890003E000000000000000000000000000000CA
:1058A000000000000000000003800380038000006F
:1058B000000000000380038003800000000000005F
:1058C00000000000000000000000000000000000D8
:1058D00001C001C001C000000000000003800300FF
:1058E00006000600040000000000000000000000A8
:1058F00000000000003000F003C007001C0078002A
:105900001C00070003C000F0003000000000000091
:105910000000000000000000000000000000000087
:105920007FF07FF0000000007FF07FF000000000BB
:105930000000000000000000000000000000000067
:105940000000000030003C000F00038000E0007801
:1059500000E003800F003C00300000000000000069
:10596000000000000000000000000F801FC0186051
:105970001860006001C00380030000000000070001
:105980000700000000000000000000000000000010
:1059900003800C8008401040104011C0124012409B
:1059A000124011C0100008000840078000000000ED
:1059B000000000000000000000001F801F80038026
:1059C00006C006C00CC00C601FE01FE030307878C5
:1059D00078780000000000000000000000000000D7
:1059E00000003F803FC01860186018E01FC01FE033
:1059F0001870183018303FF03FE000000000000041
:105A00000000000000000000000007B00FF01C7054
:105A10003830300030003000300038301C700FE07B
:105A200007C00000000000000000000000000000AF
:105A300000007F807FC030E0307030303030303058
:105A40003030307030E07FC07F8000000000000008
:105A5000000000000000000000003FF03FF01830A0
:105A6000183019801F801F801980183018303FF0BF
:105A70003FF00000000000000000000000000000F7
:105A800000003FF03FF01830183019801F801F8051
:105A90001980180018003F003F00000000000000BF
:105AA0000000000000000000000007B01FF01870A8
:105AB00030303000300031F831F8303018301FF01D
:105AC00007C000000000000000000000000000000F
:105AD00000003CF03CF01860186018601FE01FE008
